{
  "_format": "hh-sol-artifact-1",
  "contractName": "DoppelgangerWithExec",
  "sourceName": "contracts/test/DoppelgangerWithExec.sol",
  "abi": [
    {
      "stateMutability": "payable",
      "type": "fallback"
    },
    {
      "inputs": [
        {
          "internalType": "address",
          "name": "target",
          "type": "address"
        },
        {
          "internalType": "bytes",
          "name": "data",
          "type": "bytes"
        }
      ],
      "name": "__waffle__call",
      "outputs": [
        {
          "internalType": "bytes",
          "name": "",
          "type": "bytes"
        }
      ],
      "stateMutability": "nonpayable",
      "type": "function"
    },
    {
      "inputs": [
        {
          "internalType": "bytes",
          "name": "data",
          "type": "bytes"
        },
        {
          "internalType": "bytes",
          "name": "value",
          "type": "bytes"
        }
      ],
      "name": "__waffle__mockReturns",
      "outputs": [],
      "stateMutability": "nonpayable",
      "type": "function"
    },
    {
      "inputs": [
        {
          "internalType": "bytes",
          "name": "data",
          "type": "bytes"
        }
      ],
      "name": "__waffle__mockReverts",
      "outputs": [],
      "stateMutability": "nonpayable",
      "type": "function"
    },
    {
      "inputs": [
        {
          "internalType": "address",
          "name": "target",
          "type": "address"
        },
        {
          "internalType": "bytes",
          "name": "data",
          "type": "bytes"
        }
      ],
      "name": "__waffle__staticcall",
      "outputs": [
        {
          "internalType": "bytes",
          "name": "",
          "type": "bytes"
        }
      ],
      "stateMutability": "view",
      "type": "function"
    }
  ],
  "bytecode": "0x608060405234801561001057600080fd5b50610bea806100206000396000f3fe6080604052600436106100435760003560e01c8063ad92410d14610125578063d802251914610284578063df3770131461034c578063e8fcd32c1461046b57610044565b5b600061004e61058a565b9050600115158160000160019054906101000a900460ff161515141561007c576100766106d4565b50610123565b610121816001018054600181600116156101000203166002900480601f0160208091040260200160405190810160405280929190818152602001828054600181600116156101000203166002900480156101175780601f106100ec57610100808354040283529160200191610117565b820191906000526020600020905b8154815290600101906020018083116100fa57829003601f168201915b5050505050610742565b505b005b34801561013157600080fd5b506102826004803603604081101561014857600080fd5b810190808035906020019064010000000081111561016557600080fd5b82018360208201111561017757600080fd5b8035906020019184600183028401116401000000008311171561019957600080fd5b91908080601f016020809104026020016040519081016040528093929190818152602001838380828437600081840152601f19601f820116905080830192505050505050509192919290803590602001906401000000008111156101fc57600080fd5b82018360208201111561020e57600080fd5b8035906020019184600183028401116401000000008311171561023057600080fd5b91908080601f016020809104026020016040519081016040528093929190818152602001838380828437600081840152601f19601f82011690508083019250505050505050919291929050505061074a565b005b34801561029057600080fd5b5061034a600480360360208110156102a757600080fd5b81019080803590602001906401000000008111156102c457600080fd5b8201836020820111156102d657600080fd5b803590602001918460018302840111640100000000831117156102f857600080fd5b91908080601f016020809104026020016040519081016040528093929190818152602001838380828437600081840152601f19601f8201169050808301925050505050505091929192905050506107e8565b005b34801561035857600080fd5b506103f06004803603604081101561036f57600080fd5b81019080803573ffffffffffffffffffffffffffffffffffffffff169060200190929190803590602001906401000000008111156103ac57600080fd5b8201836020820111156103be57600080fd5b803590602001918460018302840111640100000000831117156103e057600080fd5b9091929391929390505050610894565b6040518080602001828103825283818151815260200191508051906020019080838360005b83811015610430578082015181840152602081019050610415565b50505050905090810190601f16801561045d5780820380516001836020036101000a031916815260200191505b509250505060405180910390f35b34801561047757600080fd5b5061050f6004803603604081101561048e57600080fd5b81019080803573ffffffffffffffffffffffffffffffffffffffff169060200190929190803590602001906401000000008111156104cb57600080fd5b8201836020820111156104dd57600080fd5b803590602001918460018302840111640100000000831117156104ff57600080fd5b90919293919293905050506109c2565b6040518080602001828103825283818151815260200191508051906020019080838360005b8381101561054f578082015181840152602081019050610534565b50505050905090810190601f16801561057c5780820380516001836020036101000a031916815260200191505b509250505060405180910390f35b60008060008036604051808383808284378083019250505092505050604051809103902081526020019081526020016000209050600115158160000160009054906101000a900460ff16151514156105e1576106d1565b60008080357fffffffff000000000000000000000000000000000000000000000000000000001660405160200180827bffffffffffffffffffffffffffffffffffffffffffffffffffffffff191681526004019150506040516020818303038152906040528051906020012081526020019081526020016000209050600115158160000160009054906101000a900460ff1615151415610680576106d1565b6040517f08c379a0000000000000000000000000000000000000000000000000000000008152600401808060200182810382526025815260200180610b906025913960400191505060405180910390fd5b90565b6040517f08c379a000000000000000000000000000000000000000000000000000000000815260040180806020018281038252600b8152602001807f4d6f636b2072657665727400000000000000000000000000000000000000000081525060200191505060405180910390fd5b805160208201f35b6040518060600160405280600115158152602001600015158152602001828152506000808480519060200120815260200190815260200160002060008201518160000160006101000a81548160ff02191690831515021790555060208201518160000160016101000a81548160ff02191690831515021790555060408201518160010190805190602001906107e0929190610af2565b509050505050565b6040518060600160405280600115158152602001600115158152602001604051806020016040528060008152508152506000808380519060200120815260200190815260200160002060008201518160000160006101000a81548160ff02191690831515021790555060208201518160000160016101000a81548160ff021916908315150217905550604082015181600101908051906020019061088d929190610af2565b5090505050565b6060600060608573ffffffffffffffffffffffffffffffffffffffff168585604051808383808284378083019250505092505050600060405180830381855afa9150503d8060008114610903576040519150601f19603f3d011682016040523d82523d6000602084013e610908565b606091505b50915091508181906109b5576040517f08c379a00000000000000000000000000000000000000000000000000000000081526004018080602001828103825283818151815260200191508051906020019080838360005b8381101561097a57808201518184015260208101905061095f565b50505050905090810190601f1680156109a75780820380516001836020036101000a031916815260200191505b509250505060405180910390fd5b5080925050509392505050565b6060600060608573ffffffffffffffffffffffffffffffffffffffff1685856040518083838082843780830192505050925050506000604051808303816000865af19150503d8060008114610a33576040519150601f19603f3d011682016040523d82523d6000602084013e610a38565b606091505b5091509150818190610ae5576040517f08c379a00000000000000000000000000000000000000000000000000000000081526004018080602001828103825283818151815260200191508051906020019080838360005b83811015610aaa578082015181840152602081019050610a8f565b50505050905090810190601f168015610ad75780820380516001836020036101000a031916815260200191505b509250505060405180910390fd5b5080925050509392505050565b828054600181600116156101000203166002900490600052602060002090601f016020900481019282601f10610b3357805160ff1916838001178555610b61565b82800160010185558215610b61579182015b82811115610b60578251825591602001919060010190610b45565b5b509050610b6e9190610b72565b5090565b5b80821115610b8b576000816000905550600101610b73565b509056fe4d6f636b206f6e20746865206d6574686f64206973206e6f7420696e697469616c697a6564a2646970667358221220d58e557549bbc58fd0ca6e253c76b8b7d5bbac7313a7a6d069bb1a8e160863bc64736f6c63430007000033",
  "linkReferences": {},
  "deployedLinkReferences": {}
}