{
  "_format": "hh-sol-artifact-1",
  "contractName": "PodFactory",
  "sourceName": "contracts/PodFactory.sol",
  "abi": [
    {
      "inputs": [
        {
          "internalType": "contract TokenDropFactory",
          "name": "_tokenDropFactory",
          "type": "address"
        }
      ],
      "stateMutability": "nonpayable",
      "type": "constructor"
    },
    {
      "anonymous": false,
      "inputs": [
        {
          "indexed": false,
          "internalType": "address",
          "name": "pod",
          "type": "address"
        },
        {
          "indexed": false,
          "internalType": "address",
          "name": "tokenDrop",
          "type": "address"
        }
      ],
      "name": "LogCreatedPodAndTokenDrop",
      "type": "event"
    },
    {
      "anonymous": false,
      "inputs": [
        {
          "indexed": false,
          "internalType": "address",
          "name": "proxy",
          "type": "address"
        }
      ],
      "name": "ProxyCreated",
      "type": "event"
    },
    {
      "inputs": [
        {
          "internalType": "address",
          "name": "_prizePoolTarget",
          "type": "address"
        },
        {
          "internalType": "address",
          "name": "_ticket",
          "type": "address"
        },
        {
          "internalType": "address",
          "name": "_faucet",
          "type": "address"
        },
        {
          "internalType": "address",
          "name": "_manager",
          "type": "address"
        },
        {
          "internalType": "uint8",
          "name": "_decimals",
          "type": "uint8"
        }
      ],
      "name": "create",
      "outputs": [
        {
          "internalType": "address",
          "name": "",
          "type": "address"
        },
        {
          "internalType": "address",
          "name": "",
          "type": "address"
        }
      ],
      "stateMutability": "nonpayable",
      "type": "function"
    },
    {
      "inputs": [
        {
          "internalType": "address",
          "name": "_logic",
          "type": "address"
        },
        {
          "internalType": "bytes",
          "name": "_data",
          "type": "bytes"
        }
      ],
      "name": "deployMinimal",
      "outputs": [
        {
          "internalType": "address",
          "name": "proxy",
          "type": "address"
        }
      ],
      "stateMutability": "nonpayable",
      "type": "function"
    },
    {
      "inputs": [],
      "name": "podInstance",
      "outputs": [
        {
          "internalType": "contract Pod",
          "name": "",
          "type": "address"
        }
      ],
      "stateMutability": "view",
      "type": "function"
    },
    {
      "inputs": [],
      "name": "tokenDropFactory",
      "outputs": [
        {
          "internalType": "contract TokenDropFactory",
          "name": "",
          "type": "address"
        }
      ],
      "stateMutability": "view",
      "type": "function"
    },
    {
      "inputs": [],
      "name": "tokenDropInstance",
      "outputs": [
        {
          "internalType": "contract TokenDrop",
          "name": "",
          "type": "address"
        }
      ],
      "stateMutability": "view",
      "type": "function"
    }
  ],
  "bytecode": "0x608060405234801561001057600080fd5b50604051616c77380380616c778339818101604052602081101561003357600080fd5b8101908080519060200190929190505050604051610050906100f3565b604051809103906000f08015801561006c573d6000803e3d6000fd5b50600160006101000a81548173ffffffffffffffffffffffffffffffffffffffff021916908373ffffffffffffffffffffffffffffffffffffffff160217905550806000806101000a81548173ffffffffffffffffffffffffffffffffffffffff021916908373ffffffffffffffffffffffffffffffffffffffff16021790555050610100565b61610480610b7383390190565b610a648061010f6000396000f3fe608060405234801561001057600080fd5b50600436106100575760003560e01c8063116a39431461005c57806348c7eff51461015457806350efa2bf14610188578063b3eeb5e2146101bc578063b8432a29146102c1575b600080fd5b61010b600480360360a081101561007257600080fd5b81019080803573ffffffffffffffffffffffffffffffffffffffff169060200190929190803573ffffffffffffffffffffffffffffffffffffffff169060200190929190803573ffffffffffffffffffffffffffffffffffffffff169060200190929190803573ffffffffffffffffffffffffffffffffffffffff169060200190929190803560ff1690602001909291905050506102f5565b604051808373ffffffffffffffffffffffffffffffffffffffff1681526020018273ffffffffffffffffffffffffffffffffffffffff1681526020019250505060405180910390f35b61015c610726565b604051808273ffffffffffffffffffffffffffffffffffffffff16815260200191505060405180910390f35b61019061074c565b604051808273ffffffffffffffffffffffffffffffffffffffff16815260200191505060405180910390f35b610295600480360360408110156101d257600080fd5b81019080803573ffffffffffffffffffffffffffffffffffffffff1690602001909291908035906020019064010000000081111561020f57600080fd5b82018360208201111561022157600080fd5b8035906020019184600183028401116401000000008311171561024357600080fd5b91908080601f016020809104026020016040519081016040528093929190818152602001838380828437600081840152601f19601f820116905080830192505050505050509192919290505050610770565b604051808273ffffffffffffffffffffffffffffffffffffffff16815260200191505060405180910390f35b6102c96109e4565b604051808273ffffffffffffffffffffffffffffffffffffffff16815260200191505060405180910390f35b6000806000610335600160009054906101000a900473ffffffffffffffffffffffffffffffffffffffff1660405180602001604052806000815250610770565b90508073ffffffffffffffffffffffffffffffffffffffff16628c267689898989896040518663ffffffff1660e01b8152600401808673ffffffffffffffffffffffffffffffffffffffff1681526020018573ffffffffffffffffffffffffffffffffffffffff1681526020018473ffffffffffffffffffffffffffffffffffffffff1681526020018373ffffffffffffffffffffffffffffffffffffffff1681526020018260ff16815260200195505050505050600060405180830381600087803b15801561040457600080fd5b505af1158015610418573d6000803e3d6000fd5b5050505060008060009054906101000a900473ffffffffffffffffffffffffffffffffffffffff1673ffffffffffffffffffffffffffffffffffffffff16633e68680a838473ffffffffffffffffffffffffffffffffffffffff1663228cb7336040518163ffffffff1660e01b815260040160206040518083038186803b1580156104a257600080fd5b505afa1580156104b6573d6000803e3d6000fd5b505050506040513d60208110156104cc57600080fd5b81019080805190602001909291905050506040518363ffffffff1660e01b8152600401808373ffffffffffffffffffffffffffffffffffffffff1681526020018273ffffffffffffffffffffffffffffffffffffffff16815260200192505050602060405180830381600087803b15801561054657600080fd5b505af115801561055a573d6000803e3d6000fd5b505050506040513d602081101561057057600080fd5b810190808051906020019092919050505090508173ffffffffffffffffffffffffffffffffffffffff16631621a589826040518263ffffffff1660e01b8152600401808273ffffffffffffffffffffffffffffffffffffffff168152602001915050602060405180830381600087803b1580156105ec57600080fd5b505af1158015610600573d6000803e3d6000fd5b505050506040513d602081101561061657600080fd5b8101908080519060200190929190505050508173ffffffffffffffffffffffffffffffffffffffff1663f2fde38b336040518263ffffffff1660e01b8152600401808273ffffffffffffffffffffffffffffffffffffffff168152602001915050600060405180830381600087803b15801561069157600080fd5b505af11580156106a5573d6000803e3d6000fd5b505050507f3c46040a888d584b68fd2711f7497191a5465a2200e3b3271e8b988037f720c58282604051808373ffffffffffffffffffffffffffffffffffffffff1681526020018273ffffffffffffffffffffffffffffffffffffffff1681526020019250505060405180910390a181819350935050509550959350505050565b600260009054906101000a900473ffffffffffffffffffffffffffffffffffffffff1681565b60008054906101000a900473ffffffffffffffffffffffffffffffffffffffff1681565b6000808360601b90506040517f3d602d80600a3d3981f3363d3d373d3d3d363d7300000000000000000000000081528160148201527f5af43d82803e903d91602b57fd5bf3000000000000000000000000000000000060288201526037816000f0925050600073ffffffffffffffffffffffffffffffffffffffff168273ffffffffffffffffffffffffffffffffffffffff161415610877576040517f08c379a000000000000000000000000000000000000000000000000000000000815260040180806020018281038252601c8152602001807f50726f7879466163746f72793a696e76616c69642d616464726573730000000081525060200191505060405180910390fd5b7efffc2da0b561cae30d9826d37709e9421c4725faebc226cbbb7ef5fc5e734982604051808273ffffffffffffffffffffffffffffffffffffffff16815260200191505060405180910390a16000835111156109dd5760008273ffffffffffffffffffffffffffffffffffffffff16846040518082805190602001908083835b6020831061091a57805182526020820191506020810190506020830392506108f7565b6001836020036101000a0380198251168184511680821785525050505050509050019150506000604051808303816000865af19150503d806000811461097c576040519150601f19603f3d011682016040523d82523d6000602084013e610981565b606091505b50509050806109db576040517f08c379a0000000000000000000000000000000000000000000000000000000008152600401808060200182810382526024815260200180610a0b6024913960400191505060405180910390fd5b505b5092915050565b600160009054906101000a900473ffffffffffffffffffffffffffffffffffffffff168156fe50726f7879466163746f72792f636f6e7374727563746f722d63616c6c2d6661696c6564a2646970667358221220215f5960649fbcda8056f2c460dbad4ca6d9b6e8d2407342a48be6274ebbf11e64736f6c63430007000033608060405234801561001057600080fd5b5060016097819055506160db80620000296000396000f3fe608060405234801561001057600080fd5b50600436106102525760003560e01c806370a0823111610146578063b69ef8a8116100c3578063efc02d7e11610087578063efc02d7e14610c95578063f2fde38b14610cb3578063f3e414f814610cf7578063f751cd8f14610d5b578063fc0c546a14610d8f578063ffaad6a514610dc357610252565b8063b69ef8a814610b0d578063ccf9273814610b2b578063d8b31c7714610b8f578063dd62ed3e14610be9578063de5f72fd14610c6157610252565b806395d89b411161010a57806395d89b41146109405780639f9e729e146109c3578063a1db9782146109e1578063a457c2d714610a45578063a9059cbb14610aa957610252565b806370a082311461081e578063715018a614610876578063719ce73e146108805780638da5cb5b146108b45780638f8da428146108e857610252565b8063313ce567116101d457806352b7aa9d1161019857806352b7aa9d146107125780635bcf55f81461073057806365deaa671461078a5780636ac4660a146107cc5780636cc25db7146107ea57610252565b8063313ce567146105ef57806339509351146106105780633d68175c14610674578063441a3e7014610692578063481c6a75146106de57610252565b806318160ddd1161021b57806318160ddd1461048d5780631e83409a146104ab578063228cb7331461050357806323b872dd146105375780632888a7ba146105bb57610252565b80628c26761461025757806306fdde0314610308578063095ea7b31461038b5780630eaa75fe146103ef5780631621a58914610433575b600080fd5b610306600480360360a081101561026d57600080fd5b81019080803573ffffffffffffffffffffffffffffffffffffffff169060200190929190803573ffffffffffffffffffffffffffffffffffffffff169060200190929190803573ffffffffffffffffffffffffffffffffffffffff169060200190929190803573ffffffffffffffffffffffffffffffffffffffff169060200190929190803560ff169060200190929190505050610e25565b005b610310611934565b6040518080602001828103825283818151815260200191508051906020019080838360005b83811015610350578082015181840152602081019050610335565b50505050905090810190601f16801561037d5780820380516001836020036101000a031916815260200191505b509250505060405180910390f35b6103d7600480360360408110156103a157600080fd5b81019080803573ffffffffffffffffffffffffffffffffffffffff169060200190929190803590602001909291905050506119d6565b60405180821515815260200191505060405180910390f35b61041b6004803603602081101561040557600080fd5b81019080803590602001909291905050506119f4565b60405180821515815260200191505060405180910390f35b6104756004803603602081101561044957600080fd5b81019080803573ffffffffffffffffffffffffffffffffffffffff169060200190929190505050611caf565b60405180821515815260200191505060405180910390f35b610495612081565b6040518082815260200191505060405180910390f35b6104ed600480360360208110156104c157600080fd5b81019080803573ffffffffffffffffffffffffffffffffffffffff16906020019092919050505061208b565b6040518082815260200191505060405180910390f35b61050b612279565b604051808273ffffffffffffffffffffffffffffffffffffffff16815260200191505060405180910390f35b6105a36004803603606081101561054d57600080fd5b81019080803573ffffffffffffffffffffffffffffffffffffffff169060200190929190803573ffffffffffffffffffffffffffffffffffffffff1690602001909291908035906020019092919050505061229f565b60405180821515815260200191505060405180910390f35b6105c3612378565b604051808273ffffffffffffffffffffffffffffffffffffffff16815260200191505060405180910390f35b6105f76123a2565b604051808260ff16815260200191505060405180910390f35b61065c6004803603604081101561062657600080fd5b81019080803573ffffffffffffffffffffffffffffffffffffffff169060200190929190803590602001909291905050506123b9565b60405180821515815260200191505060405180910390f35b61067c61246c565b6040518082815260200191505060405180910390f35b6106c8600480360360408110156106a857600080fd5b8101908080359060200190929190803590602001909291905050506124c7565b6040518082815260200191505060405180910390f35b6106e6612692565b604051808273ffffffffffffffffffffffffffffffffffffffff16815260200191505060405180910390f35b61071a6126b8565b6040518082815260200191505060405180910390f35b6107726004803603602081101561074657600080fd5b81019080803573ffffffffffffffffffffffffffffffffffffffff169060200190929190505050612783565b60405180821515815260200191505060405180910390f35b6107b6600480360360208110156107a057600080fd5b810190808035906020019092919050505061299d565b6040518082815260200191505060405180910390f35b6107d4612af4565b6040518082815260200191505060405180910390f35b6107f2612bbf565b604051808273ffffffffffffffffffffffffffffffffffffffff16815260200191505060405180910390f35b6108606004803603602081101561083457600080fd5b81019080803573ffffffffffffffffffffffffffffffffffffffff169060200190929190505050612be5565b6040518082815260200191505060405180910390f35b61087e612c2e565b005b610888612d9e565b604051808273ffffffffffffffffffffffffffffffffffffffff16815260200191505060405180910390f35b6108bc612dc8565b604051808273ffffffffffffffffffffffffffffffffffffffff16815260200191505060405180910390f35b61092a600480360360208110156108fe57600080fd5b81019080803573ffffffffffffffffffffffffffffffffffffffff169060200190929190505050612df2565b6040518082815260200191505060405180910390f35b610948612e50565b6040518080602001828103825283818151815260200191508051906020019080838360005b8381101561098857808201518184015260208101905061096d565b50505050905090810190601f1680156109b55780820380516001836020036101000a031916815260200191505b509250505060405180910390f35b6109cb612ef2565b6040518082815260200191505060405180910390f35b610a2d600480360360408110156109f757600080fd5b81019080803573ffffffffffffffffffffffffffffffffffffffff169060200190929190803590602001909291905050506131ce565b60405180821515815260200191505060405180910390f35b610a9160048036036040811015610a5b57600080fd5b81019080803573ffffffffffffffffffffffffffffffffffffffff1690602001909291908035906020019092919050505061349c565b60405180821515815260200191505060405180910390f35b610af560048036036040811015610abf57600080fd5b81019080803573ffffffffffffffffffffffffffffffffffffffff16906020019092919080359060200190929190505050613569565b60405180821515815260200191505060405180910390f35b610b15613587565b6040518082815260200191505060405180910390f35b610b8d60048036036040811015610b4157600080fd5b81019080803573ffffffffffffffffffffffffffffffffffffffff169060200190929190803573ffffffffffffffffffffffffffffffffffffffff1690602001909291905050506135af565b005b610bd160048036036020811015610ba557600080fd5b81019080803573ffffffffffffffffffffffffffffffffffffffff16906020019092919050505061368e565b60405180821515815260200191505060405180910390f35b610c4b60048036036040811015610bff57600080fd5b81019080803573ffffffffffffffffffffffffffffffffffffffff169060200190929190803573ffffffffffffffffffffffffffffffffffffffff1690602001909291905050506139e0565b6040518082815260200191505060405180910390f35b610c69613a67565b604051808273ffffffffffffffffffffffffffffffffffffffff16815260200191505060405180910390f35b610c9d613a8d565b6040518082815260200191505060405180910390f35b610cf560048036036020811015610cc957600080fd5b81019080803573ffffffffffffffffffffffffffffffffffffffff169060200190929190505050613b58565b005b610d4360048036036040811015610d0d57600080fd5b81019080803573ffffffffffffffffffffffffffffffffffffffff16906020019092919080359060200190929190505050613d4d565b60405180821515815260200191505060405180910390f35b610d63613f1f565b604051808273ffffffffffffffffffffffffffffffffffffffff16815260200191505060405180910390f35b610d97613f45565b604051808273ffffffffffffffffffffffffffffffffffffffff16815260200191505060405180910390f35b610e0f60048036036040811015610dd957600080fd5b81019080803573ffffffffffffffffffffffffffffffffffffffff16906020019092919080359060200190929190505050613f6b565b6040518082815260200191505060405180910390f35b600060019054906101000a900460ff1680610e445750610e436142b6565b5b80610e5a575060008054906101000a900460ff16155b610eaf576040517f08c379a000000000000000000000000000000000000000000000000000000000815260040180806020018281038252602e815260200180615f40602e913960400191505060405180910390fd5b60008060019054906101000a900460ff161590508015610eff576001600060016101000a81548160ff02191690831515021790555060016000806101000a81548160ff0219169083151502179055505b85609e60006101000a81548173ffffffffffffffffffffffffffffffffffffffff021916908373ffffffffffffffffffffffffffffffffffffffff16021790555061142e609e60009054906101000a900473ffffffffffffffffffffffffffffffffffffffff1673ffffffffffffffffffffffffffffffffffffffff1663fc0c546a6040518163ffffffff1660e01b815260040160206040518083038186803b158015610fab57600080fd5b505afa158015610fbf573d6000803e3d6000fd5b505050506040513d6020811015610fd557600080fd5b810190808051906020019092919050505073ffffffffffffffffffffffffffffffffffffffff166306fdde036040518163ffffffff1660e01b815260040160006040518083038186803b15801561102b57600080fd5b505afa15801561103f573d6000803e3d6000fd5b505050506040513d6000823e3d601f19601f82011682018060405250602081101561106957600080fd5b810190808051604051939291908464010000000082111561108957600080fd5b8382019150602082018581111561109f57600080fd5b82518660018202830111640100000000821117156110bc57600080fd5b8083526020830192505050908051906020019080838360005b838110156110f05780820151818401526020810190506110d5565b50505050905090810190601f16801561111d5780820380516001836020036101000a031916815260200191505b5060405250505060405160200180807f506f64200000000000000000000000000000000000000000000000000000000081525060040182805190602001908083835b60208310611182578051825260208201915060208101905060208303925061115f565b6001836020036101000a038019825116818451168082178552505050505050905001915050604051602081830303815290604052609e60009054906101000a900473ffffffffffffffffffffffffffffffffffffffff1673ffffffffffffffffffffffffffffffffffffffff1663fc0c546a6040518163ffffffff1660e01b815260040160206040518083038186803b15801561121e57600080fd5b505afa158015611232573d6000803e3d6000fd5b505050506040513d602081101561124857600080fd5b810190808051906020019092919050505073ffffffffffffffffffffffffffffffffffffffff166395d89b416040518163ffffffff1660e01b815260040160006040518083038186803b15801561129e57600080fd5b505afa1580156112b2573d6000803e3d6000fd5b505050506040513d6000823e3d601f19601f8201168201806040525060208110156112dc57600080fd5b81019080805160405193929190846401000000008211156112fc57600080fd5b8382019150602082018581111561131257600080fd5b825186600182028301116401000000008211171561132f57600080fd5b8083526020830192505050908051906020019080838360005b83811015611363578082015181840152602081019050611348565b50505050905090810190601f1680156113905780820380516001836020036101000a031916815260200191505b5060405250505060405160200180807f700000000000000000000000000000000000000000000000000000000000000081525060010182805190602001908083835b602083106113f557805182526020820191506020810190506020830392506113d2565b6001836020036101000a0380198251168184511680821785525050505050509050019150506040516020818303038152906040526142c7565b611436614411565b61143f826145b8565b6060609e60009054906101000a900473ffffffffffffffffffffffffffffffffffffffff1673ffffffffffffffffffffffffffffffffffffffff16639d63848a6040518163ffffffff1660e01b815260040160006040518083038186803b1580156114a957600080fd5b505afa1580156114bd573d6000803e3d6000fd5b505050506040513d6000823e3d601f19601f8201168201806040525060208110156114e757600080fd5b810190808051604051939291908464010000000082111561150757600080fd5b8382019150602082018581111561151d57600080fd5b825186602082028301116401000000008211171561153a57600080fd5b8083526020830192505050908051906020019060200280838360005b83811015611571578082015181840152602081019050611556565b5050505090500160405250505090508060008151811061158d57fe5b602002602001015173ffffffffffffffffffffffffffffffffffffffff168673ffffffffffffffffffffffffffffffffffffffff16148061160d5750806001815181106115d657fe5b602002602001015173ffffffffffffffffffffffffffffffffffffffff168673ffffffffffffffffffffffffffffffffffffffff16145b61167f576040517f08c379a000000000000000000000000000000000000000000000000000000000815260040180806020018281038252601d8152602001807f506f643a696e697469616c697a652d696e76616c69642d7469636b657400000081525060200191505060405180910390fd5b84609b60006101000a81548173ffffffffffffffffffffffffffffffffffffffff021916908373ffffffffffffffffffffffffffffffffffffffff16021790555083609d60006101000a81548173ffffffffffffffffffffffffffffffffffffffff021916908373ffffffffffffffffffffffffffffffffffffffff160217905550609e60009054906101000a900473ffffffffffffffffffffffffffffffffffffffff1673ffffffffffffffffffffffffffffffffffffffff1663fc0c546a6040518163ffffffff1660e01b815260040160206040518083038186803b15801561176957600080fd5b505afa15801561177d573d6000803e3d6000fd5b505050506040513d602081101561179357600080fd5b8101908080519060200190929190505050609860006101000a81548173ffffffffffffffffffffffffffffffffffffffff021916908373ffffffffffffffffffffffffffffffffffffffff16021790555085609960006101000a81548173ffffffffffffffffffffffffffffffffffffffff021916908373ffffffffffffffffffffffffffffffffffffffff160217905550609b60009054906101000a900473ffffffffffffffffffffffffffffffffffffffff1673ffffffffffffffffffffffffffffffffffffffff166338d52e0f6040518163ffffffff1660e01b8152600401602060405180830381600087803b15801561188f57600080fd5b505af11580156118a3573d6000803e3d6000fd5b505050506040513d60208110156118b957600080fd5b8101908080519060200190929190505050609a60006101000a81548173ffffffffffffffffffffffffffffffffffffffff021916908373ffffffffffffffffffffffffffffffffffffffff16021790555050801561192c5760008060016101000a81548160ff0219169083151502179055505b505050505050565b606060368054600181600116156101000203166002900480601f0160208091040260200160405190810160405280929190818152602001828054600181600116156101000203166002900480156119cc5780601f106119a1576101008083540402835291602001916119cc565b820191906000526020600020905b8154815290600101906020018083116119af57829003601f168201915b5050505050905090565b60006119ea6119e36145d6565b84846145de565b6001905092915050565b6000806119ff613a8d565b905060008111611a77576040517f08c379a00000000000000000000000000000000000000000000000000000000081526004018080602001828103825260168152602001807f506f643a7a65726f2d666c6f61742d62616c616e63650000000000000000000081525060200191505060405180910390fd5b80831115611aed576040517f08c379a000000000000000000000000000000000000000000000000000000000815260040180806020018281038252601e8152602001807f506f643a696e73756666696369656e742d666c6f61742d62616c616e6365000081525060200191505060405180910390fd5b611af5612ef2565b50611b65609e60009054906101000a900473ffffffffffffffffffffffffffffffffffffffff1684609860009054906101000a900473ffffffffffffffffffffffffffffffffffffffff1673ffffffffffffffffffffffffffffffffffffffff166147d59092919063ffffffff16565b609e60009054906101000a900473ffffffffffffffffffffffffffffffffffffffff1673ffffffffffffffffffffffffffffffffffffffff1663e323f8253085609960009054906101000a900473ffffffffffffffffffffffffffffffffffffffff16306040518563ffffffff1660e01b8152600401808573ffffffffffffffffffffffffffffffffffffffff1681526020018481526020018373ffffffffffffffffffffffffffffffffffffffff1681526020018273ffffffffffffffffffffffffffffffffffffffff168152602001945050505050600060405180830381600087803b158015611c5657600080fd5b505af1158015611c6a573d6000803e3d6000fd5b505050507f932212eb2a39cea1fbe3a0301a7d3fc82ee1a47fed4f5759b955e3209f0d5f56816040518082815260200191505060405180910390a16001915050919050565b6000611cb96145d6565b73ffffffffffffffffffffffffffffffffffffffff16611cd7612dc8565b73ffffffffffffffffffffffffffffffffffffffff1614611d60576040517f08c379a00000000000000000000000000000000000000000000000000000000081526004018080602001828103825260208152602001807f4f776e61626c653a2063616c6c6572206973206e6f7420746865206f776e657281525060200191505060405180910390fd5b600073ffffffffffffffffffffffffffffffffffffffff168273ffffffffffffffffffffffffffffffffffffffff161415611e03576040517f08c379a00000000000000000000000000000000000000000000000000000000081526004018080602001828103825260198152602001807f506f643a696e76616c69642d64726f702d636f6e74726163740000000000000081525060200191505060405180910390fd5b81609c60006101000a81548173ffffffffffffffffffffffffffffffffffffffff021916908373ffffffffffffffffffffffffffffffffffffffff160217905550609b60009054906101000a900473ffffffffffffffffffffffffffffffffffffffff1673ffffffffffffffffffffffffffffffffffffffff166338d52e0f6040518163ffffffff1660e01b8152600401602060405180830381600087803b158015611eae57600080fd5b505af1158015611ec2573d6000803e3d6000fd5b505050506040513d6020811015611ed857600080fd5b810190808051906020019092919050505073ffffffffffffffffffffffffffffffffffffffff16609c60009054906101000a900473ffffffffffffffffffffffffffffffffffffffff1673ffffffffffffffffffffffffffffffffffffffff166338d52e0f6040518163ffffffff1660e01b815260040160206040518083038186803b158015611f6757600080fd5b505afa158015611f7b573d6000803e3d6000fd5b505050506040513d6020811015611f9157600080fd5b810190808051906020019092919050505073ffffffffffffffffffffffffffffffffffffffff161461202b576040517f08c379a00000000000000000000000000000000000000000000000000000000081526004018080602001828103825260168152602001807f506f643a696e76616c69642d64726f702d746f6b656e0000000000000000000081525060200191505060405180910390fd5b7f7a48cfaaa18629467c1c1a03e9ca7914885d91200eb368e11069f932cf61eb6b82604051808273ffffffffffffffffffffffffffffffffffffffff16815260200191505060405180910390a160019050919050565b6000603554905090565b60008073ffffffffffffffffffffffffffffffffffffffff16609c60009054906101000a900473ffffffffffffffffffffffffffffffffffffffff1673ffffffffffffffffffffffffffffffffffffffff161415612151576040517f08c379a00000000000000000000000000000000000000000000000000000000081526004018080602001828103825260108152602001807f506f643a64726f702d6e6f742d7365740000000000000000000000000000000081525060200191505060405180910390fd5b6000609c60009054906101000a900473ffffffffffffffffffffffffffffffffffffffff1673ffffffffffffffffffffffffffffffffffffffff16631e83409a846040518263ffffffff1660e01b8152600401808273ffffffffffffffffffffffffffffffffffffffff168152602001915050602060405180830381600087803b1580156121de57600080fd5b505af11580156121f2573d6000803e3d6000fd5b505050506040513d602081101561220857600080fd5b810190808051906020019092919050505090507fd8138f8a3f377c5259ca548e70e4c2de94f129f5a11036a15b69513cba2b426a8382604051808373ffffffffffffffffffffffffffffffffffffffff1681526020018281526020019250505060405180910390a180915050919050565b609a60009054906101000a900473ffffffffffffffffffffffffffffffffffffffff1681565b60006122ac84848461499a565b61236d846122b86145d6565b61236885604051806060016040528060288152602001615f8f60289139603460008b73ffffffffffffffffffffffffffffffffffffffff1673ffffffffffffffffffffffffffffffffffffffff168152602001908152602001600020600061231e6145d6565b73ffffffffffffffffffffffffffffffffffffffff1673ffffffffffffffffffffffffffffffffffffffff16815260200190815260200160002054614c5f9092919063ffffffff16565b6145de565b600190509392505050565b6000609d60009054906101000a900473ffffffffffffffffffffffffffffffffffffffff16905090565b6000603860009054906101000a900460ff16905090565b60006124626123c66145d6565b8461245d85603460006123d76145d6565b73ffffffffffffffffffffffffffffffffffffffff1673ffffffffffffffffffffffffffffffffffffffff16815260200190815260200160002060008973ffffffffffffffffffffffffffffffffffffffff1673ffffffffffffffffffffffffffffffffffffffff16815260200190815260200160002054614d1990919063ffffffff16565b6145de565b6001905092915050565b600080612477612081565b11156124bf576124b8612488612081565b6124aa670de0b6b3a764000061249c613587565b614da190919063ffffffff16565b614e2790919063ffffffff16565b90506124c4565b600090505b90565b600060026097541415612542576040517f08c379a000000000000000000000000000000000000000000000000000000000815260040180806020018281038252601f8152602001807f5265656e7472616e637947756172643a207265656e7472616e742063616c6c0081525060200191505060405180910390fd5b60026097819055508261255433612be5565b10156125c8576040517f08c379a00000000000000000000000000000000000000000000000000000000081526004018080602001828103825260178152602001807f506f643a696e73756666696369656e742d73686172657300000000000000000081525060200191505060405180910390fd5b60006125d48484614e71565b90506126233382609860009054906101000a900473ffffffffffffffffffffffffffffffffffffffff1673ffffffffffffffffffffffffffffffffffffffff16614fcb9092919063ffffffff16565b7fdf273cb619d95419a9cd0ec88123a0538c85064229baa6363788f743fff90deb338286604051808473ffffffffffffffffffffffffffffffffffffffff168152602001838152602001828152602001935050505060405180910390a180915050600160978190555092915050565b609d60009054906101000a900473ffffffffffffffffffffffffffffffffffffffff1681565b6000609960009054906101000a900473ffffffffffffffffffffffffffffffffffffffff1673ffffffffffffffffffffffffffffffffffffffff166370a08231306040518263ffffffff1660e01b8152600401808273ffffffffffffffffffffffffffffffffffffffff16815260200191505060206040518083038186803b15801561274357600080fd5b505afa158015612757573d6000803e3d6000fd5b505050506040513d602081101561276d57600080fd5b8101908080519060200190929190505050905090565b600061278d6145d6565b73ffffffffffffffffffffffffffffffffffffffff166127ab612dc8565b73ffffffffffffffffffffffffffffffffffffffff1614612834576040517f08c379a00000000000000000000000000000000000000000000000000000000081526004018080602001828103825260208152602001807f4f776e61626c653a2063616c6c6572206973206e6f7420746865206f776e657281525060200191505060405180910390fd5b600073ffffffffffffffffffffffffffffffffffffffff168273ffffffffffffffffffffffffffffffffffffffff1614156128d7576040517f08c379a000000000000000000000000000000000000000000000000000000000815260040180806020018281038252601b8152602001807f506f643a696e76616c69642d6d616e616765722d61646472657373000000000081525060200191505060405180910390fd5b81609d60006101000a81548173ffffffffffffffffffffffffffffffffffffffff021916908373ffffffffffffffffffffffffffffffffffffffff1602179055508173ffffffffffffffffffffffffffffffffffffffff16609d60009054906101000a900473ffffffffffffffffffffffffffffffffffffffff1673ffffffffffffffffffffffffffffffffffffffff167f80f15e9dbc60884fdb59fb8ed4fc48a9a689e028f055e893ed45ca5be67c5c8560405160405180910390a360019050919050565b6000806129a8613a8d565b90508083116129bb576000915050612aef565b6000609e60009054906101000a900473ffffffffffffffffffffffffffffffffffffffff1673ffffffffffffffffffffffffffffffffffffffff1663888c2b6f30609960009054906101000a900473ffffffffffffffffffffffffffffffffffffffff16612a32868961506d90919063ffffffff16565b6040518463ffffffff1660e01b8152600401808473ffffffffffffffffffffffffffffffffffffffff1681526020018373ffffffffffffffffffffffffffffffffffffffff16815260200182815260200193505050506040805180830381600087803b158015612aa157600080fd5b505af1158015612ab5573d6000803e3d6000fd5b505050506040513d6040811015612acb57600080fd5b81019080805190602001909291908051906020019092919050505050905080925050505b919050565b6000609a60009054906101000a900473ffffffffffffffffffffffffffffffffffffffff1673ffffffffffffffffffffffffffffffffffffffff166370a08231306040518263ffffffff1660e01b8152600401808273ffffffffffffffffffffffffffffffffffffffff16815260200191505060206040518083038186803b158015612b7f57600080fd5b505afa158015612b93573d6000803e3d6000fd5b505050506040513d6020811015612ba957600080fd5b8101908080519060200190929190505050905090565b609960009054906101000a900473ffffffffffffffffffffffffffffffffffffffff1681565b6000603360008373ffffffffffffffffffffffffffffffffffffffff1673ffffffffffffffffffffffffffffffffffffffff168152602001908152602001600020549050919050565b612c366145d6565b73ffffffffffffffffffffffffffffffffffffffff16612c54612dc8565b73ffffffffffffffffffffffffffffffffffffffff1614612cdd576040517f08c379a00000000000000000000000000000000000000000000000000000000081526004018080602001828103825260208152602001807f4f776e61626c653a2063616c6c6572206973206e6f7420746865206f776e657281525060200191505060405180910390fd5b600073ffffffffffffffffffffffffffffffffffffffff16606560009054906101000a900473ffffffffffffffffffffffffffffffffffffffff1673ffffffffffffffffffffffffffffffffffffffff167f8be0079c531659141344cd1fd0a4f28419497f9722a3daafe3b4186f6b6457e060405160405180910390a36000606560006101000a81548173ffffffffffffffffffffffffffffffffffffffff021916908373ffffffffffffffffffffffffffffffffffffffff160217905550565b6000609e60009054906101000a900473ffffffffffffffffffffffffffffffffffffffff16905090565b6000606560009054906101000a900473ffffffffffffffffffffffffffffffffffffffff16905090565b600080612dfd612081565b1115612e4657612e3f612e0e613587565b612e31670de0b6b3a7640000612e2386612be5565b614da190919063ffffffff16565b614e2790919063ffffffff16565b9050612e4b565b600090505b919050565b606060378054600181600116156101000203166002900480601f016020809104026020016040519081016040528092919081815260200182805460018160011615610100020316600290048015612ee85780601f10612ebd57610100808354040283529160200191612ee8565b820191906000526020600020905b815481529060010190602001808311612ecb57829003601f168201915b5050505050905090565b600080609a60009054906101000a900473ffffffffffffffffffffffffffffffffffffffff169050609b60009054906101000a900473ffffffffffffffffffffffffffffffffffffffff1673ffffffffffffffffffffffffffffffffffffffff16631e83409a306040518263ffffffff1660e01b8152600401808273ffffffffffffffffffffffffffffffffffffffff168152602001915050602060405180830381600087803b158015612fa557600080fd5b505af1158015612fb9573d6000803e3d6000fd5b505050506040513d6020811015612fcf57600080fd5b81019080805190602001909291905050505060008173ffffffffffffffffffffffffffffffffffffffff166370a08231306040518263ffffffff1660e01b8152600401808273ffffffffffffffffffffffffffffffffffffffff16815260200191505060206040518083038186803b15801561304a57600080fd5b505afa15801561305e573d6000803e3d6000fd5b505050506040513d602081101561307457600080fd5b81019080805190602001909291905050509050600081111561318f576130dd609c60009054906101000a900473ffffffffffffffffffffffffffffffffffffffff16828473ffffffffffffffffffffffffffffffffffffffff166147d59092919063ffffffff16565b609c60009054906101000a900473ffffffffffffffffffffffffffffffffffffffff1673ffffffffffffffffffffffffffffffffffffffff1663949e196f826040518263ffffffff1660e01b815260040180828152602001915050602060405180830381600087803b15801561315257600080fd5b505af1158015613166573d6000803e3d6000fd5b505050506040513d602081101561317c57600080fd5b8101908080519060200190929190505050505b7fa71b671080e0f92a89a9abb935000df04b23c1c31382efb1812bb95dff91bab6816040518082815260200191505060405180910390a1809250505090565b60006131d86145d6565b73ffffffffffffffffffffffffffffffffffffffff16609d60009054906101000a900473ffffffffffffffffffffffffffffffffffffffff1673ffffffffffffffffffffffffffffffffffffffff161461329a576040517f08c379a00000000000000000000000000000000000000000000000000000000081526004018080602001828103825260188152602001807f506f643a6d616e616765722d756e617574686f72697a6564000000000000000081525060200191505060405180910390fd5b609860009054906101000a900473ffffffffffffffffffffffffffffffffffffffff1673ffffffffffffffffffffffffffffffffffffffff168373ffffffffffffffffffffffffffffffffffffffff16141580156133465750609960009054906101000a900473ffffffffffffffffffffffffffffffffffffffff1673ffffffffffffffffffffffffffffffffffffffff168373ffffffffffffffffffffffffffffffffffffffff1614155b80156133a05750609a60009054906101000a900473ffffffffffffffffffffffffffffffffffffffff1673ffffffffffffffffffffffffffffffffffffffff168373ffffffffffffffffffffffffffffffffffffffff1614155b613412576040517f08c379a00000000000000000000000000000000000000000000000000000000081526004018080602001828103825260188152602001807f506f643a696e76616c69642d7461726765742d746f6b656e000000000000000081525060200191505060405180910390fd5b61343d33838573ffffffffffffffffffffffffffffffffffffffff16614fcb9092919063ffffffff16565b7f7e2c99819371db0a6fc6f4269fe872496e44f502df19ba3eae594b7a159874608383604051808373ffffffffffffffffffffffffffffffffffffffff1681526020018281526020019250505060405180910390a16001905092915050565b600061355f6134a96145d6565b8461355a8560405180606001604052806025815260200161608160259139603460006134d36145d6565b73ffffffffffffffffffffffffffffffffffffffff1673ffffffffffffffffffffffffffffffffffffffff16815260200190815260200160002060008a73ffffffffffffffffffffffffffffffffffffffff1673ffffffffffffffffffffffffffffffffffffffff16815260200190815260200160002054614c5f9092919063ffffffff16565b6145de565b6001905092915050565b600061357d6135766145d6565b848461499a565b6001905092915050565b60006135aa6135946126b8565b61359c613a8d565b6150b790919063ffffffff16565b905090565b6135b76145d6565b73ffffffffffffffffffffffffffffffffffffffff166135d5612dc8565b73ffffffffffffffffffffffffffffffffffffffff161461365e576040517f08c379a00000000000000000000000000000000000000000000000000000000081526004018080602001828103825260208152602001807f4f776e61626c653a2063616c6c6572206973206e6f7420746865206f776e657281525060200191505060405180910390fd5b61368a8160008473ffffffffffffffffffffffffffffffffffffffff166147d59092919063ffffffff16565b5050565b60006136986145d6565b73ffffffffffffffffffffffffffffffffffffffff166136b6612dc8565b73ffffffffffffffffffffffffffffffffffffffff161461373f576040517f08c379a00000000000000000000000000000000000000000000000000000000081526004018080602001828103825260208152602001807f4f776e61626c653a2063616c6c6572206973206e6f7420746865206f776e657281525060200191505060405180910390fd5b600073ffffffffffffffffffffffffffffffffffffffff168273ffffffffffffffffffffffffffffffffffffffff1614156137e2576040517f08c379a000000000000000000000000000000000000000000000000000000000815260040180806020018281038252601b8152602001807f506f643a696e76616c69642d6661756365742d636f6e7472616374000000000081525060200191505060405180910390fd5b609b60009054906101000a900473ffffffffffffffffffffffffffffffffffffffff1673ffffffffffffffffffffffffffffffffffffffff166338d52e0f6040518163ffffffff1660e01b8152600401602060405180830381600087803b15801561384c57600080fd5b505af1158015613860573d6000803e3d6000fd5b505050506040513d602081101561387657600080fd5b810190808051906020019092919050505073ffffffffffffffffffffffffffffffffffffffff16609a60009054906101000a900473ffffffffffffffffffffffffffffffffffffffff1673ffffffffffffffffffffffffffffffffffffffff1614613949576040517f08c379a00000000000000000000000000000000000000000000000000000000081526004018080602001828103825260188152602001807f506f643a696e76616c69642d7265776172642d746f6b656e000000000000000081525060200191505060405180910390fd5b81609b60006101000a81548173ffffffffffffffffffffffffffffffffffffffff021916908373ffffffffffffffffffffffffffffffffffffffff1602179055507f1062797e1a541ffcf19764c36deb3ad9960105ec3e52e4ff3bc3503ec35551a482604051808273ffffffffffffffffffffffffffffffffffffffff16815260200191505060405180910390a160019050919050565b6000603460008473ffffffffffffffffffffffffffffffffffffffff1673ffffffffffffffffffffffffffffffffffffffff16815260200190815260200160002060008373ffffffffffffffffffffffffffffffffffffffff1673ffffffffffffffffffffffffffffffffffffffff16815260200190815260200160002054905092915050565b609b60009054906101000a900473ffffffffffffffffffffffffffffffffffffffff1681565b6000609860009054906101000a900473ffffffffffffffffffffffffffffffffffffffff1673ffffffffffffffffffffffffffffffffffffffff166370a08231306040518263ffffffff1660e01b8152600401808273ffffffffffffffffffffffffffffffffffffffff16815260200191505060206040518083038186803b158015613b1857600080fd5b505afa158015613b2c573d6000803e3d6000fd5b505050506040513d6020811015613b4257600080fd5b8101908080519060200190929190505050905090565b613b606145d6565b73ffffffffffffffffffffffffffffffffffffffff16613b7e612dc8565b73ffffffffffffffffffffffffffffffffffffffff1614613c07576040517f08c379a00000000000000000000000000000000000000000000000000000000081526004018080602001828103825260208152602001807f4f776e61626c653a2063616c6c6572206973206e6f7420746865206f776e657281525060200191505060405180910390fd5b600073ffffffffffffffffffffffffffffffffffffffff168173ffffffffffffffffffffffffffffffffffffffff161415613c8d576040517f08c379a0000000000000000000000000000000000000000000000000000000008152600401808060200182810382526026815260200180615e816026913960400191505060405180910390fd5b8073ffffffffffffffffffffffffffffffffffffffff16606560009054906101000a900473ffffffffffffffffffffffffffffffffffffffff1673ffffffffffffffffffffffffffffffffffffffff167f8be0079c531659141344cd1fd0a4f28419497f9722a3daafe3b4186f6b6457e060405160405180910390a380606560006101000a81548173ffffffffffffffffffffffffffffffffffffffff021916908373ffffffffffffffffffffffffffffffffffffffff16021790555050565b6000613d576145d6565b73ffffffffffffffffffffffffffffffffffffffff16609d60009054906101000a900473ffffffffffffffffffffffffffffffffffffffff1673ffffffffffffffffffffffffffffffffffffffff1614613e19576040517f08c379a00000000000000000000000000000000000000000000000000000000081526004018080602001828103825260188152602001807f506f643a6d616e616765722d756e617574686f72697a6564000000000000000081525060200191505060405180910390fd5b8273ffffffffffffffffffffffffffffffffffffffff166323b872dd3033856040518463ffffffff1660e01b8152600401808473ffffffffffffffffffffffffffffffffffffffff1681526020018373ffffffffffffffffffffffffffffffffffffffff1681526020018281526020019350505050600060405180830381600087803b158015613ea857600080fd5b505af1158015613ebc573d6000803e3d6000fd5b505050507f1c5be65d2245c05a955440008d97c579b7046fffdfb8482e1884ae42be57d98d8383604051808373ffffffffffffffffffffffffffffffffffffffff1681526020018281526020019250505060405180910390a16001905092915050565b609c60009054906101000a900473ffffffffffffffffffffffffffffffffffffffff1681565b609860009054906101000a900473ffffffffffffffffffffffffffffffffffffffff1681565b6000609e60009054906101000a900473ffffffffffffffffffffffffffffffffffffffff1673ffffffffffffffffffffffffffffffffffffffff166398bf3eb66040518163ffffffff1660e01b8152600401602060405180830381600087803b158015613fd757600080fd5b505af1158015613feb573d6000803e3d6000fd5b505050506040513d602081101561400157600080fd5b810190808051906020019092919050505073ffffffffffffffffffffffffffffffffffffffff1663111070e46040518163ffffffff1660e01b8152600401602060405180830381600087803b15801561405957600080fd5b505af115801561406d573d6000803e3d6000fd5b505050506040513d602081101561408357600080fd5b8101908080519060200190929190505050156140ea576040517f08c379a000000000000000000000000000000000000000000000000000000000815260040180806020018281038252602b815260200180615f15602b913960400191505060405180910390fd5b60026097541415614163576040517f08c379a000000000000000000000000000000000000000000000000000000000815260040180806020018281038252601f8152602001807f5265656e7472616e637947756172643a207265656e7472616e742063616c6c0081525060200191505060405180910390fd5b6002609781905550600082116141e1576040517f08c379a00000000000000000000000000000000000000000000000000000000081526004018080602001828103825260128152602001807f506f643a696e76616c69642d616d6f756e74000000000000000000000000000081525060200191505060405180910390fd5b60006141ec8361513f565b905061423d333085609860009054906101000a900473ffffffffffffffffffffffffffffffffffffffff1673ffffffffffffffffffffffffffffffffffffffff1661519d909392919063ffffffff16565b614247848261525e565b7f73a19dd210f1a7f902193214c0ee91dd35ee5b4d920cba8d519eca65a7b488ca848483604051808473ffffffffffffffffffffffffffffffffffffffff168152602001838152602001828152602001935050505060405180910390a180915050600160978190555092915050565b60006142c130615427565b15905090565b600060019054906101000a900460ff16806142e657506142e56142b6565b5b806142fc575060008054906101000a900460ff16155b614351576040517f08c379a000000000000000000000000000000000000000000000000000000000815260040180806020018281038252602e815260200180615f40602e913960400191505060405180910390fd5b60008060019054906101000a900460ff1615905080156143a1576001600060016101000a81548160ff02191690831515021790555060016000806101000a81548160ff0219169083151502179055505b82603690805190602001906143b7929190615d9e565b5081603790805190602001906143ce929190615d9e565b506012603860006101000a81548160ff021916908360ff160217905550801561440c5760008060016101000a81548160ff0219169083151502179055505b505050565b600060019054906101000a900460ff1680614430575061442f6142b6565b5b80614446575060008054906101000a900460ff16155b61449b576040517f08c379a000000000000000000000000000000000000000000000000000000000815260040180806020018281038252602e815260200180615f40602e913960400191505060405180910390fd5b60008060019054906101000a900460ff1615905080156144eb576001600060016101000a81548160ff02191690831515021790555060016000806101000a81548160ff0219169083151502179055505b60006144f56145d6565b905080606560006101000a81548173ffffffffffffffffffffffffffffffffffffffff021916908373ffffffffffffffffffffffffffffffffffffffff1602179055508073ffffffffffffffffffffffffffffffffffffffff16600073ffffffffffffffffffffffffffffffffffffffff167f8be0079c531659141344cd1fd0a4f28419497f9722a3daafe3b4186f6b6457e060405160405180910390a35080156145b55760008060016101000a81548160ff0219169083151502179055505b50565b80603860006101000a81548160ff021916908360ff16021790555050565b600033905090565b600073ffffffffffffffffffffffffffffffffffffffff168373ffffffffffffffffffffffffffffffffffffffff161415614664576040517f08c379a0000000000000000000000000000000000000000000000000000000008152600401808060200182810382526024815260200180615ffd6024913960400191505060405180910390fd5b600073ffffffffffffffffffffffffffffffffffffffff168273ffffffffffffffffffffffffffffffffffffffff1614156146ea576040517f08c379a0000000000000000000000000000000000000000000000000000000008152600401808060200182810382526022815260200180615ea76022913960400191505060405180910390fd5b80603460008573ffffffffffffffffffffffffffffffffffffffff1673ffffffffffffffffffffffffffffffffffffffff16815260200190815260200160002060008473ffffffffffffffffffffffffffffffffffffffff1673ffffffffffffffffffffffffffffffffffffffff168152602001908152602001600020819055508173ffffffffffffffffffffffffffffffffffffffff168373ffffffffffffffffffffffffffffffffffffffff167f8c5be1e5ebec7d5bd14f71427d1e84f3dd0314c0f7b2291e5b200ac8c7c3b925836040518082815260200191505060405180910390a3505050565b60008114806148a3575060008373ffffffffffffffffffffffffffffffffffffffff1663dd62ed3e30856040518363ffffffff1660e01b8152600401808373ffffffffffffffffffffffffffffffffffffffff1681526020018273ffffffffffffffffffffffffffffffffffffffff1681526020019250505060206040518083038186803b15801561486657600080fd5b505afa15801561487a573d6000803e3d6000fd5b505050506040513d602081101561489057600080fd5b8101908080519060200190929190505050145b6148f8576040517f08c379a000000000000000000000000000000000000000000000000000000000815260040180806020018281038252603681526020018061604b6036913960400191505060405180910390fd5b6149958363095ea7b360e01b8484604051602401808373ffffffffffffffffffffffffffffffffffffffff16815260200182815260200192505050604051602081830303815290604052907bffffffffffffffffffffffffffffffffffffffffffffffffffffffff19166020820180517bffffffffffffffffffffffffffffffffffffffffffffffffffffffff838183161783525050505061543a565b505050565b600073ffffffffffffffffffffffffffffffffffffffff168373ffffffffffffffffffffffffffffffffffffffff161415614a20576040517f08c379a0000000000000000000000000000000000000000000000000000000008152600401808060200182810382526025815260200180615fd86025913960400191505060405180910390fd5b600073ffffffffffffffffffffffffffffffffffffffff168273ffffffffffffffffffffffffffffffffffffffff161415614aa6576040517f08c379a0000000000000000000000000000000000000000000000000000000008152600401808060200182810382526023815260200180615e3c6023913960400191505060405180910390fd5b614ab1838383615529565b614b1d81604051806060016040528060268152602001615ec960269139603360008773ffffffffffffffffffffffffffffffffffffffff1673ffffffffffffffffffffffffffffffffffffffff16815260200190815260200160002054614c5f9092919063ffffffff16565b603360008573ffffffffffffffffffffffffffffffffffffffff1673ffffffffffffffffffffffffffffffffffffffff16815260200190815260200160002081905550614bb281603360008573ffffffffffffffffffffffffffffffffffffffff1673ffffffffffffffffffffffffffffffffffffffff16815260200190815260200160002054614d1990919063ffffffff16565b603360008473ffffffffffffffffffffffffffffffffffffffff1673ffffffffffffffffffffffffffffffffffffffff168152602001908152602001600020819055508173ffffffffffffffffffffffffffffffffffffffff168373ffffffffffffffffffffffffffffffffffffffff167fddf252ad1be2c89b69c2b068fc378daa952ba7f163c4a11628f55a4df523b3ef836040518082815260200191505060405180910390a3505050565b6000838311158290614d0c576040517f08c379a00000000000000000000000000000000000000000000000000000000081526004018080602001828103825283818151815260200191508051906020019080838360005b83811015614cd1578082015181840152602081019050614cb6565b50505050905090810190601f168015614cfe5780820380516001836020036101000a031916815260200191505b509250505060405180910390fd5b5082840390509392505050565b600080828401905083811015614d97576040517f08c379a000000000000000000000000000000000000000000000000000000000815260040180806020018281038252601b8152602001807f536166654d6174683a206164646974696f6e206f766572666c6f77000000000081525060200191505060405180910390fd5b8091505092915050565b600080831415614db45760009050614e21565b6000828402905082848281614dc557fe5b0414614e1c576040517f08c379a0000000000000000000000000000000000000000000000000000000008152600401808060200182810382526021815260200180615f6e6021913960400191505060405180910390fd5b809150505b92915050565b6000614e6983836040518060400160405280601a81526020017f536166654d6174683a206469766973696f6e206279207a65726f000000000000815250615618565b905092915050565b600080614ea7614e7f612081565b614e9986614e8b613587565b614da190919063ffffffff16565b614e2790919063ffffffff16565b9050614eb333856156de565b6000609860009054906101000a900473ffffffffffffffffffffffffffffffffffffffff1673ffffffffffffffffffffffffffffffffffffffff166370a08231306040518263ffffffff1660e01b8152600401808273ffffffffffffffffffffffffffffffffffffffff16815260200191505060206040518083038186803b158015614f3e57600080fd5b505afa158015614f52573d6000803e3d6000fd5b505050506040513d6020811015614f6857600080fd5b8101908080519060200190929190505050905080821115614fc0576000614f98828461506d90919063ffffffff16565b90506000614fa682876158a4565b9050614fbb818561506d90919063ffffffff16565b935050505b819250505092915050565b6150688363a9059cbb60e01b8484604051602401808373ffffffffffffffffffffffffffffffffffffffff16815260200182815260200192505050604051602081830303815290604052907bffffffffffffffffffffffffffffffffffffffffffffffffffffffff19166020820180517bffffffffffffffffffffffffffffffffffffffffffffffffffffffff838183161783525050505061543a565b505050565b60006150af83836040518060400160405280601e81526020017f536166654d6174683a207375627472616374696f6e206f766572666c6f7700008152506159c9565b905092915050565b600080828401905083811015615135576040517f08c379a000000000000000000000000000000000000000000000000000000000815260040180806020018281038252601b8152602001807f536166654d6174683a206164646974696f6e206f766572666c6f77000000000081525060200191505060405180910390fd5b8091505092915050565b600080600090506000615150612081565b141561515e57829050615194565b615191615169613587565b615183615174612081565b86614da190919063ffffffff16565b614e2790919063ffffffff16565b90505b80915050919050565b615258846323b872dd60e01b858585604051602401808473ffffffffffffffffffffffffffffffffffffffff1681526020018373ffffffffffffffffffffffffffffffffffffffff1681526020018281526020019350505050604051602081830303815290604052907bffffffffffffffffffffffffffffffffffffffffffffffffffffffff19166020820180517bffffffffffffffffffffffffffffffffffffffffffffffffffffffff838183161783525050505061543a565b50505050565b600073ffffffffffffffffffffffffffffffffffffffff168273ffffffffffffffffffffffffffffffffffffffff161415615301576040517f08c379a000000000000000000000000000000000000000000000000000000000815260040180806020018281038252601f8152602001807f45524332303a206d696e7420746f20746865207a65726f20616464726573730081525060200191505060405180910390fd5b61530d60008383615529565b61532281603554614d1990919063ffffffff16565b60358190555061537a81603360008573ffffffffffffffffffffffffffffffffffffffff1673ffffffffffffffffffffffffffffffffffffffff16815260200190815260200160002054614d1990919063ffffffff16565b603360008473ffffffffffffffffffffffffffffffffffffffff1673ffffffffffffffffffffffffffffffffffffffff168152602001908152602001600020819055508173ffffffffffffffffffffffffffffffffffffffff16600073ffffffffffffffffffffffffffffffffffffffff167fddf252ad1be2c89b69c2b068fc378daa952ba7f163c4a11628f55a4df523b3ef836040518082815260200191505060405180910390a35050565b600080823b905060008111915050919050565b606061549c826040518060400160405280602081526020017f5361666545524332303a206c6f772d6c6576656c2063616c6c206661696c65648152508573ffffffffffffffffffffffffffffffffffffffff16615a899092919063ffffffff16565b9050600081511115615524578080602001905160208110156154bd57600080fd5b8101908080519060200190929190505050615523576040517f08c379a000000000000000000000000000000000000000000000000000000000815260040180806020018281038252602a815260200180616021602a913960400191505060405180910390fd5b5b505050565b615534838383615aa1565b609c60009054906101000a900473ffffffffffffffffffffffffffffffffffffffff1673ffffffffffffffffffffffffffffffffffffffff166340069fee8484306040518463ffffffff1660e01b8152600401808473ffffffffffffffffffffffffffffffffffffffff1681526020018373ffffffffffffffffffffffffffffffffffffffff1681526020018273ffffffffffffffffffffffffffffffffffffffff1681526020019350505050600060405180830381600087803b1580156155fb57600080fd5b505af115801561560f573d6000803e3d6000fd5b50505050505050565b600080831182906156c4576040517f08c379a00000000000000000000000000000000000000000000000000000000081526004018080602001828103825283818151815260200191508051906020019080838360005b8381101561568957808201518184015260208101905061566e565b50505050905090810190601f1680156156b65780820380516001836020036101000a031916815260200191505b509250505060405180910390fd5b5060008385816156d057fe5b049050809150509392505050565b600073ffffffffffffffffffffffffffffffffffffffff168273ffffffffffffffffffffffffffffffffffffffff161415615764576040517f08c379a0000000000000000000000000000000000000000000000000000000008152600401808060200182810382526021815260200180615fb76021913960400191505060405180910390fd5b61577082600083615529565b6157dc81604051806060016040528060228152602001615e5f60229139603360008673ffffffffffffffffffffffffffffffffffffffff1673ffffffffffffffffffffffffffffffffffffffff16815260200190815260200160002054614c5f9092919063ffffffff16565b603360008473ffffffffffffffffffffffffffffffffffffffff1673ffffffffffffffffffffffffffffffffffffffff1681526020019081526020016000208190555061583481603554615aa690919063ffffffff16565b603581905550600073ffffffffffffffffffffffffffffffffffffffff168273ffffffffffffffffffffffffffffffffffffffff167fddf252ad1be2c89b69c2b068fc378daa952ba7f163c4a11628f55a4df523b3ef836040518082815260200191505060405180910390a35050565b600080609e60009054906101000a900473ffffffffffffffffffffffffffffffffffffffff1673ffffffffffffffffffffffffffffffffffffffff1663a016240b3086609960009054906101000a900473ffffffffffffffffffffffffffffffffffffffff16876040518563ffffffff1660e01b8152600401808573ffffffffffffffffffffffffffffffffffffffff1681526020018481526020018373ffffffffffffffffffffffffffffffffffffffff168152602001828152602001945050505050602060405180830381600087803b15801561598257600080fd5b505af1158015615996573d6000803e3d6000fd5b505050506040513d60208110156159ac57600080fd5b810190808051906020019092919050505090508091505092915050565b6000838311158290615a76576040517f08c379a00000000000000000000000000000000000000000000000000000000081526004018080602001828103825283818151815260200191508051906020019080838360005b83811015615a3b578082015181840152602081019050615a20565b50505050905090810190601f168015615a685780820380516001836020036101000a031916815260200191505b509250505060405180910390fd5b5060008385039050809150509392505050565b6060615a988484600085615b29565b90509392505050565b505050565b600082821115615b1e576040517f08c379a000000000000000000000000000000000000000000000000000000000815260040180806020018281038252601e8152602001807f536166654d6174683a207375627472616374696f6e206f766572666c6f77000081525060200191505060405180910390fd5b818303905092915050565b606082471015615b84576040517f08c379a0000000000000000000000000000000000000000000000000000000008152600401808060200182810382526026815260200180615eef6026913960400191505060405180910390fd5b615b8d85615427565b615bff576040517f08c379a000000000000000000000000000000000000000000000000000000000815260040180806020018281038252601d8152602001807f416464726573733a2063616c6c20746f206e6f6e2d636f6e747261637400000081525060200191505060405180910390fd5b600060608673ffffffffffffffffffffffffffffffffffffffff1685876040518082805190602001908083835b60208310615c4f5780518252602082019150602081019050602083039250615c2c565b6001836020036101000a03801982511681845116808217855250505050505090500191505060006040518083038185875af1925050503d8060008114615cb1576040519150601f19603f3d011682016040523d82523d6000602084013e615cb6565b606091505b5091509150615cc6828286615cd2565b92505050949350505050565b60608315615ce257829050615d97565b600083511115615cf55782518084602001fd5b816040517f08c379a00000000000000000000000000000000000000000000000000000000081526004018080602001828103825283818151815260200191508051906020019080838360005b83811015615d5c578082015181840152602081019050615d41565b50505050905090810190601f168015615d895780820380516001836020036101000a031916815260200191505b509250505060405180910390fd5b9392505050565b828054600181600116156101000203166002900490600052602060002090601f016020900481019282601f10615ddf57805160ff1916838001178555615e0d565b82800160010185558215615e0d579182015b82811115615e0c578251825591602001919060010190615df1565b5b509050615e1a9190615e1e565b5090565b5b80821115615e37576000816000905550600101615e1f565b509056fe45524332303a207472616e7366657220746f20746865207a65726f206164647265737345524332303a206275726e20616d6f756e7420657863656564732062616c616e63654f776e61626c653a206e6577206f776e657220697320746865207a65726f206164647265737345524332303a20617070726f766520746f20746865207a65726f206164647265737345524332303a207472616e7366657220616d6f756e7420657863656564732062616c616e6365416464726573733a20696e73756666696369656e742062616c616e636520666f722063616c6c43616e6e6f74206465706f736974207768696c65207072697a65206973206265696e672061776172646564496e697469616c697a61626c653a20636f6e747261637420697320616c726561647920696e697469616c697a6564536166654d6174683a206d756c7469706c69636174696f6e206f766572666c6f7745524332303a207472616e7366657220616d6f756e74206578636565647320616c6c6f77616e636545524332303a206275726e2066726f6d20746865207a65726f206164647265737345524332303a207472616e736665722066726f6d20746865207a65726f206164647265737345524332303a20617070726f76652066726f6d20746865207a65726f20616464726573735361666545524332303a204552433230206f7065726174696f6e20646964206e6f7420737563636565645361666545524332303a20617070726f76652066726f6d206e6f6e2d7a65726f20746f206e6f6e2d7a65726f20616c6c6f77616e636545524332303a2064656372656173656420616c6c6f77616e63652062656c6f77207a65726fa2646970667358221220f2db73bca29f458290c847648916702369dd6d29b324ef3899bf4b5060b0d97e64736f6c63430007000033",
  "linkReferences": {},
  "deployedLinkReferences": {}
}