{
  "_format": "hh-sol-artifact-1",
  "contractName": "PodNFT",
  "sourceName": "contracts/mocks/PodNFT.sol",
  "abi": [
    {
      "inputs": [
        {
          "internalType": "string",
          "name": "_name",
          "type": "string"
        },
        {
          "internalType": "string",
          "name": "_symbol",
          "type": "string"
        }
      ],
      "stateMutability": "nonpayable",
      "type": "constructor"
    },
    {
      "anonymous": false,
      "inputs": [
        {
          "indexed": true,
          "internalType": "address",
          "name": "owner",
          "type": "address"
        },
        {
          "indexed": true,
          "internalType": "address",
          "name": "approved",
          "type": "address"
        },
        {
          "indexed": true,
          "internalType": "uint256",
          "name": "tokenId",
          "type": "uint256"
        }
      ],
      "name": "Approval",
      "type": "event"
    },
    {
      "anonymous": false,
      "inputs": [
        {
          "indexed": true,
          "internalType": "address",
          "name": "owner",
          "type": "address"
        },
        {
          "indexed": true,
          "internalType": "address",
          "name": "operator",
          "type": "address"
        },
        {
          "indexed": false,
          "internalType": "bool",
          "name": "approved",
          "type": "bool"
        }
      ],
      "name": "ApprovalForAll",
      "type": "event"
    },
    {
      "anonymous": false,
      "inputs": [
        {
          "indexed": true,
          "internalType": "address",
          "name": "from",
          "type": "address"
        },
        {
          "indexed": true,
          "internalType": "address",
          "name": "to",
          "type": "address"
        },
        {
          "indexed": true,
          "internalType": "uint256",
          "name": "tokenId",
          "type": "uint256"
        }
      ],
      "name": "Transfer",
      "type": "event"
    },
    {
      "inputs": [
        {
          "internalType": "address",
          "name": "to",
          "type": "address"
        },
        {
          "internalType": "uint256",
          "name": "tokenId",
          "type": "uint256"
        }
      ],
      "name": "approve",
      "outputs": [],
      "stateMutability": "nonpayable",
      "type": "function"
    },
    {
      "inputs": [
        {
          "internalType": "address",
          "name": "owner",
          "type": "address"
        }
      ],
      "name": "balanceOf",
      "outputs": [
        {
          "internalType": "uint256",
          "name": "",
          "type": "uint256"
        }
      ],
      "stateMutability": "view",
      "type": "function"
    },
    {
      "inputs": [],
      "name": "baseURI",
      "outputs": [
        {
          "internalType": "string",
          "name": "",
          "type": "string"
        }
      ],
      "stateMutability": "view",
      "type": "function"
    },
    {
      "inputs": [
        {
          "internalType": "uint256",
          "name": "tokenId",
          "type": "uint256"
        }
      ],
      "name": "getApproved",
      "outputs": [
        {
          "internalType": "address",
          "name": "",
          "type": "address"
        }
      ],
      "stateMutability": "view",
      "type": "function"
    },
    {
      "inputs": [
        {
          "internalType": "address",
          "name": "owner",
          "type": "address"
        },
        {
          "internalType": "address",
          "name": "operator",
          "type": "address"
        }
      ],
      "name": "isApprovedForAll",
      "outputs": [
        {
          "internalType": "bool",
          "name": "",
          "type": "bool"
        }
      ],
      "stateMutability": "view",
      "type": "function"
    },
    {
      "inputs": [],
      "name": "name",
      "outputs": [
        {
          "internalType": "string",
          "name": "",
          "type": "string"
        }
      ],
      "stateMutability": "view",
      "type": "function"
    },
    {
      "inputs": [
        {
          "internalType": "uint256",
          "name": "tokenId",
          "type": "uint256"
        }
      ],
      "name": "ownerOf",
      "outputs": [
        {
          "internalType": "address",
          "name": "",
          "type": "address"
        }
      ],
      "stateMutability": "view",
      "type": "function"
    },
    {
      "inputs": [
        {
          "internalType": "address",
          "name": "from",
          "type": "address"
        },
        {
          "internalType": "address",
          "name": "to",
          "type": "address"
        },
        {
          "internalType": "uint256",
          "name": "tokenId",
          "type": "uint256"
        }
      ],
      "name": "safeTransferFrom",
      "outputs": [],
      "stateMutability": "nonpayable",
      "type": "function"
    },
    {
      "inputs": [
        {
          "internalType": "address",
          "name": "from",
          "type": "address"
        },
        {
          "internalType": "address",
          "name": "to",
          "type": "address"
        },
        {
          "internalType": "uint256",
          "name": "tokenId",
          "type": "uint256"
        },
        {
          "internalType": "bytes",
          "name": "_data",
          "type": "bytes"
        }
      ],
      "name": "safeTransferFrom",
      "outputs": [],
      "stateMutability": "nonpayable",
      "type": "function"
    },
    {
      "inputs": [
        {
          "internalType": "address",
          "name": "operator",
          "type": "address"
        },
        {
          "internalType": "bool",
          "name": "approved",
          "type": "bool"
        }
      ],
      "name": "setApprovalForAll",
      "outputs": [],
      "stateMutability": "nonpayable",
      "type": "function"
    },
    {
      "inputs": [
        {
          "internalType": "bytes4",
          "name": "interfaceId",
          "type": "bytes4"
        }
      ],
      "name": "supportsInterface",
      "outputs": [
        {
          "internalType": "bool",
          "name": "",
          "type": "bool"
        }
      ],
      "stateMutability": "view",
      "type": "function"
    },
    {
      "inputs": [],
      "name": "symbol",
      "outputs": [
        {
          "internalType": "string",
          "name": "",
          "type": "string"
        }
      ],
      "stateMutability": "view",
      "type": "function"
    },
    {
      "inputs": [
        {
          "internalType": "uint256",
          "name": "index",
          "type": "uint256"
        }
      ],
      "name": "tokenByIndex",
      "outputs": [
        {
          "internalType": "uint256",
          "name": "",
          "type": "uint256"
        }
      ],
      "stateMutability": "view",
      "type": "function"
    },
    {
      "inputs": [
        {
          "internalType": "address",
          "name": "owner",
          "type": "address"
        },
        {
          "internalType": "uint256",
          "name": "index",
          "type": "uint256"
        }
      ],
      "name": "tokenOfOwnerByIndex",
      "outputs": [
        {
          "internalType": "uint256",
          "name": "",
          "type": "uint256"
        }
      ],
      "stateMutability": "view",
      "type": "function"
    },
    {
      "inputs": [
        {
          "internalType": "uint256",
          "name": "tokenId",
          "type": "uint256"
        }
      ],
      "name": "tokenURI",
      "outputs": [
        {
          "internalType": "string",
          "name": "",
          "type": "string"
        }
      ],
      "stateMutability": "view",
      "type": "function"
    },
    {
      "inputs": [],
      "name": "totalSupply",
      "outputs": [
        {
          "internalType": "uint256",
          "name": "",
          "type": "uint256"
        }
      ],
      "stateMutability": "view",
      "type": "function"
    },
    {
      "inputs": [
        {
          "internalType": "address",
          "name": "from",
          "type": "address"
        },
        {
          "internalType": "address",
          "name": "to",
          "type": "address"
        },
        {
          "internalType": "uint256",
          "name": "tokenId",
          "type": "uint256"
        }
      ],
      "name": "transferFrom",
      "outputs": [],
      "stateMutability": "nonpayable",
      "type": "function"
    },
    {
      "stateMutability": "payable",
      "type": "receive"
    }
  ],
  "bytecode": "0x60806040523480156200001157600080fd5b5060405162003c0738038062003c07833981810160405281019062000037919062000ab0565b8181620000516301ffc9a760e01b620000f860201b60201c565b8160069080519060200190620000699291906200096b565b508060079080519060200190620000829291906200096b565b506200009b6380ac58cd60e01b620000f860201b60201c565b620000b3635b5e139f60e01b620000f860201b60201c565b620000cb63780e9d6360e01b620000f860201b60201c565b5050620000f033600160405180602001604052806000815250620001d060201b60201c565b505062001037565b63ffffffff60e01b817bffffffffffffffffffffffffffffffffffffffffffffffffffffffff1916141562000164576040517f08c379a00000000000000000000000000000000000000000000000000000000081526004016200015b9062000e32565b60405180910390fd5b6001600080837bffffffffffffffffffffffffffffffffffffffffffffffffffffffff19167bffffffffffffffffffffffffffffffffffffffffffffffffffffffff1916815260200190815260200160002060006101000a81548160ff02191690831515021790555050565b620001e283836200023e60201b60201c565b620001f76000848484620003f060201b60201c565b62000239576040517f08c379a0000000000000000000000000000000000000000000000000000000008152600401620002309062000e10565b60405180910390fd5b505050565b600073ffffffffffffffffffffffffffffffffffffffff168273ffffffffffffffffffffffffffffffffffffffff161415620002b1576040517f08c379a0000000000000000000000000000000000000000000000000000000008152600401620002a89062000e76565b60405180910390fd5b620002c2816200057760201b60201c565b1562000305576040517f08c379a0000000000000000000000000000000000000000000000000000000008152600401620002fc9062000e54565b60405180910390fd5b62000319600083836200059b60201b60201c565b6200037181600160008573ffffffffffffffffffffffffffffffffffffffff1673ffffffffffffffffffffffffffffffffffffffff168152602001908152602001600020620005a060201b62000e991790919060201c565b506200038f81836002620005c260201b62000eb3179092919060201c565b50808273ffffffffffffffffffffffffffffffffffffffff16600073ffffffffffffffffffffffffffffffffffffffff167fddf252ad1be2c89b69c2b068fc378daa952ba7f163c4a11628f55a4df523b3ef60405160405180910390a45050565b60006200041e8473ffffffffffffffffffffffffffffffffffffffff16620005ff60201b62000ee81760201c565b6200042d57600190506200056f565b60606200050663150b7a0260e01b6200044b6200064b60201b60201c565b88878760405160240162000463949392919062000d98565b604051602081830303815290604052907bffffffffffffffffffffffffffffffffffffffffffffffffffffffff19166020820180517bffffffffffffffffffffffffffffffffffffffffffffffffffffffff838183161783525050505060405180606001604052806032815260200162003bd5603291398773ffffffffffffffffffffffffffffffffffffffff166200065360201b62000f33179092919060201c565b905060008180602001905181019062000520919062000a84565b905063150b7a0260e01b7bffffffffffffffffffffffffffffffffffffffffffffffffffffffff1916817bffffffffffffffffffffffffffffffffffffffffffffffffffffffff191614925050505b949350505050565b6000620005948260026200067360201b62000f4b1790919060201c565b9050919050565b505050565b6000620005ba836000018360001b6200069560201b60201c565b905092915050565b6000620005f6846000018460001b8473ffffffffffffffffffffffffffffffffffffffff1660001b6200070f60201b60201c565b90509392505050565b60008060007fc5d2460186f7233c927e7db2dcc703c0e500b653ca82273b7bfad8045d85a47060001b9050833f91508082141580156200064257506000801b8214155b92505050919050565b600033905090565b60606200066a8484600085620007ee60201b60201c565b90509392505050565b60006200068d836000018360001b6200092560201b60201c565b905092915050565b6000620006a983836200094860201b60201c565b6200070457826000018290806001815401808255809150506001900390600052602060002001600090919091909150558260000180549050836001016000848152602001908152602001600020819055506001905062000709565b600090505b92915050565b6000808460010160008581526020019081526020016000205490506000811415620007b857846000016040518060400160405280868152602001858152509080600181540180825580915050600190039060005260206000209060020201600090919091909150600082015181600001556020820151816001015550508460000180549050856001016000868152602001908152602001600020819055506001915050620007e7565b82856000016001830381548110620007cc57fe5b90600052602060002090600202016001018190555060009150505b9392505050565b60606200080185620005ff60201b60201c565b62000843576040517f08c379a00000000000000000000000000000000000000000000000000000000081526004016200083a9062000e98565b60405180910390fd5b600060608673ffffffffffffffffffffffffffffffffffffffff1685876040516200086f919062000d7f565b60006040518083038185875af1925050503d8060008114620008ae576040519150601f19603f3d011682016040523d82523d6000602084013e620008b3565b606091505b50915091508115620008ca5780925050506200091d565b600081511115620008de5780518082602001fd5b836040517f08c379a000000000000000000000000000000000000000000000000000000000815260040162000914919062000dec565b60405180910390fd5b949350505050565b600080836001016000848152602001908152602001600020541415905092915050565b600080836001016000848152602001908152602001600020541415905092915050565b828054600181600116156101000203166002900490600052602060002090601f016020900481019282601f10620009ae57805160ff1916838001178555620009df565b82800160010185558215620009df579182015b82811115620009de578251825591602001919060010190620009c1565b5b509050620009ee9190620009f2565b5090565b5b8082111562000a0d576000816000905550600101620009f3565b5090565b60008151905062000a22816200101d565b92915050565b600082601f83011262000a3a57600080fd5b815162000a5162000a4b8262000ee8565b62000eba565b9150808252602083016020830185838301111562000a6e57600080fd5b62000a7b83828462000fd6565b50505092915050565b60006020828403121562000a9757600080fd5b600062000aa78482850162000a11565b91505092915050565b6000806040838503121562000ac457600080fd5b600083015167ffffffffffffffff81111562000adf57600080fd5b62000aed8582860162000a28565b925050602083015167ffffffffffffffff81111562000b0b57600080fd5b62000b198582860162000a28565b9150509250929050565b62000b2e8162000f6c565b82525050565b62000b3f8162000f58565b82525050565b600062000b528262000f15565b62000b5e818562000f2b565b935062000b7081856020860162000fd6565b62000b7b816200100c565b840191505092915050565b600062000b938262000f15565b62000b9f818562000f3c565b935062000bb181856020860162000fd6565b80840191505092915050565b600062000bca8262000f20565b62000bd6818562000f47565b935062000be881856020860162000fd6565b62000bf3816200100c565b840191505092915050565b600062000c0d60328362000f47565b91507f4552433732313a207472616e7366657220746f206e6f6e20455243373231526560008301527f63656976657220696d706c656d656e74657200000000000000000000000000006020830152604082019050919050565b600062000c75601c8362000f47565b91507f4552433136353a20696e76616c696420696e74657266616365206964000000006000830152602082019050919050565b600062000cb7601c8362000f47565b91507f4552433732313a20746f6b656e20616c7265616479206d696e746564000000006000830152602082019050919050565b600062000cf960208362000f47565b91507f4552433732313a206d696e7420746f20746865207a65726f20616464726573736000830152602082019050919050565b600062000d3b601d8362000f47565b91507f416464726573733a2063616c6c20746f206e6f6e2d636f6e74726163740000006000830152602082019050919050565b62000d798162000fcc565b82525050565b600062000d8d828462000b86565b915081905092915050565b600060808201905062000daf600083018762000b23565b62000dbe602083018662000b34565b62000dcd604083018562000d6e565b818103606083015262000de1818462000b45565b905095945050505050565b6000602082019050818103600083015262000e08818462000bbd565b905092915050565b6000602082019050818103600083015262000e2b8162000bfe565b9050919050565b6000602082019050818103600083015262000e4d8162000c66565b9050919050565b6000602082019050818103600083015262000e6f8162000ca8565b9050919050565b6000602082019050818103600083015262000e918162000cea565b9050919050565b6000602082019050818103600083015262000eb38162000d2c565b9050919050565b6000604051905081810181811067ffffffffffffffff8211171562000ede57600080fd5b8060405250919050565b600067ffffffffffffffff82111562000f0057600080fd5b601f19601f8301169050602081019050919050565b600081519050919050565b600081519050919050565b600082825260208201905092915050565b600081905092915050565b600082825260208201905092915050565b600062000f658262000fac565b9050919050565b600062000f798262000fac565b9050919050565b60007fffffffff0000000000000000000000000000000000000000000000000000000082169050919050565b600073ffffffffffffffffffffffffffffffffffffffff82169050919050565b6000819050919050565b60005b8381101562000ff657808201518184015260208101905062000fd9565b8381111562001006576000848401525b50505050565b6000601f19601f8301169050919050565b620010288162000f80565b81146200103457600080fd5b50565b612b8e80620010476000396000f3fe6080604052600436106101025760003560e01c80634f6ccce71161009557806395d89b411161006457806395d89b41146103b1578063a22cb465146103dc578063b88d4fde14610405578063c87b56dd1461042e578063e985e9c51461046b57610142565b80634f6ccce7146102cf5780636352211e1461030c5780636c0360eb1461034957806370a082311461037457610142565b806318160ddd116100d157806318160ddd1461021557806323b872dd146102405780632f745c591461026957806342842e0e146102a657610142565b806301ffc9a71461014757806306fdde0314610184578063081812fc146101af578063095ea7b3146101ec57610142565b36610142576040517f08c379a000000000000000000000000000000000000000000000000000000000815260040161013990612711565b60405180910390fd5b600080fd5b34801561015357600080fd5b5061016e60048036038101906101699190611e91565b6104a8565b60405161017b91906126d4565b60405180910390f35b34801561019057600080fd5b5061019961050f565b6040516101a691906126ef565b60405180910390f35b3480156101bb57600080fd5b506101d660048036038101906101d19190611ee3565b6105b1565b6040516101e3919061266d565b60405180910390f35b3480156101f857600080fd5b50610213600480360381019061020e9190611e55565b610636565b005b34801561022157600080fd5b5061022a61074e565b60405161023791906128f1565b60405180910390f35b34801561024c57600080fd5b5061026760048036038101906102629190611d4f565b61075f565b005b34801561027557600080fd5b50610290600480360381019061028b9190611e55565b6107bf565b60405161029d91906128f1565b60405180910390f35b3480156102b257600080fd5b506102cd60048036038101906102c89190611d4f565b61081a565b005b3480156102db57600080fd5b506102f660048036038101906102f19190611ee3565b61083a565b60405161030391906128f1565b60405180910390f35b34801561031857600080fd5b50610333600480360381019061032e9190611ee3565b61085d565b604051610340919061266d565b60405180910390f35b34801561035557600080fd5b5061035e610894565b60405161036b91906126ef565b60405180910390f35b34801561038057600080fd5b5061039b60048036038101906103969190611cea565b610936565b6040516103a891906128f1565b60405180910390f35b3480156103bd57600080fd5b506103c66109f5565b6040516103d391906126ef565b60405180910390f35b3480156103e857600080fd5b5061040360048036038101906103fe9190611e19565b610a97565b005b34801561041157600080fd5b5061042c60048036038101906104279190611d9e565b610c18565b005b34801561043a57600080fd5b5061045560048036038101906104509190611ee3565b610c7a565b60405161046291906126ef565b60405180910390f35b34801561047757600080fd5b50610492600480360381019061048d9190611d13565b610e05565b60405161049f91906126d4565b60405180910390f35b6000806000837bffffffffffffffffffffffffffffffffffffffffffffffffffffffff19167bffffffffffffffffffffffffffffffffffffffffffffffffffffffff1916815260200190815260200160002060009054906101000a900460ff169050919050565b606060068054600181600116156101000203166002900480601f0160208091040260200160405190810160405280929190818152602001828054600181600116156101000203166002900480156105a75780601f1061057c576101008083540402835291602001916105a7565b820191906000526020600020905b81548152906001019060200180831161058a57829003601f168201915b5050505050905090565b60006105bc82610f65565b6105fb576040517f08c379a00000000000000000000000000000000000000000000000000000000081526004016105f290612831565b60405180910390fd5b6004600083815260200190815260200160002060009054906101000a900473ffffffffffffffffffffffffffffffffffffffff169050919050565b60006106418261085d565b90508073ffffffffffffffffffffffffffffffffffffffff168373ffffffffffffffffffffffffffffffffffffffff1614156106b2576040517f08c379a00000000000000000000000000000000000000000000000000000000081526004016106a990612891565b60405180910390fd5b8073ffffffffffffffffffffffffffffffffffffffff166106d1610f82565b73ffffffffffffffffffffffffffffffffffffffff16148061070057506106ff816106fa610f82565b610e05565b5b61073f576040517f08c379a0000000000000000000000000000000000000000000000000000000008152600401610736906127d1565b60405180910390fd5b6107498383610f8a565b505050565b600061075a6002611043565b905090565b61077061076a610f82565b82611058565b6107af576040517f08c379a00000000000000000000000000000000000000000000000000000000081526004016107a6906128b1565b60405180910390fd5b6107ba838383611136565b505050565b600061081282600160008673ffffffffffffffffffffffffffffffffffffffff1673ffffffffffffffffffffffffffffffffffffffff16815260200190815260200160002061134d90919063ffffffff16565b905092915050565b61083583838360405180602001604052806000815250610c18565b505050565b60008061085183600261136790919063ffffffff16565b50905080915050919050565b600061088d82604051806060016040528060298152602001612b306029913960026113939092919063ffffffff16565b9050919050565b606060098054600181600116156101000203166002900480601f01602080910402602001604051908101604052809291908181526020018280546001816001161561010002031660029004801561092c5780601f106109015761010080835404028352916020019161092c565b820191906000526020600020905b81548152906001019060200180831161090f57829003601f168201915b5050505050905090565b60008073ffffffffffffffffffffffffffffffffffffffff168273ffffffffffffffffffffffffffffffffffffffff1614156109a7576040517f08c379a000000000000000000000000000000000000000000000000000000000815260040161099e906127f1565b60405180910390fd5b6109ee600160008473ffffffffffffffffffffffffffffffffffffffff1673ffffffffffffffffffffffffffffffffffffffff1681526020019081526020016000206113b2565b9050919050565b606060078054600181600116156101000203166002900480601f016020809104026020016040519081016040528092919081815260200182805460018160011615610100020316600290048015610a8d5780601f10610a6257610100808354040283529160200191610a8d565b820191906000526020600020905b815481529060010190602001808311610a7057829003601f168201915b5050505050905090565b610a9f610f82565b73ffffffffffffffffffffffffffffffffffffffff168273ffffffffffffffffffffffffffffffffffffffff161415610b0d576040517f08c379a0000000000000000000000000000000000000000000000000000000008152600401610b0490612791565b60405180910390fd5b8060056000610b1a610f82565b73ffffffffffffffffffffffffffffffffffffffff1673ffffffffffffffffffffffffffffffffffffffff16815260200190815260200160002060008473ffffffffffffffffffffffffffffffffffffffff1673ffffffffffffffffffffffffffffffffffffffff16815260200190815260200160002060006101000a81548160ff0219169083151502179055508173ffffffffffffffffffffffffffffffffffffffff16610bc7610f82565b73ffffffffffffffffffffffffffffffffffffffff167f17307eab39ab6107e8899845ad3d59bd9653f200f220920489ca2b5937696c3183604051610c0c91906126d4565b60405180910390a35050565b610c29610c23610f82565b83611058565b610c68576040517f08c379a0000000000000000000000000000000000000000000000000000000008152600401610c5f906128b1565b60405180910390fd5b610c74848484846113c7565b50505050565b6060610c8582610f65565b610cc4576040517f08c379a0000000000000000000000000000000000000000000000000000000008152600401610cbb90612871565b60405180910390fd5b6060600860008481526020019081526020016000208054600181600116156101000203166002900480601f016020809104026020016040519081016040528092919081815260200182805460018160011615610100020316600290048015610d6d5780601f10610d4257610100808354040283529160200191610d6d565b820191906000526020600020905b815481529060010190602001808311610d5057829003601f168201915b50505050509050600060098054600181600116156101000203166002900490501415610d9c5780915050610e00565b600081511115610dd157600981604051602001610dba929190612649565b604051602081830303815290604052915050610e00565b6009610ddc84611423565b604051602001610ded929190612649565b6040516020818303038152906040529150505b919050565b6000600560008473ffffffffffffffffffffffffffffffffffffffff1673ffffffffffffffffffffffffffffffffffffffff16815260200190815260200160002060008373ffffffffffffffffffffffffffffffffffffffff1673ffffffffffffffffffffffffffffffffffffffff16815260200190815260200160002060009054906101000a900460ff16905092915050565b6000610eab836000018360001b61156a565b905092915050565b6000610edf846000018460001b8473ffffffffffffffffffffffffffffffffffffffff1660001b6115da565b90509392505050565b60008060007fc5d2460186f7233c927e7db2dcc703c0e500b653ca82273b7bfad8045d85a47060001b9050833f9150808214158015610f2a57506000801b8214155b92505050919050565b6060610f4284846000856116b6565b90509392505050565b6000610f5d836000018360001b6117d9565b905092915050565b6000610f7b826002610f4b90919063ffffffff16565b9050919050565b600033905090565b816004600083815260200190815260200160002060006101000a81548173ffffffffffffffffffffffffffffffffffffffff021916908373ffffffffffffffffffffffffffffffffffffffff160217905550808273ffffffffffffffffffffffffffffffffffffffff16610ffd8361085d565b73ffffffffffffffffffffffffffffffffffffffff167f8c5be1e5ebec7d5bd14f71427d1e84f3dd0314c0f7b2291e5b200ac8c7c3b92560405160405180910390a45050565b6000611051826000016117fc565b9050919050565b600061106382610f65565b6110a2576040517f08c379a0000000000000000000000000000000000000000000000000000000008152600401611099906127b1565b60405180910390fd5b60006110ad8361085d565b90508073ffffffffffffffffffffffffffffffffffffffff168473ffffffffffffffffffffffffffffffffffffffff16148061111c57508373ffffffffffffffffffffffffffffffffffffffff16611104846105b1565b73ffffffffffffffffffffffffffffffffffffffff16145b8061112d575061112c8185610e05565b5b91505092915050565b8273ffffffffffffffffffffffffffffffffffffffff166111568261085d565b73ffffffffffffffffffffffffffffffffffffffff16146111ac576040517f08c379a00000000000000000000000000000000000000000000000000000000081526004016111a390612851565b60405180910390fd5b600073ffffffffffffffffffffffffffffffffffffffff168273ffffffffffffffffffffffffffffffffffffffff16141561121c576040517f08c379a000000000000000000000000000000000000000000000000000000000815260040161121390612771565b60405180910390fd5b61122783838361180d565b611232600082610f8a565b61128381600160008673ffffffffffffffffffffffffffffffffffffffff1673ffffffffffffffffffffffffffffffffffffffff16815260200190815260200160002061181290919063ffffffff16565b506112d581600160008573ffffffffffffffffffffffffffffffffffffffff1673ffffffffffffffffffffffffffffffffffffffff168152602001908152602001600020610e9990919063ffffffff16565b506112ec81836002610eb39092919063ffffffff16565b50808273ffffffffffffffffffffffffffffffffffffffff168473ffffffffffffffffffffffffffffffffffffffff167fddf252ad1be2c89b69c2b068fc378daa952ba7f163c4a11628f55a4df523b3ef60405160405180910390a4505050565b600061135c836000018361182c565b60001c905092915050565b60008060008061137a8660000186611899565b915091508160001c8160001c9350935050509250929050565b60006113a6846000018460001b8461191c565b60001c90509392505050565b60006113c0826000016119ad565b9050919050565b6113d2848484611136565b6113de848484846119be565b61141d576040517f08c379a000000000000000000000000000000000000000000000000000000000815260040161141490612751565b60405180910390fd5b50505050565b6060600082141561146b576040518060400160405280600181526020017f30000000000000000000000000000000000000000000000000000000000000008152509050611565565b600082905060005b60008214611495578080600101915050600a828161148d57fe5b049150611473565b60608167ffffffffffffffff811180156114ae57600080fd5b506040519080825280601f01601f1916602001820160405280156114e15781602001600182028036833780820191505090505b50905060006001830390508593505b6000841461155d57600a848161150257fe5b0660300160f81b8282806001900393508151811061151c57fe5b60200101907effffffffffffffffffffffffffffffffffffffffffffffffffffffffffffff1916908160001a905350600a848161155557fe5b0493506114f0565b819450505050505b919050565b60006115768383611b22565b6115cf5782600001829080600181540180825580915050600190039060005260206000200160009091909190915055826000018054905083600101600084815260200190815260200160002081905550600190506115d4565b600090505b92915050565b6000808460010160008581526020019081526020016000205490506000811415611681578460000160405180604001604052808681526020018581525090806001815401808255809150506001900390600052602060002090600202016000909190919091506000820151816000015560208201518160010155505084600001805490508560010160008681526020019081526020016000208190555060019150506116af565b8285600001600183038154811061169457fe5b90600052602060002090600202016001018190555060009150505b9392505050565b60606116c185610ee8565b611700576040517f08c379a00000000000000000000000000000000000000000000000000000000081526004016116f7906128d1565b60405180910390fd5b600060608673ffffffffffffffffffffffffffffffffffffffff16858760405161172a9190612632565b60006040518083038185875af1925050503d8060008114611767576040519150601f19603f3d011682016040523d82523d6000602084013e61176c565b606091505b509150915081156117815780925050506117d1565b6000815111156117945780518082602001fd5b836040517f08c379a00000000000000000000000000000000000000000000000000000000081526004016117c891906126ef565b60405180910390fd5b949350505050565b600080836001016000848152602001908152602001600020541415905092915050565b600081600001805490509050919050565b505050565b6000611824836000018360001b611b45565b905092915050565b600081836000018054905011611877576040517f08c379a000000000000000000000000000000000000000000000000000000000815260040161186e90612731565b60405180910390fd5b82600001828154811061188657fe5b9060005260206000200154905092915050565b600080828460000180549050116118e5576040517f08c379a00000000000000000000000000000000000000000000000000000000081526004016118dc90612811565b60405180910390fd5b60008460000184815481106118f657fe5b906000526020600020906002020190508060000154816001015492509250509250929050565b6000808460010160008581526020019081526020016000205490506000811415839061197e576040517f08c379a000000000000000000000000000000000000000000000000000000000815260040161197591906126ef565b60405180910390fd5b5084600001600182038154811061199157fe5b9060005260206000209060020201600101549150509392505050565b600081600001805490509050919050565b60006119df8473ffffffffffffffffffffffffffffffffffffffff16610ee8565b6119ec5760019050611b1a565b6060611ab363150b7a0260e01b611a01610f82565b888787604051602401611a179493929190612688565b604051602081830303815290604052907bffffffffffffffffffffffffffffffffffffffffffffffffffffffff19166020820180517bffffffffffffffffffffffffffffffffffffffffffffffffffffffff8381831617835250505050604051806060016040528060328152602001612afe603291398773ffffffffffffffffffffffffffffffffffffffff16610f339092919063ffffffff16565b9050600081806020019051810190611acb9190611eba565b905063150b7a0260e01b7bffffffffffffffffffffffffffffffffffffffffffffffffffffffff1916817bffffffffffffffffffffffffffffffffffffffffffffffffffffffff191614925050505b949350505050565b600080836001016000848152602001908152602001600020541415905092915050565b60008083600101600084815260200190815260200160002054905060008114611c215760006001820390506000600186600001805490500390506000866000018281548110611b9057fe5b9060005260206000200154905080876000018481548110611bad57fe5b9060005260206000200181905550600183018760010160008381526020019081526020016000208190555086600001805480611be557fe5b60019003818190600052602060002001600090559055866001016000878152602001908152602001600020600090556001945050505050611c27565b60009150505b92915050565b600081359050611c3c81612aa1565b92915050565b600081359050611c5181612ab8565b92915050565b600081359050611c6681612acf565b92915050565b600081519050611c7b81612acf565b92915050565b600082601f830112611c9257600080fd5b8135611ca5611ca082612939565b61290c565b91508082526020830160208301858383011115611cc157600080fd5b611ccc838284612a4e565b50505092915050565b600081359050611ce481612ae6565b92915050565b600060208284031215611cfc57600080fd5b6000611d0a84828501611c2d565b91505092915050565b60008060408385031215611d2657600080fd5b6000611d3485828601611c2d565b9250506020611d4585828601611c2d565b9150509250929050565b600080600060608486031215611d6457600080fd5b6000611d7286828701611c2d565b9350506020611d8386828701611c2d565b9250506040611d9486828701611cd5565b9150509250925092565b60008060008060808587031215611db457600080fd5b6000611dc287828801611c2d565b9450506020611dd387828801611c2d565b9350506040611de487828801611cd5565b925050606085013567ffffffffffffffff811115611e0157600080fd5b611e0d87828801611c81565b91505092959194509250565b60008060408385031215611e2c57600080fd5b6000611e3a85828601611c2d565b9250506020611e4b85828601611c42565b9150509250929050565b60008060408385031215611e6857600080fd5b6000611e7685828601611c2d565b9250506020611e8785828601611cd5565b9150509250929050565b600060208284031215611ea357600080fd5b6000611eb184828501611c57565b91505092915050565b600060208284031215611ecc57600080fd5b6000611eda84828501611c6c565b91505092915050565b600060208284031215611ef557600080fd5b6000611f0384828501611cd5565b91505092915050565b611f15816129da565b82525050565b611f24816129c8565b82525050565b611f33816129ec565b82525050565b6000611f448261297a565b611f4e8185612990565b9350611f5e818560208601612a5d565b611f6781612a90565b840191505092915050565b6000611f7d8261297a565b611f8781856129a1565b9350611f97818560208601612a5d565b80840191505092915050565b6000611fae82612985565b611fb881856129ac565b9350611fc8818560208601612a5d565b611fd181612a90565b840191505092915050565b6000611fe782612985565b611ff181856129bd565b9350612001818560208601612a5d565b80840191505092915050565b60008154600181166000811461202a576001811461204f57612093565b607f600283041661203b81876129bd565b955060ff1983168652808601935050612093565b6002820461205d81876129bd565b955061206885612965565b60005b8281101561208a5781548189015260018201915060208101905061206b565b82880195505050505b505092915050565b60006120a86013836129ac565b91507f506f644e46543a204e6f742050617961626c65000000000000000000000000006000830152602082019050919050565b60006120e86022836129ac565b91507f456e756d657261626c655365743a20696e646578206f7574206f6620626f756e60008301527f64730000000000000000000000000000000000000000000000000000000000006020830152604082019050919050565b600061214e6032836129ac565b91507f4552433732313a207472616e7366657220746f206e6f6e20455243373231526560008301527f63656976657220696d706c656d656e74657200000000000000000000000000006020830152604082019050919050565b60006121b46024836129ac565b91507f4552433732313a207472616e7366657220746f20746865207a65726f2061646460008301527f72657373000000000000000000000000000000000000000000000000000000006020830152604082019050919050565b600061221a6019836129ac565b91507f4552433732313a20617070726f766520746f2063616c6c6572000000000000006000830152602082019050919050565b600061225a602c836129ac565b91507f4552433732313a206f70657261746f7220717565727920666f72206e6f6e657860008301527f697374656e7420746f6b656e00000000000000000000000000000000000000006020830152604082019050919050565b60006122c06038836129ac565b91507f4552433732313a20617070726f76652063616c6c6572206973206e6f74206f7760008301527f6e6572206e6f7220617070726f76656420666f7220616c6c00000000000000006020830152604082019050919050565b6000612326602a836129ac565b91507f4552433732313a2062616c616e636520717565727920666f7220746865207a6560008301527f726f2061646472657373000000000000000000000000000000000000000000006020830152604082019050919050565b600061238c6022836129ac565b91507f456e756d657261626c654d61703a20696e646578206f7574206f6620626f756e60008301527f64730000000000000000000000000000000000000000000000000000000000006020830152604082019050919050565b60006123f2602c836129ac565b91507f4552433732313a20617070726f76656420717565727920666f72206e6f6e657860008301527f697374656e7420746f6b656e00000000000000000000000000000000000000006020830152604082019050919050565b60006124586029836129ac565b91507f4552433732313a207472616e73666572206f6620746f6b656e2074686174206960008301527f73206e6f74206f776e00000000000000000000000000000000000000000000006020830152604082019050919050565b60006124be602f836129ac565b91507f4552433732314d657461646174613a2055524920717565727920666f72206e6f60008301527f6e6578697374656e7420746f6b656e00000000000000000000000000000000006020830152604082019050919050565b60006125246021836129ac565b91507f4552433732313a20617070726f76616c20746f2063757272656e74206f776e6560008301527f72000000000000000000000000000000000000000000000000000000000000006020830152604082019050919050565b600061258a6031836129ac565b91507f4552433732313a207472616e736665722063616c6c6572206973206e6f74206f60008301527f776e6572206e6f7220617070726f7665640000000000000000000000000000006020830152604082019050919050565b60006125f0601d836129ac565b91507f416464726573733a2063616c6c20746f206e6f6e2d636f6e74726163740000006000830152602082019050919050565b61262c81612a44565b82525050565b600061263e8284611f72565b915081905092915050565b6000612655828561200d565b91506126618284611fdc565b91508190509392505050565b60006020820190506126826000830184611f1b565b92915050565b600060808201905061269d6000830187611f0c565b6126aa6020830186611f1b565b6126b76040830185612623565b81810360608301526126c98184611f39565b905095945050505050565b60006020820190506126e96000830184611f2a565b92915050565b600060208201905081810360008301526127098184611fa3565b905092915050565b6000602082019050818103600083015261272a8161209b565b9050919050565b6000602082019050818103600083015261274a816120db565b9050919050565b6000602082019050818103600083015261276a81612141565b9050919050565b6000602082019050818103600083015261278a816121a7565b9050919050565b600060208201905081810360008301526127aa8161220d565b9050919050565b600060208201905081810360008301526127ca8161224d565b9050919050565b600060208201905081810360008301526127ea816122b3565b9050919050565b6000602082019050818103600083015261280a81612319565b9050919050565b6000602082019050818103600083015261282a8161237f565b9050919050565b6000602082019050818103600083015261284a816123e5565b9050919050565b6000602082019050818103600083015261286a8161244b565b9050919050565b6000602082019050818103600083015261288a816124b1565b9050919050565b600060208201905081810360008301526128aa81612517565b9050919050565b600060208201905081810360008301526128ca8161257d565b9050919050565b600060208201905081810360008301526128ea816125e3565b9050919050565b60006020820190506129066000830184612623565b92915050565b6000604051905081810181811067ffffffffffffffff8211171561292f57600080fd5b8060405250919050565b600067ffffffffffffffff82111561295057600080fd5b601f19601f8301169050602081019050919050565b60008190508160005260206000209050919050565b600081519050919050565b600081519050919050565b600082825260208201905092915050565b600081905092915050565b600082825260208201905092915050565b600081905092915050565b60006129d382612a24565b9050919050565b60006129e582612a24565b9050919050565b60008115159050919050565b60007fffffffff0000000000000000000000000000000000000000000000000000000082169050919050565b600073ffffffffffffffffffffffffffffffffffffffff82169050919050565b6000819050919050565b82818337600083830152505050565b60005b83811015612a7b578082015181840152602081019050612a60565b83811115612a8a576000848401525b50505050565b6000601f19601f8301169050919050565b612aaa816129c8565b8114612ab557600080fd5b50565b612ac1816129ec565b8114612acc57600080fd5b50565b612ad8816129f8565b8114612ae357600080fd5b50565b612aef81612a44565b8114612afa57600080fd5b5056fe4552433732313a207472616e7366657220746f206e6f6e20455243373231526563656976657220696d706c656d656e7465724552433732313a206f776e657220717565727920666f72206e6f6e6578697374656e7420746f6b656ea2646970667358221220b5eab395e046d5f9994c6e05aea6333540d451e0dc6b274116ed6ee1b55a9abf64736f6c634300070000334552433732313a207472616e7366657220746f206e6f6e20455243373231526563656976657220696d706c656d656e746572",
  "linkReferences": {},
  "deployedLinkReferences": {}
}