{
  "address": "0x52Af5390b10C2a40B18F3Ed6654e0272E1c48CA5",
  "abi": [
    {
      "inputs": [
        {
          "internalType": "address",
          "name": "_prizePoolTarget",
          "type": "address"
        },
        {
          "internalType": "address",
          "name": "_token",
          "type": "address"
        },
        {
          "internalType": "address",
          "name": "_ticket",
          "type": "address"
        },
        {
          "internalType": "address",
          "name": "_pool",
          "type": "address"
        },
        {
          "internalType": "address",
          "name": "_faucet",
          "type": "address"
        },
        {
          "internalType": "address",
          "name": "_manager",
          "type": "address"
        }
      ],
      "stateMutability": "nonpayable",
      "type": "constructor"
    },
    {
      "anonymous": false,
      "inputs": [
        {
          "indexed": true,
          "internalType": "address",
          "name": "owner",
          "type": "address"
        },
        {
          "indexed": true,
          "internalType": "address",
          "name": "spender",
          "type": "address"
        },
        {
          "indexed": false,
          "internalType": "uint256",
          "name": "value",
          "type": "uint256"
        }
      ],
      "name": "Approval",
      "type": "event"
    },
    {
      "anonymous": false,
      "inputs": [
        {
          "indexed": false,
          "internalType": "uint256",
          "name": "amount",
          "type": "uint256"
        },
        {
          "indexed": false,
          "internalType": "uint256",
          "name": "timestamp",
          "type": "uint256"
        }
      ],
      "name": "Batch",
      "type": "event"
    },
    {
      "anonymous": false,
      "inputs": [
        {
          "indexed": false,
          "internalType": "address",
          "name": "user",
          "type": "address"
        },
        {
          "indexed": false,
          "internalType": "uint256",
          "name": "balance",
          "type": "uint256"
        }
      ],
      "name": "Claimed",
      "type": "event"
    },
    {
      "anonymous": false,
      "inputs": [
        {
          "indexed": false,
          "internalType": "address",
          "name": "user",
          "type": "address"
        },
        {
          "indexed": false,
          "internalType": "uint256",
          "name": "amount",
          "type": "uint256"
        },
        {
          "indexed": false,
          "internalType": "uint256",
          "name": "shares",
          "type": "uint256"
        }
      ],
      "name": "Deposited",
      "type": "event"
    },
    {
      "anonymous": false,
      "inputs": [
        {
          "indexed": false,
          "internalType": "address",
          "name": "account",
          "type": "address"
        },
        {
          "indexed": false,
          "internalType": "uint256",
          "name": "amount",
          "type": "uint256"
        }
      ],
      "name": "DripCalculate",
      "type": "event"
    },
    {
      "anonymous": false,
      "inputs": [
        {
          "indexed": false,
          "internalType": "address",
          "name": "from",
          "type": "address"
        },
        {
          "indexed": false,
          "internalType": "uint256",
          "name": "tokenId",
          "type": "uint256"
        }
      ],
      "name": "ERC721Collected",
      "type": "event"
    },
    {
      "anonymous": false,
      "inputs": [
        {
          "indexed": true,
          "internalType": "address",
          "name": "previousmanager",
          "type": "address"
        },
        {
          "indexed": true,
          "internalType": "address",
          "name": "newmanager",
          "type": "address"
        }
      ],
      "name": "ManagementTransferred",
      "type": "event"
    },
    {
      "anonymous": false,
      "inputs": [
        {
          "indexed": false,
          "internalType": "uint256",
          "name": "amount",
          "type": "uint256"
        }
      ],
      "name": "PodClaimed",
      "type": "event"
    },
    {
      "anonymous": false,
      "inputs": [
        {
          "indexed": false,
          "internalType": "address",
          "name": "sponsor",
          "type": "address"
        },
        {
          "indexed": false,
          "internalType": "uint256",
          "name": "amount",
          "type": "uint256"
        }
      ],
      "name": "Sponsored",
      "type": "event"
    },
    {
      "anonymous": false,
      "inputs": [
        {
          "indexed": true,
          "internalType": "address",
          "name": "from",
          "type": "address"
        },
        {
          "indexed": true,
          "internalType": "address",
          "name": "to",
          "type": "address"
        },
        {
          "indexed": false,
          "internalType": "uint256",
          "name": "value",
          "type": "uint256"
        }
      ],
      "name": "Transfer",
      "type": "event"
    },
    {
      "anonymous": false,
      "inputs": [
        {
          "indexed": false,
          "internalType": "address",
          "name": "user",
          "type": "address"
        },
        {
          "indexed": false,
          "internalType": "uint256",
          "name": "amount",
          "type": "uint256"
        },
        {
          "indexed": false,
          "internalType": "uint256",
          "name": "shares",
          "type": "uint256"
        }
      ],
      "name": "Withdrawl",
      "type": "event"
    },
    {
      "inputs": [
        {
          "internalType": "address",
          "name": "owner",
          "type": "address"
        },
        {
          "internalType": "address",
          "name": "spender",
          "type": "address"
        }
      ],
      "name": "allowance",
      "outputs": [
        {
          "internalType": "uint256",
          "name": "",
          "type": "uint256"
        }
      ],
      "stateMutability": "view",
      "type": "function"
    },
    {
      "inputs": [
        {
          "internalType": "address",
          "name": "spender",
          "type": "address"
        },
        {
          "internalType": "uint256",
          "name": "amount",
          "type": "uint256"
        }
      ],
      "name": "approve",
      "outputs": [
        {
          "internalType": "bool",
          "name": "",
          "type": "bool"
        }
      ],
      "stateMutability": "nonpayable",
      "type": "function"
    },
    {
      "inputs": [],
      "name": "balance",
      "outputs": [
        {
          "internalType": "uint256",
          "name": "",
          "type": "uint256"
        }
      ],
      "stateMutability": "view",
      "type": "function"
    },
    {
      "inputs": [
        {
          "internalType": "address",
          "name": "account",
          "type": "address"
        }
      ],
      "name": "balanceOf",
      "outputs": [
        {
          "internalType": "uint256",
          "name": "",
          "type": "uint256"
        }
      ],
      "stateMutability": "view",
      "type": "function"
    },
    {
      "inputs": [],
      "name": "batch",
      "outputs": [],
      "stateMutability": "nonpayable",
      "type": "function"
    },
    {
      "inputs": [],
      "name": "batchBacklog",
      "outputs": [
        {
          "internalType": "uint256",
          "name": "",
          "type": "uint256"
        }
      ],
      "stateMutability": "view",
      "type": "function"
    },
    {
      "inputs": [
        {
          "internalType": "address",
          "name": "user",
          "type": "address"
        },
        {
          "internalType": "address",
          "name": "_token",
          "type": "address"
        }
      ],
      "name": "claim",
      "outputs": [
        {
          "internalType": "uint256",
          "name": "",
          "type": "uint256"
        }
      ],
      "stateMutability": "nonpayable",
      "type": "function"
    },
    {
      "inputs": [],
      "name": "claimPod",
      "outputs": [
        {
          "internalType": "uint256",
          "name": "",
          "type": "uint256"
        }
      ],
      "stateMutability": "nonpayable",
      "type": "function"
    },
    {
      "inputs": [],
      "name": "decimals",
      "outputs": [
        {
          "internalType": "uint8",
          "name": "",
          "type": "uint8"
        }
      ],
      "stateMutability": "view",
      "type": "function"
    },
    {
      "inputs": [
        {
          "internalType": "address",
          "name": "spender",
          "type": "address"
        },
        {
          "internalType": "uint256",
          "name": "subtractedValue",
          "type": "uint256"
        }
      ],
      "name": "decreaseAllowance",
      "outputs": [
        {
          "internalType": "bool",
          "name": "",
          "type": "bool"
        }
      ],
      "stateMutability": "nonpayable",
      "type": "function"
    },
    {
      "inputs": [
        {
          "internalType": "address",
          "name": "to",
          "type": "address"
        },
        {
          "internalType": "uint256",
          "name": "tokenAmount",
          "type": "uint256"
        }
      ],
      "name": "depositTo",
      "outputs": [
        {
          "internalType": "uint256",
          "name": "",
          "type": "uint256"
        }
      ],
      "stateMutability": "nonpayable",
      "type": "function"
    },
    {
      "inputs": [],
      "name": "drip",
      "outputs": [
        {
          "internalType": "contract TokenDrop",
          "name": "",
          "type": "address"
        }
      ],
      "stateMutability": "view",
      "type": "function"
    },
    {
      "inputs": [],
      "name": "faucet",
      "outputs": [
        {
          "internalType": "contract TokenFaucet",
          "name": "",
          "type": "address"
        }
      ],
      "stateMutability": "view",
      "type": "function"
    },
    {
      "inputs": [],
      "name": "getPricePerShare",
      "outputs": [
        {
          "internalType": "uint256",
          "name": "",
          "type": "uint256"
        }
      ],
      "stateMutability": "view",
      "type": "function"
    },
    {
      "inputs": [
        {
          "internalType": "address",
          "name": "user",
          "type": "address"
        }
      ],
      "name": "getUserPricePerShare",
      "outputs": [
        {
          "internalType": "uint256",
          "name": "",
          "type": "uint256"
        }
      ],
      "stateMutability": "view",
      "type": "function"
    },
    {
      "inputs": [
        {
          "internalType": "address",
          "name": "spender",
          "type": "address"
        },
        {
          "internalType": "uint256",
          "name": "addedValue",
          "type": "uint256"
        }
      ],
      "name": "increaseAllowance",
      "outputs": [
        {
          "internalType": "bool",
          "name": "",
          "type": "bool"
        }
      ],
      "stateMutability": "nonpayable",
      "type": "function"
    },
    {
      "inputs": [],
      "name": "manager",
      "outputs": [
        {
          "internalType": "contract IPodManager",
          "name": "",
          "type": "address"
        }
      ],
      "stateMutability": "view",
      "type": "function"
    },
    {
      "inputs": [],
      "name": "name",
      "outputs": [
        {
          "internalType": "string",
          "name": "",
          "type": "string"
        }
      ],
      "stateMutability": "view",
      "type": "function"
    },
    {
      "inputs": [],
      "name": "podManager",
      "outputs": [
        {
          "internalType": "address",
          "name": "",
          "type": "address"
        }
      ],
      "stateMutability": "view",
      "type": "function"
    },
    {
      "inputs": [],
      "name": "pool",
      "outputs": [
        {
          "internalType": "address",
          "name": "",
          "type": "address"
        }
      ],
      "stateMutability": "view",
      "type": "function"
    },
    {
      "inputs": [],
      "name": "prizePool",
      "outputs": [
        {
          "internalType": "address",
          "name": "",
          "type": "address"
        }
      ],
      "stateMutability": "view",
      "type": "function"
    },
    {
      "inputs": [],
      "name": "reserveFeeAccuracy",
      "outputs": [
        {
          "internalType": "uint256",
          "name": "",
          "type": "uint256"
        }
      ],
      "stateMutability": "view",
      "type": "function"
    },
    {
      "inputs": [],
      "name": "reservePercentage",
      "outputs": [
        {
          "internalType": "uint256",
          "name": "",
          "type": "uint256"
        }
      ],
      "stateMutability": "view",
      "type": "function"
    },
    {
      "inputs": [],
      "name": "reserves",
      "outputs": [
        {
          "internalType": "uint256",
          "name": "",
          "type": "uint256"
        }
      ],
      "stateMutability": "view",
      "type": "function"
    },
    {
      "inputs": [],
      "name": "symbol",
      "outputs": [
        {
          "internalType": "string",
          "name": "",
          "type": "string"
        }
      ],
      "stateMutability": "view",
      "type": "function"
    },
    {
      "inputs": [],
      "name": "ticket",
      "outputs": [
        {
          "internalType": "address",
          "name": "",
          "type": "address"
        }
      ],
      "stateMutability": "view",
      "type": "function"
    },
    {
      "inputs": [],
      "name": "token",
      "outputs": [
        {
          "internalType": "address",
          "name": "",
          "type": "address"
        }
      ],
      "stateMutability": "view",
      "type": "function"
    },
    {
      "inputs": [],
      "name": "totalSupply",
      "outputs": [
        {
          "internalType": "uint256",
          "name": "",
          "type": "uint256"
        }
      ],
      "stateMutability": "view",
      "type": "function"
    },
    {
      "inputs": [
        {
          "internalType": "address",
          "name": "recipient",
          "type": "address"
        },
        {
          "internalType": "uint256",
          "name": "amount",
          "type": "uint256"
        }
      ],
      "name": "transfer",
      "outputs": [
        {
          "internalType": "bool",
          "name": "",
          "type": "bool"
        }
      ],
      "stateMutability": "nonpayable",
      "type": "function"
    },
    {
      "inputs": [
        {
          "internalType": "address",
          "name": "sender",
          "type": "address"
        },
        {
          "internalType": "address",
          "name": "recipient",
          "type": "address"
        },
        {
          "internalType": "uint256",
          "name": "amount",
          "type": "uint256"
        }
      ],
      "name": "transferFrom",
      "outputs": [
        {
          "internalType": "bool",
          "name": "",
          "type": "bool"
        }
      ],
      "stateMutability": "nonpayable",
      "type": "function"
    },
    {
      "inputs": [
        {
          "internalType": "contract IPodManager",
          "name": "newManager",
          "type": "address"
        }
      ],
      "name": "transferManagement",
      "outputs": [],
      "stateMutability": "nonpayable",
      "type": "function"
    },
    {
      "inputs": [],
      "name": "vaultPoolBalance",
      "outputs": [
        {
          "internalType": "uint256",
          "name": "",
          "type": "uint256"
        }
      ],
      "stateMutability": "view",
      "type": "function"
    },
    {
      "inputs": [],
      "name": "vaultTicketBalance",
      "outputs": [
        {
          "internalType": "uint256",
          "name": "",
          "type": "uint256"
        }
      ],
      "stateMutability": "view",
      "type": "function"
    },
    {
      "inputs": [],
      "name": "vaultTokenBalance",
      "outputs": [
        {
          "internalType": "uint256",
          "name": "",
          "type": "uint256"
        }
      ],
      "stateMutability": "view",
      "type": "function"
    },
    {
      "inputs": [
        {
          "internalType": "uint256",
          "name": "shareAmount",
          "type": "uint256"
        }
      ],
      "name": "withdraw",
      "outputs": [
        {
          "internalType": "uint256",
          "name": "",
          "type": "uint256"
        }
      ],
      "stateMutability": "nonpayable",
      "type": "function"
    },
    {
      "inputs": [
        {
          "internalType": "contract IERC20",
          "name": "_target",
          "type": "address"
        },
        {
          "internalType": "uint256",
          "name": "amount",
          "type": "uint256"
        }
      ],
      "name": "withdrawERC20",
      "outputs": [],
      "stateMutability": "nonpayable",
      "type": "function"
    },
    {
      "inputs": [
        {
          "internalType": "contract IERC721",
          "name": "_token",
          "type": "address"
        },
        {
          "internalType": "uint256",
          "name": "tokenId",
          "type": "uint256"
        }
      ],
      "name": "withdrawERC721",
      "outputs": [],
      "stateMutability": "nonpayable",
      "type": "function"
    }
  ],
  "transactionHash": "0x9742e867b1a92fe8408ea28e9a2ef9369ad8c5e0bb989b5cc725cdd15c0e9a7c",
  "args": [
    "0xEBfb47A7ad0FD6e57323C8A42B2E5A6a4F68fc1a",
    "0x6B175474E89094C44Da98b954EedeAC495271d0F",
    "0x334cBb5858417Aee161B53Ee0D5349cCF54514CF",
    "0x0cec1a9154ff802e7934fc916ed7ca50bde6844e",
    "0xF362ce295F2A4eaE4348fFC8cDBCe8d729ccb8Eb",
    "0xE6CaD6F3c39c404F6477B925C1a25B5dE4Af5282"
  ],
  "solcInputHash": "2bf03273a456ab68cbdc87790fe5053a",
  "bytecode": "0x60a0604052600a600c55662386f26fc10000600d553480156200002157600080fd5b506040516200552338038062005523833981810160405260c08110156200004757600080fd5b810190808051906020019092919080519060200190929190805190602001909291908051906020019092919080519060200190929190805190602001909291905050508473ffffffffffffffffffffffffffffffffffffffff166306fdde036040518163ffffffff1660e01b815260040160006040518083038186803b158015620000d157600080fd5b505afa158015620000e6573d6000803e3d6000fd5b505050506040513d6000823e3d601f19601f8201168201806040525060208110156200011157600080fd5b81019080805160405193929190846401000000008211156200013257600080fd5b838201915060208201858111156200014957600080fd5b82518660018202830111640100000000821117156200016757600080fd5b8083526020830192505050908051906020019080838360005b838110156200019d57808201518184015260208101905062000180565b50505050905090810190601f168015620001cb5780820380516001836020036101000a031916815260200191505b5060405250505060405160200180807f70506f642000000000000000000000000000000000000000000000000000000081525060050182805190602001908083835b602083106200023257805182526020820191506020810190506020830392506200020d565b6001836020036101000a0380198251168184511680821785525050505050509050019150506040516020818303038152906040528573ffffffffffffffffffffffffffffffffffffffff166395d89b416040518163ffffffff1660e01b815260040160006040518083038186803b158015620002ad57600080fd5b505afa158015620002c2573d6000803e3d6000fd5b505050506040513d6000823e3d601f19601f820116820180604052506020811015620002ed57600080fd5b81019080805160405193929190846401000000008211156200030e57600080fd5b838201915060208201858111156200032557600080fd5b82518660018202830111640100000000821117156200034357600080fd5b8083526020830192505050908051906020019080838360005b83811015620003795780820151818401526020810190506200035c565b50505050905090810190601f168015620003a75780820380516001836020036101000a031916815260200191505b5060405250505060405160200180807f707000000000000000000000000000000000000000000000000000000000000081525060020182805190602001908083835b602083106200040e5780518252602082019150602081019050602083039250620003e9565b6001836020036101000a03801982511681845116808217855250505050505090500191505060405160208183030381529060405281600390805190602001906200045a92919062000796565b5080600490805190602001906200047392919062000796565b506012600560006101000a81548160ff021916908360ff16021790555050508573ffffffffffffffffffffffffffffffffffffffff1660808173ffffffffffffffffffffffffffffffffffffffff1660601b8152505084600560016101000a81548173ffffffffffffffffffffffffffffffffffffffff021916908373ffffffffffffffffffffffffffffffffffffffff16021790555083600660006101000a81548173ffffffffffffffffffffffffffffffffffffffff021916908373ffffffffffffffffffffffffffffffffffffffff16021790555082600760006101000a81548173ffffffffffffffffffffffffffffffffffffffff021916908373ffffffffffffffffffffffffffffffffffffffff16021790555081600860006101000a81548173ffffffffffffffffffffffffffffffffffffffff021916908373ffffffffffffffffffffffffffffffffffffffff160217905550600760009054906101000a900473ffffffffffffffffffffffffffffffffffffffff1630600860009054906101000a900473ffffffffffffffffffffffffffffffffffffffff1673ffffffffffffffffffffffffffffffffffffffff1663187f33346040518163ffffffff1660e01b8152600401602060405180830381600087803b1580156200065c57600080fd5b505af115801562000671573d6000803e3d6000fd5b505050506040513d60208110156200068857600080fd5b8101908080519060200190929190505050604051620006a7906200081d565b808473ffffffffffffffffffffffffffffffffffffffff1681526020018373ffffffffffffffffffffffffffffffffffffffff1681526020018281526020019350505050604051809103906000f08015801562000708573d6000803e3d6000fd5b50600960006101000a81548173ffffffffffffffffffffffffffffffffffffffff021916908373ffffffffffffffffffffffffffffffffffffffff16021790555080600e60006101000a81548173ffffffffffffffffffffffffffffffffffffffff021916908373ffffffffffffffffffffffffffffffffffffffff1602179055505050505050506200084a565b828054600181600116156101000203166002900490600052602060002090601f016020900481019282601f10620007d957805160ff19168380011785556200080a565b828001600101855582156200080a579182015b8281111562000809578251825591602001919060010190620007ec565b5b5090506200081991906200082b565b5090565b6115268062003ffd83390190565b5b80821115620008465760008160009055506001016200082c565b5090565b60805160601c61378b620008726000398061126c52806117625280611812525061378b6000f3fe608060405234801561001057600080fd5b50600436106102275760003560e01c80638f8da42811610130578063dd62ed3e116100b8578063f700c8291161007c578063f700c82914610a8f578063f8649f8f14610aad578063f9d51eb114610acb578063fc0c546a14610ae9578063ffaad6a514610b1d57610227565b8063dd62ed3e14610933578063de5f72fd146109ab578063e4edf852146109df578063efc02d7e14610a23578063f3e414f814610a4157610227565b8063a457c2d7116100ff578063a457c2d714610825578063a9059cbb14610889578063af713566146108ed578063b69ef8a8146108f7578063d0ceb6491461091557610227565b80638f8da428146106c857806395d89b41146107205780639f678cca146107a3578063a1db9782146107d757610227565b806339509351116101b35780636aef9e80116101825780636aef9e80146105cc5780636cc25db7146105ea57806370a082311461061e578063719ce73e1461067657806375172a8b146106aa57610227565b806339509351146104f85780633d68175c1461055c578063481c6a751461057a57806352b7aa9d146105ae57610227565b806321c0b342116101fa57806321c0b3421461036557806323b872dd146103dd5780632888a7ba146104615780632e1a7d4d14610495578063313ce567146104d757610227565b806306fdde031461022c578063095ea7b3146102af57806316f0115b1461031357806318160ddd14610347575b600080fd5b610234610b7f565b6040518080602001828103825283818151815260200191508051906020019080838360005b83811015610274578082015181840152602081019050610259565b50505050905090810190601f1680156102a15780820380516001836020036101000a031916815260200191505b509250505060405180910390f35b6102fb600480360360408110156102c557600080fd5b81019080803573ffffffffffffffffffffffffffffffffffffffff16906020019092919080359060200190929190505050610c21565b60405180821515815260200191505060405180910390f35b61031b610c3f565b604051808273ffffffffffffffffffffffffffffffffffffffff16815260200191505060405180910390f35b61034f610c65565b6040518082815260200191505060405180910390f35b6103c76004803603604081101561037b57600080fd5b81019080803573ffffffffffffffffffffffffffffffffffffffff169060200190929190803573ffffffffffffffffffffffffffffffffffffffff169060200190929190505050610c6f565b6040518082815260200191505060405180910390f35b610449600480360360608110156103f357600080fd5b81019080803573ffffffffffffffffffffffffffffffffffffffff169060200190929190803573ffffffffffffffffffffffffffffffffffffffff16906020019092919080359060200190929190505050610d99565b60405180821515815260200191505060405180910390f35b610469610e72565b604051808273ffffffffffffffffffffffffffffffffffffffff16815260200191505060405180910390f35b6104c1600480360360208110156104ab57600080fd5b8101908080359060200190929190505050610e9c565b6040518082815260200191505060405180910390f35b6104df610f32565b604051808260ff16815260200191505060405180910390f35b6105446004803603604081101561050e57600080fd5b81019080803573ffffffffffffffffffffffffffffffffffffffff16906020019092919080359060200190929190505050610f49565b60405180821515815260200191505060405180910390f35b610564610ffc565b6040518082815260200191505060405180910390f35b61058261103e565b604051808273ffffffffffffffffffffffffffffffffffffffff16815260200191505060405180910390f35b6105b6611064565b6040518082815260200191505060405180910390f35b6105d461112f565b6040518082815260200191505060405180910390f35b6105f26111fa565b604051808273ffffffffffffffffffffffffffffffffffffffff16815260200191505060405180910390f35b6106606004803603602081101561063457600080fd5b81019080803573ffffffffffffffffffffffffffffffffffffffff169060200190929190505050611220565b6040518082815260200191505060405180910390f35b61067e611268565b604051808273ffffffffffffffffffffffffffffffffffffffff16815260200191505060405180910390f35b6106b2611290565b6040518082815260200191505060405180910390f35b61070a600480360360208110156106de57600080fd5b81019080803573ffffffffffffffffffffffffffffffffffffffff169060200190929190505050611296565b6040518082815260200191505060405180910390f35b6107286112f4565b6040518080602001828103825283818151815260200191508051906020019080838360005b8381101561076857808201518184015260208101905061074d565b50505050905090810190601f1680156107955780820380516001836020036101000a031916815260200191505b509250505060405180910390f35b6107ab611396565b604051808273ffffffffffffffffffffffffffffffffffffffff16815260200191505060405180910390f35b610823600480360360408110156107ed57600080fd5b81019080803573ffffffffffffffffffffffffffffffffffffffff169060200190929190803590602001909291905050506113bc565b005b6108716004803603604081101561083b57600080fd5b81019080803573ffffffffffffffffffffffffffffffffffffffff16906020019092919080359060200190929190505050611673565b60405180821515815260200191505060405180910390f35b6108d56004803603604081101561089f57600080fd5b81019080803573ffffffffffffffffffffffffffffffffffffffff16906020019092919080359060200190929190505050611740565b60405180821515815260200191505060405180910390f35b6108f561175e565b005b6108ff6119ec565b6040518082815260200191505060405180910390f35b61091d611a14565b6040518082815260200191505060405180910390f35b6109956004803603604081101561094957600080fd5b81019080803573ffffffffffffffffffffffffffffffffffffffff169060200190929190803573ffffffffffffffffffffffffffffffffffffffff169060200190929190505050611ae1565b6040518082815260200191505060405180910390f35b6109b3611b68565b604051808273ffffffffffffffffffffffffffffffffffffffff16815260200191505060405180910390f35b610a21600480360360208110156109f557600080fd5b81019080803573ffffffffffffffffffffffffffffffffffffffff169060200190929190505050611b8e565b005b610a2b611da3565b6040518082815260200191505060405180910390f35b610a8d60048036036040811015610a5757600080fd5b81019080803573ffffffffffffffffffffffffffffffffffffffff16906020019092919080359060200190929190505050611e6e565b005b610a97611fc6565b6040518082815260200191505060405180910390f35b610ab5611fcc565b6040518082815260200191505060405180910390f35b610ad3611fd2565b6040518082815260200191505060405180910390f35b610af1611fd8565b604051808273ffffffffffffffffffffffffffffffffffffffff16815260200191505060405180910390f35b610b6960048036036040811015610b3357600080fd5b81019080803573ffffffffffffffffffffffffffffffffffffffff16906020019092919080359060200190929190505050611ffe565b6040518082815260200191505060405180910390f35b606060038054600181600116156101000203166002900480601f016020809104026020016040519081016040528092919081815260200182805460018160011615610100020316600290048015610c175780601f10610bec57610100808354040283529160200191610c17565b820191906000526020600020905b815481529060010190602001808311610bfa57829003601f168201915b5050505050905090565b6000610c35610c2e6121d7565b84846121df565b6001905092915050565b600760009054906101000a900473ffffffffffffffffffffffffffffffffffffffff1681565b6000600254905090565b600080600960009054906101000a900473ffffffffffffffffffffffffffffffffffffffff1673ffffffffffffffffffffffffffffffffffffffff16631e83409a856040518263ffffffff1660e01b8152600401808273ffffffffffffffffffffffffffffffffffffffff168152602001915050602060405180830381600087803b158015610cfd57600080fd5b505af1158015610d11573d6000803e3d6000fd5b505050506040513d6020811015610d2757600080fd5b810190808051906020019092919050505090507fd8138f8a3f377c5259ca548e70e4c2de94f129f5a11036a15b69513cba2b426a8482604051808373ffffffffffffffffffffffffffffffffffffffff1681526020018281526020019250505060405180910390a18091505092915050565b6000610da68484846123d6565b610e6784610db26121d7565b610e628560405180606001604052806028815260200161367d60289139600160008b73ffffffffffffffffffffffffffffffffffffffff1673ffffffffffffffffffffffffffffffffffffffff1681526020019081526020016000206000610e186121d7565b73ffffffffffffffffffffffffffffffffffffffff1673ffffffffffffffffffffffffffffffffffffffff168152602001908152602001600020546126979092919063ffffffff16565b6121df565b600190509392505050565b6000600e60009054906101000a900473ffffffffffffffffffffffffffffffffffffffff16905090565b600081610ea833611220565b1015610f1c576040517f08c379a000000000000000000000000000000000000000000000000000000000815260040180806020018281038252601a8152602001807f496e73756666696369656e742053686172652042616c616e636500000000000081525060200191505060405180910390fd5b6000610f2783612757565b905080915050919050565b6000600560009054906101000a900460ff16905090565b6000610ff2610f566121d7565b84610fed8560016000610f676121d7565b73ffffffffffffffffffffffffffffffffffffffff1673ffffffffffffffffffffffffffffffffffffffff16815260200190815260200160002060008973ffffffffffffffffffffffffffffffffffffffff1673ffffffffffffffffffffffffffffffffffffffff16815260200190815260200160002054612a0690919063ffffffff16565b6121df565b6001905092915050565b6000611039611009610c65565b61102b670de0b6b3a764000061101d6119ec565b612a8e90919063ffffffff16565b612b1490919063ffffffff16565b905090565b600e60009054906101000a900473ffffffffffffffffffffffffffffffffffffffff1681565b6000600660009054906101000a900473ffffffffffffffffffffffffffffffffffffffff1673ffffffffffffffffffffffffffffffffffffffff166370a08231306040518263ffffffff1660e01b8152600401808273ffffffffffffffffffffffffffffffffffffffff16815260200191505060206040518083038186803b1580156110ef57600080fd5b505afa158015611103573d6000803e3d6000fd5b505050506040513d602081101561111957600080fd5b8101908080519060200190929190505050905090565b6000600760009054906101000a900473ffffffffffffffffffffffffffffffffffffffff1673ffffffffffffffffffffffffffffffffffffffff166370a08231306040518263ffffffff1660e01b8152600401808273ffffffffffffffffffffffffffffffffffffffff16815260200191505060206040518083038186803b1580156111ba57600080fd5b505afa1580156111ce573d6000803e3d6000fd5b505050506040513d60208110156111e457600080fd5b8101908080519060200190929190505050905090565b600660009054906101000a900473ffffffffffffffffffffffffffffffffffffffff1681565b60008060008373ffffffffffffffffffffffffffffffffffffffff1673ffffffffffffffffffffffffffffffffffffffff168152602001908152602001600020549050919050565b60007f0000000000000000000000000000000000000000000000000000000000000000905090565b600b5481565b6000806112a1610c65565b11156112ea576112e36112b26119ec565b6112d5670de0b6b3a76400006112c786611220565b612a8e90919063ffffffff16565b612b1490919063ffffffff16565b90506112ef565b600090505b919050565b606060048054600181600116156101000203166002900480601f01602080910402602001604051908101604052809291908181526020018280546001816001161561010002031660029004801561138c5780601f106113615761010080835404028352916020019161138c565b820191906000526020600020905b81548152906001019060200180831161136f57829003601f168201915b5050505050905090565b600960009054906101000a900473ffffffffffffffffffffffffffffffffffffffff1681565b6113c46121d7565b73ffffffffffffffffffffffffffffffffffffffff16600e60009054906101000a900473ffffffffffffffffffffffffffffffffffffffff1673ffffffffffffffffffffffffffffffffffffffff1614611469576040517f08c379a00000000000000000000000000000000000000000000000000000000081526004018080602001828103825260228152602001806136c66022913960400191505060405180910390fd5b600560019054906101000a900473ffffffffffffffffffffffffffffffffffffffff1673ffffffffffffffffffffffffffffffffffffffff168273ffffffffffffffffffffffffffffffffffffffff161415806115145750600660009054906101000a900473ffffffffffffffffffffffffffffffffffffffff1673ffffffffffffffffffffffffffffffffffffffff168273ffffffffffffffffffffffffffffffffffffffff1614155b8061156d5750600760009054906101000a900473ffffffffffffffffffffffffffffffffffffffff1673ffffffffffffffffffffffffffffffffffffffff168273ffffffffffffffffffffffffffffffffffffffff1614155b6115c2576040517f08c379a00000000000000000000000000000000000000000000000000000000081526004018080602001828103825260248152602001806136386024913960400191505060405180910390fd5b8173ffffffffffffffffffffffffffffffffffffffff1663a9059cbb33836040518363ffffffff1660e01b8152600401808373ffffffffffffffffffffffffffffffffffffffff16815260200182815260200192505050602060405180830381600087803b15801561163357600080fd5b505af1158015611647573d6000803e3d6000fd5b505050506040513d602081101561165d57600080fd5b8101908080519060200190929190505050505050565b60006117366116806121d7565b846117318560405180606001604052806025815260200161373160259139600160006116aa6121d7565b73ffffffffffffffffffffffffffffffffffffffff1673ffffffffffffffffffffffffffffffffffffffff16815260200190815260200160002060008a73ffffffffffffffffffffffffffffffffffffffff1673ffffffffffffffffffffffffffffffffffffffff168152602001908152602001600020546126979092919063ffffffff16565b6121df565b6001905092915050565b600061175461174d6121d7565b84846123d6565b6001905092915050565b60007f00000000000000000000000000000000000000000000000000000000000000009050600061178d611a14565b90507fa71b671080e0f92a89a9abb935000df04b23c1c31382efb1812bb95dff91bab6816040518082815260200191505060405180910390a160006117d0611da3565b9050600560019054906101000a900473ffffffffffffffffffffffffffffffffffffffff1673ffffffffffffffffffffffffffffffffffffffff1663095ea7b37f0000000000000000000000000000000000000000000000000000000000000000836040518363ffffffff1660e01b8152600401808373ffffffffffffffffffffffffffffffffffffffff16815260200182815260200192505050602060405180830381600087803b15801561188557600080fd5b505af1158015611899573d6000803e3d6000fd5b505050506040513d60208110156118af57600080fd5b8101908080519060200190929190505050508273ffffffffffffffffffffffffffffffffffffffff1663e323f8253083600660009054906101000a900473ffffffffffffffffffffffffffffffffffffffff16306040518563ffffffff1660e01b8152600401808573ffffffffffffffffffffffffffffffffffffffff1681526020018481526020018373ffffffffffffffffffffffffffffffffffffffff1681526020018273ffffffffffffffffffffffffffffffffffffffff168152602001945050505050600060405180830381600087803b15801561199057600080fd5b505af11580156119a4573d6000803e3d6000fd5b505050507f2ca04914b4d70cdc594db077b5fc8da6128494049ddd62826107793cd82408508142604051808381526020018281526020019250505060405180910390a1505050565b6000611a0f6119f9611064565b611a01611da3565b612a0690919063ffffffff16565b905090565b6000600860009054906101000a900473ffffffffffffffffffffffffffffffffffffffff1673ffffffffffffffffffffffffffffffffffffffff16631e83409a306040518263ffffffff1660e01b8152600401808273ffffffffffffffffffffffffffffffffffffffff168152602001915050602060405180830381600087803b158015611aa157600080fd5b505af1158015611ab5573d6000803e3d6000fd5b505050506040513d6020811015611acb57600080fd5b8101908080519060200190929190505050905090565b6000600160008473ffffffffffffffffffffffffffffffffffffffff1673ffffffffffffffffffffffffffffffffffffffff16815260200190815260200160002060008373ffffffffffffffffffffffffffffffffffffffff1673ffffffffffffffffffffffffffffffffffffffff16815260200190815260200160002054905092915050565b600860009054906101000a900473ffffffffffffffffffffffffffffffffffffffff1681565b611b966121d7565b73ffffffffffffffffffffffffffffffffffffffff16600e60009054906101000a900473ffffffffffffffffffffffffffffffffffffffff1673ffffffffffffffffffffffffffffffffffffffff1614611c3b576040517f08c379a00000000000000000000000000000000000000000000000000000000081526004018080602001828103825260228152602001806136c66022913960400191505060405180910390fd5b600073ffffffffffffffffffffffffffffffffffffffff16600e60009054906101000a900473ffffffffffffffffffffffffffffffffffffffff1673ffffffffffffffffffffffffffffffffffffffff161415611ce3576040517f08c379a00000000000000000000000000000000000000000000000000000000081526004018080602001828103825260268152602001806135ec6026913960400191505060405180910390fd5b8073ffffffffffffffffffffffffffffffffffffffff16600e60009054906101000a900473ffffffffffffffffffffffffffffffffffffffff1673ffffffffffffffffffffffffffffffffffffffff167f80f15e9dbc60884fdb59fb8ed4fc48a9a689e028f055e893ed45ca5be67c5c8560405160405180910390a380600e60006101000a81548173ffffffffffffffffffffffffffffffffffffffff021916908373ffffffffffffffffffffffffffffffffffffffff16021790555050565b6000600560019054906101000a900473ffffffffffffffffffffffffffffffffffffffff1673ffffffffffffffffffffffffffffffffffffffff166370a08231306040518263ffffffff1660e01b8152600401808273ffffffffffffffffffffffffffffffffffffffff16815260200191505060206040518083038186803b158015611e2e57600080fd5b505afa158015611e42573d6000803e3d6000fd5b505050506040513d6020811015611e5857600080fd5b8101908080519060200190929190505050905090565b611e766121d7565b73ffffffffffffffffffffffffffffffffffffffff16600e60009054906101000a900473ffffffffffffffffffffffffffffffffffffffff1673ffffffffffffffffffffffffffffffffffffffff1614611f1b576040517f08c379a00000000000000000000000000000000000000000000000000000000081526004018080602001828103825260228152602001806136c66022913960400191505060405180910390fd5b8173ffffffffffffffffffffffffffffffffffffffff166323b872dd3033846040518463ffffffff1660e01b8152600401808473ffffffffffffffffffffffffffffffffffffffff1681526020018373ffffffffffffffffffffffffffffffffffffffff1681526020018281526020019350505050600060405180830381600087803b158015611faa57600080fd5b505af1158015611fbe573d6000803e3d6000fd5b505050505050565b600c5481565b600a5481565b600d5481565b600560019054906101000a900473ffffffffffffffffffffffffffffffffffffffff1681565b6000808211612075576040517f08c379a00000000000000000000000000000000000000000000000000000000081526004018080602001828103825260178152602001807f496e637265617365204465706f73697420416d6f756e7400000000000000000081525060200191505060405180910390fd5b60006120818484612b5e565b9050600560019054906101000a900473ffffffffffffffffffffffffffffffffffffffff1673ffffffffffffffffffffffffffffffffffffffff166323b872dd3330866040518463ffffffff1660e01b8152600401808473ffffffffffffffffffffffffffffffffffffffff1681526020018373ffffffffffffffffffffffffffffffffffffffff1681526020018281526020019350505050602060405180830381600087803b15801561213457600080fd5b505af1158015612148573d6000803e3d6000fd5b505050506040513d602081101561215e57600080fd5b8101908080519060200190929190505050507f73a19dd210f1a7f902193214c0ee91dd35ee5b4d920cba8d519eca65a7b488ca848483604051808473ffffffffffffffffffffffffffffffffffffffff168152602001838152602001828152602001935050505060405180910390a18091505092915050565b600033905090565b600073ffffffffffffffffffffffffffffffffffffffff168373ffffffffffffffffffffffffffffffffffffffff161415612265576040517f08c379a000000000000000000000000000000000000000000000000000000000815260040180806020018281038252602481526020018061370d6024913960400191505060405180910390fd5b600073ffffffffffffffffffffffffffffffffffffffff168273ffffffffffffffffffffffffffffffffffffffff1614156122eb576040517f08c379a00000000000000000000000000000000000000000000000000000000081526004018080602001828103825260228152602001806135ca6022913960400191505060405180910390fd5b80600160008573ffffffffffffffffffffffffffffffffffffffff1673ffffffffffffffffffffffffffffffffffffffff16815260200190815260200160002060008473ffffffffffffffffffffffffffffffffffffffff1673ffffffffffffffffffffffffffffffffffffffff168152602001908152602001600020819055508173ffffffffffffffffffffffffffffffffffffffff168373ffffffffffffffffffffffffffffffffffffffff167f8c5be1e5ebec7d5bd14f71427d1e84f3dd0314c0f7b2291e5b200ac8c7c3b925836040518082815260200191505060405180910390a3505050565b600073ffffffffffffffffffffffffffffffffffffffff168373ffffffffffffffffffffffffffffffffffffffff16141561245c576040517f08c379a00000000000000000000000000000000000000000000000000000000081526004018080602001828103825260258152602001806136e86025913960400191505060405180910390fd5b600073ffffffffffffffffffffffffffffffffffffffff168273ffffffffffffffffffffffffffffffffffffffff1614156124e2576040517f08c379a00000000000000000000000000000000000000000000000000000000081526004018080602001828103825260238152602001806135856023913960400191505060405180910390fd5b6124ed838383612bc7565b61255881604051806060016040528060268152602001613612602691396000808773ffffffffffffffffffffffffffffffffffffffff1673ffffffffffffffffffffffffffffffffffffffff168152602001908152602001600020546126979092919063ffffffff16565b6000808573ffffffffffffffffffffffffffffffffffffffff1673ffffffffffffffffffffffffffffffffffffffff168152602001908152602001600020819055506125eb816000808573ffffffffffffffffffffffffffffffffffffffff1673ffffffffffffffffffffffffffffffffffffffff16815260200190815260200160002054612a0690919063ffffffff16565b6000808473ffffffffffffffffffffffffffffffffffffffff1673ffffffffffffffffffffffffffffffffffffffff168152602001908152602001600020819055508173ffffffffffffffffffffffffffffffffffffffff168373ffffffffffffffffffffffffffffffffffffffff167fddf252ad1be2c89b69c2b068fc378daa952ba7f163c4a11628f55a4df523b3ef836040518082815260200191505060405180910390a3505050565b6000838311158290612744576040517f08c379a00000000000000000000000000000000000000000000000000000000081526004018080602001828103825283818151815260200191508051906020019080838360005b838110156127095780820151818401526020810190506126ee565b50505050905090810190601f1680156127365780820380516001836020036101000a031916815260200191505b509250505060405180910390fd5b5060008385039050809150509392505050565b60008061278d612765610c65565b61277f856127716119ec565b612a8e90919063ffffffff16565b612b1490919063ffffffff16565b90506127993384612d4c565b6000600560019054906101000a900473ffffffffffffffffffffffffffffffffffffffff16905060008173ffffffffffffffffffffffffffffffffffffffff166370a08231306040518263ffffffff1660e01b8152600401808273ffffffffffffffffffffffffffffffffffffffff16815260200191505060206040518083038186803b15801561282957600080fd5b505afa15801561283d573d6000803e3d6000fd5b505050506040513d602081101561285357600080fd5b810190808051906020019092919050505090508083111561294e5760006128838285612f1090919063ffffffff16565b905060008061289183612f5a565b9150915060006128aa8386612a0690919063ffffffff16565b9050806128c08389612f1090919063ffffffff16565b1115612934576040517f08c379a00000000000000000000000000000000000000000000000000000000081526004018080602001828103825260178152602001807f506f643a20496e737566666963656e7420416d6f756e7400000000000000000081525060200191505060405180910390fd5b6129478288612f1090919063ffffffff16565b9650505050505b8173ffffffffffffffffffffffffffffffffffffffff1663a9059cbb33856040518363ffffffff1660e01b8152600401808373ffffffffffffffffffffffffffffffffffffffff16815260200182815260200192505050602060405180830381600087803b1580156129bf57600080fd5b505af11580156129d3573d6000803e3d6000fd5b505050506040513d60208110156129e957600080fd5b810190808051906020019092919050505050829350505050919050565b600080828401905083811015612a84576040517f08c379a000000000000000000000000000000000000000000000000000000000815260040180806020018281038252601b8152602001807f536166654d6174683a206164646974696f6e206f766572666c6f77000000000081525060200191505060405180910390fd5b8091505092915050565b600080831415612aa15760009050612b0e565b6000828402905082848281612ab257fe5b0414612b09576040517f08c379a000000000000000000000000000000000000000000000000000000000815260040180806020018281038252602181526020018061365c6021913960400191505060405180910390fd5b809150505b92915050565b6000612b5683836040518060400160405280601a81526020017f536166654d6174683a206469766973696f6e206279207a65726f000000000000815250613184565b905092915050565b600080600090506000612b6f610c65565b1415612b7d57829050612bb3565b612bb0612b886119ec565b612ba2612b93610c65565b86612a8e90919063ffffffff16565b612b1490919063ffffffff16565b90505b612bbd848261324a565b8091505092915050565b612c086040518060400160405280601581526020017f4245464f524520544f4b454e2025732025732025730000000000000000000000815250848484613411565b612c13838383613556565b600960009054906101000a900473ffffffffffffffffffffffffffffffffffffffff1673ffffffffffffffffffffffffffffffffffffffff166340069fee8484306040518463ffffffff1660e01b8152600401808473ffffffffffffffffffffffffffffffffffffffff1681526020018373ffffffffffffffffffffffffffffffffffffffff1681526020018273ffffffffffffffffffffffffffffffffffffffff1681526020019350505050600060405180830381600087803b158015612cda57600080fd5b505af1158015612cee573d6000803e3d6000fd5b505050507f3e33e0bfad796d4aee5918d9667e7a068fb3e75842a2986a162a2bd3e6ec89ce8382604051808373ffffffffffffffffffffffffffffffffffffffff1681526020018281526020019250505060405180910390a1505050565b600073ffffffffffffffffffffffffffffffffffffffff168273ffffffffffffffffffffffffffffffffffffffff161415612dd2576040517f08c379a00000000000000000000000000000000000000000000000000000000081526004018080602001828103825260218152602001806136a56021913960400191505060405180910390fd5b612dde82600083612bc7565b612e49816040518060600160405280602281526020016135a8602291396000808673ffffffffffffffffffffffffffffffffffffffff1673ffffffffffffffffffffffffffffffffffffffff168152602001908152602001600020546126979092919063ffffffff16565b6000808473ffffffffffffffffffffffffffffffffffffffff1673ffffffffffffffffffffffffffffffffffffffff16815260200190815260200160002081905550612ea081600254612f1090919063ffffffff16565b600281905550600073ffffffffffffffffffffffffffffffffffffffff168273ffffffffffffffffffffffffffffffffffffffff167fddf252ad1be2c89b69c2b068fc378daa952ba7f163c4a11628f55a4df523b3ef836040518082815260200191505060405180910390a35050565b6000612f5283836040518060400160405280601e81526020017f536166654d6174683a207375627472616374696f6e206f766572666c6f770000815250612697565b905092915050565b6000806000600760009054906101000a900473ffffffffffffffffffffffffffffffffffffffff16905060008173ffffffffffffffffffffffffffffffffffffffff1663888c2b6f30600660009054906101000a900473ffffffffffffffffffffffffffffffffffffffff16886040518463ffffffff1660e01b8152600401808473ffffffffffffffffffffffffffffffffffffffff1681526020018373ffffffffffffffffffffffffffffffffffffffff16815260200182815260200193505050506040805180830381600087803b15801561303657600080fd5b505af115801561304a573d6000803e3d6000fd5b505050506040513d604081101561306057600080fd5b81019080805190602001909291908051906020019092919050505050905060008273ffffffffffffffffffffffffffffffffffffffff1663a016240b3088600660009054906101000a900473ffffffffffffffffffffffffffffffffffffffff16866040518563ffffffff1660e01b8152600401808573ffffffffffffffffffffffffffffffffffffffff1681526020018481526020018373ffffffffffffffffffffffffffffffffffffffff168152602001828152602001945050505050602060405180830381600087803b15801561313957600080fd5b505af115801561314d573d6000803e3d6000fd5b505050506040513d602081101561316357600080fd5b81019080805190602001909291905050509050808294509450505050915091565b60008083118290613230576040517f08c379a00000000000000000000000000000000000000000000000000000000081526004018080602001828103825283818151815260200191508051906020019080838360005b838110156131f55780820151818401526020810190506131da565b50505050905090810190601f1680156132225780820380516001836020036101000a031916815260200191505b509250505060405180910390fd5b50600083858161323c57fe5b049050809150509392505050565b600073ffffffffffffffffffffffffffffffffffffffff168273ffffffffffffffffffffffffffffffffffffffff1614156132ed576040517f08c379a000000000000000000000000000000000000000000000000000000000815260040180806020018281038252601f8152602001807f45524332303a206d696e7420746f20746865207a65726f20616464726573730081525060200191505060405180910390fd5b6132f960008383612bc7565b61330e81600254612a0690919063ffffffff16565b600281905550613365816000808573ffffffffffffffffffffffffffffffffffffffff1673ffffffffffffffffffffffffffffffffffffffff16815260200190815260200160002054612a0690919063ffffffff16565b6000808473ffffffffffffffffffffffffffffffffffffffff1673ffffffffffffffffffffffffffffffffffffffff168152602001908152602001600020819055508173ffffffffffffffffffffffffffffffffffffffff16600073ffffffffffffffffffffffffffffffffffffffff167fddf252ad1be2c89b69c2b068fc378daa952ba7f163c4a11628f55a4df523b3ef836040518082815260200191505060405180910390a35050565b6135508484848460405160240180806020018573ffffffffffffffffffffffffffffffffffffffff1681526020018473ffffffffffffffffffffffffffffffffffffffff168152602001838152602001828103825286818151815260200191508051906020019080838360005b8381101561349957808201518184015260208101905061347e565b50505050905090810190601f1680156134c65780820380516001836020036101000a031916815260200191505b50955050505050506040516020818303038152906040527f6eb7943d000000000000000000000000000000000000000000000000000000007bffffffffffffffffffffffffffffffffffffffffffffffffffffffff19166020820180517bffffffffffffffffffffffffffffffffffffffffffffffffffffffff838183161783525050505061355b565b50505050565b505050565b60008151905060006a636f6e736f6c652e6c6f679050602083016000808483855afa505050505056fe45524332303a207472616e7366657220746f20746865207a65726f206164647265737345524332303a206275726e20616d6f756e7420657863656564732062616c616e636545524332303a20617070726f766520746f20746865207a65726f20616464726573734d616e616765723a206e6577206f776e657220697320746865207a65726f206164647265737345524332303a207472616e7366657220616d6f756e7420657863656564732062616c616e6365556e61626c6520746f20776974686472617720746f6b656e2f7469636b65742f706f6f6c536166654d6174683a206d756c7469706c69636174696f6e206f766572666c6f7745524332303a207472616e7366657220616d6f756e74206578636565647320616c6c6f77616e636545524332303a206275726e2066726f6d20746865207a65726f20616464726573734f776e61626c653a2063616c6c6572206973206e6f7420746865206d616e6167657245524332303a207472616e736665722066726f6d20746865207a65726f206164647265737345524332303a20617070726f76652066726f6d20746865207a65726f206164647265737345524332303a2064656372656173656420616c6c6f77616e63652062656c6f77207a65726fa264697066735822122066b99e1c1fcf33870beb6ccfb5e0eaac54f0eb5a515412b73d37942eadffc78764736f6c63430007000033608060405234801561001057600080fd5b506040516115263803806115268339818101604052606081101561003357600080fd5b81019080805190602001909291908051906020019092919080519060200190929190505050826000806101000a81548173ffffffffffffffffffffffffffffffffffffffff021916908373ffffffffffffffffffffffffffffffffffffffff16021790555081600160006101000a81548173ffffffffffffffffffffffffffffffffffffffff021916908373ffffffffffffffffffffffffffffffffffffffff16021790555080600281905550505050611434806100f26000396000f3fe608060405234801561001057600080fd5b50600436106100a95760003560e01c806340069fee1161007157806340069fee1461022c5780639f678cca146102b0578063c96f14b8146102ce578063d9772a25146102fc578063e318613e14610320578063efa9a1ad1461034e576100a9565b806301ffc9a7146100ae5780630ecc535f14610111578063187f3334146101825780631e83409a146101a057806338d52e0f146101f8575b600080fd5b6100f9600480360360208110156100c457600080fd5b8101908080357bffffffffffffffffffffffffffffffffffffffffffffffffffffffff19169060200190929190505050610382565b60405180821515815260200191505060405180910390f35b6101536004803603602081101561012757600080fd5b81019080803573ffffffffffffffffffffffffffffffffffffffff16906020019092919050505061038d565b60405180836fffffffffffffffffffffffffffffffff1681526020018281526020019250505060405180910390f35b61018a6103cd565b6040518082815260200191505060405180910390f35b6101e2600480360360208110156101b657600080fd5b81019080803573ffffffffffffffffffffffffffffffffffffffff1690602001909291905050506103d3565b6040518082815260200191505060405180910390f35b610200610616565b604051808273ffffffffffffffffffffffffffffffffffffffff16815260200191505060405180910390f35b6102ae6004803603606081101561024257600080fd5b81019080803573ffffffffffffffffffffffffffffffffffffffff169060200190929190803573ffffffffffffffffffffffffffffffffffffffff169060200190929190803573ffffffffffffffffffffffffffffffffffffffff16906020019092919050505061063a565b005b6102b86106e8565b6040518082815260200191505060405180910390f35b6102d6610aba565b60405180826dffffffffffffffffffffffffffff16815260200191505060405180910390f35b610304610ada565b604051808263ffffffff16815260200191505060405180910390f35b610328610af0565b60405180826dffffffffffffffffffffffffffff16815260200191505060405180910390f35b610356610b10565b604051808273ffffffffffffffffffffffffffffffffffffffff16815260200191505060405180910390f35b600060019050919050565b60046020528060005260406000206000915090508060000160009054906101000a90046fffffffffffffffffffffffffffffffff16908060010154905082565b60025481565b60006103dd6106e8565b506103e782610b36565b506000600460008473ffffffffffffffffffffffffffffffffffffffff1673ffffffffffffffffffffffffffffffffffffffff1681526020019081526020016000206001015490506000600460008573ffffffffffffffffffffffffffffffffffffffff1673ffffffffffffffffffffffffffffffffffffffff168152602001908152602001600020600101819055506104be6104b9826003600e9054906101000a90046dffffffffffffffffffffffffffff166dffffffffffffffffffffffffffff16610e6a90919063ffffffff16565b610eb4565b6003600e6101000a8154816dffffffffffffffffffffffffffff02191690836dffffffffffffffffffffffffffff16021790555060008054906101000a900473ffffffffffffffffffffffffffffffffffffffff1673ffffffffffffffffffffffffffffffffffffffff1663a9059cbb84836040518363ffffffff1660e01b8152600401808373ffffffffffffffffffffffffffffffffffffffff16815260200182815260200192505050602060405180830381600087803b15801561058357600080fd5b505af1158015610597573d6000803e3d6000fd5b505050506040513d60208110156105ad57600080fd5b8101908080519060200190929190505050508273ffffffffffffffffffffffffffffffffffffffff167fd8138f8a3f377c5259ca548e70e4c2de94f129f5a11036a15b69513cba2b426a826040518082815260200191505060405180910390a280915050919050565b60008054906101000a900473ffffffffffffffffffffffffffffffffffffffff1681565b600160009054906101000a900473ffffffffffffffffffffffffffffffffffffffff1673ffffffffffffffffffffffffffffffffffffffff168173ffffffffffffffffffffffffffffffffffffffff1614156106e3576106986106e8565b506106a282610b36565b50600073ffffffffffffffffffffffffffffffffffffffff168373ffffffffffffffffffffffffffffffffffffffff16146106e2576106e083610b36565b505b5b505050565b6000806106f3610f25565b90508063ffffffff166003601c9054906101000a900463ffffffff1663ffffffff161415610725576000915050610ab7565b60008060009054906101000a900473ffffffffffffffffffffffffffffffffffffffff1673ffffffffffffffffffffffffffffffffffffffff166370a08231306040518263ffffffff1660e01b8152600401808273ffffffffffffffffffffffffffffffffffffffff16815260200191505060206040518083038186803b1580156107af57600080fd5b505afa1580156107c3573d6000803e3d6000fd5b505050506040513d60208110156107d957600080fd5b81019080805190602001909291905050509050600061082d6003600e9054906101000a90046dffffffffffffffffffffffffffff166dffffffffffffffffffffffffffff1683610e6a90919063ffffffff16565b9050600061085c6003601c9054906101000a900463ffffffff1663ffffffff1685610e6a90919063ffffffff16565b90506000600360009054906101000a90046dffffffffffffffffffffffffffff166dffffffffffffffffffffffffffff169050600080600160009054906101000a900473ffffffffffffffffffffffffffffffffffffffff1673ffffffffffffffffffffffffffffffffffffffff166318160ddd6040518163ffffffff1660e01b815260040160206040518083038186803b1580156108fa57600080fd5b505afa15801561090e573d6000803e3d6000fd5b505050506040513d602081101561092457600080fd5b810190808051906020019092919050505090506000811180156109475750600085115b156109cb5761096160025485610f2d90919063ffffffff16565b91508482111561096f578491505b600061097b8383610fb3565b90506109908185610ff290919063ffffffff16565b93507f7de59a92c9386255180c28ede4b61edb9b7b2ac96855ac634151489cef21bad6836040518082815260200191505060405180910390a1505b6109d483610eb4565b600360006101000a8154816dffffffffffffffffffffffffffff02191690836dffffffffffffffffffffffffffff160217905550610a4f610a4a836003600e9054906101000a90046dffffffffffffffffffffffffffff166dffffffffffffffffffffffffffff16610ff290919063ffffffff16565b610eb4565b6003600e6101000a8154816dffffffffffffffffffffffffffff02191690836dffffffffffffffffffffffffffff160217905550610a8c8761107a565b6003601c6101000a81548163ffffffff021916908363ffffffff160217905550819750505050505050505b90565b6003600e9054906101000a90046dffffffffffffffffffffffffffff1681565b6003601c9054906101000a900463ffffffff1681565b600360009054906101000a90046dffffffffffffffffffffffffffff1681565b600160009054906101000a900473ffffffffffffffffffffffffffffffffffffffff1681565b600080600460008473ffffffffffffffffffffffffffffffffffffffff1673ffffffffffffffffffffffffffffffffffffffff16815260200190815260200160002090508060000160009054906101000a90046fffffffffffffffffffffffffffffffff166fffffffffffffffffffffffffffffffff16600360009054906101000a90046dffffffffffffffffffffffffffff166dffffffffffffffffffffffffffff161415610bea576000915050610e65565b6000610c5d8260000160009054906101000a90046fffffffffffffffffffffffffffffffff166fffffffffffffffffffffffffffffffff16600360009054906101000a90046dffffffffffffffffffffffffffff166dffffffffffffffffffffffffffff16610e6a90919063ffffffff16565b90506000600160009054906101000a900473ffffffffffffffffffffffffffffffffffffffff1673ffffffffffffffffffffffffffffffffffffffff166370a08231866040518263ffffffff1660e01b8152600401808273ffffffffffffffffffffffffffffffffffffffff16815260200191505060206040518083038186803b158015610cea57600080fd5b505afa158015610cfe573d6000803e3d6000fd5b505050506040513d6020811015610d1457600080fd5b810190808051906020019092919050505090506000610d3b610d3683856110e1565b611120565b90506040518060400160405280600360009054906101000a90046dffffffffffffffffffffffffffff166dffffffffffffffffffffffffffff166fffffffffffffffffffffffffffffffff168152602001610dbd610db8846fffffffffffffffffffffffffffffffff168860010154610ff290919063ffffffff16565b611120565b6fffffffffffffffffffffffffffffffff16815250600460008873ffffffffffffffffffffffffffffffffffffffff1673ffffffffffffffffffffffffffffffffffffffff16815260200190815260200160002060008201518160000160006101000a8154816fffffffffffffffffffffffffffffffff02191690836fffffffffffffffffffffffffffffffff16021790555060208201518160010155905050809450505050505b919050565b6000610eac83836040518060400160405280601e81526020017f536166654d6174683a207375627472616374696f6e206f766572666c6f770000815250611193565b905092915050565b60006e0100000000000000000000000000008210610f1d576040517f08c379a00000000000000000000000000000000000000000000000000000000081526004018080602001828103825260298152602001806113d66029913960400191505060405180910390fd5b819050919050565b600042905090565b600080831415610f405760009050610fad565b6000828402905082848281610f5157fe5b0414610fa8576040517f08c379a00000000000000000000000000000000000000000000000000000000081526004018080602001828103825260218152602001806113b56021913960400191505060405180910390fd5b809150505b92915050565b600080610fd1670de0b6b3a764000085610f2d90919063ffffffff16565b9050610fe6838261125390919063ffffffff16565b90508091505092915050565b600080828401905083811015611070576040517f08c379a000000000000000000000000000000000000000000000000000000000815260040180806020018281038252601b8152602001807f536166654d6174683a206164646974696f6e206f766572666c6f77000000000081525060200191505060405180910390fd5b8091505092915050565b600064010000000082106110d9576040517f08c379a000000000000000000000000000000000000000000000000000000000815260040180806020018281038252602881526020018061138d6028913960400191505060405180910390fd5b819050919050565b6000806110f78484610f2d90919063ffffffff16565b9050611114670de0b6b3a76400008261125390919063ffffffff16565b90508091505092915050565b6000700100000000000000000000000000000000821061118b576040517f08c379a00000000000000000000000000000000000000000000000000000000081526004018080602001828103825260298152602001806113646029913960400191505060405180910390fd5b819050919050565b6000838311158290611240576040517f08c379a00000000000000000000000000000000000000000000000000000000081526004018080602001828103825283818151815260200191508051906020019080838360005b838110156112055780820151818401526020810190506111ea565b50505050905090810190601f1680156112325780820380516001836020036101000a031916815260200191505b509250505060405180910390fd5b5060008385039050809150509392505050565b600061129583836040518060400160405280601a81526020017f536166654d6174683a206469766973696f6e206279207a65726f00000000000081525061129d565b905092915050565b60008083118290611349576040517f08c379a00000000000000000000000000000000000000000000000000000000081526004018080602001828103825283818151815260200191508051906020019080838360005b8381101561130e5780820151818401526020810190506112f3565b50505050905090810190601f16801561133b5780820380516001836020036101000a031916815260200191505b509250505060405180910390fd5b50600083858161135557fe5b04905080915050939250505056fe53616665436173743a2076616c756520646f65736e27742066697420696e20616e2075696e7431323853616665436173743a2076616c756520646f65736e27742066697420696e20616e2075696e743332536166654d6174683a206d756c7469706c69636174696f6e206f766572666c6f7753616665436173743a2076616c756520646f65736e27742066697420696e20616e2075696e74313132a2646970667358221220c2b43ba7265ac1ed1c69dcc911c5b4199eb0de0651ba7d4eb23fe6995e60e57d64736f6c63430007000033",
  "devdoc": {
    "events": {
      "Batch(uint256,uint256)": {
        "details": "Emitted when batch deposit is executed"
      },
      "Claimed(address,uint256)": {
        "details": "Emitted when POOl is claimed for a user."
      },
      "Deposited(address,uint256,uint256)": {
        "details": "Emitted when use deposits into batch backlog"
      },
      "DripCalculate(address,uint256)": {
        "details": "Emitted when account triggers drip calculation."
      },
      "ERC721Collected(address,uint256)": {
        "details": "Emitted"
      },
      "PodClaimed(uint256)": {
        "details": "Emitted when POOl is claimed for the POD"
      },
      "Sponsored(address,uint256)": {
        "details": "Emitted when account sponsers pod."
      },
      "Withdrawl(address,uint256,uint256)": {
        "details": "Emitted when user withdraws"
      }
    },
    "kind": "dev",
    "methods": {
      "allowance(address,address)": {
        "details": "See {IERC20-allowance}."
      },
      "approve(address,uint256)": {
        "details": "See {IERC20-approve}. Requirements: - `spender` cannot be the zero address."
      },
      "balance()": {
        "details": "Pod total balance of deposit and ticket tokens."
      },
      "balanceOf(address)": {
        "details": "See {IERC20-balanceOf}."
      },
      "batch()": {
        "details": "Deposits the current float amount into the PrizePool and claims current POOL rewards"
      },
      "claim(address,address)": {
        "details": "Allows a user to claim POOL tokens for an address.  The user will be transferred their share of POOL tokens.",
        "params": {
          "_token": "User account",
          "user": "User account"
        },
        "returns": {
          "_0": "uint256 Amount claimed."
        }
      },
      "claimPod()": {
        "details": "Claim POOL for PrizePool Pod",
        "returns": {
          "_0": "uint256 claimed amount"
        }
      },
      "constructor": {
        "details": "Initialize the Pod Smart Contact"
      },
      "decimals()": {
        "details": "Returns the number of decimals used to get its user representation. For example, if `decimals` equals `2`, a balance of `505` tokens should be displayed to a user as `5,05` (`505 / 10 ** 2`). Tokens usually opt for a value of 18, imitating the relationship between Ether and Wei. This is the value {ERC20} uses, unless {_setupDecimals} is called. NOTE: This information is only used for _display_ purposes: it in no way affects any of the arithmetic of the contract, including {IERC20-balanceOf} and {IERC20-transfer}."
      },
      "decreaseAllowance(address,uint256)": {
        "details": "Atomically decreases the allowance granted to `spender` by the caller. This is an alternative to {approve} that can be used as a mitigation for problems described in {IERC20-approve}. Emits an {Approval} event indicating the updated allowance. Requirements: - `spender` cannot be the zero address. - `spender` must have allowance for the caller of at least `subtractedValue`."
      },
      "depositTo(address,uint256)": {
        "params": {
          "to": "The address that shall receive the Pod shares",
          "tokenAmount": "The amount of tokens to deposit.  These are the same tokens used to deposit into the underlying prize pool."
        },
        "returns": {
          "_0": "The number of Pod shares minted."
        }
      },
      "getPricePerShare()": {
        "details": "Price per share for entire pod balances."
      },
      "getUserPricePerShare(address)": {
        "details": "Price per share for user"
      },
      "increaseAllowance(address,uint256)": {
        "details": "Atomically increases the allowance granted to `spender` by the caller. This is an alternative to {approve} that can be used as a mitigation for problems described in {IERC20-approve}. Emits an {Approval} event indicating the updated allowance. Requirements: - `spender` cannot be the zero address."
      },
      "name()": {
        "details": "Returns the name of the token."
      },
      "podManager()": {
        "details": "Returns the address of the current manager."
      },
      "prizePool()": {
        "returns": {
          "_0": "The address of the prize pool"
        }
      },
      "symbol()": {
        "details": "Returns the symbol of the token, usually a shorter version of the name."
      },
      "totalSupply()": {
        "details": "See {IERC20-totalSupply}."
      },
      "transfer(address,uint256)": {
        "details": "See {IERC20-transfer}. Requirements: - `recipient` cannot be the zero address. - the caller must have a balance of at least `amount`."
      },
      "transferFrom(address,address,uint256)": {
        "details": "See {IERC20-transferFrom}. Emits an {Approval} event indicating the updated allowance. This is not required by the EIP. See the note at the beginning of {ERC20}; Requirements: - `sender` and `recipient` cannot be the zero address. - `sender` must have a balance of at least `amount`. - the caller must have allowance for ``sender``'s tokens of at least `amount`."
      },
      "transferManagement(address)": {
        "details": "Transfers ownership of the contract to a new account (`newManager`). Can only be called by the current owner."
      },
      "vaultPoolBalance()": {
        "details": "Pod balance of POOL token."
      },
      "vaultTicketBalance()": {
        "details": "Pod balance of ticket token."
      },
      "vaultTokenBalance()": {
        "details": "Pod balance of deposit token."
      },
      "withdraw(uint256)": {
        "details": "The function should first withdraw from the 'float'; i.e. the funds that have not yet been deposited.",
        "params": {
          "shareAmount": "The number of Pod shares to redeem"
        },
        "returns": {
          "_0": "The actual amount of tokens that were transferred to the user.  This is the same as the deposit token."
        }
      },
      "withdrawERC20(address,uint256)": {
        "details": "Withdraw ERC20 reward tokens exlcuding token and ticket."
      },
      "withdrawERC721(address,uint256)": {
        "details": "Withdraw ER721 reward tokens"
      }
    },
    "version": 1
  },
  "userdoc": {
    "kind": "user",
    "methods": {
      "batch()": {
        "notice": "Deposit float into PrizePool"
      },
      "claim(address,address)": {
        "notice": "Allows a user to claim POOL tokens for an address.  The user will be transferred their share of POOL tokens."
      },
      "depositTo(address,uint256)": {
        "notice": "Deposit assets into the Pod in exchange for share tokens"
      },
      "prizePool()": {
        "notice": "Returns the address of the prize pool that the pod is bound to"
      },
      "withdraw(uint256)": {
        "notice": "Withdraws a users share of the prize pool."
      }
    },
    "version": 1
  },
  "storageLayout": {
    "storage": [
      {
        "astId": 507,
        "contract": "contracts/Pod.sol:Pod",
        "label": "_balances",
        "offset": 0,
        "slot": "0",
        "type": "t_mapping(t_address,t_uint256)"
      },
      {
        "astId": 513,
        "contract": "contracts/Pod.sol:Pod",
        "label": "_allowances",
        "offset": 0,
        "slot": "1",
        "type": "t_mapping(t_address,t_mapping(t_address,t_uint256))"
      },
      {
        "astId": 515,
        "contract": "contracts/Pod.sol:Pod",
        "label": "_totalSupply",
        "offset": 0,
        "slot": "2",
        "type": "t_uint256"
      },
      {
        "astId": 517,
        "contract": "contracts/Pod.sol:Pod",
        "label": "_name",
        "offset": 0,
        "slot": "3",
        "type": "t_string_storage"
      },
      {
        "astId": 519,
        "contract": "contracts/Pod.sol:Pod",
        "label": "_symbol",
        "offset": 0,
        "slot": "4",
        "type": "t_string_storage"
      },
      {
        "astId": 521,
        "contract": "contracts/Pod.sol:Pod",
        "label": "_decimals",
        "offset": 0,
        "slot": "5",
        "type": "t_uint8"
      },
      {
        "astId": 3459,
        "contract": "contracts/Pod.sol:Pod",
        "label": "token",
        "offset": 1,
        "slot": "5",
        "type": "t_address"
      },
      {
        "astId": 3461,
        "contract": "contracts/Pod.sol:Pod",
        "label": "ticket",
        "offset": 0,
        "slot": "6",
        "type": "t_address"
      },
      {
        "astId": 3463,
        "contract": "contracts/Pod.sol:Pod",
        "label": "pool",
        "offset": 0,
        "slot": "7",
        "type": "t_address"
      },
      {
        "astId": 3465,
        "contract": "contracts/Pod.sol:Pod",
        "label": "faucet",
        "offset": 0,
        "slot": "8",
        "type": "t_contract(TokenFaucet)5422"
      },
      {
        "astId": 3467,
        "contract": "contracts/Pod.sol:Pod",
        "label": "drip",
        "offset": 0,
        "slot": "9",
        "type": "t_contract(TokenDrop)4894"
      },
      {
        "astId": 3471,
        "contract": "contracts/Pod.sol:Pod",
        "label": "batchBacklog",
        "offset": 0,
        "slot": "10",
        "type": "t_uint256"
      },
      {
        "astId": 3473,
        "contract": "contracts/Pod.sol:Pod",
        "label": "reserves",
        "offset": 0,
        "slot": "11",
        "type": "t_uint256"
      },
      {
        "astId": 3476,
        "contract": "contracts/Pod.sol:Pod",
        "label": "reservePercentage",
        "offset": 0,
        "slot": "12",
        "type": "t_uint256"
      },
      {
        "astId": 3479,
        "contract": "contracts/Pod.sol:Pod",
        "label": "reserveFeeAccuracy",
        "offset": 0,
        "slot": "13",
        "type": "t_uint256"
      },
      {
        "astId": 3481,
        "contract": "contracts/Pod.sol:Pod",
        "label": "manager",
        "offset": 0,
        "slot": "14",
        "type": "t_contract(IPodManager)3437"
      }
    ],
    "types": {
      "t_address": {
        "encoding": "inplace",
        "label": "address",
        "numberOfBytes": "20"
      },
      "t_contract(IPodManager)3437": {
        "encoding": "inplace",
        "label": "contract IPodManager",
        "numberOfBytes": "20"
      },
      "t_contract(TokenDrop)4894": {
        "encoding": "inplace",
        "label": "contract TokenDrop",
        "numberOfBytes": "20"
      },
      "t_contract(TokenFaucet)5422": {
        "encoding": "inplace",
        "label": "contract TokenFaucet",
        "numberOfBytes": "20"
      },
      "t_mapping(t_address,t_mapping(t_address,t_uint256))": {
        "encoding": "mapping",
        "key": "t_address",
        "label": "mapping(address => mapping(address => uint256))",
        "numberOfBytes": "32",
        "value": "t_mapping(t_address,t_uint256)"
      },
      "t_mapping(t_address,t_uint256)": {
        "encoding": "mapping",
        "key": "t_address",
        "label": "mapping(address => uint256)",
        "numberOfBytes": "32",
        "value": "t_uint256"
      },
      "t_string_storage": {
        "encoding": "bytes",
        "label": "string",
        "numberOfBytes": "32"
      },
      "t_uint256": {
        "encoding": "inplace",
        "label": "uint256",
        "numberOfBytes": "32"
      },
      "t_uint8": {
        "encoding": "inplace",
        "label": "uint8",
        "numberOfBytes": "1"
      }
    }
  }
}