{
  "address": "0x2E898d67B466Bcd033D9b1e92A56eA2703790365",
  "abi": [
    {
      "inputs": [
        {
          "internalType": "contract TokenDropFactory",
          "name": "_tokenDropFactory",
          "type": "address"
        }
      ],
      "stateMutability": "nonpayable",
      "type": "constructor"
    },
    {
      "anonymous": false,
      "inputs": [
        {
          "indexed": false,
          "internalType": "address",
          "name": "pod",
          "type": "address"
        },
        {
          "indexed": false,
          "internalType": "address",
          "name": "tokenDrop",
          "type": "address"
        }
      ],
      "name": "LogCreatedPodAndTokenDrop",
      "type": "event"
    },
    {
      "anonymous": false,
      "inputs": [
        {
          "indexed": false,
          "internalType": "address",
          "name": "proxy",
          "type": "address"
        }
      ],
      "name": "ProxyCreated",
      "type": "event"
    },
    {
      "inputs": [
        {
          "internalType": "address",
          "name": "_prizePoolTarget",
          "type": "address"
        },
        {
          "internalType": "address",
          "name": "_token",
          "type": "address"
        },
        {
          "internalType": "address",
          "name": "_ticket",
          "type": "address"
        },
        {
          "internalType": "address",
          "name": "_pool",
          "type": "address"
        },
        {
          "internalType": "address",
          "name": "_faucet",
          "type": "address"
        },
        {
          "internalType": "address",
          "name": "_manager",
          "type": "address"
        }
      ],
      "name": "create",
      "outputs": [
        {
          "internalType": "address",
          "name": "",
          "type": "address"
        },
        {
          "internalType": "address",
          "name": "",
          "type": "address"
        }
      ],
      "stateMutability": "nonpayable",
      "type": "function"
    },
    {
      "inputs": [
        {
          "internalType": "address",
          "name": "_logic",
          "type": "address"
        },
        {
          "internalType": "bytes",
          "name": "_data",
          "type": "bytes"
        }
      ],
      "name": "deployMinimal",
      "outputs": [
        {
          "internalType": "address",
          "name": "proxy",
          "type": "address"
        }
      ],
      "stateMutability": "nonpayable",
      "type": "function"
    },
    {
      "inputs": [],
      "name": "podInstance",
      "outputs": [
        {
          "internalType": "contract Pod",
          "name": "",
          "type": "address"
        }
      ],
      "stateMutability": "view",
      "type": "function"
    },
    {
      "inputs": [],
      "name": "tokenDropFactory",
      "outputs": [
        {
          "internalType": "contract TokenDropFactory",
          "name": "",
          "type": "address"
        }
      ],
      "stateMutability": "view",
      "type": "function"
    },
    {
      "inputs": [],
      "name": "tokenDropInstance",
      "outputs": [
        {
          "internalType": "contract TokenDrop",
          "name": "",
          "type": "address"
        }
      ],
      "stateMutability": "view",
      "type": "function"
    }
  ],
  "transactionHash": "0x42be3c77835ce1c540c137d1fcbc860f67533cabce8cb399f017df1c5378d331",
  "args": [
    "0xB1E4652B1a137C9BEe3EBAA99Fb156fAD1158AF8"
  ],
  "solcInputHash": "1e1551bf46554992d244ea44b4467194",
  "bytecode": "0x608060405234801561001057600080fd5b506040516155aa3803806155aa8339818101604052602081101561003357600080fd5b8101908080519060200190929190505050604051610050906100f3565b604051809103906000f08015801561006c573d6000803e3d6000fd5b50600160006101000a81548173ffffffffffffffffffffffffffffffffffffffff021916908373ffffffffffffffffffffffffffffffffffffffff160217905550806000806101000a81548173ffffffffffffffffffffffffffffffffffffffff021916908373ffffffffffffffffffffffffffffffffffffffff16021790555050610100565b614a8880610b2283390190565b610a138061010f6000396000f3fe608060405234801561001057600080fd5b50600436106100575760003560e01c806343f709171461005c57806348c7eff51461018757806350efa2bf146101bb578063b3eeb5e2146101ef578063b8432a29146102f4575b600080fd5b61013e600480360360c081101561007257600080fd5b81019080803573ffffffffffffffffffffffffffffffffffffffff169060200190929190803573ffffffffffffffffffffffffffffffffffffffff169060200190929190803573ffffffffffffffffffffffffffffffffffffffff169060200190929190803573ffffffffffffffffffffffffffffffffffffffff169060200190929190803573ffffffffffffffffffffffffffffffffffffffff169060200190929190803573ffffffffffffffffffffffffffffffffffffffff169060200190929190505050610328565b604051808373ffffffffffffffffffffffffffffffffffffffff1681526020018273ffffffffffffffffffffffffffffffffffffffff1681526020019250505060405180910390f35b61018f610778565b604051808273ffffffffffffffffffffffffffffffffffffffff16815260200191505060405180910390f35b6101c361079e565b604051808273ffffffffffffffffffffffffffffffffffffffff16815260200191505060405180910390f35b6102c86004803603604081101561020557600080fd5b81019080803573ffffffffffffffffffffffffffffffffffffffff1690602001909291908035906020019064010000000081111561024257600080fd5b82018360208201111561025457600080fd5b8035906020019184600183028401116401000000008311171561027657600080fd5b91908080601f016020809104026020016040519081016040528093929190818152602001838380828437600081840152601f19601f8201169050808301925050505050505091929192905050506107c2565b604051808273ffffffffffffffffffffffffffffffffffffffff16815260200191505060405180910390f35b6102fc610993565b604051808273ffffffffffffffffffffffffffffffffffffffff16815260200191505060405180910390f35b6000806000849050600061036d600160009054906101000a900473ffffffffffffffffffffffffffffffffffffffff16604051806020016040528060008152506107c2565b90508073ffffffffffffffffffffffffffffffffffffffff1663cc2a9a5b8b8b8b8b8b8b6040518763ffffffff1660e01b8152600401808773ffffffffffffffffffffffffffffffffffffffff1681526020018673ffffffffffffffffffffffffffffffffffffffff1681526020018573ffffffffffffffffffffffffffffffffffffffff1681526020018473ffffffffffffffffffffffffffffffffffffffff1681526020018373ffffffffffffffffffffffffffffffffffffffff1681526020018273ffffffffffffffffffffffffffffffffffffffff1681526020019650505050505050600060405180830381600087803b15801561046e57600080fd5b505af1158015610482573d6000803e3d6000fd5b505050508073ffffffffffffffffffffffffffffffffffffffff1663f2fde38b336040518263ffffffff1660e01b8152600401808273ffffffffffffffffffffffffffffffffffffffff168152602001915050600060405180830381600087803b1580156104ef57600080fd5b505af1158015610503573d6000803e3d6000fd5b5050505060008060009054906101000a900473ffffffffffffffffffffffffffffffffffffffff1673ffffffffffffffffffffffffffffffffffffffff1663ffe5725f838a8673ffffffffffffffffffffffffffffffffffffffff1663187f33346040518163ffffffff1660e01b8152600401602060405180830381600087803b15801561059057600080fd5b505af11580156105a4573d6000803e3d6000fd5b505050506040513d60208110156105ba57600080fd5b81019080805190602001909291905050506040518463ffffffff1660e01b8152600401808473ffffffffffffffffffffffffffffffffffffffff1681526020018373ffffffffffffffffffffffffffffffffffffffff1681526020018281526020019350505050602060405180830381600087803b15801561063b57600080fd5b505af115801561064f573d6000803e3d6000fd5b505050506040513d602081101561066557600080fd5b810190808051906020019092919050505090508173ffffffffffffffffffffffffffffffffffffffff16631621a589826040518263ffffffff1660e01b8152600401808273ffffffffffffffffffffffffffffffffffffffff168152602001915050600060405180830381600087803b1580156106e157600080fd5b505af11580156106f5573d6000803e3d6000fd5b505050507f3c46040a888d584b68fd2711f7497191a5465a2200e3b3271e8b988037f720c58282604051808373ffffffffffffffffffffffffffffffffffffffff1681526020018273ffffffffffffffffffffffffffffffffffffffff1681526020019250505060405180910390a1818194509450505050965096945050505050565b600260009054906101000a900473ffffffffffffffffffffffffffffffffffffffff1681565b60008054906101000a900473ffffffffffffffffffffffffffffffffffffffff1681565b6000808360601b90506040517f3d602d80600a3d3981f3363d3d373d3d3d363d7300000000000000000000000081528160148201527f5af43d82803e903d91602b57fd5bf3000000000000000000000000000000000060288201526037816000f09250507efffc2da0b561cae30d9826d37709e9421c4725faebc226cbbb7ef5fc5e734982604051808273ffffffffffffffffffffffffffffffffffffffff16815260200191505060405180910390a160008351111561098c5760008273ffffffffffffffffffffffffffffffffffffffff16846040518082805190602001908083835b602083106108c957805182526020820191506020810190506020830392506108a6565b6001836020036101000a0380198251168184511680821785525050505050509050019150506000604051808303816000865af19150503d806000811461092b576040519150601f19603f3d011682016040523d82523d6000602084013e610930565b606091505b505090508061098a576040517f08c379a00000000000000000000000000000000000000000000000000000000081526004018080602001828103825260248152602001806109ba6024913960400191505060405180910390fd5b505b5092915050565b600160009054906101000a900473ffffffffffffffffffffffffffffffffffffffff168156fe50726f7879466163746f72792f636f6e7374727563746f722d63616c6c2d6661696c6564a2646970667358221220afec1ed13b86d12ccdea8f68ae6a063bc02ed8914869a2b1f5f2f37722dd8db264736f6c63430007000033608060405234801561001057600080fd5b50614a68806100206000396000f3fe608060405234801561001057600080fd5b506004361061023d5760003560e01c8063719ce73e1161013b578063d0ceb649116100b8578063f2fde38b1161007c578063f2fde38b14610bc3578063f3e414f814610c07578063f751cd8f14610c55578063fc0c546a14610c89578063ffaad6a514610cbd5761023d565b8063d0ceb64914610a97578063dd62ed3e14610ab5578063de5f72fd14610b2d578063e4edf85214610b61578063efc02d7e14610ba55761023d565b8063a457c2d7116100ff578063a457c2d714610899578063a9059cbb146108fd578063b69ef8a814610961578063c45a01551461097f578063cc2a9a5b146109b35761023d565b8063719ce73e146107085780638da5cb5b1461073c5780638f8da4281461077057806395d89b41146107c8578063a1db97821461084b5761023d565b80632e1a7d4d116101c957806352b7aa9d1161018d57806352b7aa9d146106365780636aef9e80146106545780636cc25db71461067257806370a08231146106a6578063715018a6146106fe5761023d565b80632e1a7d4d1461051d578063313ce5671461055f57806339509351146105805780633d68175c146105e4578063481c6a75146106025761023d565b806316f0115b1161021057806316f0115b1461039b57806318160ddd146103cf57806321c0b342146103ed57806323b872dd146104655780632888a7ba146104e95761023d565b806306fdde0314610242578063095ea7b3146102c55780630eaa75fe146103295780631621a58914610357575b600080fd5b61024a610d1f565b6040518080602001828103825283818151815260200191508051906020019080838360005b8381101561028a57808201518184015260208101905061026f565b50505050905090810190601f1680156102b75780820380516001836020036101000a031916815260200191505b509250505060405180910390f35b610311600480360360408110156102db57600080fd5b81019080803573ffffffffffffffffffffffffffffffffffffffff16906020019092919080359060200190929190505050610dc1565b60405180821515815260200191505060405180910390f35b6103556004803603602081101561033f57600080fd5b8101908080359060200190929190505050610ddf565b005b6103996004803603602081101561036d57600080fd5b81019080803573ffffffffffffffffffffffffffffffffffffffff1690602001909291905050506110e2565b005b6103a36111cc565b604051808273ffffffffffffffffffffffffffffffffffffffff16815260200191505060405180910390f35b6103d76111f2565b6040518082815260200191505060405180910390f35b61044f6004803603604081101561040357600080fd5b81019080803573ffffffffffffffffffffffffffffffffffffffff169060200190929190803573ffffffffffffffffffffffffffffffffffffffff1690602001909291905050506111fc565b6040518082815260200191505060405180910390f35b6104d16004803603606081101561047b57600080fd5b81019080803573ffffffffffffffffffffffffffffffffffffffff169060200190929190803573ffffffffffffffffffffffffffffffffffffffff16906020019092919080359060200190929190505050611365565b60405180821515815260200191505060405180910390f35b6104f161143e565b604051808273ffffffffffffffffffffffffffffffffffffffff16815260200191505060405180910390f35b6105496004803603602081101561053357600080fd5b8101908080359060200190929190505050611468565b6040518082815260200191505060405180910390f35b6105676114fe565b604051808260ff16815260200191505060405180910390f35b6105cc6004803603604081101561059657600080fd5b81019080803573ffffffffffffffffffffffffffffffffffffffff16906020019092919080359060200190929190505050611515565b60405180821515815260200191505060405180910390f35b6105ec6115c8565b6040518082815260200191505060405180910390f35b61060a61160a565b604051808273ffffffffffffffffffffffffffffffffffffffff16815260200191505060405180910390f35b61063e611630565b6040518082815260200191505060405180910390f35b61065c6116fb565b6040518082815260200191505060405180910390f35b61067a6117c6565b604051808273ffffffffffffffffffffffffffffffffffffffff16815260200191505060405180910390f35b6106e8600480360360208110156106bc57600080fd5b81019080803573ffffffffffffffffffffffffffffffffffffffff1690602001909291905050506117ec565b6040518082815260200191505060405180910390f35b610706611835565b005b6107106119a5565b604051808273ffffffffffffffffffffffffffffffffffffffff16815260200191505060405180910390f35b6107446119cf565b604051808273ffffffffffffffffffffffffffffffffffffffff16815260200191505060405180910390f35b6107b26004803603602081101561078657600080fd5b81019080803573ffffffffffffffffffffffffffffffffffffffff1690602001909291905050506119f9565b6040518082815260200191505060405180910390f35b6107d0611a57565b6040518080602001828103825283818151815260200191508051906020019080838360005b838110156108105780820151818401526020810190506107f5565b50505050905090810190601f16801561083d5780820380516001836020036101000a031916815260200191505b509250505060405180910390f35b6108976004803603604081101561086157600080fd5b81019080803573ffffffffffffffffffffffffffffffffffffffff16906020019092919080359060200190929190505050611af9565b005b6108e5600480360360408110156108af57600080fd5b81019080803573ffffffffffffffffffffffffffffffffffffffff16906020019092919080359060200190929190505050611db0565b60405180821515815260200191505060405180910390f35b6109496004803603604081101561091357600080fd5b81019080803573ffffffffffffffffffffffffffffffffffffffff16906020019092919080359060200190929190505050611e7d565b60405180821515815260200191505060405180910390f35b610969611e9b565b6040518082815260200191505060405180910390f35b610987611ec3565b604051808273ffffffffffffffffffffffffffffffffffffffff16815260200191505060405180910390f35b610a95600480360360c08110156109c957600080fd5b81019080803573ffffffffffffffffffffffffffffffffffffffff169060200190929190803573ffffffffffffffffffffffffffffffffffffffff169060200190929190803573ffffffffffffffffffffffffffffffffffffffff169060200190929190803573ffffffffffffffffffffffffffffffffffffffff169060200190929190803573ffffffffffffffffffffffffffffffffffffffff169060200190929190803573ffffffffffffffffffffffffffffffffffffffff169060200190929190505050611ee9565b005b610a9f61246a565b6040518082815260200191505060405180910390f35b610b1760048036036040811015610acb57600080fd5b81019080803573ffffffffffffffffffffffffffffffffffffffff169060200190929190803573ffffffffffffffffffffffffffffffffffffffff16906020019092919050505061271d565b6040518082815260200191505060405180910390f35b610b356127a4565b604051808273ffffffffffffffffffffffffffffffffffffffff16815260200191505060405180910390f35b610ba360048036036020811015610b7757600080fd5b81019080803573ffffffffffffffffffffffffffffffffffffffff1690602001909291905050506127ca565b005b610bad6129df565b6040518082815260200191505060405180910390f35b610c0560048036036020811015610bd957600080fd5b81019080803573ffffffffffffffffffffffffffffffffffffffff169060200190929190505050612aaa565b005b610c5360048036036040811015610c1d57600080fd5b81019080803573ffffffffffffffffffffffffffffffffffffffff16906020019092919080359060200190929190505050612c9f565b005b610c5d612df7565b604051808273ffffffffffffffffffffffffffffffffffffffff16815260200191505060405180910390f35b610c91612e1d565b604051808273ffffffffffffffffffffffffffffffffffffffff16815260200191505060405180910390f35b610d0960048036036040811015610cd357600080fd5b81019080803573ffffffffffffffffffffffffffffffffffffffff16906020019092919080359060200190929190505050612e43565b6040518082815260200191505060405180910390f35b606060368054600181600116156101000203166002900480601f016020809104026020016040519081016040528092919081815260200182805460018160011615610100020316600290048015610db75780601f10610d8c57610100808354040283529160200191610db7565b820191906000526020600020905b815481529060010190602001808311610d9a57829003601f168201915b5050505050905090565b6000610dd5610dce61301c565b8484613024565b6001905092915050565b6000610de96129df565b905080821115610e61576040517f08c379a00000000000000000000000000000000000000000000000000000000081526004018080602001828103825260148152602001807f496e76616c696420426174636820416d6f756e7400000000000000000000000081525060200191505060405180910390fd5b6000610e6b61246a565b90507fa71b671080e0f92a89a9abb935000df04b23c1c31382efb1812bb95dff91bab6816040518082815260200191505060405180910390a1609760009054906101000a900473ffffffffffffffffffffffffffffffffffffffff1673ffffffffffffffffffffffffffffffffffffffff1663095ea7b3609c60009054906101000a900473ffffffffffffffffffffffffffffffffffffffff16846040518363ffffffff1660e01b8152600401808373ffffffffffffffffffffffffffffffffffffffff16815260200182815260200192505050602060405180830381600087803b158015610f5957600080fd5b505af1158015610f6d573d6000803e3d6000fd5b505050506040513d6020811015610f8357600080fd5b810190808051906020019092919050505050609c60009054906101000a900473ffffffffffffffffffffffffffffffffffffffff1673ffffffffffffffffffffffffffffffffffffffff1663e323f8253085609860009054906101000a900473ffffffffffffffffffffffffffffffffffffffff16306040518563ffffffff1660e01b8152600401808573ffffffffffffffffffffffffffffffffffffffff1681526020018481526020018373ffffffffffffffffffffffffffffffffffffffff1681526020018273ffffffffffffffffffffffffffffffffffffffff168152602001945050505050600060405180830381600087803b15801561108657600080fd5b505af115801561109a573d6000803e3d6000fd5b505050507f2ca04914b4d70cdc594db077b5fc8da6128494049ddd62826107793cd82408508242604051808381526020018281526020019250505060405180910390a1505050565b609e60009054906101000a900473ffffffffffffffffffffffffffffffffffffffff1673ffffffffffffffffffffffffffffffffffffffff163373ffffffffffffffffffffffffffffffffffffffff1614611188576040517f08c379a00000000000000000000000000000000000000000000000000000000081526004018080602001828103825260218152602001806148c66021913960400191505060405180910390fd5b80609b60006101000a81548173ffffffffffffffffffffffffffffffffffffffff021916908373ffffffffffffffffffffffffffffffffffffffff16021790555050565b609960009054906101000a900473ffffffffffffffffffffffffffffffffffffffff1681565b6000603554905090565b600080609b60009054906101000a900473ffffffffffffffffffffffffffffffffffffffff1673ffffffffffffffffffffffffffffffffffffffff16631e83409a856040518263ffffffff1660e01b8152600401808273ffffffffffffffffffffffffffffffffffffffff168152602001915050602060405180830381600087803b15801561128a57600080fd5b505af115801561129e573d6000803e3d6000fd5b505050506040513d60208110156112b457600080fd5b810190808051906020019092919050505090507fd8138f8a3f377c5259ca548e70e4c2de94f129f5a11036a15b69513cba2b426a8482604051808373ffffffffffffffffffffffffffffffffffffffff1681526020018281526020019250505060405180910390a161135b6040518060400160405280601081526020017f436c61696d65642042616c616e63653a000000000000000000000000000000008152508261321b565b8091505092915050565b6000611372848484613322565b6114338461137e61301c565b61142e8560405180606001604052806028815260200161495a60289139603460008b73ffffffffffffffffffffffffffffffffffffffff1673ffffffffffffffffffffffffffffffffffffffff16815260200190815260200160002060006113e461301c565b73ffffffffffffffffffffffffffffffffffffffff1673ffffffffffffffffffffffffffffffffffffffff168152602001908152602001600020546135e79092919063ffffffff16565b613024565b600190509392505050565b6000609d60009054906101000a900473ffffffffffffffffffffffffffffffffffffffff16905090565b600081611474336117ec565b10156114e8576040517f08c379a000000000000000000000000000000000000000000000000000000000815260040180806020018281038252601a8152602001807f496e73756666696369656e742053686172652042616c616e636500000000000081525060200191505060405180910390fd5b60006114f3836136a1565b905080915050919050565b6000603860009054906101000a900460ff16905090565b60006115be61152261301c565b846115b9856034600061153361301c565b73ffffffffffffffffffffffffffffffffffffffff1673ffffffffffffffffffffffffffffffffffffffff16815260200190815260200160002060008973ffffffffffffffffffffffffffffffffffffffff1673ffffffffffffffffffffffffffffffffffffffff1681526020019081526020016000205461397490919063ffffffff16565b613024565b6001905092915050565b60006116056115d56111f2565b6115f7670de0b6b3a76400006115e9611e9b565b6139fc90919063ffffffff16565b613a8290919063ffffffff16565b905090565b609d60009054906101000a900473ffffffffffffffffffffffffffffffffffffffff1681565b6000609860009054906101000a900473ffffffffffffffffffffffffffffffffffffffff1673ffffffffffffffffffffffffffffffffffffffff166370a08231306040518263ffffffff1660e01b8152600401808273ffffffffffffffffffffffffffffffffffffffff16815260200191505060206040518083038186803b1580156116bb57600080fd5b505afa1580156116cf573d6000803e3d6000fd5b505050506040513d60208110156116e557600080fd5b8101908080519060200190929190505050905090565b6000609960009054906101000a900473ffffffffffffffffffffffffffffffffffffffff1673ffffffffffffffffffffffffffffffffffffffff166370a08231306040518263ffffffff1660e01b8152600401808273ffffffffffffffffffffffffffffffffffffffff16815260200191505060206040518083038186803b15801561178657600080fd5b505afa15801561179a573d6000803e3d6000fd5b505050506040513d60208110156117b057600080fd5b8101908080519060200190929190505050905090565b609860009054906101000a900473ffffffffffffffffffffffffffffffffffffffff1681565b6000603360008373ffffffffffffffffffffffffffffffffffffffff1673ffffffffffffffffffffffffffffffffffffffff168152602001908152602001600020549050919050565b61183d61301c565b73ffffffffffffffffffffffffffffffffffffffff1661185b6119cf565b73ffffffffffffffffffffffffffffffffffffffff16146118e4576040517f08c379a00000000000000000000000000000000000000000000000000000000081526004018080602001828103825260208152602001807f4f776e61626c653a2063616c6c6572206973206e6f7420746865206f776e657281525060200191505060405180910390fd5b600073ffffffffffffffffffffffffffffffffffffffff16606560009054906101000a900473ffffffffffffffffffffffffffffffffffffffff1673ffffffffffffffffffffffffffffffffffffffff167f8be0079c531659141344cd1fd0a4f28419497f9722a3daafe3b4186f6b6457e060405160405180910390a36000606560006101000a81548173ffffffffffffffffffffffffffffffffffffffff021916908373ffffffffffffffffffffffffffffffffffffffff160217905550565b6000609c60009054906101000a900473ffffffffffffffffffffffffffffffffffffffff16905090565b6000606560009054906101000a900473ffffffffffffffffffffffffffffffffffffffff16905090565b600080611a046111f2565b1115611a4d57611a46611a15611e9b565b611a38670de0b6b3a7640000611a2a866117ec565b6139fc90919063ffffffff16565b613a8290919063ffffffff16565b9050611a52565b600090505b919050565b606060378054600181600116156101000203166002900480601f016020809104026020016040519081016040528092919081815260200182805460018160011615610100020316600290048015611aef5780601f10611ac457610100808354040283529160200191611aef565b820191906000526020600020905b815481529060010190602001808311611ad257829003601f168201915b5050505050905090565b611b0161301c565b73ffffffffffffffffffffffffffffffffffffffff16609d60009054906101000a900473ffffffffffffffffffffffffffffffffffffffff1673ffffffffffffffffffffffffffffffffffffffff1614611ba6576040517f08c379a00000000000000000000000000000000000000000000000000000000081526004018080602001828103825260228152602001806149a36022913960400191505060405180910390fd5b609760009054906101000a900473ffffffffffffffffffffffffffffffffffffffff1673ffffffffffffffffffffffffffffffffffffffff168273ffffffffffffffffffffffffffffffffffffffff16141580611c515750609860009054906101000a900473ffffffffffffffffffffffffffffffffffffffff1673ffffffffffffffffffffffffffffffffffffffff168273ffffffffffffffffffffffffffffffffffffffff1614155b80611caa5750609960009054906101000a900473ffffffffffffffffffffffffffffffffffffffff1673ffffffffffffffffffffffffffffffffffffffff168273ffffffffffffffffffffffffffffffffffffffff1614155b611cff576040517f08c379a00000000000000000000000000000000000000000000000000000000081526004018080602001828103825260248152602001806149156024913960400191505060405180910390fd5b8173ffffffffffffffffffffffffffffffffffffffff1663a9059cbb33836040518363ffffffff1660e01b8152600401808373ffffffffffffffffffffffffffffffffffffffff16815260200182815260200192505050602060405180830381600087803b158015611d7057600080fd5b505af1158015611d84573d6000803e3d6000fd5b505050506040513d6020811015611d9a57600080fd5b8101908080519060200190929190505050505050565b6000611e73611dbd61301c565b84611e6e85604051806060016040528060258152602001614a0e6025913960346000611de761301c565b73ffffffffffffffffffffffffffffffffffffffff1673ffffffffffffffffffffffffffffffffffffffff16815260200190815260200160002060008a73ffffffffffffffffffffffffffffffffffffffff1673ffffffffffffffffffffffffffffffffffffffff168152602001908152602001600020546135e79092919063ffffffff16565b613024565b6001905092915050565b6000611e91611e8a61301c565b8484613322565b6001905092915050565b6000611ebe611ea8611630565b611eb06129df565b613acc90919063ffffffff16565b905090565b609e60009054906101000a900473ffffffffffffffffffffffffffffffffffffffff1681565b6122938573ffffffffffffffffffffffffffffffffffffffff166306fdde036040518163ffffffff1660e01b815260040160006040518083038186803b158015611f3257600080fd5b505afa158015611f46573d6000803e3d6000fd5b505050506040513d6000823e3d601f19601f820116820180604052506020811015611f7057600080fd5b8101908080516040519392919084640100000000821115611f9057600080fd5b83820191506020820185811115611fa657600080fd5b8251866001820283011164010000000082111715611fc357600080fd5b8083526020830192505050908051906020019080838360005b83811015611ff7578082015181840152602081019050611fdc565b50505050905090810190601f1680156120245780820380516001836020036101000a031916815260200191505b5060405250505060405160200180807f70506f642000000000000000000000000000000000000000000000000000000081525060050182805190602001908083835b602083106120895780518252602082019150602081019050602083039250612066565b6001836020036101000a0380198251168184511680821785525050505050509050019150506040516020818303038152906040528673ffffffffffffffffffffffffffffffffffffffff166395d89b416040518163ffffffff1660e01b815260040160006040518083038186803b15801561210357600080fd5b505afa158015612117573d6000803e3d6000fd5b505050506040513d6000823e3d601f19601f82011682018060405250602081101561214157600080fd5b810190808051604051939291908464010000000082111561216157600080fd5b8382019150602082018581111561217757600080fd5b825186600182028301116401000000008211171561219457600080fd5b8083526020830192505050908051906020019080838360005b838110156121c85780820151818401526020810190506121ad565b50505050905090810190601f1680156121f55780820380516001836020036101000a031916815260200191505b5060405250505060405160200180807f707000000000000000000000000000000000000000000000000000000000000081525060020182805190602001908083835b6020831061225a5780518252602082019150602081019050602083039250612237565b6001836020036101000a038019825116818451168082178552505050505050905001915050604051602081830303815290604052613b54565b61229b613c9e565b85609c60006101000a81548173ffffffffffffffffffffffffffffffffffffffff021916908373ffffffffffffffffffffffffffffffffffffffff16021790555084609760006101000a81548173ffffffffffffffffffffffffffffffffffffffff021916908373ffffffffffffffffffffffffffffffffffffffff16021790555083609860006101000a81548173ffffffffffffffffffffffffffffffffffffffff021916908373ffffffffffffffffffffffffffffffffffffffff16021790555082609960006101000a81548173ffffffffffffffffffffffffffffffffffffffff021916908373ffffffffffffffffffffffffffffffffffffffff16021790555081609a60006101000a81548173ffffffffffffffffffffffffffffffffffffffff021916908373ffffffffffffffffffffffffffffffffffffffff16021790555033609e60006101000a81548173ffffffffffffffffffffffffffffffffffffffff021916908373ffffffffffffffffffffffffffffffffffffffff16021790555080609d60006101000a81548173ffffffffffffffffffffffffffffffffffffffff021916908373ffffffffffffffffffffffffffffffffffffffff160217905550505050505050565b600080609a60009054906101000a900473ffffffffffffffffffffffffffffffffffffffff1673ffffffffffffffffffffffffffffffffffffffff16631e83409a306040518263ffffffff1660e01b8152600401808273ffffffffffffffffffffffffffffffffffffffff168152602001915050602060405180830381600087803b1580156124f857600080fd5b505af115801561250c573d6000803e3d6000fd5b505050506040513d602081101561252257600080fd5b81019080805190602001909291905050509050609960009054906101000a900473ffffffffffffffffffffffffffffffffffffffff1673ffffffffffffffffffffffffffffffffffffffff1663095ea7b3609b60009054906101000a900473ffffffffffffffffffffffffffffffffffffffff16836040518363ffffffff1660e01b8152600401808373ffffffffffffffffffffffffffffffffffffffff16815260200182815260200192505050602060405180830381600087803b1580156125ea57600080fd5b505af11580156125fe573d6000803e3d6000fd5b505050506040513d602081101561261457600080fd5b810190808051906020019092919050505050609b60009054906101000a900473ffffffffffffffffffffffffffffffffffffffff1673ffffffffffffffffffffffffffffffffffffffff1663949e196f826040518263ffffffff1660e01b815260040180828152602001915050602060405180830381600087803b15801561269b57600080fd5b505af11580156126af573d6000803e3d6000fd5b505050506040513d60208110156126c557600080fd5b8101908080519060200190929190505050506127166040518060400160405280600e81526020017f5f636c61696d6564416d6f756e740000000000000000000000000000000000008152508261321b565b8091505090565b6000603460008473ffffffffffffffffffffffffffffffffffffffff1673ffffffffffffffffffffffffffffffffffffffff16815260200190815260200160002060008373ffffffffffffffffffffffffffffffffffffffff1673ffffffffffffffffffffffffffffffffffffffff16815260200190815260200160002054905092915050565b609a60009054906101000a900473ffffffffffffffffffffffffffffffffffffffff1681565b6127d261301c565b73ffffffffffffffffffffffffffffffffffffffff16609d60009054906101000a900473ffffffffffffffffffffffffffffffffffffffff1673ffffffffffffffffffffffffffffffffffffffff1614612877576040517f08c379a00000000000000000000000000000000000000000000000000000000081526004018080602001828103825260228152602001806149a36022913960400191505060405180910390fd5b600073ffffffffffffffffffffffffffffffffffffffff16609d60009054906101000a900473ffffffffffffffffffffffffffffffffffffffff1673ffffffffffffffffffffffffffffffffffffffff16141561291f576040517f08c379a000000000000000000000000000000000000000000000000000000000815260040180806020018281038252602681526020018061487a6026913960400191505060405180910390fd5b8073ffffffffffffffffffffffffffffffffffffffff16609d60009054906101000a900473ffffffffffffffffffffffffffffffffffffffff1673ffffffffffffffffffffffffffffffffffffffff167f80f15e9dbc60884fdb59fb8ed4fc48a9a689e028f055e893ed45ca5be67c5c8560405160405180910390a380609d60006101000a81548173ffffffffffffffffffffffffffffffffffffffff021916908373ffffffffffffffffffffffffffffffffffffffff16021790555050565b6000609760009054906101000a900473ffffffffffffffffffffffffffffffffffffffff1673ffffffffffffffffffffffffffffffffffffffff166370a08231306040518263ffffffff1660e01b8152600401808273ffffffffffffffffffffffffffffffffffffffff16815260200191505060206040518083038186803b158015612a6a57600080fd5b505afa158015612a7e573d6000803e3d6000fd5b505050506040513d6020811015612a9457600080fd5b8101908080519060200190929190505050905090565b612ab261301c565b73ffffffffffffffffffffffffffffffffffffffff16612ad06119cf565b73ffffffffffffffffffffffffffffffffffffffff1614612b59576040517f08c379a00000000000000000000000000000000000000000000000000000000081526004018080602001828103825260208152602001807f4f776e61626c653a2063616c6c6572206973206e6f7420746865206f776e657281525060200191505060405180910390fd5b600073ffffffffffffffffffffffffffffffffffffffff168173ffffffffffffffffffffffffffffffffffffffff161415612bdf576040517f08c379a00000000000000000000000000000000000000000000000000000000081526004018080602001828103825260268152602001806148326026913960400191505060405180910390fd5b8073ffffffffffffffffffffffffffffffffffffffff16606560009054906101000a900473ffffffffffffffffffffffffffffffffffffffff1673ffffffffffffffffffffffffffffffffffffffff167f8be0079c531659141344cd1fd0a4f28419497f9722a3daafe3b4186f6b6457e060405160405180910390a380606560006101000a81548173ffffffffffffffffffffffffffffffffffffffff021916908373ffffffffffffffffffffffffffffffffffffffff16021790555050565b612ca761301c565b73ffffffffffffffffffffffffffffffffffffffff16609d60009054906101000a900473ffffffffffffffffffffffffffffffffffffffff1673ffffffffffffffffffffffffffffffffffffffff1614612d4c576040517f08c379a00000000000000000000000000000000000000000000000000000000081526004018080602001828103825260228152602001806149a36022913960400191505060405180910390fd5b8173ffffffffffffffffffffffffffffffffffffffff166323b872dd3033846040518463ffffffff1660e01b8152600401808473ffffffffffffffffffffffffffffffffffffffff1681526020018373ffffffffffffffffffffffffffffffffffffffff1681526020018281526020019350505050600060405180830381600087803b158015612ddb57600080fd5b505af1158015612def573d6000803e3d6000fd5b505050505050565b609b60009054906101000a900473ffffffffffffffffffffffffffffffffffffffff1681565b609760009054906101000a900473ffffffffffffffffffffffffffffffffffffffff1681565b6000808211612eba576040517f08c379a00000000000000000000000000000000000000000000000000000000081526004018080602001828103825260178152602001807f496e637265617365204465706f73697420416d6f756e7400000000000000000081525060200191505060405180910390fd5b6000612ec68484613d49565b9050609760009054906101000a900473ffffffffffffffffffffffffffffffffffffffff1673ffffffffffffffffffffffffffffffffffffffff166323b872dd3330866040518463ffffffff1660e01b8152600401808473ffffffffffffffffffffffffffffffffffffffff1681526020018373ffffffffffffffffffffffffffffffffffffffff1681526020018281526020019350505050602060405180830381600087803b158015612f7957600080fd5b505af1158015612f8d573d6000803e3d6000fd5b505050506040513d6020811015612fa357600080fd5b8101908080519060200190929190505050507f73a19dd210f1a7f902193214c0ee91dd35ee5b4d920cba8d519eca65a7b488ca848483604051808473ffffffffffffffffffffffffffffffffffffffff168152602001838152602001828152602001935050505060405180910390a18091505092915050565b600033905090565b600073ffffffffffffffffffffffffffffffffffffffff168373ffffffffffffffffffffffffffffffffffffffff1614156130aa576040517f08c379a00000000000000000000000000000000000000000000000000000000081526004018080602001828103825260248152602001806149ea6024913960400191505060405180910390fd5b600073ffffffffffffffffffffffffffffffffffffffff168273ffffffffffffffffffffffffffffffffffffffff161415613130576040517f08c379a00000000000000000000000000000000000000000000000000000000081526004018080602001828103825260228152602001806148586022913960400191505060405180910390fd5b80603460008573ffffffffffffffffffffffffffffffffffffffff1673ffffffffffffffffffffffffffffffffffffffff16815260200190815260200160002060008473ffffffffffffffffffffffffffffffffffffffff1673ffffffffffffffffffffffffffffffffffffffff168152602001908152602001600020819055508173ffffffffffffffffffffffffffffffffffffffff168373ffffffffffffffffffffffffffffffffffffffff167f8c5be1e5ebec7d5bd14f71427d1e84f3dd0314c0f7b2291e5b200ac8c7c3b925836040518082815260200191505060405180910390a3505050565b61331e82826040516024018080602001838152602001828103825284818151815260200191508051906020019080838360005b8381101561326957808201518184015260208101905061324e565b50505050905090810190601f1680156132965780820380516001836020036101000a031916815260200191505b5093505050506040516020818303038152906040527f9710a9d0000000000000000000000000000000000000000000000000000000007bffffffffffffffffffffffffffffffffffffffffffffffffffffffff19166020820180517bffffffffffffffffffffffffffffffffffffffffffffffffffffffff8381831617835250505050613db2565b5050565b600073ffffffffffffffffffffffffffffffffffffffff168373ffffffffffffffffffffffffffffffffffffffff1614156133a8576040517f08c379a00000000000000000000000000000000000000000000000000000000081526004018080602001828103825260258152602001806149c56025913960400191505060405180910390fd5b600073ffffffffffffffffffffffffffffffffffffffff168273ffffffffffffffffffffffffffffffffffffffff16141561342e576040517f08c379a00000000000000000000000000000000000000000000000000000000081526004018080602001828103825260238152602001806147ed6023913960400191505060405180910390fd5b613439838383613ddb565b6134a5816040518060600160405280602681526020016148a060269139603360008773ffffffffffffffffffffffffffffffffffffffff1673ffffffffffffffffffffffffffffffffffffffff168152602001908152602001600020546135e79092919063ffffffff16565b603360008573ffffffffffffffffffffffffffffffffffffffff1673ffffffffffffffffffffffffffffffffffffffff1681526020019081526020016000208190555061353a81603360008573ffffffffffffffffffffffffffffffffffffffff1673ffffffffffffffffffffffffffffffffffffffff1681526020019081526020016000205461397490919063ffffffff16565b603360008473ffffffffffffffffffffffffffffffffffffffff1673ffffffffffffffffffffffffffffffffffffffff168152602001908152602001600020819055508173ffffffffffffffffffffffffffffffffffffffff168373ffffffffffffffffffffffffffffffffffffffff167fddf252ad1be2c89b69c2b068fc378daa952ba7f163c4a11628f55a4df523b3ef836040518082815260200191505060405180910390a3505050565b6000838311158290613694576040517f08c379a00000000000000000000000000000000000000000000000000000000081526004018080602001828103825283818151815260200191508051906020019080838360005b8381101561365957808201518184015260208101905061363e565b50505050905090810190601f1680156136865780820380516001836020036101000a031916815260200191505b509250505060405180910390fd5b5082840390509392505050565b6000806136d76136af6111f2565b6136c9856136bb611e9b565b6139fc90919063ffffffff16565b613a8290919063ffffffff16565b90506136e33384613f1f565b6000609760009054906101000a900473ffffffffffffffffffffffffffffffffffffffff16905060008173ffffffffffffffffffffffffffffffffffffffff166370a08231306040518263ffffffff1660e01b8152600401808273ffffffffffffffffffffffffffffffffffffffff16815260200191505060206040518083038186803b15801561377357600080fd5b505afa158015613787573d6000803e3d6000fd5b505050506040513d602081101561379d57600080fd5b81019080805190602001909291905050509050808311156138bc5760006137cd82856140e590919063ffffffff16565b905060006137da8261412f565b905060008473ffffffffffffffffffffffffffffffffffffffff166370a08231306040518263ffffffff1660e01b8152600401808273ffffffffffffffffffffffffffffffffffffffff16815260200191505060206040518083038186803b15801561384557600080fd5b505afa158015613859573d6000803e3d6000fd5b505050506040513d602081101561386f57600080fd5b81019080805190602001909291905050509050600061389785836140e590919063ffffffff16565b9050838110156138b7576138b48186613acc90919063ffffffff16565b96505b505050505b8173ffffffffffffffffffffffffffffffffffffffff1663a9059cbb33856040518363ffffffff1660e01b8152600401808373ffffffffffffffffffffffffffffffffffffffff16815260200182815260200192505050602060405180830381600087803b15801561392d57600080fd5b505af1158015613941573d6000803e3d6000fd5b505050506040513d602081101561395757600080fd5b810190808051906020019092919050505050829350505050919050565b6000808284019050838110156139f2576040517f08c379a000000000000000000000000000000000000000000000000000000000815260040180806020018281038252601b8152602001807f536166654d6174683a206164646974696f6e206f766572666c6f77000000000081525060200191505060405180910390fd5b8091505092915050565b600080831415613a0f5760009050613a7c565b6000828402905082848281613a2057fe5b0414613a77576040517f08c379a00000000000000000000000000000000000000000000000000000000081526004018080602001828103825260218152602001806149396021913960400191505060405180910390fd5b809150505b92915050565b6000613ac483836040518060400160405280601a81526020017f536166654d6174683a206469766973696f6e206279207a65726f000000000000815250614354565b905092915050565b600080828401905083811015613b4a576040517f08c379a000000000000000000000000000000000000000000000000000000000815260040180806020018281038252601b8152602001807f536166654d6174683a206164646974696f6e206f766572666c6f77000000000081525060200191505060405180910390fd5b8091505092915050565b600060019054906101000a900460ff1680613b735750613b7261441a565b5b80613b89575060008054906101000a900460ff16155b613bde576040517f08c379a000000000000000000000000000000000000000000000000000000000815260040180806020018281038252602e8152602001806148e7602e913960400191505060405180910390fd5b60008060019054906101000a900460ff161590508015613c2e576001600060016101000a81548160ff02191690831515021790555060016000806101000a81548160ff0219169083151502179055505b8260369080519060200190613c4492919061474f565b508160379080519060200190613c5b92919061474f565b506012603860006101000a81548160ff021916908360ff1602179055508015613c995760008060016101000a81548160ff0219169083151502179055505b505050565b6000613ca861301c565b905080606560006101000a81548173ffffffffffffffffffffffffffffffffffffffff021916908373ffffffffffffffffffffffffffffffffffffffff1602179055508073ffffffffffffffffffffffffffffffffffffffff16600073ffffffffffffffffffffffffffffffffffffffff167f8be0079c531659141344cd1fd0a4f28419497f9722a3daafe3b4186f6b6457e060405160405180910390a350565b600080600090506000613d5a6111f2565b1415613d6857829050613d9e565b613d9b613d73611e9b565b613d8d613d7e6111f2565b866139fc90919063ffffffff16565b613a8290919063ffffffff16565b90505b613da8848261442b565b8091505092915050565b60008151905060006a636f6e736f6c652e6c6f679050602083016000808483855afa5050505050565b613de68383836145f4565b609b60009054906101000a900473ffffffffffffffffffffffffffffffffffffffff1673ffffffffffffffffffffffffffffffffffffffff166340069fee8484306040518463ffffffff1660e01b8152600401808473ffffffffffffffffffffffffffffffffffffffff1681526020018373ffffffffffffffffffffffffffffffffffffffff1681526020018273ffffffffffffffffffffffffffffffffffffffff1681526020019350505050600060405180830381600087803b158015613ead57600080fd5b505af1158015613ec1573d6000803e3d6000fd5b505050507f3e33e0bfad796d4aee5918d9667e7a068fb3e75842a2986a162a2bd3e6ec89ce8382604051808373ffffffffffffffffffffffffffffffffffffffff1681526020018281526020019250505060405180910390a1505050565b600073ffffffffffffffffffffffffffffffffffffffff168273ffffffffffffffffffffffffffffffffffffffff161415613fa5576040517f08c379a00000000000000000000000000000000000000000000000000000000081526004018080602001828103825260218152602001806149826021913960400191505060405180910390fd5b613fb182600083613ddb565b61401d8160405180606001604052806022815260200161481060229139603360008673ffffffffffffffffffffffffffffffffffffffff1673ffffffffffffffffffffffffffffffffffffffff168152602001908152602001600020546135e79092919063ffffffff16565b603360008473ffffffffffffffffffffffffffffffffffffffff1673ffffffffffffffffffffffffffffffffffffffff16815260200190815260200160002081905550614075816035546145f990919063ffffffff16565b603581905550600073ffffffffffffffffffffffffffffffffffffffff168273ffffffffffffffffffffffffffffffffffffffff167fddf252ad1be2c89b69c2b068fc378daa952ba7f163c4a11628f55a4df523b3ef836040518082815260200191505060405180910390a35050565b600061412783836040518060400160405280601e81526020017f536166654d6174683a207375627472616374696f6e206f766572666c6f77000081525061467c565b905092915050565b600080609c60009054906101000a900473ffffffffffffffffffffffffffffffffffffffff16905060008173ffffffffffffffffffffffffffffffffffffffff1663888c2b6f30609860009054906101000a900473ffffffffffffffffffffffffffffffffffffffff16876040518463ffffffff1660e01b8152600401808473ffffffffffffffffffffffffffffffffffffffff1681526020018373ffffffffffffffffffffffffffffffffffffffff16815260200182815260200193505050506040805180830381600087803b15801561420957600080fd5b505af115801561421d573d6000803e3d6000fd5b505050506040513d604081101561423357600080fd5b81019080805190602001909291908051906020019092919050505050905060008273ffffffffffffffffffffffffffffffffffffffff1663a016240b3087609860009054906101000a900473ffffffffffffffffffffffffffffffffffffffff16866040518563ffffffff1660e01b8152600401808573ffffffffffffffffffffffffffffffffffffffff1681526020018481526020018373ffffffffffffffffffffffffffffffffffffffff168152602001828152602001945050505050602060405180830381600087803b15801561430c57600080fd5b505af1158015614320573d6000803e3d6000fd5b505050506040513d602081101561433657600080fd5b81019080805190602001909291905050509050809350505050919050565b60008083118290614400576040517f08c379a00000000000000000000000000000000000000000000000000000000081526004018080602001828103825283818151815260200191508051906020019080838360005b838110156143c55780820151818401526020810190506143aa565b50505050905090810190601f1680156143f25780820380516001836020036101000a031916815260200191505b509250505060405180910390fd5b50600083858161440c57fe5b049050809150509392505050565b60006144253061473c565b15905090565b600073ffffffffffffffffffffffffffffffffffffffff168273ffffffffffffffffffffffffffffffffffffffff1614156144ce576040517f08c379a000000000000000000000000000000000000000000000000000000000815260040180806020018281038252601f8152602001807f45524332303a206d696e7420746f20746865207a65726f20616464726573730081525060200191505060405180910390fd5b6144da60008383613ddb565b6144ef8160355461397490919063ffffffff16565b60358190555061454781603360008573ffffffffffffffffffffffffffffffffffffffff1673ffffffffffffffffffffffffffffffffffffffff1681526020019081526020016000205461397490919063ffffffff16565b603360008473ffffffffffffffffffffffffffffffffffffffff1673ffffffffffffffffffffffffffffffffffffffff168152602001908152602001600020819055508173ffffffffffffffffffffffffffffffffffffffff16600073ffffffffffffffffffffffffffffffffffffffff167fddf252ad1be2c89b69c2b068fc378daa952ba7f163c4a11628f55a4df523b3ef836040518082815260200191505060405180910390a35050565b505050565b600082821115614671576040517f08c379a000000000000000000000000000000000000000000000000000000000815260040180806020018281038252601e8152602001807f536166654d6174683a207375627472616374696f6e206f766572666c6f77000081525060200191505060405180910390fd5b818303905092915050565b6000838311158290614729576040517f08c379a00000000000000000000000000000000000000000000000000000000081526004018080602001828103825283818151815260200191508051906020019080838360005b838110156146ee5780820151818401526020810190506146d3565b50505050905090810190601f16801561471b5780820380516001836020036101000a031916815260200191505b509250505060405180910390fd5b5060008385039050809150509392505050565b600080823b905060008111915050919050565b828054600181600116156101000203166002900490600052602060002090601f016020900481019282601f1061479057805160ff19168380011785556147be565b828001600101855582156147be579182015b828111156147bd5782518255916020019190600101906147a2565b5b5090506147cb91906147cf565b5090565b5b808211156147e85760008160009055506001016147d0565b509056fe45524332303a207472616e7366657220746f20746865207a65726f206164647265737345524332303a206275726e20616d6f756e7420657863656564732062616c616e63654f776e61626c653a206e6577206f776e657220697320746865207a65726f206164647265737345524332303a20617070726f766520746f20746865207a65726f20616464726573734d616e616765723a206e6577206f776e657220697320746865207a65726f206164647265737345524332303a207472616e7366657220616d6f756e7420657863656564732062616c616e6365506f643a20556e617574686f72697a656420506f6444726f7020466163746f7279496e697469616c697a61626c653a20636f6e747261637420697320616c726561647920696e697469616c697a6564556e61626c6520746f20776974686472617720746f6b656e2f7469636b65742f706f6f6c536166654d6174683a206d756c7469706c69636174696f6e206f766572666c6f7745524332303a207472616e7366657220616d6f756e74206578636565647320616c6c6f77616e636545524332303a206275726e2066726f6d20746865207a65726f20616464726573734f776e61626c653a2063616c6c6572206973206e6f7420746865206d616e6167657245524332303a207472616e736665722066726f6d20746865207a65726f206164647265737345524332303a20617070726f76652066726f6d20746865207a65726f206164647265737345524332303a2064656372656173656420616c6c6f77616e63652062656c6f77207a65726fa264697066735822122089fcb6b880ec623a1470300bd0e60776a0abc08c4066c16d33616803f2224dbb64736f6c63430007000033",
  "devdoc": {
    "events": {
      "LogCreatedPodAndTokenDrop(address,address)": {
        "details": "Emitted when use deposits into batch backlog"
      }
    },
    "kind": "dev",
    "methods": {},
    "version": 1
  },
  "userdoc": {
    "kind": "user",
    "methods": {
      "constructor": {
        "notice": "Initializes the Factory with an instance of the TokenFaucet"
      },
      "podInstance()": {
        "notice": "Contract template for deploying proxied Comptrollers"
      },
      "tokenDropFactory()": {
        "notice": "Contract template for deploying proxied Comptrollers"
      },
      "tokenDropInstance()": {
        "notice": "Contract template for deploying proxied Comptrollers"
      }
    },
    "version": 1
  },
  "storageLayout": {
    "storage": [
      {
        "astId": 5646,
        "contract": "contracts/PodFactory.sol:PodFactory",
        "label": "tokenDropFactory",
        "offset": 0,
        "slot": "0",
        "type": "t_contract(TokenDropFactory)6416"
      },
      {
        "astId": 5649,
        "contract": "contracts/PodFactory.sol:PodFactory",
        "label": "podInstance",
        "offset": 0,
        "slot": "1",
        "type": "t_contract(Pod)5634"
      },
      {
        "astId": 5652,
        "contract": "contracts/PodFactory.sol:PodFactory",
        "label": "tokenDropInstance",
        "offset": 0,
        "slot": "2",
        "type": "t_contract(TokenDrop)6346"
      }
    ],
    "types": {
      "t_contract(Pod)5634": {
        "encoding": "inplace",
        "label": "contract Pod",
        "numberOfBytes": "20"
      },
      "t_contract(TokenDrop)6346": {
        "encoding": "inplace",
        "label": "contract TokenDrop",
        "numberOfBytes": "20"
      },
      "t_contract(TokenDropFactory)6416": {
        "encoding": "inplace",
        "label": "contract TokenDropFactory",
        "numberOfBytes": "20"
      }
    }
  }
}