{
  "address": "0xB1E4652B1a137C9BEe3EBAA99Fb156fAD1158AF8",
  "abi": [
    {
      "inputs": [],
      "stateMutability": "nonpayable",
      "type": "constructor"
    },
    {
      "anonymous": false,
      "inputs": [
        {
          "indexed": false,
          "internalType": "address",
          "name": "tokenDrop",
          "type": "address"
        }
      ],
      "name": "LogCreateTokenDrop",
      "type": "event"
    },
    {
      "anonymous": false,
      "inputs": [
        {
          "indexed": false,
          "internalType": "address",
          "name": "proxy",
          "type": "address"
        }
      ],
      "name": "ProxyCreated",
      "type": "event"
    },
    {
      "inputs": [
        {
          "internalType": "address",
          "name": "_measure",
          "type": "address"
        },
        {
          "internalType": "address",
          "name": "_asset",
          "type": "address"
        },
        {
          "internalType": "uint256",
          "name": "_dripRatePerSecond",
          "type": "uint256"
        }
      ],
      "name": "create",
      "outputs": [
        {
          "internalType": "contract TokenDrop",
          "name": "",
          "type": "address"
        }
      ],
      "stateMutability": "nonpayable",
      "type": "function"
    },
    {
      "inputs": [
        {
          "internalType": "address",
          "name": "_logic",
          "type": "address"
        },
        {
          "internalType": "bytes",
          "name": "_data",
          "type": "bytes"
        }
      ],
      "name": "deployMinimal",
      "outputs": [
        {
          "internalType": "address",
          "name": "proxy",
          "type": "address"
        }
      ],
      "stateMutability": "nonpayable",
      "type": "function"
    },
    {
      "inputs": [],
      "name": "tokenDropInstance",
      "outputs": [
        {
          "internalType": "contract TokenDrop",
          "name": "",
          "type": "address"
        }
      ],
      "stateMutability": "view",
      "type": "function"
    }
  ],
  "transactionHash": "0x44a1a26c935d520b889da65796af644691e074cad3b93211255a5f70e3fea958",
  "args": [],
  "solcInputHash": "1e1551bf46554992d244ea44b4467194",
  "bytecode": "0x608060405234801561001057600080fd5b5060405161001d9061007e565b604051809103906000f080158015610039573d6000803e3d6000fd5b506000806101000a81548173ffffffffffffffffffffffffffffffffffffffff021916908373ffffffffffffffffffffffffffffffffffffffff16021790555061008b565b61176d8061063d83390190565b6105a38061009a6000396000f3fe608060405234801561001057600080fd5b50600436106100415760003560e01c806348c7eff514610046578063b3eeb5e21461007a578063ffe5725f1461017f575b600080fd5b61004e610217565b604051808273ffffffffffffffffffffffffffffffffffffffff16815260200191505060405180910390f35b6101536004803603604081101561009057600080fd5b81019080803573ffffffffffffffffffffffffffffffffffffffff169060200190929190803590602001906401000000008111156100cd57600080fd5b8201836020820111156100df57600080fd5b8035906020019184600183028401116401000000008311171561010157600080fd5b91908080601f016020809104026020016040519081016040528093929190818152602001838380828437600081840152601f19601f82011690508083019250505050505050919291929050505061023b565b604051808273ffffffffffffffffffffffffffffffffffffffff16815260200191505060405180910390f35b6101eb6004803603606081101561019557600080fd5b81019080803573ffffffffffffffffffffffffffffffffffffffff169060200190929190803573ffffffffffffffffffffffffffffffffffffffff1690602001909291908035906020019092919050505061040c565b604051808273ffffffffffffffffffffffffffffffffffffffff16815260200191505060405180910390f35b60008054906101000a900473ffffffffffffffffffffffffffffffffffffffff1681565b6000808360601b90506040517f3d602d80600a3d3981f3363d3d373d3d3d363d7300000000000000000000000081528160148201527f5af43d82803e903d91602b57fd5bf3000000000000000000000000000000000060288201526037816000f09250507efffc2da0b561cae30d9826d37709e9421c4725faebc226cbbb7ef5fc5e734982604051808273ffffffffffffffffffffffffffffffffffffffff16815260200191505060405180910390a16000835111156104055760008273ffffffffffffffffffffffffffffffffffffffff16846040518082805190602001908083835b60208310610342578051825260208201915060208101905060208303925061031f565b6001836020036101000a0380198251168184511680821785525050505050509050019150506000604051808303816000865af19150503d80600081146103a4576040519150601f19603f3d011682016040523d82523d6000602084013e6103a9565b606091505b5050905080610403576040517f08c379a000000000000000000000000000000000000000000000000000000000815260040180806020018281038252602481526020018061054a6024913960400191505060405180910390fd5b505b5092915050565b60008061044860008054906101000a900473ffffffffffffffffffffffffffffffffffffffff166040518060200160405280600081525061023b565b90508073ffffffffffffffffffffffffffffffffffffffff16631794bb3c8686866040518463ffffffff1660e01b8152600401808473ffffffffffffffffffffffffffffffffffffffff1681526020018373ffffffffffffffffffffffffffffffffffffffff1681526020018281526020019350505050600060405180830381600087803b1580156104d957600080fd5b505af11580156104ed573d6000803e3d6000fd5b505050507fd1a1176a583badc92fb4019539d4a479581b6092cd1341933029da345dbe127581604051808273ffffffffffffffffffffffffffffffffffffffff16815260200191505060405180910390a180915050939250505056fe50726f7879466163746f72792f636f6e7374727563746f722d63616c6c2d6661696c6564a2646970667358221220af769108874e51f4f7cd9e6c672ca6f67f2323d5357bdadb83fe0ee9db9c33e464736f6c63430007000033608060405234801561001057600080fd5b5061174d806100206000396000f3fe608060405234801561001057600080fd5b50600436106100f55760003560e01c8063949e196f11610097578063e318613e11610066578063e318613e14610434578063e784d1b214610462578063efa9a1ad146104a6578063f751cd8f146104da576100f5565b8063949e196f1461036a578063c45a0155146103ae578063c96f14b8146103e2578063d9772a2514610410576100f5565b8063187f3334116100d3578063187f33341461023c5780631e83409a1461025a57806338d52e0f146102b257806340069fee146102e6576100f5565b806301ffc9a7146100fa5780630ecc535f1461015d5780631794bb3c146101ce575b600080fd5b6101456004803603602081101561011057600080fd5b8101908080357bffffffffffffffffffffffffffffffffffffffffffffffffffffffff191690602001909291905050506104f8565b60405180821515815260200191505060405180910390f35b61019f6004803603602081101561017357600080fd5b81019080803573ffffffffffffffffffffffffffffffffffffffff169060200190929190505050610503565b60405180836fffffffffffffffffffffffffffffffff1681526020018281526020019250505060405180910390f35b61023a600480360360608110156101e457600080fd5b81019080803573ffffffffffffffffffffffffffffffffffffffff169060200190929190803573ffffffffffffffffffffffffffffffffffffffff16906020019092919080359060200190929190505050610543565b005b610244610612565b6040518082815260200191505060405180910390f35b61029c6004803603602081101561027057600080fd5b81019080803573ffffffffffffffffffffffffffffffffffffffff169060200190929190505050610618565b6040518082815260200191505060405180910390f35b6102ba61085d565b604051808273ffffffffffffffffffffffffffffffffffffffff16815260200191505060405180910390f35b610368600480360360608110156102fc57600080fd5b81019080803573ffffffffffffffffffffffffffffffffffffffff169060200190929190803573ffffffffffffffffffffffffffffffffffffffff169060200190929190803573ffffffffffffffffffffffffffffffffffffffff169060200190929190505050610883565b005b6103966004803603602081101561038057600080fd5b8101908080359060200190929190505050610931565b60405180821515815260200191505060405180910390f35b6103b6610a31565b604051808273ffffffffffffffffffffffffffffffffffffffff16815260200191505060405180910390f35b6103ea610a57565b60405180826dffffffffffffffffffffffffffff16815260200191505060405180910390f35b610418610a77565b604051808263ffffffff16815260200191505060405180910390f35b61043c610a8d565b60405180826dffffffffffffffffffffffffffff16815260200191505060405180910390f35b6104a46004803603602081101561047857600080fd5b81019080803573ffffffffffffffffffffffffffffffffffffffff169060200190929190505050610aad565b005b6104ae610b97565b604051808273ffffffffffffffffffffffffffffffffffffffff16815260200191505060405180910390f35b6104e2610bbd565b6040518082815260200191505060405180910390f35b600060019050919050565b60056020528060005260406000206000915090508060000160009054906101000a90046fffffffffffffffffffffffffffffffff16908060010154905082565b82600160006101000a81548173ffffffffffffffffffffffffffffffffffffffff021916908373ffffffffffffffffffffffffffffffffffffffff16021790555081600060026101000a81548173ffffffffffffffffffffffffffffffffffffffff021916908373ffffffffffffffffffffffffffffffffffffffff1602179055508060028190555033600460006101000a81548173ffffffffffffffffffffffffffffffffffffffff021916908373ffffffffffffffffffffffffffffffffffffffff160217905550505050565b60025481565b6000610622610bbd565b5061062c82610ec5565b506000600560008473ffffffffffffffffffffffffffffffffffffffff1673ffffffffffffffffffffffffffffffffffffffff1681526020019081526020016000206001015490506000600560008573ffffffffffffffffffffffffffffffffffffffff1673ffffffffffffffffffffffffffffffffffffffff168152602001908152602001600020600101819055506107036106fe826003600e9054906101000a90046dffffffffffffffffffffffffffff166dffffffffffffffffffffffffffff166111f990919063ffffffff16565b611243565b6003600e6101000a8154816dffffffffffffffffffffffffffff02191690836dffffffffffffffffffffffffffff160217905550600060029054906101000a900473ffffffffffffffffffffffffffffffffffffffff1673ffffffffffffffffffffffffffffffffffffffff1663a9059cbb84836040518363ffffffff1660e01b8152600401808373ffffffffffffffffffffffffffffffffffffffff16815260200182815260200192505050602060405180830381600087803b1580156107ca57600080fd5b505af11580156107de573d6000803e3d6000fd5b505050506040513d60208110156107f457600080fd5b8101908080519060200190929190505050508273ffffffffffffffffffffffffffffffffffffffff167fd8138f8a3f377c5259ca548e70e4c2de94f129f5a11036a15b69513cba2b426a826040518082815260200191505060405180910390a280915050919050565b600060029054906101000a900473ffffffffffffffffffffffffffffffffffffffff1681565b600160009054906101000a900473ffffffffffffffffffffffffffffffffffffffff1673ffffffffffffffffffffffffffffffffffffffff168173ffffffffffffffffffffffffffffffffffffffff16141561092c576108e1610bbd565b506108eb82610ec5565b50600073ffffffffffffffffffffffffffffffffffffffff168373ffffffffffffffffffffffffffffffffffffffff161461092b5761092983610ec5565b505b5b505050565b60008060029054906101000a900473ffffffffffffffffffffffffffffffffffffffff1673ffffffffffffffffffffffffffffffffffffffff166323b872dd3330856040518463ffffffff1660e01b8152600401808473ffffffffffffffffffffffffffffffffffffffff1681526020018373ffffffffffffffffffffffffffffffffffffffff1681526020018281526020019350505050602060405180830381600087803b1580156109e357600080fd5b505af11580156109f7573d6000803e3d6000fd5b505050506040513d6020811015610a0d57600080fd5b810190808051906020019092919050505050610a27610bbd565b5060019050919050565b600460009054906101000a900473ffffffffffffffffffffffffffffffffffffffff1681565b6003600e9054906101000a90046dffffffffffffffffffffffffffff1681565b6003601c9054906101000a900463ffffffff1681565b600360009054906101000a90046dffffffffffffffffffffffffffff1681565b600460009054906101000a900473ffffffffffffffffffffffffffffffffffffffff1673ffffffffffffffffffffffffffffffffffffffff163373ffffffffffffffffffffffffffffffffffffffff1614610b53576040517f08c379a00000000000000000000000000000000000000000000000000000000081526004018080602001828103825260218152602001806116846021913960400191505060405180910390fd5b80600160006101000a81548173ffffffffffffffffffffffffffffffffffffffff021916908373ffffffffffffffffffffffffffffffffffffffff16021790555050565b600160009054906101000a900473ffffffffffffffffffffffffffffffffffffffff1681565b600080600060029054906101000a900473ffffffffffffffffffffffffffffffffffffffff1673ffffffffffffffffffffffffffffffffffffffff166370a08231306040518263ffffffff1660e01b8152600401808273ffffffffffffffffffffffffffffffffffffffff16815260200191505060206040518083038186803b158015610c4957600080fd5b505afa158015610c5d573d6000803e3d6000fd5b505050506040513d6020811015610c7357600080fd5b810190808051906020019092919050505090506000610cc76003600e9054906101000a90046dffffffffffffffffffffffffffff166dffffffffffffffffffffffffffff16836111f990919063ffffffff16565b90506000811115610ebd576000600160009054906101000a900473ffffffffffffffffffffffffffffffffffffffff1673ffffffffffffffffffffffffffffffffffffffff166318160ddd6040518163ffffffff1660e01b815260040160206040518083038186803b158015610d3c57600080fd5b505afa158015610d50573d6000803e3d6000fd5b505050506040513d6020811015610d6657600080fd5b810190808051906020019092919050505090506000610d8583836112b4565b90506000610dc882600360009054906101000a90046dffffffffffffffffffffffffffff166dffffffffffffffffffffffffffff166112f390919063ffffffff16565b9050610dd381611243565b600360006101000a8154816dffffffffffffffffffffffffffff02191690836dffffffffffffffffffffffffffff160217905550610e4e610e49856003600e9054906101000a90046dffffffffffffffffffffffffffff166dffffffffffffffffffffffffffff166112f390919063ffffffff16565b611243565b6003600e6101000a8154816dffffffffffffffffffffffffffff02191690836dffffffffffffffffffffffffffff1602179055507f7de59a92c9386255180c28ede4b61edb9b7b2ac96855ac634151489cef21bad6846040518082815260200191505060405180910390a15050505b809250505090565b600080600560008473ffffffffffffffffffffffffffffffffffffffff1673ffffffffffffffffffffffffffffffffffffffff16815260200190815260200160002090508060000160009054906101000a90046fffffffffffffffffffffffffffffffff166fffffffffffffffffffffffffffffffff16600360009054906101000a90046dffffffffffffffffffffffffffff166dffffffffffffffffffffffffffff161415610f795760009150506111f4565b6000610fec8260000160009054906101000a90046fffffffffffffffffffffffffffffffff166fffffffffffffffffffffffffffffffff16600360009054906101000a90046dffffffffffffffffffffffffffff166dffffffffffffffffffffffffffff166111f990919063ffffffff16565b90506000600160009054906101000a900473ffffffffffffffffffffffffffffffffffffffff1673ffffffffffffffffffffffffffffffffffffffff166370a08231866040518263ffffffff1660e01b8152600401808273ffffffffffffffffffffffffffffffffffffffff16815260200191505060206040518083038186803b15801561107957600080fd5b505afa15801561108d573d6000803e3d6000fd5b505050506040513d60208110156110a357600080fd5b8101908080519060200190929190505050905060006110ca6110c5838561137b565b6113ba565b90506040518060400160405280600360009054906101000a90046dffffffffffffffffffffffffffff166dffffffffffffffffffffffffffff166fffffffffffffffffffffffffffffffff16815260200161114c611147846fffffffffffffffffffffffffffffffff1688600101546112f390919063ffffffff16565b6113ba565b6fffffffffffffffffffffffffffffffff16815250600560008873ffffffffffffffffffffffffffffffffffffffff1673ffffffffffffffffffffffffffffffffffffffff16815260200190815260200160002060008201518160000160006101000a8154816fffffffffffffffffffffffffffffffff02191690836fffffffffffffffffffffffffffffffff16021790555060208201518160010155905050809450505050505b919050565b600061123b83836040518060400160405280601e81526020017f536166654d6174683a207375627472616374696f6e206f766572666c6f77000081525061142d565b905092915050565b60006e01000000000000000000000000000082106112ac576040517f08c379a00000000000000000000000000000000000000000000000000000000081526004018080602001828103825260298152602001806116ef6029913960400191505060405180910390fd5b819050919050565b6000806112d2670de0b6b3a7640000856114ed90919063ffffffff16565b90506112e7838261157390919063ffffffff16565b90508091505092915050565b600080828401905083811015611371576040517f08c379a000000000000000000000000000000000000000000000000000000000815260040180806020018281038252601b8152602001807f536166654d6174683a206164646974696f6e206f766572666c6f77000000000081525060200191505060405180910390fd5b8091505092915050565b60008061139184846114ed90919063ffffffff16565b90506113ae670de0b6b3a76400008261157390919063ffffffff16565b90508091505092915050565b60007001000000000000000000000000000000008210611425576040517f08c379a00000000000000000000000000000000000000000000000000000000081526004018080602001828103825260298152602001806116a56029913960400191505060405180910390fd5b819050919050565b60008383111582906114da576040517f08c379a00000000000000000000000000000000000000000000000000000000081526004018080602001828103825283818151815260200191508051906020019080838360005b8381101561149f578082015181840152602081019050611484565b50505050905090810190601f1680156114cc5780820380516001836020036101000a031916815260200191505b509250505060405180910390fd5b5060008385039050809150509392505050565b600080831415611500576000905061156d565b600082840290508284828161151157fe5b0414611568576040517f08c379a00000000000000000000000000000000000000000000000000000000081526004018080602001828103825260218152602001806116ce6021913960400191505060405180910390fd5b809150505b92915050565b60006115b583836040518060400160405280601a81526020017f536166654d6174683a206469766973696f6e206279207a65726f0000000000008152506115bd565b905092915050565b60008083118290611669576040517f08c379a00000000000000000000000000000000000000000000000000000000081526004018080602001828103825283818151815260200191508051906020019080838360005b8381101561162e578082015181840152602081019050611613565b50505050905090810190601f16801561165b5780820380516001836020036101000a031916815260200191505b509250505060405180910390fd5b50600083858161167557fe5b04905080915050939250505056fe506f643a20556e617574686f72697a656420506f6444726f7020466163746f727953616665436173743a2076616c756520646f65736e27742066697420696e20616e2075696e74313238536166654d6174683a206d756c7469706c69636174696f6e206f766572666c6f7753616665436173743a2076616c756520646f65736e27742066697420696e20616e2075696e74313132a2646970667358221220341678c227a156c4af23e272e7bd4c2f64a4b3120cb965c1055b4170dcfbb54264736f6c63430007000033",
  "devdoc": {
    "events": {
      "LogCreateTokenDrop(address)": {
        "details": "Emitted when use deposits into batch backlog"
      }
    },
    "kind": "dev",
    "methods": {},
    "version": 1
  },
  "userdoc": {
    "kind": "user",
    "methods": {
      "constructor": {
        "notice": "Initializes the Factory with an instance of the TokenFaucet"
      },
      "create(address,address,uint256)": {
        "notice": "Create a TokenDrop smart contract"
      },
      "tokenDropInstance()": {
        "notice": "Contract template for deploying proxied Comptrollers"
      }
    },
    "version": 1
  },
  "storageLayout": {
    "storage": [
      {
        "astId": 6357,
        "contract": "contracts/TokenDropFactory.sol:TokenDropFactory",
        "label": "tokenDropInstance",
        "offset": 0,
        "slot": "0",
        "type": "t_contract(TokenDrop)6346"
      }
    ],
    "types": {
      "t_contract(TokenDrop)6346": {
        "encoding": "inplace",
        "label": "contract TokenDrop",
        "numberOfBytes": "20"
      }
    }
  }
}