{
  "address": "0xDDa0f6178B981828059c036B48df439D7F211E8A",
  "abi": [
    {
      "inputs": [
        {
          "internalType": "contract TokenDropFactory",
          "name": "_tokenDropFactory",
          "type": "address"
        }
      ],
      "stateMutability": "nonpayable",
      "type": "constructor"
    },
    {
      "anonymous": false,
      "inputs": [
        {
          "indexed": true,
          "internalType": "contract Pod",
          "name": "pod",
          "type": "address"
        },
        {
          "indexed": true,
          "internalType": "contract TokenDrop",
          "name": "drop",
          "type": "address"
        }
      ],
      "name": "LogCreatedPodAndTokenDrop",
      "type": "event"
    },
    {
      "anonymous": false,
      "inputs": [
        {
          "indexed": false,
          "internalType": "address",
          "name": "proxy",
          "type": "address"
        }
      ],
      "name": "ProxyCreated",
      "type": "event"
    },
    {
      "inputs": [
        {
          "internalType": "address",
          "name": "_prizePool",
          "type": "address"
        },
        {
          "internalType": "address",
          "name": "_ticket",
          "type": "address"
        },
        {
          "internalType": "address",
          "name": "_faucet",
          "type": "address"
        },
        {
          "internalType": "address",
          "name": "_manager",
          "type": "address"
        },
        {
          "internalType": "uint8",
          "name": "_decimals",
          "type": "uint8"
        }
      ],
      "name": "create",
      "outputs": [
        {
          "internalType": "address",
          "name": "pod",
          "type": "address"
        }
      ],
      "stateMutability": "nonpayable",
      "type": "function"
    },
    {
      "inputs": [
        {
          "internalType": "address",
          "name": "_logic",
          "type": "address"
        },
        {
          "internalType": "bytes",
          "name": "_data",
          "type": "bytes"
        }
      ],
      "name": "deployMinimal",
      "outputs": [
        {
          "internalType": "address",
          "name": "proxy",
          "type": "address"
        }
      ],
      "stateMutability": "nonpayable",
      "type": "function"
    },
    {
      "inputs": [],
      "name": "podInstance",
      "outputs": [
        {
          "internalType": "contract Pod",
          "name": "",
          "type": "address"
        }
      ],
      "stateMutability": "view",
      "type": "function"
    },
    {
      "inputs": [],
      "name": "tokenDropFactory",
      "outputs": [
        {
          "internalType": "contract TokenDropFactory",
          "name": "",
          "type": "address"
        }
      ],
      "stateMutability": "view",
      "type": "function"
    }
  ],
  "transactionHash": "0xda5df853b8b539d3da856f7c702e529e2ffbc67830f0fd2f09b5374d884719fb",
  "args": [
    "0xD1B03Cf29402ca61c1C68d894837b29B32E5A383"
  ],
  "solcInputHash": "0c70d3de23d0979f1e4c34fb82148ad4",
  "bytecode": "0x608060405234801561001057600080fd5b506040516166c93803806166c98339818101604052602081101561003357600080fd5b8101908080519060200190929190505050600073ffffffffffffffffffffffffffffffffffffffff168173ffffffffffffffffffffffffffffffffffffffff1614156100ca576040517f08c379a00000000000000000000000000000000000000000000000000000000081526004018080602001828103825260258152602001806166a46025913960400191505060405180910390fd5b6040516100d690610179565b604051809103906000f0801580156100f2573d6000803e3d6000fd5b50600160006101000a81548173ffffffffffffffffffffffffffffffffffffffff021916908373ffffffffffffffffffffffffffffffffffffffff160217905550806000806101000a81548173ffffffffffffffffffffffffffffffffffffffff021916908373ffffffffffffffffffffffffffffffffffffffff16021790555050610186565b6159fa80610caa83390190565b610b15806101956000396000f3fe608060405234801561001057600080fd5b506004361061004c5760003560e01c8063116a39431461005157806350efa2bf1461012c578063b3eeb5e214610160578063b8432a2914610265575b600080fd5b610100600480360360a081101561006757600080fd5b81019080803573ffffffffffffffffffffffffffffffffffffffff169060200190929190803573ffffffffffffffffffffffffffffffffffffffff169060200190929190803573ffffffffffffffffffffffffffffffffffffffff169060200190929190803573ffffffffffffffffffffffffffffffffffffffff169060200190929190803560ff169060200190929190505050610299565b604051808273ffffffffffffffffffffffffffffffffffffffff16815260200191505060405180910390f35b6101346107fd565b604051808273ffffffffffffffffffffffffffffffffffffffff16815260200191505060405180910390f35b6102396004803603604081101561017657600080fd5b81019080803573ffffffffffffffffffffffffffffffffffffffff169060200190929190803590602001906401000000008111156101b357600080fd5b8201836020820111156101c557600080fd5b803590602001918460018302840111640100000000831117156101e757600080fd5b91908080601f016020809104026020016040519081016040528093929190818152602001838380828437600081840152601f19601f820116905080830192505050505050509192919290505050610821565b604051808273ffffffffffffffffffffffffffffffffffffffff16815260200191505060405180910390f35b61026d610a95565b604051808273ffffffffffffffffffffffffffffffffffffffff16815260200191505060405180910390f35b6000806102d7600160009054906101000a900473ffffffffffffffffffffffffffffffffffffffff1660405180602001604052806000815250610821565b90508073ffffffffffffffffffffffffffffffffffffffff166389232a008888866040518463ffffffff1660e01b8152600401808473ffffffffffffffffffffffffffffffffffffffff1681526020018373ffffffffffffffffffffffffffffffffffffffff1681526020018260ff1681526020019350505050600060405180830381600087803b15801561036b57600080fd5b505af115801561037f573d6000803e3d6000fd5b505050508073ffffffffffffffffffffffffffffffffffffffff1663d0ebdbe7856040518263ffffffff1660e01b8152600401808273ffffffffffffffffffffffffffffffffffffffff168152602001915050602060405180830381600087803b1580156103ec57600080fd5b505af1158015610400573d6000803e3d6000fd5b505050506040513d602081101561041657600080fd5b81019080805190602001909291905050505060008073ffffffffffffffffffffffffffffffffffffffff168673ffffffffffffffffffffffffffffffffffffffff161461071457600086905060008054906101000a900473ffffffffffffffffffffffffffffffffffffffff1673ffffffffffffffffffffffffffffffffffffffff16633e68680a848373ffffffffffffffffffffffffffffffffffffffff166338d52e0f6040518163ffffffff1660e01b8152600401602060405180830381600087803b1580156104e757600080fd5b505af11580156104fb573d6000803e3d6000fd5b505050506040513d602081101561051157600080fd5b81019080805190602001909291905050506040518363ffffffff1660e01b8152600401808373ffffffffffffffffffffffffffffffffffffffff1681526020018273ffffffffffffffffffffffffffffffffffffffff16815260200192505050602060405180830381600087803b15801561058b57600080fd5b505af115801561059f573d6000803e3d6000fd5b505050506040513d60208110156105b557600080fd5b810190808051906020019092919050505091508273ffffffffffffffffffffffffffffffffffffffff16637eb86800826040518263ffffffff1660e01b8152600401808273ffffffffffffffffffffffffffffffffffffffff168152602001915050602060405180830381600087803b15801561063157600080fd5b505af1158015610645573d6000803e3d6000fd5b505050506040513d602081101561065b57600080fd5b8101908080519060200190929190505050508273ffffffffffffffffffffffffffffffffffffffff16631621a589836040518263ffffffff1660e01b8152600401808273ffffffffffffffffffffffffffffffffffffffff168152602001915050602060405180830381600087803b1580156106d657600080fd5b505af11580156106ea573d6000803e3d6000fd5b505050506040513d602081101561070057600080fd5b810190808051906020019092919050505050505b8173ffffffffffffffffffffffffffffffffffffffff1663f2fde38b336040518263ffffffff1660e01b8152600401808273ffffffffffffffffffffffffffffffffffffffff168152602001915050600060405180830381600087803b15801561077d57600080fd5b505af1158015610791573d6000803e3d6000fd5b505050508073ffffffffffffffffffffffffffffffffffffffff168273ffffffffffffffffffffffffffffffffffffffff167f3c46040a888d584b68fd2711f7497191a5465a2200e3b3271e8b988037f720c560405160405180910390a3819250505095945050505050565b60008054906101000a900473ffffffffffffffffffffffffffffffffffffffff1681565b6000808360601b90506040517f3d602d80600a3d3981f3363d3d373d3d3d363d7300000000000000000000000081528160148201527f5af43d82803e903d91602b57fd5bf3000000000000000000000000000000000060288201526037816000f0925050600073ffffffffffffffffffffffffffffffffffffffff168273ffffffffffffffffffffffffffffffffffffffff161415610928576040517f08c379a000000000000000000000000000000000000000000000000000000000815260040180806020018281038252601c8152602001807f50726f7879466163746f72793a696e76616c69642d616464726573730000000081525060200191505060405180910390fd5b7efffc2da0b561cae30d9826d37709e9421c4725faebc226cbbb7ef5fc5e734982604051808273ffffffffffffffffffffffffffffffffffffffff16815260200191505060405180910390a1600083511115610a8e5760008273ffffffffffffffffffffffffffffffffffffffff16846040518082805190602001908083835b602083106109cb57805182526020820191506020810190506020830392506109a8565b6001836020036101000a0380198251168184511680821785525050505050509050019150506000604051808303816000865af19150503d8060008114610a2d576040519150601f19603f3d011682016040523d82523d6000602084013e610a32565b606091505b5050905080610a8c576040517f08c379a0000000000000000000000000000000000000000000000000000000008152600401808060200182810382526024815260200180610abc6024913960400191505060405180910390fd5b505b5092915050565b600160009054906101000a900473ffffffffffffffffffffffffffffffffffffffff168156fe50726f7879466163746f72792f636f6e7374727563746f722d63616c6c2d6661696c6564a26469706673582212205affdfa396c497ac3f8035758cacb6d5da585968276f25c0cc4ecf0be5b39e1264736f6c63430007000033608060405234801561001057600080fd5b506159d980620000216000396000f3fe608060405234801561001057600080fd5b50600436106102115760003560e01c80638da5cb5b11610125578063d0ebdbe7116100ad578063f3e414f81161007c578063f3e414f814610b02578063f751cd8f14610b66578063fc0c546a14610b84578063fdb8015914610bb8578063ffaad6a514610bec57610211565b8063d0ebdbe7146109b8578063dd62ed3e14610a12578063de5f72fd14610a8a578063f2fde38b14610abe57610211565b8063a9059cbb116100f4578063a9059cbb14610872578063af713566146108d6578063b69ef8a8146108f4578063c082dd2014610912578063ccf927381461095457610211565b80638da5cb5b146106f357806395d89b4114610727578063a1db9782146107aa578063a457c2d71461080e57610211565b8063441a3e70116101a857806370a082311161017757806370a0823114610592578063715018a6146105ea578063719ce73e146105f45780637eb868001461062857806389232a001461068257610211565b8063441a3e701461049c578063481c6a75146104e857806365deaa671461051c5780636cc25db71461055e57610211565b806323b872dd116101e457806323b872dd14610375578063313ce567146103f9578063395093511461041a5780633d68175c1461047e57610211565b806306fdde0314610216578063095ea7b3146102995780631621a589146102fd57806318160ddd14610357575b600080fd5b61021e610c4e565b6040518080602001828103825283818151815260200191508051906020019080838360005b8381101561025e578082015181840152602081019050610243565b50505050905090810190601f16801561028b5780820380516001836020036101000a031916815260200191505b509250505060405180910390f35b6102e5600480360360408110156102af57600080fd5b81019080803573ffffffffffffffffffffffffffffffffffffffff16906020019092919080359060200190929190505050610cf0565b60405180821515815260200191505060405180910390f35b61033f6004803603602081101561031357600080fd5b81019080803573ffffffffffffffffffffffffffffffffffffffff169060200190929190505050610d0e565b60405180821515815260200191505060405180910390f35b61035f610eef565b6040518082815260200191505060405180910390f35b6103e16004803603606081101561038b57600080fd5b81019080803573ffffffffffffffffffffffffffffffffffffffff169060200190929190803573ffffffffffffffffffffffffffffffffffffffff16906020019092919080359060200190929190505050610ef9565b60405180821515815260200191505060405180910390f35b610401610fd2565b604051808260ff16815260200191505060405180910390f35b6104666004803603604081101561043057600080fd5b81019080803573ffffffffffffffffffffffffffffffffffffffff16906020019092919080359060200190929190505050610fe9565b60405180821515815260200191505060405180910390f35b61048661109c565b6040518082815260200191505060405180910390f35b6104d2600480360360408110156104b257600080fd5b8101908080359060200190929190803590602001909291905050506110fe565b6040518082815260200191505060405180910390f35b6104f06112c2565b604051808273ffffffffffffffffffffffffffffffffffffffff16815260200191505060405180910390f35b6105486004803603602081101561053257600080fd5b81019080803590602001909291905050506112e8565b6040518082815260200191505060405180910390f35b61056661143f565b604051808273ffffffffffffffffffffffffffffffffffffffff16815260200191505060405180910390f35b6105d4600480360360208110156105a857600080fd5b81019080803573ffffffffffffffffffffffffffffffffffffffff169060200190929190505050611465565b6040518082815260200191505060405180910390f35b6105f26114ae565b005b6105fc61161e565b604051808273ffffffffffffffffffffffffffffffffffffffff16815260200191505060405180910390f35b61066a6004803603602081101561063e57600080fd5b81019080803573ffffffffffffffffffffffffffffffffffffffff169060200190929190505050611648565b60405180821515815260200191505060405180910390f35b6106f16004803603606081101561069857600080fd5b81019080803573ffffffffffffffffffffffffffffffffffffffff169060200190929190803573ffffffffffffffffffffffffffffffffffffffff169060200190929190803560ff169060200190929190505050611829565b005b6106fb6121d7565b604051808273ffffffffffffffffffffffffffffffffffffffff16815260200191505060405180910390f35b61072f612201565b6040518080602001828103825283818151815260200191508051906020019080838360005b8381101561076f578082015181840152602081019050610754565b50505050905090810190601f16801561079c5780820380516001836020036101000a031916815260200191505b509250505060405180910390f35b6107f6600480360360408110156107c057600080fd5b81019080803573ffffffffffffffffffffffffffffffffffffffff169060200190929190803590602001909291905050506122a3565b60405180821515815260200191505060405180910390f35b61085a6004803603604081101561082457600080fd5b81019080803573ffffffffffffffffffffffffffffffffffffffff169060200190929190803590602001909291905050506125ea565b60405180821515815260200191505060405180910390f35b6108be6004803603604081101561088857600080fd5b81019080803573ffffffffffffffffffffffffffffffffffffffff169060200190929190803590602001909291905050506126b7565b60405180821515815260200191505060405180910390f35b6108de6126d5565b6040518082815260200191505060405180910390f35b6108fc612898565b6040518082815260200191505060405180910390f35b61093e6004803603602081101561092857600080fd5b81019080803590602001909291905050506128c0565b6040518082815260200191505060405180910390f35b6109b66004803603604081101561096a57600080fd5b81019080803573ffffffffffffffffffffffffffffffffffffffff169060200190929190803573ffffffffffffffffffffffffffffffffffffffff169060200190929190505050612915565b005b6109fa600480360360208110156109ce57600080fd5b81019080803573ffffffffffffffffffffffffffffffffffffffff1690602001909291905050506129f4565b60405180821515815260200191505060405180910390f35b610a7460048036036040811015610a2857600080fd5b81019080803573ffffffffffffffffffffffffffffffffffffffff169060200190929190803573ffffffffffffffffffffffffffffffffffffffff169060200190929190505050612c0e565b6040518082815260200191505060405180910390f35b610a92612c95565b604051808273ffffffffffffffffffffffffffffffffffffffff16815260200191505060405180910390f35b610b0060048036036020811015610ad457600080fd5b81019080803573ffffffffffffffffffffffffffffffffffffffff169060200190929190505050612cbb565b005b610b4e60048036036040811015610b1857600080fd5b81019080803573ffffffffffffffffffffffffffffffffffffffff16906020019092919080359060200190929190505050612eb0565b60405180821515815260200191505060405180910390f35b610b6e61307b565b6040518082815260200191505060405180910390f35b610b8c613437565b604051808273ffffffffffffffffffffffffffffffffffffffff16815260200191505060405180910390f35b610bc061345d565b604051808273ffffffffffffffffffffffffffffffffffffffff16815260200191505060405180910390f35b610c3860048036036040811015610c0257600080fd5b81019080803573ffffffffffffffffffffffffffffffffffffffff16906020019092919080359060200190929190505050613483565b6040518082815260200191505060405180910390f35b606060368054600181600116156101000203166002900480601f016020809104026020016040519081016040528092919081815260200182805460018160011615610100020316600290048015610ce65780601f10610cbb57610100808354040283529160200191610ce6565b820191906000526020600020905b815481529060010190602001808311610cc957829003601f168201915b5050505050905090565b6000610d04610cfd6137c7565b84846137cf565b6001905092915050565b6000610d186137c7565b73ffffffffffffffffffffffffffffffffffffffff16610d366121d7565b73ffffffffffffffffffffffffffffffffffffffff1614610dbf576040517f08c379a00000000000000000000000000000000000000000000000000000000081526004018080602001828103825260208152602001807f4f776e61626c653a2063616c6c6572206973206e6f7420746865206f776e657281525060200191505060405180910390fd5b600073ffffffffffffffffffffffffffffffffffffffff168273ffffffffffffffffffffffffffffffffffffffff161415610e62576040517f08c379a000000000000000000000000000000000000000000000000000000000815260040180806020018281038252601f8152602001807f506f643a696e76616c69642d746f6b656e2d64726f702d636f6e74726163740081525060200191505060405180910390fd5b8160cc60006101000a81548173ffffffffffffffffffffffffffffffffffffffff021916908373ffffffffffffffffffffffffffffffffffffffff1602179055508173ffffffffffffffffffffffffffffffffffffffff167f7a48cfaaa18629467c1c1a03e9ca7914885d91200eb368e11069f932cf61eb6b60405160405180910390a260019050919050565b6000603554905090565b6000610f068484846139c6565b610fc784610f126137c7565b610fc28560405180606001604052806028815260200161588d60289139603460008b73ffffffffffffffffffffffffffffffffffffffff1673ffffffffffffffffffffffffffffffffffffffff1681526020019081526020016000206000610f786137c7565b73ffffffffffffffffffffffffffffffffffffffff1673ffffffffffffffffffffffffffffffffffffffff16815260200190815260200160002054613c8b9092919063ffffffff16565b6137cf565b600190509392505050565b6000603860009054906101000a900460ff16905090565b6000611092610ff66137c7565b8461108d85603460006110076137c7565b73ffffffffffffffffffffffffffffffffffffffff1673ffffffffffffffffffffffffffffffffffffffff16815260200190815260200160002060008973ffffffffffffffffffffffffffffffffffffffff1673ffffffffffffffffffffffffffffffffffffffff16815260200190815260200160002054613d4590919063ffffffff16565b6137cf565b6001905092915050565b6000806110a7610eef565b11156110ef576110e86110b8610eef565b6110da670de0b6b3a76400006110cc612898565b613dcd90919063ffffffff16565b613e5390919063ffffffff16565b90506110fb565b670de0b6b3a764000090505b90565b600060026097541415611179576040517f08c379a000000000000000000000000000000000000000000000000000000000815260040180806020018281038252601f8152602001807f5265656e7472616e637947756172643a207265656e7472616e742063616c6c0081525060200191505060405180910390fd5b60026097819055508261118b33611465565b10156111ff576040517f08c379a00000000000000000000000000000000000000000000000000000000081526004018080602001828103825260178152602001807f506f643a696e73756666696369656e742d73686172657300000000000000000081525060200191505060405180910390fd5b600061120b8484613edc565b905061125a338260c960009054906101000a900473ffffffffffffffffffffffffffffffffffffffff1673ffffffffffffffffffffffffffffffffffffffff166140c99092919063ffffffff16565b3373ffffffffffffffffffffffffffffffffffffffff167fdf273cb619d95419a9cd0ec88123a0538c85064229baa6363788f743fff90deb8286604051808381526020018281526020019250505060405180910390a280915050600160978190555092915050565b60cd60009054906101000a900473ffffffffffffffffffffffffffffffffffffffff1681565b6000806112f361416b565b905080831161130657600091505061143a565b600060ce60009054906101000a900473ffffffffffffffffffffffffffffffffffffffff1673ffffffffffffffffffffffffffffffffffffffff1663888c2b6f3060ca60009054906101000a900473ffffffffffffffffffffffffffffffffffffffff1661137d868961423690919063ffffffff16565b6040518463ffffffff1660e01b8152600401808473ffffffffffffffffffffffffffffffffffffffff1681526020018373ffffffffffffffffffffffffffffffffffffffff16815260200182815260200193505050506040805180830381600087803b1580156113ec57600080fd5b505af1158015611400573d6000803e3d6000fd5b505050506040513d604081101561141657600080fd5b81019080805190602001909291908051906020019092919050505050905080925050505b919050565b60ca60009054906101000a900473ffffffffffffffffffffffffffffffffffffffff1681565b6000603360008373ffffffffffffffffffffffffffffffffffffffff1673ffffffffffffffffffffffffffffffffffffffff168152602001908152602001600020549050919050565b6114b66137c7565b73ffffffffffffffffffffffffffffffffffffffff166114d46121d7565b73ffffffffffffffffffffffffffffffffffffffff161461155d576040517f08c379a00000000000000000000000000000000000000000000000000000000081526004018080602001828103825260208152602001807f4f776e61626c653a2063616c6c6572206973206e6f7420746865206f776e657281525060200191505060405180910390fd5b600073ffffffffffffffffffffffffffffffffffffffff16606560009054906101000a900473ffffffffffffffffffffffffffffffffffffffff1673ffffffffffffffffffffffffffffffffffffffff167f8be0079c531659141344cd1fd0a4f28419497f9722a3daafe3b4186f6b6457e060405160405180910390a36000606560006101000a81548173ffffffffffffffffffffffffffffffffffffffff021916908373ffffffffffffffffffffffffffffffffffffffff160217905550565b600060ce60009054906101000a900473ffffffffffffffffffffffffffffffffffffffff16905090565b60006116526137c7565b73ffffffffffffffffffffffffffffffffffffffff166116706121d7565b73ffffffffffffffffffffffffffffffffffffffff16146116f9576040517f08c379a00000000000000000000000000000000000000000000000000000000081526004018080602001828103825260208152602001807f4f776e61626c653a2063616c6c6572206973206e6f7420746865206f776e657281525060200191505060405180910390fd5b600073ffffffffffffffffffffffffffffffffffffffff168273ffffffffffffffffffffffffffffffffffffffff16141561179c576040517f08c379a000000000000000000000000000000000000000000000000000000000815260040180806020018281038252601b8152602001807f506f643a696e76616c69642d6661756365742d636f6e7472616374000000000081525060200191505060405180910390fd5b8160cb60006101000a81548173ffffffffffffffffffffffffffffffffffffffff021916908373ffffffffffffffffffffffffffffffffffffffff1602179055508173ffffffffffffffffffffffffffffffffffffffff167f1062797e1a541ffcf19764c36deb3ad9960105ec3e52e4ff3bc3503ec35551a460405160405180910390a260019050919050565b600060019054906101000a900460ff168061184857506118476142b9565b5b8061185e575060008054906101000a900460ff16155b6118b3576040517f08c379a000000000000000000000000000000000000000000000000000000000815260040180806020018281038252602e81526020018061583e602e913960400191505060405180910390fd5b60008060019054906101000a900460ff161590508015611903576001600060016101000a81548160ff02191690831515021790555060016000806101000a81548160ff0219169083151502179055505b8360ce60006101000a81548173ffffffffffffffffffffffffffffffffffffffff021916908373ffffffffffffffffffffffffffffffffffffffff16021790555061194c6142ca565b611e3a60ce60009054906101000a900473ffffffffffffffffffffffffffffffffffffffff1673ffffffffffffffffffffffffffffffffffffffff1663fc0c546a6040518163ffffffff1660e01b815260040160206040518083038186803b1580156119b757600080fd5b505afa1580156119cb573d6000803e3d6000fd5b505050506040513d60208110156119e157600080fd5b810190808051906020019092919050505073ffffffffffffffffffffffffffffffffffffffff166306fdde036040518163ffffffff1660e01b815260040160006040518083038186803b158015611a3757600080fd5b505afa158015611a4b573d6000803e3d6000fd5b505050506040513d6000823e3d601f19601f820116820180604052506020811015611a7557600080fd5b8101908080516040519392919084640100000000821115611a9557600080fd5b83820191506020820185811115611aab57600080fd5b8251866001820283011164010000000082111715611ac857600080fd5b8083526020830192505050908051906020019080838360005b83811015611afc578082015181840152602081019050611ae1565b50505050905090810190601f168015611b295780820380516001836020036101000a031916815260200191505b5060405250505060405160200180807f506f64200000000000000000000000000000000000000000000000000000000081525060040182805190602001908083835b60208310611b8e5780518252602082019150602081019050602083039250611b6b565b6001836020036101000a03801982511681845116808217855250505050505090500191505060405160208183030381529060405260ce60009054906101000a900473ffffffffffffffffffffffffffffffffffffffff1673ffffffffffffffffffffffffffffffffffffffff1663fc0c546a6040518163ffffffff1660e01b815260040160206040518083038186803b158015611c2a57600080fd5b505afa158015611c3e573d6000803e3d6000fd5b505050506040513d6020811015611c5457600080fd5b810190808051906020019092919050505073ffffffffffffffffffffffffffffffffffffffff166395d89b416040518163ffffffff1660e01b815260040160006040518083038186803b158015611caa57600080fd5b505afa158015611cbe573d6000803e3d6000fd5b505050506040513d6000823e3d601f19601f820116820180604052506020811015611ce857600080fd5b8101908080516040519392919084640100000000821115611d0857600080fd5b83820191506020820185811115611d1e57600080fd5b8251866001820283011164010000000082111715611d3b57600080fd5b8083526020830192505050908051906020019080838360005b83811015611d6f578082015181840152602081019050611d54565b50505050905090810190601f168015611d9c5780820380516001836020036101000a031916815260200191505b5060405250505060405160200180807f700000000000000000000000000000000000000000000000000000000000000081525060010182805190602001908083835b60208310611e015780518252602082019150602081019050602083039250611dde565b6001836020036101000a0380198251168184511680821785525050505050509050019150506040516020818303038152906040526143d0565b611e4261451a565b611e4b826146c1565b606060ce60009054906101000a900473ffffffffffffffffffffffffffffffffffffffff1673ffffffffffffffffffffffffffffffffffffffff16639d63848a6040518163ffffffff1660e01b815260040160006040518083038186803b158015611eb557600080fd5b505afa158015611ec9573d6000803e3d6000fd5b505050506040513d6000823e3d601f19601f820116820180604052506020811015611ef357600080fd5b8101908080516040519392919084640100000000821115611f1357600080fd5b83820191506020820185811115611f2957600080fd5b8251866020820283011164010000000082111715611f4657600080fd5b8083526020830192505050908051906020019060200280838360005b83811015611f7d578082015181840152602081019050611f62565b50505050905001604052505050905080600081518110611f9957fe5b602002602001015173ffffffffffffffffffffffffffffffffffffffff168473ffffffffffffffffffffffffffffffffffffffff161480612019575080600181518110611fe257fe5b602002602001015173ffffffffffffffffffffffffffffffffffffffff168473ffffffffffffffffffffffffffffffffffffffff16145b61208b576040517f08c379a000000000000000000000000000000000000000000000000000000000815260040180806020018281038252601d8152602001807f506f643a696e697469616c697a652d696e76616c69642d7469636b657400000081525060200191505060405180910390fd5b60ce60009054906101000a900473ffffffffffffffffffffffffffffffffffffffff1673ffffffffffffffffffffffffffffffffffffffff1663fc0c546a6040518163ffffffff1660e01b815260040160206040518083038186803b1580156120f357600080fd5b505afa158015612107573d6000803e3d6000fd5b505050506040513d602081101561211d57600080fd5b810190808051906020019092919050505060c960006101000a81548173ffffffffffffffffffffffffffffffffffffffff021916908373ffffffffffffffffffffffffffffffffffffffff1602179055508360ca60006101000a81548173ffffffffffffffffffffffffffffffffffffffff021916908373ffffffffffffffffffffffffffffffffffffffff1602179055505080156121d15760008060016101000a81548160ff0219169083151502179055505b50505050565b6000606560009054906101000a900473ffffffffffffffffffffffffffffffffffffffff16905090565b606060378054600181600116156101000203166002900480601f0160208091040260200160405190810160405280929190818152602001828054600181600116156101000203166002900480156122995780601f1061226e57610100808354040283529160200191612299565b820191906000526020600020905b81548152906001019060200180831161227c57829003601f168201915b5050505050905090565b60006122ad6137c7565b73ffffffffffffffffffffffffffffffffffffffff1660cd60009054906101000a900473ffffffffffffffffffffffffffffffffffffffff1673ffffffffffffffffffffffffffffffffffffffff161461236f576040517f08c379a00000000000000000000000000000000000000000000000000000000081526004018080602001828103825260188152602001807f506f643a6d616e616765722d756e617574686f72697a6564000000000000000081525060200191505060405180910390fd5b60c960009054906101000a900473ffffffffffffffffffffffffffffffffffffffff1673ffffffffffffffffffffffffffffffffffffffff168373ffffffffffffffffffffffffffffffffffffffff161415801561241b575060ca60009054906101000a900473ffffffffffffffffffffffffffffffffffffffff1673ffffffffffffffffffffffffffffffffffffffff168373ffffffffffffffffffffffffffffffffffffffff1614155b80156124f5575060cc60009054906101000a900473ffffffffffffffffffffffffffffffffffffffff1673ffffffffffffffffffffffffffffffffffffffff166338d52e0f6040518163ffffffff1660e01b815260040160206040518083038186803b15801561248a57600080fd5b505afa15801561249e573d6000803e3d6000fd5b505050506040513d60208110156124b457600080fd5b810190808051906020019092919050505073ffffffffffffffffffffffffffffffffffffffff168373ffffffffffffffffffffffffffffffffffffffff1614155b612567576040517f08c379a00000000000000000000000000000000000000000000000000000000081526004018080602001828103825260188152602001807f506f643a696e76616c69642d7461726765742d746f6b656e000000000000000081525060200191505060405180910390fd5b61259233838573ffffffffffffffffffffffffffffffffffffffff166140c99092919063ffffffff16565b8273ffffffffffffffffffffffffffffffffffffffff167f7e2c99819371db0a6fc6f4269fe872496e44f502df19ba3eae594b7a15987460836040518082815260200191505060405180910390a26001905092915050565b60006126ad6125f76137c7565b846126a88560405180606001604052806025815260200161597f60259139603460006126216137c7565b73ffffffffffffffffffffffffffffffffffffffff1673ffffffffffffffffffffffffffffffffffffffff16815260200190815260200160002060008a73ffffffffffffffffffffffffffffffffffffffff1673ffffffffffffffffffffffffffffffffffffffff16815260200190815260200160002054613c8b9092919063ffffffff16565b6137cf565b6001905092915050565b60006126cb6126c46137c7565b84846139c6565b6001905092915050565b6000806126e061416b565b905061275160ce60009054906101000a900473ffffffffffffffffffffffffffffffffffffffff168260c960009054906101000a900473ffffffffffffffffffffffffffffffffffffffff1673ffffffffffffffffffffffffffffffffffffffff166146df9092919063ffffffff16565b60ce60009054906101000a900473ffffffffffffffffffffffffffffffffffffffff1673ffffffffffffffffffffffffffffffffffffffff1663e323f825308360ca60009054906101000a900473ffffffffffffffffffffffffffffffffffffffff16306040518563ffffffff1660e01b8152600401808573ffffffffffffffffffffffffffffffffffffffff1681526020018481526020018373ffffffffffffffffffffffffffffffffffffffff1681526020018273ffffffffffffffffffffffffffffffffffffffff168152602001945050505050600060405180830381600087803b15801561284257600080fd5b505af1158015612856573d6000803e3d6000fd5b505050507f1d026eaf76f56dd6eeb046aab9c5852b4d867e7c74376fe63c06328d27bbdb66816040518082815260200191505060405180910390a18091505090565b60006128bb6128a56148a4565b6128ad61416b565b613d4590919063ffffffff16565b905090565b6000806128cb610eef565b111561290b576129046128dc610eef565b6128f6846128e8612898565b613dcd90919063ffffffff16565b613e5390919063ffffffff16565b9050612910565b600090505b919050565b61291d6137c7565b73ffffffffffffffffffffffffffffffffffffffff1661293b6121d7565b73ffffffffffffffffffffffffffffffffffffffff16146129c4576040517f08c379a00000000000000000000000000000000000000000000000000000000081526004018080602001828103825260208152602001807f4f776e61626c653a2063616c6c6572206973206e6f7420746865206f776e657281525060200191505060405180910390fd5b6129f08160008473ffffffffffffffffffffffffffffffffffffffff166146df9092919063ffffffff16565b5050565b60006129fe6137c7565b73ffffffffffffffffffffffffffffffffffffffff16612a1c6121d7565b73ffffffffffffffffffffffffffffffffffffffff1614612aa5576040517f08c379a00000000000000000000000000000000000000000000000000000000081526004018080602001828103825260208152602001807f4f776e61626c653a2063616c6c6572206973206e6f7420746865206f776e657281525060200191505060405180910390fd5b600073ffffffffffffffffffffffffffffffffffffffff168273ffffffffffffffffffffffffffffffffffffffff161415612b48576040517f08c379a000000000000000000000000000000000000000000000000000000000815260040180806020018281038252601b8152602001807f506f643a696e76616c69642d6d616e616765722d61646472657373000000000081525060200191505060405180910390fd5b8160cd60006101000a81548173ffffffffffffffffffffffffffffffffffffffff021916908373ffffffffffffffffffffffffffffffffffffffff1602179055508173ffffffffffffffffffffffffffffffffffffffff1660cd60009054906101000a900473ffffffffffffffffffffffffffffffffffffffff1673ffffffffffffffffffffffffffffffffffffffff167f80f15e9dbc60884fdb59fb8ed4fc48a9a689e028f055e893ed45ca5be67c5c8560405160405180910390a360019050919050565b6000603460008473ffffffffffffffffffffffffffffffffffffffff1673ffffffffffffffffffffffffffffffffffffffff16815260200190815260200160002060008373ffffffffffffffffffffffffffffffffffffffff1673ffffffffffffffffffffffffffffffffffffffff16815260200190815260200160002054905092915050565b60cb60009054906101000a900473ffffffffffffffffffffffffffffffffffffffff1681565b612cc36137c7565b73ffffffffffffffffffffffffffffffffffffffff16612ce16121d7565b73ffffffffffffffffffffffffffffffffffffffff1614612d6a576040517f08c379a00000000000000000000000000000000000000000000000000000000081526004018080602001828103825260208152602001807f4f776e61626c653a2063616c6c6572206973206e6f7420746865206f776e657281525060200191505060405180910390fd5b600073ffffffffffffffffffffffffffffffffffffffff168173ffffffffffffffffffffffffffffffffffffffff161415612df0576040517f08c379a000000000000000000000000000000000000000000000000000000000815260040180806020018281038252602681526020018061577f6026913960400191505060405180910390fd5b8073ffffffffffffffffffffffffffffffffffffffff16606560009054906101000a900473ffffffffffffffffffffffffffffffffffffffff1673ffffffffffffffffffffffffffffffffffffffff167f8be0079c531659141344cd1fd0a4f28419497f9722a3daafe3b4186f6b6457e060405160405180910390a380606560006101000a81548173ffffffffffffffffffffffffffffffffffffffff021916908373ffffffffffffffffffffffffffffffffffffffff16021790555050565b6000612eba6137c7565b73ffffffffffffffffffffffffffffffffffffffff1660cd60009054906101000a900473ffffffffffffffffffffffffffffffffffffffff1673ffffffffffffffffffffffffffffffffffffffff1614612f7c576040517f08c379a00000000000000000000000000000000000000000000000000000000081526004018080602001828103825260188152602001807f506f643a6d616e616765722d756e617574686f72697a6564000000000000000081525060200191505060405180910390fd5b8273ffffffffffffffffffffffffffffffffffffffff166323b872dd3033856040518463ffffffff1660e01b8152600401808473ffffffffffffffffffffffffffffffffffffffff1681526020018373ffffffffffffffffffffffffffffffffffffffff1681526020018281526020019350505050600060405180830381600087803b15801561300b57600080fd5b505af115801561301f573d6000803e3d6000fd5b505050508273ffffffffffffffffffffffffffffffffffffffff167f1c5be65d2245c05a955440008d97c579b7046fffdfb8482e1884ae42be57d98d836040518082815260200191505060405180910390a26001905092915050565b60008073ffffffffffffffffffffffffffffffffffffffff1660cb60009054906101000a900473ffffffffffffffffffffffffffffffffffffffff1673ffffffffffffffffffffffffffffffffffffffff161461319a5760cb60009054906101000a900473ffffffffffffffffffffffffffffffffffffffff1673ffffffffffffffffffffffffffffffffffffffff16631e83409a306040518263ffffffff1660e01b8152600401808273ffffffffffffffffffffffffffffffffffffffff168152602001915050602060405180830381600087803b15801561315d57600080fd5b505af1158015613171573d6000803e3d6000fd5b505050506040513d602081101561318757600080fd5b8101908080519060200190929190505050505b6131a26126d5565b50600060cc60009054906101000a900473ffffffffffffffffffffffffffffffffffffffff1673ffffffffffffffffffffffffffffffffffffffff166338d52e0f6040518163ffffffff1660e01b815260040160206040518083038186803b15801561320d57600080fd5b505afa158015613221573d6000803e3d6000fd5b505050506040513d602081101561323757600080fd5b8101908080519060200190929190505050905060008173ffffffffffffffffffffffffffffffffffffffff166370a08231306040518263ffffffff1660e01b8152600401808273ffffffffffffffffffffffffffffffffffffffff16815260200191505060206040518083038186803b1580156132b357600080fd5b505afa1580156132c7573d6000803e3d6000fd5b505050506040513d60208110156132dd57600080fd5b8101908080519060200190929190505050905060008111156133f85761334660cc60009054906101000a900473ffffffffffffffffffffffffffffffffffffffff16828473ffffffffffffffffffffffffffffffffffffffff166146df9092919063ffffffff16565b60cc60009054906101000a900473ffffffffffffffffffffffffffffffffffffffff1673ffffffffffffffffffffffffffffffffffffffff1663949e196f826040518263ffffffff1660e01b815260040180828152602001915050602060405180830381600087803b1580156133bb57600080fd5b505af11580156133cf573d6000803e3d6000fd5b505050506040513d60208110156133e557600080fd5b8101908080519060200190929190505050505b7fa71b671080e0f92a89a9abb935000df04b23c1c31382efb1812bb95dff91bab6816040518082815260200191505060405180910390a1809250505090565b60c960009054906101000a900473ffffffffffffffffffffffffffffffffffffffff1681565b60cc60009054906101000a900473ffffffffffffffffffffffffffffffffffffffff1681565b600060ce60009054906101000a900473ffffffffffffffffffffffffffffffffffffffff1673ffffffffffffffffffffffffffffffffffffffff166398bf3eb66040518163ffffffff1660e01b8152600401602060405180830381600087803b1580156134ef57600080fd5b505af1158015613503573d6000803e3d6000fd5b505050506040513d602081101561351957600080fd5b810190808051906020019092919050505073ffffffffffffffffffffffffffffffffffffffff1663111070e46040518163ffffffff1660e01b8152600401602060405180830381600087803b15801561357157600080fd5b505af1158015613585573d6000803e3d6000fd5b505050506040513d602081101561359b57600080fd5b810190808051906020019092919050505015613602576040517f08c379a000000000000000000000000000000000000000000000000000000000815260040180806020018281038252602b815260200180615813602b913960400191505060405180910390fd5b6002609754141561367b576040517f08c379a000000000000000000000000000000000000000000000000000000000815260040180806020018281038252601f8152602001807f5265656e7472616e637947756172643a207265656e7472616e742063616c6c0081525060200191505060405180910390fd5b6002609781905550600082116136f9576040517f08c379a00000000000000000000000000000000000000000000000000000000081526004018080602001828103825260128152602001807f506f643a696e76616c69642d616d6f756e74000000000000000000000000000081525060200191505060405180910390fd5b60006137048361496f565b905061375533308560c960009054906101000a900473ffffffffffffffffffffffffffffffffffffffff1673ffffffffffffffffffffffffffffffffffffffff166149cd909392919063ffffffff16565b61375f8482614a8e565b8373ffffffffffffffffffffffffffffffffffffffff167f73a19dd210f1a7f902193214c0ee91dd35ee5b4d920cba8d519eca65a7b488ca8483604051808381526020018281526020019250505060405180910390a280915050600160978190555092915050565b600033905090565b600073ffffffffffffffffffffffffffffffffffffffff168373ffffffffffffffffffffffffffffffffffffffff161415613855576040517f08c379a00000000000000000000000000000000000000000000000000000000081526004018080602001828103825260248152602001806158fb6024913960400191505060405180910390fd5b600073ffffffffffffffffffffffffffffffffffffffff168273ffffffffffffffffffffffffffffffffffffffff1614156138db576040517f08c379a00000000000000000000000000000000000000000000000000000000081526004018080602001828103825260228152602001806157a56022913960400191505060405180910390fd5b80603460008573ffffffffffffffffffffffffffffffffffffffff1673ffffffffffffffffffffffffffffffffffffffff16815260200190815260200160002060008473ffffffffffffffffffffffffffffffffffffffff1673ffffffffffffffffffffffffffffffffffffffff168152602001908152602001600020819055508173ffffffffffffffffffffffffffffffffffffffff168373ffffffffffffffffffffffffffffffffffffffff167f8c5be1e5ebec7d5bd14f71427d1e84f3dd0314c0f7b2291e5b200ac8c7c3b925836040518082815260200191505060405180910390a3505050565b600073ffffffffffffffffffffffffffffffffffffffff168373ffffffffffffffffffffffffffffffffffffffff161415613a4c576040517f08c379a00000000000000000000000000000000000000000000000000000000081526004018080602001828103825260258152602001806158d66025913960400191505060405180910390fd5b600073ffffffffffffffffffffffffffffffffffffffff168273ffffffffffffffffffffffffffffffffffffffff161415613ad2576040517f08c379a000000000000000000000000000000000000000000000000000000000815260040180806020018281038252602381526020018061573a6023913960400191505060405180910390fd5b613add838383614c57565b613b49816040518060600160405280602681526020016157c760269139603360008773ffffffffffffffffffffffffffffffffffffffff1673ffffffffffffffffffffffffffffffffffffffff16815260200190815260200160002054613c8b9092919063ffffffff16565b603360008573ffffffffffffffffffffffffffffffffffffffff1673ffffffffffffffffffffffffffffffffffffffff16815260200190815260200160002081905550613bde81603360008573ffffffffffffffffffffffffffffffffffffffff1673ffffffffffffffffffffffffffffffffffffffff16815260200190815260200160002054613d4590919063ffffffff16565b603360008473ffffffffffffffffffffffffffffffffffffffff1673ffffffffffffffffffffffffffffffffffffffff168152602001908152602001600020819055508173ffffffffffffffffffffffffffffffffffffffff168373ffffffffffffffffffffffffffffffffffffffff167fddf252ad1be2c89b69c2b068fc378daa952ba7f163c4a11628f55a4df523b3ef836040518082815260200191505060405180910390a3505050565b6000838311158290613d38576040517f08c379a00000000000000000000000000000000000000000000000000000000081526004018080602001828103825283818151815260200191508051906020019080838360005b83811015613cfd578082015181840152602081019050613ce2565b50505050905090810190601f168015613d2a5780820380516001836020036101000a031916815260200191505b509250505060405180910390fd5b5082840390509392505050565b600080828401905083811015613dc3576040517f08c379a000000000000000000000000000000000000000000000000000000000815260040180806020018281038252601b8152602001807f536166654d6174683a206164646974696f6e206f766572666c6f77000000000081525060200191505060405180910390fd5b8091505092915050565b600080831415613de05760009050613e4d565b6000828402905082848281613df157fe5b0414613e48576040517f08c379a000000000000000000000000000000000000000000000000000000000815260040180806020018281038252602181526020018061586c6021913960400191505060405180910390fd5b809150505b92915050565b6000808211613eca576040517f08c379a000000000000000000000000000000000000000000000000000000000815260040180806020018281038252601a8152602001807f536166654d6174683a206469766973696f6e206279207a65726f00000000000081525060200191505060405180910390fd5b818381613ed357fe5b04905092915050565b600080613f12613eea610eef565b613f0486613ef6612898565b613dcd90919063ffffffff16565b613e5390919063ffffffff16565b9050613f1e3385614d92565b600060c960009054906101000a900473ffffffffffffffffffffffffffffffffffffffff1673ffffffffffffffffffffffffffffffffffffffff166370a08231306040518263ffffffff1660e01b8152600401808273ffffffffffffffffffffffffffffffffffffffff16815260200191505060206040518083038186803b158015613fa957600080fd5b505afa158015613fbd573d6000803e3d6000fd5b505050506040513d6020811015613fd357600080fd5b810190808051906020019092919050505090506000818311156140b9576000614005838561423690919063ffffffff16565b905060006140138288614f58565b90506140288185613d4590919063ffffffff16565b92508661403e848761423690919063ffffffff16565b11156140b2576040517f08c379a00000000000000000000000000000000000000000000000000000000081526004018080602001828103825260148152602001807f506f643a6d61782d6665652d657863656564656400000000000000000000000081525060200191505060405180910390fd5b50506140bd565b8290505b80935050505092915050565b6141668363a9059cbb60e01b8484604051602401808373ffffffffffffffffffffffffffffffffffffffff16815260200182815260200192505050604051602081830303815290604052907bffffffffffffffffffffffffffffffffffffffffffffffffffffffff19166020820180517bffffffffffffffffffffffffffffffffffffffffffffffffffffffff8381831617835250505050615207565b505050565b600060c960009054906101000a900473ffffffffffffffffffffffffffffffffffffffff1673ffffffffffffffffffffffffffffffffffffffff166370a08231306040518263ffffffff1660e01b8152600401808273ffffffffffffffffffffffffffffffffffffffff16815260200191505060206040518083038186803b1580156141f657600080fd5b505afa15801561420a573d6000803e3d6000fd5b505050506040513d602081101561422057600080fd5b8101908080519060200190929190505050905090565b6000828211156142ae576040517f08c379a000000000000000000000000000000000000000000000000000000000815260040180806020018281038252601e8152602001807f536166654d6174683a207375627472616374696f6e206f766572666c6f77000081525060200191505060405180910390fd5b818303905092915050565b60006142c4306152f6565b15905090565b600060019054906101000a900460ff16806142e957506142e86142b9565b5b806142ff575060008054906101000a900460ff16155b614354576040517f08c379a000000000000000000000000000000000000000000000000000000000815260040180806020018281038252602e81526020018061583e602e913960400191505060405180910390fd5b60008060019054906101000a900460ff1615905080156143a4576001600060016101000a81548160ff02191690831515021790555060016000806101000a81548160ff0219169083151502179055505b6143ac615309565b80156143cd5760008060016101000a81548160ff0219169083151502179055505b50565b600060019054906101000a900460ff16806143ef57506143ee6142b9565b5b80614405575060008054906101000a900460ff16155b61445a576040517f08c379a000000000000000000000000000000000000000000000000000000000815260040180806020018281038252602e81526020018061583e602e913960400191505060405180910390fd5b60008060019054906101000a900460ff1615905080156144aa576001600060016101000a81548160ff02191690831515021790555060016000806101000a81548160ff0219169083151502179055505b82603690805190602001906144c092919061569c565b5081603790805190602001906144d792919061569c565b506012603860006101000a81548160ff021916908360ff16021790555080156145155760008060016101000a81548160ff0219169083151502179055505b505050565b600060019054906101000a900460ff168061453957506145386142b9565b5b8061454f575060008054906101000a900460ff16155b6145a4576040517f08c379a000000000000000000000000000000000000000000000000000000000815260040180806020018281038252602e81526020018061583e602e913960400191505060405180910390fd5b60008060019054906101000a900460ff1615905080156145f4576001600060016101000a81548160ff02191690831515021790555060016000806101000a81548160ff0219169083151502179055505b60006145fe6137c7565b905080606560006101000a81548173ffffffffffffffffffffffffffffffffffffffff021916908373ffffffffffffffffffffffffffffffffffffffff1602179055508073ffffffffffffffffffffffffffffffffffffffff16600073ffffffffffffffffffffffffffffffffffffffff167f8be0079c531659141344cd1fd0a4f28419497f9722a3daafe3b4186f6b6457e060405160405180910390a35080156146be5760008060016101000a81548160ff0219169083151502179055505b50565b80603860006101000a81548160ff021916908360ff16021790555050565b60008114806147ad575060008373ffffffffffffffffffffffffffffffffffffffff1663dd62ed3e30856040518363ffffffff1660e01b8152600401808373ffffffffffffffffffffffffffffffffffffffff1681526020018273ffffffffffffffffffffffffffffffffffffffff1681526020019250505060206040518083038186803b15801561477057600080fd5b505afa158015614784573d6000803e3d6000fd5b505050506040513d602081101561479a57600080fd5b8101908080519060200190929190505050145b614802576040517f08c379a00000000000000000000000000000000000000000000000000000000081526004018080602001828103825260368152602001806159496036913960400191505060405180910390fd5b61489f8363095ea7b360e01b8484604051602401808373ffffffffffffffffffffffffffffffffffffffff16815260200182815260200192505050604051602081830303815290604052907bffffffffffffffffffffffffffffffffffffffffffffffffffffffff19166020820180517bffffffffffffffffffffffffffffffffffffffffffffffffffffffff8381831617835250505050615207565b505050565b600060ca60009054906101000a900473ffffffffffffffffffffffffffffffffffffffff1673ffffffffffffffffffffffffffffffffffffffff166370a08231306040518263ffffffff1660e01b8152600401808273ffffffffffffffffffffffffffffffffffffffff16815260200191505060206040518083038186803b15801561492f57600080fd5b505afa158015614943573d6000803e3d6000fd5b505050506040513d602081101561495957600080fd5b8101908080519060200190929190505050905090565b600080600090506000614980610eef565b141561498e578290506149c4565b6149c1614999612898565b6149b36149a4610eef565b86613dcd90919063ffffffff16565b613e5390919063ffffffff16565b90505b80915050919050565b614a88846323b872dd60e01b858585604051602401808473ffffffffffffffffffffffffffffffffffffffff1681526020018373ffffffffffffffffffffffffffffffffffffffff1681526020018281526020019350505050604051602081830303815290604052907bffffffffffffffffffffffffffffffffffffffffffffffffffffffff19166020820180517bffffffffffffffffffffffffffffffffffffffffffffffffffffffff8381831617835250505050615207565b50505050565b600073ffffffffffffffffffffffffffffffffffffffff168273ffffffffffffffffffffffffffffffffffffffff161415614b31576040517f08c379a000000000000000000000000000000000000000000000000000000000815260040180806020018281038252601f8152602001807f45524332303a206d696e7420746f20746865207a65726f20616464726573730081525060200191505060405180910390fd5b614b3d60008383614c57565b614b5281603554613d4590919063ffffffff16565b603581905550614baa81603360008573ffffffffffffffffffffffffffffffffffffffff1673ffffffffffffffffffffffffffffffffffffffff16815260200190815260200160002054613d4590919063ffffffff16565b603360008473ffffffffffffffffffffffffffffffffffffffff1673ffffffffffffffffffffffffffffffffffffffff168152602001908152602001600020819055508173ffffffffffffffffffffffffffffffffffffffff16600073ffffffffffffffffffffffffffffffffffffffff167fddf252ad1be2c89b69c2b068fc378daa952ba7f163c4a11628f55a4df523b3ef836040518082815260200191505060405180910390a35050565b600073ffffffffffffffffffffffffffffffffffffffff1660cc60009054906101000a900473ffffffffffffffffffffffffffffffffffffffff1673ffffffffffffffffffffffffffffffffffffffff1614614d8d5760cc60009054906101000a900473ffffffffffffffffffffffffffffffffffffffff1673ffffffffffffffffffffffffffffffffffffffff166340069fee8484306040518463ffffffff1660e01b8152600401808473ffffffffffffffffffffffffffffffffffffffff1681526020018373ffffffffffffffffffffffffffffffffffffffff1681526020018273ffffffffffffffffffffffffffffffffffffffff1681526020019350505050600060405180830381600087803b158015614d7457600080fd5b505af1158015614d88573d6000803e3d6000fd5b505050505b505050565b600073ffffffffffffffffffffffffffffffffffffffff168273ffffffffffffffffffffffffffffffffffffffff161415614e18576040517f08c379a00000000000000000000000000000000000000000000000000000000081526004018080602001828103825260218152602001806158b56021913960400191505060405180910390fd5b614e2482600083614c57565b614e908160405180606001604052806022815260200161575d60229139603360008673ffffffffffffffffffffffffffffffffffffffff1673ffffffffffffffffffffffffffffffffffffffff16815260200190815260200160002054613c8b9092919063ffffffff16565b603360008473ffffffffffffffffffffffffffffffffffffffff1673ffffffffffffffffffffffffffffffffffffffff16815260200190815260200160002081905550614ee88160355461423690919063ffffffff16565b603581905550600073ffffffffffffffffffffffffffffffffffffffff168273ffffffffffffffffffffffffffffffffffffffff167fddf252ad1be2c89b69c2b068fc378daa952ba7f163c4a11628f55a4df523b3ef836040518082815260200191505060405180910390a35050565b60008060c960009054906101000a900473ffffffffffffffffffffffffffffffffffffffff16905060008173ffffffffffffffffffffffffffffffffffffffff166370a08231306040518263ffffffff1660e01b8152600401808273ffffffffffffffffffffffffffffffffffffffff16815260200191505060206040518083038186803b158015614fe957600080fd5b505afa158015614ffd573d6000803e3d6000fd5b505050506040513d602081101561501357600080fd5b8101908080519060200190929190505050905060ce60009054906101000a900473ffffffffffffffffffffffffffffffffffffffff1673ffffffffffffffffffffffffffffffffffffffff1663a016240b308760ca60009054906101000a900473ffffffffffffffffffffffffffffffffffffffff16886040518563ffffffff1660e01b8152600401808573ffffffffffffffffffffffffffffffffffffffff1681526020018481526020018373ffffffffffffffffffffffffffffffffffffffff168152602001828152602001945050505050602060405180830381600087803b15801561510157600080fd5b505af1158015615115573d6000803e3d6000fd5b505050506040513d602081101561512b57600080fd5b81019080805190602001909291905050505060008273ffffffffffffffffffffffffffffffffffffffff166370a08231306040518263ffffffff1660e01b8152600401808273ffffffffffffffffffffffffffffffffffffffff16815260200191505060206040518083038186803b1580156151a657600080fd5b505afa1580156151ba573d6000803e3d6000fd5b505050506040513d60208110156151d057600080fd5b8101908080519060200190929190505050905060006151f8838361423690919063ffffffff16565b90508094505050505092915050565b6060615269826040518060400160405280602081526020017f5361666545524332303a206c6f772d6c6576656c2063616c6c206661696c65648152508573ffffffffffffffffffffffffffffffffffffffff1661540f9092919063ffffffff16565b90506000815111156152f15780806020019051602081101561528a57600080fd5b81019080805190602001909291905050506152f0576040517f08c379a000000000000000000000000000000000000000000000000000000000815260040180806020018281038252602a81526020018061591f602a913960400191505060405180910390fd5b5b505050565b600080823b905060008111915050919050565b600060019054906101000a900460ff168061532857506153276142b9565b5b8061533e575060008054906101000a900460ff16155b615393576040517f08c379a000000000000000000000000000000000000000000000000000000000815260040180806020018281038252602e81526020018061583e602e913960400191505060405180910390fd5b60008060019054906101000a900460ff1615905080156153e3576001600060016101000a81548160ff02191690831515021790555060016000806101000a81548160ff0219169083151502179055505b6001609781905550801561540c5760008060016101000a81548160ff0219169083151502179055505b50565b606061541e8484600085615427565b90509392505050565b606082471015615482576040517f08c379a00000000000000000000000000000000000000000000000000000000081526004018080602001828103825260268152602001806157ed6026913960400191505060405180910390fd5b61548b856152f6565b6154fd576040517f08c379a000000000000000000000000000000000000000000000000000000000815260040180806020018281038252601d8152602001807f416464726573733a2063616c6c20746f206e6f6e2d636f6e747261637400000081525060200191505060405180910390fd5b600060608673ffffffffffffffffffffffffffffffffffffffff1685876040518082805190602001908083835b6020831061554d578051825260208201915060208101905060208303925061552a565b6001836020036101000a03801982511681845116808217855250505050505090500191505060006040518083038185875af1925050503d80600081146155af576040519150601f19603f3d011682016040523d82523d6000602084013e6155b4565b606091505b50915091506155c48282866155d0565b92505050949350505050565b606083156155e057829050615695565b6000835111156155f35782518084602001fd5b816040517f08c379a00000000000000000000000000000000000000000000000000000000081526004018080602001828103825283818151815260200191508051906020019080838360005b8381101561565a57808201518184015260208101905061563f565b50505050905090810190601f1680156156875780820380516001836020036101000a031916815260200191505b509250505060405180910390fd5b9392505050565b828054600181600116156101000203166002900490600052602060002090601f016020900481019282601f106156dd57805160ff191683800117855561570b565b8280016001018555821561570b579182015b8281111561570a5782518255916020019190600101906156ef565b5b509050615718919061571c565b5090565b5b8082111561573557600081600090555060010161571d565b509056fe45524332303a207472616e7366657220746f20746865207a65726f206164647265737345524332303a206275726e20616d6f756e7420657863656564732062616c616e63654f776e61626c653a206e6577206f776e657220697320746865207a65726f206164647265737345524332303a20617070726f766520746f20746865207a65726f206164647265737345524332303a207472616e7366657220616d6f756e7420657863656564732062616c616e6365416464726573733a20696e73756666696369656e742062616c616e636520666f722063616c6c43616e6e6f74206465706f736974207768696c65207072697a65206973206265696e672061776172646564496e697469616c697a61626c653a20636f6e747261637420697320616c726561647920696e697469616c697a6564536166654d6174683a206d756c7469706c69636174696f6e206f766572666c6f7745524332303a207472616e7366657220616d6f756e74206578636565647320616c6c6f77616e636545524332303a206275726e2066726f6d20746865207a65726f206164647265737345524332303a207472616e736665722066726f6d20746865207a65726f206164647265737345524332303a20617070726f76652066726f6d20746865207a65726f20616464726573735361666545524332303a204552433230206f7065726174696f6e20646964206e6f7420737563636565645361666545524332303a20617070726f76652066726f6d206e6f6e2d7a65726f20746f206e6f6e2d7a65726f20616c6c6f77616e636545524332303a2064656372656173656420616c6c6f77616e63652062656c6f77207a65726fa2646970667358221220f5cb5d8a8bdb86f69882a3981f89bc4e1f8e8bf35a8aae5f3174179683120d1364736f6c63430007000033506f64466163746f72793a696e76616c69642d746f6b656e2d64726f702d666163746f7279",
  "devdoc": {
    "author": "Kames Geraghty",
    "details": "The PodFactory creates/initializes connected Pod and TokenDrop smart contracts. Pods stores tokens, tickets, prizePool and other essential references.",
    "events": {
      "LogCreatedPodAndTokenDrop(address,address)": {
        "details": "Emitted when a new Pod and TokenDrop pair is created."
      }
    },
    "kind": "dev",
    "methods": {
      "constructor": {
        "details": "Initializes the Pod Factory with an instance of the Pod and TokenDropFactory reference.",
        "params": {
          "_tokenDropFactory": "Target PrizePool for deposits and withdraws"
        }
      },
      "create(address,address,address,address,uint8)": {
        "details": "The Pod Smart Contact is created and initialized using the PodFactory.",
        "params": {
          "_decimals": "Set the Pod decimals to match the underlying asset.",
          "_faucet": "TokenFaucet address that distributes reward token for PrizePool deposits.",
          "_manager": "Manages the Pod's non-core assets (ERC20 and ERC721 tokens).",
          "_prizePool": "Target PrizePool for deposits and withdraws.",
          "_ticket": "Non-sponsored PrizePool ticket - is verified during initialization."
        },
        "returns": {
          "pod": "Pod address"
        }
      }
    },
    "title": "PodFactory (ProxyFactory) - Clones a Pod Instance",
    "version": 1
  },
  "userdoc": {
    "kind": "user",
    "methods": {
      "constructor": {
        "notice": "Initializes the Pod Factory with an instance of the Pod and TokenDropFactory reference."
      },
      "create(address,address,address,address,uint8)": {
        "notice": "Create a new Pod Clone using the Pod instance."
      },
      "podInstance()": {
        "notice": "Contract template for deploying proxied Pods"
      },
      "tokenDropFactory()": {
        "notice": "TokenDropFactory reference"
      }
    },
    "notice": "Reduces gas costs and collectively increases that chances winning for PoolTogether users, while keeping user POOL distributions to users.",
    "version": 1
  },
  "storageLayout": {
    "storage": [
      {
        "astId": 6739,
        "contract": "contracts/PodFactory.sol:PodFactory",
        "label": "tokenDropFactory",
        "offset": 0,
        "slot": "0",
        "type": "t_contract(TokenDropFactory)7524"
      },
      {
        "astId": 6742,
        "contract": "contracts/PodFactory.sol:PodFactory",
        "label": "podInstance",
        "offset": 0,
        "slot": "1",
        "type": "t_contract(Pod)6727"
      }
    ],
    "types": {
      "t_contract(Pod)6727": {
        "encoding": "inplace",
        "label": "contract Pod",
        "numberOfBytes": "20"
      },
      "t_contract(TokenDropFactory)7524": {
        "encoding": "inplace",
        "label": "contract TokenDropFactory",
        "numberOfBytes": "20"
      }
    }
  }
}