{
  "address": "0x5C126F8F6107b2da41dAA8b7E4c3f4a01098A6db",
  "abi": [
    {
      "inputs": [
        {
          "internalType": "contract TokenDropFactory",
          "name": "_tokenDropFactory",
          "type": "address"
        }
      ],
      "stateMutability": "nonpayable",
      "type": "constructor"
    },
    {
      "anonymous": false,
      "inputs": [
        {
          "indexed": true,
          "internalType": "contract Pod",
          "name": "pod",
          "type": "address"
        },
        {
          "indexed": true,
          "internalType": "contract TokenDrop",
          "name": "drop",
          "type": "address"
        }
      ],
      "name": "LogCreatedPodAndTokenDrop",
      "type": "event"
    },
    {
      "anonymous": false,
      "inputs": [
        {
          "indexed": false,
          "internalType": "address",
          "name": "proxy",
          "type": "address"
        }
      ],
      "name": "ProxyCreated",
      "type": "event"
    },
    {
      "inputs": [
        {
          "internalType": "address",
          "name": "_prizePool",
          "type": "address"
        },
        {
          "internalType": "address",
          "name": "_ticket",
          "type": "address"
        },
        {
          "internalType": "address",
          "name": "_faucet",
          "type": "address"
        },
        {
          "internalType": "address",
          "name": "_manager",
          "type": "address"
        },
        {
          "internalType": "uint8",
          "name": "_decimals",
          "type": "uint8"
        }
      ],
      "name": "create",
      "outputs": [
        {
          "internalType": "address",
          "name": "pod",
          "type": "address"
        }
      ],
      "stateMutability": "nonpayable",
      "type": "function"
    },
    {
      "inputs": [
        {
          "internalType": "address",
          "name": "_logic",
          "type": "address"
        },
        {
          "internalType": "bytes",
          "name": "_data",
          "type": "bytes"
        }
      ],
      "name": "deployMinimal",
      "outputs": [
        {
          "internalType": "address",
          "name": "proxy",
          "type": "address"
        }
      ],
      "stateMutability": "nonpayable",
      "type": "function"
    },
    {
      "inputs": [],
      "name": "podInstance",
      "outputs": [
        {
          "internalType": "contract Pod",
          "name": "",
          "type": "address"
        }
      ],
      "stateMutability": "view",
      "type": "function"
    },
    {
      "inputs": [],
      "name": "tokenDropFactory",
      "outputs": [
        {
          "internalType": "contract TokenDropFactory",
          "name": "",
          "type": "address"
        }
      ],
      "stateMutability": "view",
      "type": "function"
    }
  ],
  "transactionHash": "0xc268ce01441040e4c59fad8d5f8bec346cd391813238661092d88f4f20f05294",
  "args": [
    "0xF94eE6cdc66172f49A8ADF3e60a1cB00c0bB8a59"
  ],
  "solcInputHash": "86e0fe97646ca552423630e3b1401458",
  "bytecode": "0x608060405234801561001057600080fd5b50604051613f83380380613f838339818101604052602081101561003357600080fd5b50516001600160a01b03811661007a5760405162461bcd60e51b8152600401808060200182810382526025815260200180613f5e6025913960400191505060405180910390fd5b604051610086906100d7565b604051809103906000f0801580156100a2573d6000803e3d6000fd5b50600180546001600160a01b039283166001600160a01b031991821617909155600080549390921692169190911790556100e4565b6136c48061089a83390190565b6107a7806100f36000396000f3fe608060405234801561001057600080fd5b506004361061004c5760003560e01c8063116a39431461005157806350efa2bf146100b7578063b3eeb5e2146100bf578063b8432a2914610175575b600080fd5b61009b600480360360a081101561006757600080fd5b5080356001600160a01b0390811691602081013582169160408201358116916060810135909116906080013560ff1661017d565b604080516001600160a01b039092168252519081900360200190f35b61009b610559565b61009b600480360360408110156100d557600080fd5b6001600160a01b03823516919081019060408101602082013564010000000081111561010057600080fd5b82018360208201111561011257600080fd5b8035906020019184600183028401116401000000008311171561013457600080fd5b91908080601f016020809104026020016040519081016040528093929190818152602001838380828437600092019190915250929550610568945050505050565b61009b61073e565b600154604080516020810190915260008082529182916101a6916001600160a01b031690610568565b9050806001600160a01b03166389232a008888866040518463ffffffff1660e01b815260040180846001600160a01b03168152602001836001600160a01b031681526020018260ff1681526020019350505050600060405180830381600087803b15801561021357600080fd5b505af1158015610227573d6000803e3d6000fd5b50505050806001600160a01b031663d0ebdbe7856040518263ffffffff1660e01b815260040180826001600160a01b03168152602001915050602060405180830381600087803b15801561027a57600080fd5b505af115801561028e573d6000803e3d6000fd5b505050506040513d60208110156102a457600080fd5b50600090506001600160a01b038616156104b757600086905060008054906101000a90046001600160a01b03166001600160a01b0316633e68680a84836001600160a01b03166338d52e0f6040518163ffffffff1660e01b8152600401602060405180830381600087803b15801561031b57600080fd5b505af115801561032f573d6000803e3d6000fd5b505050506040513d602081101561034557600080fd5b5051604080516001600160e01b031960e086901b1681526001600160a01b0393841660048201529290911660248301525160448083019260209291908290030181600087803b15801561039757600080fd5b505af11580156103ab573d6000803e3d6000fd5b505050506040513d60208110156103c157600080fd5b505160408051620fd70d60eb1b81526001600160a01b038481166004830152915192945090851691637eb86800916024808201926020929091908290030181600087803b15801561041157600080fd5b505af1158015610425573d6000803e3d6000fd5b505050506040513d602081101561043b57600080fd5b505060408051631621a58960e01b81526001600160a01b038481166004830152915191851691631621a589916024808201926020929091908290030181600087803b15801561048957600080fd5b505af115801561049d573d6000803e3d6000fd5b505050506040513d60208110156104b357600080fd5b5050505b6040805163f2fde38b60e01b815233600482015290516001600160a01b0384169163f2fde38b91602480830192600092919082900301818387803b1580156104fe57600080fd5b505af1158015610512573d6000803e3d6000fd5b50506040516001600160a01b038085169350851691507f3c46040a888d584b68fd2711f7497191a5465a2200e3b3271e8b988037f720c590600090a3509695505050505050565b6000546001600160a01b031681565b6000808360601b9050604051733d602d80600a3d3981f3363d3d373d3d3d363d7360601b81528160148201526e5af43d82803e903d91602b57fd5bf360881b60288201526037816000f09250506001600160a01b038216610610576040805162461bcd60e51b815260206004820152601c60248201527f50726f7879466163746f72793a696e76616c69642d6164647265737300000000604482015290519081900360640190fd5b604080516001600160a01b038416815290517efffc2da0b561cae30d9826d37709e9421c4725faebc226cbbb7ef5fc5e73499181900360200190a1825115610737576000826001600160a01b0316846040518082805190602001908083835b6020831061068e5780518252601f19909201916020918201910161066f565b6001836020036101000a0380198251168184511680821785525050505050509050019150506000604051808303816000865af19150503d80600081146106f0576040519150601f19603f3d011682016040523d82523d6000602084013e6106f5565b606091505b50509050806107355760405162461bcd60e51b815260040180806020018281038252602481526020018061074e6024913960400191505060405180910390fd5b505b5092915050565b6001546001600160a01b03168156fe50726f7879466163746f72792f636f6e7374727563746f722d63616c6c2d6661696c6564a26469706673582212207e0155206f69163068035cf2dfa97164104e868fa5fd28475252d5834076a35964736f6c63430007000033608060405234801561001057600080fd5b506136a4806100206000396000f3fe608060405234801561001057600080fd5b50600436106102115760003560e01c806389232a0011610125578063d0ebdbe7116100ad578063f3e414f81161007c578063f3e414f814610619578063f751cd8f14610645578063fc0c546a1461064d578063fdb8015914610655578063ffaad6a51461065d57610211565b8063d0ebdbe714610597578063dd62ed3e146105bd578063de5f72fd146105eb578063f2fde38b146105f357610211565b8063a457c2d7116100f4578063a457c2d714610501578063a9059cbb1461052d578063af71356614610559578063b69ef8a814610561578063ccf927381461056957610211565b806389232a001461048b5780638da5cb5b146104c557806395d89b41146104cd578063a1db9782146104d557610211565b80633d68175c116101a85780636cc25db7116101775780636cc25db71461042557806370a082311461042d578063715018a614610453578063719ce73e1461045d5780637eb868001461046557610211565b80633d68175c146103b9578063441a3e70146103c1578063481c6a75146103e457806365deaa671461040857610211565b806323b872dd116101e457806323b872dd14610313578063313ce5671461034957806339509351146103675780633af9e6691461039357610211565b806306fdde0314610216578063095ea7b3146102935780631621a589146102d357806318160ddd146102f9575b600080fd5b61021e610689565b6040805160208082528351818301528351919283929083019185019080838360005b83811015610258578181015183820152602001610240565b50505050905090810190601f1680156102855780820380516001836020036101000a031916815260200191505b509250505060405180910390f35b6102bf600480360360408110156102a957600080fd5b506001600160a01b038135169060200135610720565b604080519115158252519081900360200190f35b6102bf600480360360208110156102e957600080fd5b50356001600160a01b031661073e565b6103016107f2565b60408051918252519081900360200190f35b6102bf6004803603606081101561032957600080fd5b506001600160a01b038135811691602081013590911690604001356107f8565b610351610880565b6040805160ff9092168252519081900360200190f35b6102bf6004803603604081101561037d57600080fd5b506001600160a01b038135169060200135610889565b610301600480360360208110156103a957600080fd5b50356001600160a01b03166108d7565b6103016108ea565b610301600480360360408110156103d757600080fd5b508035906020013561090c565b6103ec610a34565b604080516001600160a01b039092168252519081900360200190f35b6103016004803603602081101561041e57600080fd5b5035610a43565b6103ec610b14565b6103016004803603602081101561044357600080fd5b50356001600160a01b0316610b23565b61045b610b3e565b005b6103ec610bea565b6102bf6004803603602081101561047b57600080fd5b50356001600160a01b0316610bf9565b61045b600480360360608110156104a157600080fd5b5080356001600160a01b03908116916020810135909116906040013560ff16610cac565b6103ec61140f565b61021e61141e565b6102bf600480360360408110156104eb57600080fd5b506001600160a01b03813516906020013561147f565b6102bf6004803603604081101561051757600080fd5b506001600160a01b03813516906020013561168b565b6102bf6004803603604081101561054357600080fd5b506001600160a01b0381351690602001356116f3565b610301611707565b6103016117e8565b61045b6004803603604081101561057f57600080fd5b506001600160a01b0381358116916020013516611808565b6102bf600480360360208110156105ad57600080fd5b50356001600160a01b0316611883565b610301600480360360408110156105d357600080fd5b506001600160a01b0381358116916020013516611997565b6103ec6119c2565b61045b6004803603602081101561060957600080fd5b50356001600160a01b03166119d1565b6102bf6004803603604081101561062f57600080fd5b506001600160a01b038135169060200135611ad4565b610301611c17565b6103ec611e89565b6103ec611e98565b6103016004803603604081101561067357600080fd5b506001600160a01b038135169060200135611ea7565b60368054604080516020601f60026000196101006001881615020190951694909404938401819004810282018101909252828152606093909290918301828280156107155780601f106106ea57610100808354040283529160200191610715565b820191906000526020600020905b8154815290600101906020018083116106f857829003601f168201915b505050505090505b90565b600061073461072d6120e8565b84846120ec565b5060015b92915050565b60006107486120e8565b6001600160a01b031661075961140f565b6001600160a01b0316146107a2576040805162461bcd60e51b81526020600482018190526024820152600080516020613560833981519152604482015290519081900360640190fd5b60cc80546001600160a01b0319166001600160a01b0384169081179091556040517f7a48cfaaa18629467c1c1a03e9ca7914885d91200eb368e11069f932cf61eb6b90600090a25060015b919050565b60355490565b60006108058484846121d8565b610875846108116120e8565b61087085604051806060016040528060288152602001613538602891396001600160a01b038a1660009081526034602052604081209061084f6120e8565b6001600160a01b031681526020810191909152604001600020549190612335565b6120ec565b5060015b9392505050565b60385460ff1690565b60006107346108966120e8565b8461087085603460006108a76120e8565b6001600160a01b03908116825260208083019390935260409182016000908120918c1681529252902054906123cc565b60006107386108e583610b23565b612426565b6000806108f5610880565b60ff16905061090681600a0a612426565b91505090565b600060026097541415610966576040805162461bcd60e51b815260206004820152601f60248201527f5265656e7472616e637947756172643a207265656e7472616e742063616c6c00604482015290519081900360640190fd5b60026097558261097533610b23565b10156109c8576040805162461bcd60e51b815260206004820152601760248201527f506f643a696e73756666696369656e742d736861726573000000000000000000604482015290519081900360640190fd5b60006109d48484612466565b60c9549091506109ee906001600160a01b03163383612591565b6040805182815260208101869052815133927fdf273cb619d95419a9cd0ec88123a0538c85064229baa6363788f743fff90deb928290030190a260016097559392505050565b60cd546001600160a01b031681565b600080610a4e6125e8565b9050808311610a615760009150506107ed565b60ce5460ca546000916001600160a01b039081169163888c2b6f91309116610a898887612664565b6040518463ffffffff1660e01b815260040180846001600160a01b03168152602001836001600160a01b0316815260200182815260200193505050506040805180830381600087803b158015610ade57600080fd5b505af1158015610af2573d6000803e3d6000fd5b505050506040513d6040811015610b0857600080fd5b505192506107ed915050565b60ca546001600160a01b031681565b6001600160a01b031660009081526033602052604090205490565b610b466120e8565b6001600160a01b0316610b5761140f565b6001600160a01b031614610ba0576040805162461bcd60e51b81526020600482018190526024820152600080516020613560833981519152604482015290519081900360640190fd5b6065546040516000916001600160a01b0316907f8be0079c531659141344cd1fd0a4f28419497f9722a3daafe3b4186f6b6457e0908390a3606580546001600160a01b0319169055565b60ce546001600160a01b031690565b6000610c036120e8565b6001600160a01b0316610c1461140f565b6001600160a01b031614610c5d576040805162461bcd60e51b81526020600482018190526024820152600080516020613560833981519152604482015290519081900360640190fd5b60cb80546001600160a01b0319166001600160a01b0384169081179091556040517f1062797e1a541ffcf19764c36deb3ad9960105ec3e52e4ff3bc3503ec35551a490600090a2506001919050565b600054610100900460ff1680610cc55750610cc56126c1565b80610cd3575060005460ff16155b610d0e5760405162461bcd60e51b815260040180806020018281038252602e8152602001806134e9602e913960400191505060405180910390fd5b600054610100900460ff16158015610d39576000805460ff1961ff0019909116610100171660011790555b60ce80546001600160a01b0319166001600160a01b038616179055610d5c6126d2565b60ce5460408051637e062a3560e11b81529051611182926001600160a01b03169163fc0c546a916004808301926020929190829003018186803b158015610da257600080fd5b505afa158015610db6573d6000803e3d6000fd5b505050506040513d6020811015610dcc57600080fd5b5051604080516306fdde0360e01b815290516001600160a01b03909216916306fdde0391600480820192600092909190829003018186803b158015610e1057600080fd5b505afa158015610e24573d6000803e3d6000fd5b505050506040513d6000823e601f3d908101601f191682016040526020811015610e4d57600080fd5b8101908080516040519392919084640100000000821115610e6d57600080fd5b908301906020820185811115610e8257600080fd5b8251640100000000811182820188101715610e9c57600080fd5b82525081516020918201929091019080838360005b83811015610ec9578181015183820152602001610eb1565b50505050905090810190601f168015610ef65780820380516001836020036101000a031916815260200191505b5060405250505060405160200180806302837b2160e51b81525060040182805190602001908083835b60208310610f3e5780518252601f199092019160209182019101610f1f565b51815160209384036101000a60001901801990921691161790526040805192909401828103601f1901835280855260ce54637e062a3560e11b825294519296506001600160a01b03909416945063fc0c546a936004808201945091929190829003018186803b158015610fb057600080fd5b505afa158015610fc4573d6000803e3d6000fd5b505050506040513d6020811015610fda57600080fd5b5051604080516395d89b4160e01b815290516001600160a01b03909216916395d89b4191600480820192600092909190829003018186803b15801561101e57600080fd5b505afa158015611032573d6000803e3d6000fd5b505050506040513d6000823e601f3d908101601f19168201604052602081101561105b57600080fd5b810190808051604051939291908464010000000082111561107b57600080fd5b90830190602082018581111561109057600080fd5b82516401000000008111828201881017156110aa57600080fd5b82525081516020918201929091019080838360005b838110156110d75781810151838201526020016110bf565b50505050905090810190601f1680156111045780820380516001836020036101000a031916815260200191505b506040525050506040516020018080600760fc1b81525060010182805190602001908083835b602083106111495780518252601f19909201916020918201910161112a565b6001836020036101000a03801982511681845116808217855250505050505090500191505060405160208183030381529060405261277c565b61118a612854565b6111938261294d565b60ce5460408051634eb1c24560e11b815290516060926001600160a01b031691639d63848a916004808301926000929190829003018186803b1580156111d857600080fd5b505afa1580156111ec573d6000803e3d6000fd5b505050506040513d6000823e601f3d908101601f19168201604052602081101561121557600080fd5b810190808051604051939291908464010000000082111561123557600080fd5b90830190602082018581111561124a57600080fd5b825186602082028301116401000000008211171561126757600080fd5b82525081516020918201928201910280838360005b8381101561129457818101518382015260200161127c565b505050509050016040525050509050806000815181106112b057fe5b60200260200101516001600160a01b0316846001600160a01b031614806112fc5750806001815181106112df57fe5b60200260200101516001600160a01b0316846001600160a01b0316145b61134d576040805162461bcd60e51b815260206004820152601d60248201527f506f643a696e697469616c697a652d696e76616c69642d7469636b6574000000604482015290519081900360640190fd5b60ce60009054906101000a90046001600160a01b03166001600160a01b031663fc0c546a6040518163ffffffff1660e01b815260040160206040518083038186803b15801561139b57600080fd5b505afa1580156113af573d6000803e3d6000fd5b505050506040513d60208110156113c557600080fd5b505160c980546001600160a01b03199081166001600160a01b039384161790915560ca8054909116918616919091179055508015611409576000805461ff00191690555b50505050565b6065546001600160a01b031690565b60378054604080516020601f60026000196101006001881615020190951694909404938401819004810282018101909252828152606093909290918301828280156107155780601f106106ea57610100808354040283529160200191610715565b60008061148a6120e8565b60cd549091506001600160a01b03808316911614806114c15750806001600160a01b03166114b661140f565b6001600160a01b0316145b61150d576040805162461bcd60e51b8152602060048201526018602482015277141bd90e9b585b9859d95c8b5d5b985d5d1a1bdc9a5e995960421b604482015290519081900360640190fd5b60c9546001600160a01b03858116911614801590611539575060ca546001600160a01b03858116911614155b80156115dd575060cc546001600160a01b031615806115dd575060cc60009054906101000a90046001600160a01b03166001600160a01b03166338d52e0f6040518163ffffffff1660e01b815260040160206040518083038186803b1580156115a157600080fd5b505afa1580156115b5573d6000803e3d6000fd5b505050506040513d60208110156115cb57600080fd5b50516001600160a01b03858116911614155b61162e576040805162461bcd60e51b815260206004820152601860248201527f506f643a696e76616c69642d7461726765742d746f6b656e0000000000000000604482015290519081900360640190fd5b6116426001600160a01b0385163385612591565b6040805184815290516001600160a01b038616917f7e2c99819371db0a6fc6f4269fe872496e44f502df19ba3eae594b7a15987460919081900360200190a25060019392505050565b60006107346116986120e8565b846108708560405180606001604052806025815260200161364a60259139603460006116c26120e8565b6001600160a01b03908116825260208083019390935260409182016000908120918d16815292529020549190612335565b60006107346117006120e8565b84846121d8565b6000806117126125e8565b60ce5460c954919250611732916001600160a01b03908116911683612963565b60ce5460ca546040805163e323f82560e01b81523060048201819052602482018690526001600160a01b03938416604483015260648201529051919092169163e323f82591608480830192600092919082900301818387803b15801561179757600080fd5b505af11580156117ab573d6000803e3d6000fd5b50506040805184815290517f1d026eaf76f56dd6eeb046aab9c5852b4d867e7c74376fe63c06328d27bbdb669350908190036020019150a1905090565b60006118036117f5612a76565b6117fd6125e8565b906123cc565b905090565b6118106120e8565b6001600160a01b031661182161140f565b6001600160a01b03161461186a576040805162461bcd60e51b81526020600482018190526024820152600080516020613560833981519152604482015290519081900360640190fd5b61187f6001600160a01b038316826000612963565b5050565b600061188d6120e8565b6001600160a01b031661189e61140f565b6001600160a01b0316146118e7576040805162461bcd60e51b81526020600482018190526024820152600080516020613560833981519152604482015290519081900360640190fd5b6001600160a01b038216611942576040805162461bcd60e51b815260206004820152601b60248201527f506f643a696e76616c69642d6d616e616765722d616464726573730000000000604482015290519081900360640190fd5b60cd80546001600160a01b0319166001600160a01b0384811691821792839055604051919216907f80f15e9dbc60884fdb59fb8ed4fc48a9a689e028f055e893ed45ca5be67c5c8590600090a3506001919050565b6001600160a01b03918216600090815260346020908152604080832093909416825291909152205490565b60cb546001600160a01b031681565b6119d96120e8565b6001600160a01b03166119ea61140f565b6001600160a01b031614611a33576040805162461bcd60e51b81526020600482018190526024820152600080516020613560833981519152604482015290519081900360640190fd5b6001600160a01b038116611a785760405162461bcd60e51b815260040180806020018281038252602681526020018061342a6026913960400191505060405180910390fd5b6065546040516001600160a01b038084169216907f8be0079c531659141344cd1fd0a4f28419497f9722a3daafe3b4186f6b6457e090600090a3606580546001600160a01b0319166001600160a01b0392909216919091179055565b600080611adf6120e8565b60cd549091506001600160a01b0380831691161480611b165750806001600160a01b0316611b0b61140f565b6001600160a01b0316145b611b62576040805162461bcd60e51b8152602060048201526018602482015277141bd90e9b585b9859d95c8b5d5b985d5d1a1bdc9a5e995960421b604482015290519081900360640190fd5b604080516323b872dd60e01b81523060048201523360248201526044810185905290516001600160a01b038616916323b872dd91606480830192600092919082900301818387803b158015611bb657600080fd5b505af1158015611bca573d6000803e3d6000fd5b50506040805186815290516001600160a01b03881693507f1c5be65d2245c05a955440008d97c579b7046fffdfb8482e1884ae42be57d98d92509081900360200190a25060019392505050565b60cb546000906001600160a01b031615611ca55760cb5460408051630f41a04d60e11b815230600482015290516001600160a01b0390921691631e83409a916024808201926020929091908290030181600087803b158015611c7857600080fd5b505af1158015611c8c573d6000803e3d6000fd5b505050506040513d6020811015611ca257600080fd5b50505b611cad611707565b5060cc546001600160a01b031615611e815760cc54604080516338d52e0f60e01b815290516000926001600160a01b0316916338d52e0f916004808301926020929190829003018186803b158015611d0457600080fd5b505afa158015611d18573d6000803e3d6000fd5b505050506040513d6020811015611d2e57600080fd5b5051604080516370a0823160e01b815230600482015290519192506000916001600160a01b038416916370a08231916024808301926020929190829003018186803b158015611d7c57600080fd5b505afa158015611d90573d6000803e3d6000fd5b505050506040513d6020811015611da657600080fd5b505190508015611e455760cc54611dca906001600160a01b03848116911683612963565b60cc546040805163949e196f60e01b81526004810184905290516001600160a01b039092169163949e196f916024808201926020929091908290030181600087803b158015611e1857600080fd5b505af1158015611e2c573d6000803e3d6000fd5b505050506040513d6020811015611e4257600080fd5b50505b6040805182815290517fa71b671080e0f92a89a9abb935000df04b23c1c31382efb1812bb95dff91bab69181900360200190a1915061071d9050565b50600061071d565b60c9546001600160a01b031681565b60cc546001600160a01b031681565b60ce5460408051634c5f9f5b60e11b815290516000926001600160a01b0316916398bf3eb691600480830192602092919082900301818787803b158015611eed57600080fd5b505af1158015611f01573d6000803e3d6000fd5b505050506040513d6020811015611f1757600080fd5b5051604080516304441c3960e21b815290516001600160a01b039092169163111070e4916004808201926020929091908290030181600087803b158015611f5d57600080fd5b505af1158015611f71573d6000803e3d6000fd5b505050506040513d6020811015611f8757600080fd5b505115611fc55760405162461bcd60e51b815260040180806020018281038252602b8152602001806134be602b913960400191505060405180910390fd5b6002609754141561201d576040805162461bcd60e51b815260206004820152601f60248201527f5265656e7472616e637947756172643a207265656e7472616e742063616c6c00604482015290519081900360640190fd5b600260975581612069576040805162461bcd60e51b8152602060048201526012602482015271141bd90e9a5b9d985b1a590b585b5bdd5b9d60721b604482015290519081900360640190fd5b600061207483612ac1565b60c95490915061208f906001600160a01b0316333086612afb565b6120998482612b55565b604080518481526020810183905281516001600160a01b038716927f73a19dd210f1a7f902193214c0ee91dd35ee5b4d920cba8d519eca65a7b488ca928290030190a260016097559392505050565b3390565b6001600160a01b0383166121315760405162461bcd60e51b81526004018080602001828103825260248152602001806135c66024913960400191505060405180910390fd5b6001600160a01b0382166121765760405162461bcd60e51b81526004018080602001828103825260228152602001806134506022913960400191505060405180910390fd5b6001600160a01b03808416600081815260346020908152604080832094871680845294825291829020859055815185815291517f8c5be1e5ebec7d5bd14f71427d1e84f3dd0314c0f7b2291e5b200ac8c7c3b9259281900390910190a3505050565b6001600160a01b03831661221d5760405162461bcd60e51b81526004018080602001828103825260258152602001806135a16025913960400191505060405180910390fd5b6001600160a01b0382166122625760405162461bcd60e51b81526004018080602001828103825260238152602001806133e56023913960400191505060405180910390fd5b61226d838383612c47565b6122aa81604051806060016040528060268152602001613472602691396001600160a01b0386166000908152603360205260409020549190612335565b6001600160a01b0380851660009081526033602052604080822093909355908416815220546122d990826123cc565b6001600160a01b0380841660008181526033602090815260409182902094909455805185815290519193928716927fddf252ad1be2c89b69c2b068fc378daa952ba7f163c4a11628f55a4df523b3ef92918290030190a3505050565b600081848411156123c45760405162461bcd60e51b81526004018080602001828103825283818151815260200191508051906020019080838360005b83811015612389578181015183820152602001612371565b50505050905090810190601f1680156123b65780820380516001836020036101000a031916815260200191505b509250505060405180910390fd5b505050900390565b600082820183811015610879576040805162461bcd60e51b815260206004820152601b60248201527f536166654d6174683a206164646974696f6e206f766572666c6f770000000000604482015290519081900360640190fd5b6000806124316107f2565b9050801561245d576124558161244f856124496117e8565b90612cd1565b90612d2a565b9150506107ed565b829150506107ed565b60008061247284612426565b905061247e3385612d91565b60c954604080516370a0823160e01b815230600482015290516000926001600160a01b0316916370a08231916024808301926020929190829003018186803b1580156124c957600080fd5b505afa1580156124dd573d6000803e3d6000fd5b505050506040513d60208110156124f357600080fd5b5051905060008183111561258557600061250d8484612664565b9050600061251b8288612e8d565b905061252784826123cc565b9250866125348685612664565b111561257e576040805162461bcd60e51b8152602060048201526014602482015273141bd90e9b585e0b5999594b595e18d95959195960621b604482015290519081900360640190fd5b5050612588565b50815b95945050505050565b604080516001600160a01b038416602482015260448082018490528251808303909101815260649091019091526020810180516001600160e01b031663a9059cbb60e01b1790526125e390849061302b565b505050565b60c954604080516370a0823160e01b815230600482015290516000926001600160a01b0316916370a08231916024808301926020929190829003018186803b15801561263357600080fd5b505afa158015612647573d6000803e3d6000fd5b505050506040513d602081101561265d57600080fd5b5051905090565b6000828211156126bb576040805162461bcd60e51b815260206004820152601e60248201527f536166654d6174683a207375627472616374696f6e206f766572666c6f770000604482015290519081900360640190fd5b50900390565b60006126cc306130dc565b15905090565b600054610100900460ff16806126eb57506126eb6126c1565b806126f9575060005460ff16155b6127345760405162461bcd60e51b815260040180806020018281038252602e8152602001806134e9602e913960400191505060405180910390fd5b600054610100900460ff1615801561275f576000805460ff1961ff0019909116610100171660011790555b6127676130e2565b8015612779576000805461ff00191690555b50565b600054610100900460ff168061279557506127956126c1565b806127a3575060005460ff16155b6127de5760405162461bcd60e51b815260040180806020018281038252602e8152602001806134e9602e913960400191505060405180910390fd5b600054610100900460ff16158015612809576000805460ff1961ff0019909116610100171660011790555b825161281c906036906020860190613351565b508151612830906037906020850190613351565b506038805460ff1916601217905580156125e3576000805461ff0019169055505050565b600054610100900460ff168061286d575061286d6126c1565b8061287b575060005460ff16155b6128b65760405162461bcd60e51b815260040180806020018281038252602e8152602001806134e9602e913960400191505060405180910390fd5b600054610100900460ff161580156128e1576000805460ff1961ff0019909116610100171660011790555b60006128eb6120e8565b606580546001600160a01b0319166001600160a01b038316908117909155604051919250906000907f8be0079c531659141344cd1fd0a4f28419497f9722a3daafe3b4186f6b6457e0908290a3508015612779576000805461ff001916905550565b6038805460ff191660ff92909216919091179055565b8015806129e9575060408051636eb1769f60e11b81523060048201526001600160a01b03848116602483015291519185169163dd62ed3e91604480820192602092909190829003018186803b1580156129bb57600080fd5b505afa1580156129cf573d6000803e3d6000fd5b505050506040513d60208110156129e557600080fd5b5051155b612a245760405162461bcd60e51b81526004018080602001828103825260368152602001806136146036913960400191505060405180910390fd5b604080516001600160a01b038416602482015260448082018490528251808303909101815260649091019091526020810180516001600160e01b031663095ea7b360e01b1790526125e390849061302b565b60ca54604080516370a0823160e01b815230600482015290516000926001600160a01b0316916370a08231916024808301926020929190829003018186803b15801561263357600080fd5b60008080612acd6107f2565b905080612adc57839150612af4565b612af1612ae76117e8565b61244f8684612cd1565b91505b5092915050565b604080516001600160a01b0380861660248301528416604482015260648082018490528251808303909101815260849091019091526020810180516001600160e01b03166323b872dd60e01b17905261140990859061302b565b6001600160a01b038216612bb0576040805162461bcd60e51b815260206004820152601f60248201527f45524332303a206d696e7420746f20746865207a65726f206164647265737300604482015290519081900360640190fd5b612bbc60008383612c47565b603554612bc990826123cc565b6035556001600160a01b038216600090815260336020526040902054612bef90826123cc565b6001600160a01b03831660008181526033602090815260408083209490945583518581529351929391927fddf252ad1be2c89b69c2b068fc378daa952ba7f163c4a11628f55a4df523b3ef9281900390910190a35050565b60cc546001600160a01b0316156125e35760cc54604080516320034ff760e11b81526001600160a01b0386811660048301528581166024830152306044830152915191909216916340069fee91606480830192600092919082900301818387803b158015612cb457600080fd5b505af1158015612cc8573d6000803e3d6000fd5b50505050505050565b600082612ce057506000610738565b82820282848281612ced57fe5b04146108795760405162461bcd60e51b81526004018080602001828103825260218152602001806135176021913960400191505060405180910390fd5b6000808211612d80576040805162461bcd60e51b815260206004820152601a60248201527f536166654d6174683a206469766973696f6e206279207a65726f000000000000604482015290519081900360640190fd5b818381612d8957fe5b049392505050565b6001600160a01b038216612dd65760405162461bcd60e51b81526004018080602001828103825260218152602001806135806021913960400191505060405180910390fd5b612de282600083612c47565b612e1f81604051806060016040528060228152602001613408602291396001600160a01b0385166000908152603360205260409020549190612335565b6001600160a01b038316600090815260336020526040902055603554612e459082612664565b6035556040805182815290516000916001600160a01b038516917fddf252ad1be2c89b69c2b068fc378daa952ba7f163c4a11628f55a4df523b3ef9181900360200190a35050565b60c954604080516370a0823160e01b815230600482015290516000926001600160a01b031691839183916370a08231916024808301926020929190829003018186803b158015612edc57600080fd5b505afa158015612ef0573d6000803e3d6000fd5b505050506040513d6020811015612f0657600080fd5b505160ce5460ca546040805163a016240b60e01b8152306004820152602481018a90526001600160a01b03928316604482015260648101899052905193945091169163a016240b916084808201926020929091908290030181600087803b158015612f7057600080fd5b505af1158015612f84573d6000803e3d6000fd5b505050506040513d6020811015612f9a57600080fd5b5050604080516370a0823160e01b815230600482015290516000916001600160a01b038516916370a0823191602480820192602092909190829003018186803b158015612fe657600080fd5b505afa158015612ffa573d6000803e3d6000fd5b505050506040513d602081101561301057600080fd5b5051905060006130208284612664565b979650505050505050565b6060613080826040518060400160405280602081526020017f5361666545524332303a206c6f772d6c6576656c2063616c6c206661696c6564815250856001600160a01b03166131889092919063ffffffff16565b8051909150156125e35780806020019051602081101561309f57600080fd5b50516125e35760405162461bcd60e51b815260040180806020018281038252602a8152602001806135ea602a913960400191505060405180910390fd5b3b151590565b600054610100900460ff16806130fb57506130fb6126c1565b80613109575060005460ff16155b6131445760405162461bcd60e51b815260040180806020018281038252602e8152602001806134e9602e913960400191505060405180910390fd5b600054610100900460ff1615801561316f576000805460ff1961ff0019909116610100171660011790555b60016097558015612779576000805461ff001916905550565b6060613197848460008561319f565b949350505050565b6060824710156131e05760405162461bcd60e51b81526004018080602001828103825260268152602001806134986026913960400191505060405180910390fd5b6131e9856130dc565b61323a576040805162461bcd60e51b815260206004820152601d60248201527f416464726573733a2063616c6c20746f206e6f6e2d636f6e7472616374000000604482015290519081900360640190fd5b60006060866001600160a01b031685876040518082805190602001908083835b602083106132795780518252601f19909201916020918201910161325a565b6001836020036101000a03801982511681845116808217855250505050505090500191505060006040518083038185875af1925050503d80600081146132db576040519150601f19603f3d011682016040523d82523d6000602084013e6132e0565b606091505b5091509150613020828286606083156132fa575081610879565b82511561330a5782518084602001fd5b60405162461bcd60e51b8152602060048201818152845160248401528451859391928392604401919085019080838360008315612389578181015183820152602001612371565b828054600181600116156101000203166002900490600052602060002090601f016020900481019282601f1061339257805160ff19168380011785556133bf565b828001600101855582156133bf579182015b828111156133bf5782518255916020019190600101906133a4565b506133cb9291506133cf565b5090565b5b808211156133cb57600081556001016133d056fe45524332303a207472616e7366657220746f20746865207a65726f206164647265737345524332303a206275726e20616d6f756e7420657863656564732062616c616e63654f776e61626c653a206e6577206f776e657220697320746865207a65726f206164647265737345524332303a20617070726f766520746f20746865207a65726f206164647265737345524332303a207472616e7366657220616d6f756e7420657863656564732062616c616e6365416464726573733a20696e73756666696369656e742062616c616e636520666f722063616c6c43616e6e6f74206465706f736974207768696c65207072697a65206973206265696e672061776172646564496e697469616c697a61626c653a20636f6e747261637420697320616c726561647920696e697469616c697a6564536166654d6174683a206d756c7469706c69636174696f6e206f766572666c6f7745524332303a207472616e7366657220616d6f756e74206578636565647320616c6c6f77616e63654f776e61626c653a2063616c6c6572206973206e6f7420746865206f776e657245524332303a206275726e2066726f6d20746865207a65726f206164647265737345524332303a207472616e736665722066726f6d20746865207a65726f206164647265737345524332303a20617070726f76652066726f6d20746865207a65726f20616464726573735361666545524332303a204552433230206f7065726174696f6e20646964206e6f7420737563636565645361666545524332303a20617070726f76652066726f6d206e6f6e2d7a65726f20746f206e6f6e2d7a65726f20616c6c6f77616e636545524332303a2064656372656173656420616c6c6f77616e63652062656c6f77207a65726fa2646970667358221220071035fcf04263d347cab2f0a875992199115ec4e47a893310a45b2008a119c464736f6c63430007000033506f64466163746f72793a696e76616c69642d746f6b656e2d64726f702d666163746f7279",
  "devdoc": {
    "author": "Kames Geraghty",
    "details": "The PodFactory creates/initializes connected Pod and TokenDrop smart contracts. Pods stores tokens, tickets, prizePool and other essential references.",
    "events": {
      "LogCreatedPodAndTokenDrop(address,address)": {
        "details": "Emitted when a new Pod and TokenDrop pair is created."
      }
    },
    "kind": "dev",
    "methods": {
      "constructor": {
        "details": "Initializes the Pod Factory with an instance of the Pod and TokenDropFactory reference.",
        "params": {
          "_tokenDropFactory": "Target PrizePool for deposits and withdraws"
        }
      },
      "create(address,address,address,address,uint8)": {
        "details": "The Pod Smart Contact is created and initialized using the PodFactory.",
        "params": {
          "_decimals": "Set the Pod decimals to match the underlying asset.",
          "_faucet": "TokenFaucet address that distributes reward token for PrizePool deposits.",
          "_manager": "Manages the Pod's non-core assets (ERC20 and ERC721 tokens).",
          "_prizePool": "Target PrizePool for deposits and withdraws.",
          "_ticket": "Non-sponsored PrizePool ticket - is verified during initialization."
        },
        "returns": {
          "pod": "Pod address"
        }
      }
    },
    "title": "PodFactory (ProxyFactory) - Clones a Pod Instance",
    "version": 1
  },
  "userdoc": {
    "kind": "user",
    "methods": {
      "constructor": {
        "notice": "Initializes the Pod Factory with an instance of the Pod and TokenDropFactory reference."
      },
      "create(address,address,address,address,uint8)": {
        "notice": "Create a new Pod Clone using the Pod instance."
      },
      "podInstance()": {
        "notice": "Contract template for deploying proxied Pods"
      },
      "tokenDropFactory()": {
        "notice": "TokenDropFactory reference"
      }
    },
    "notice": "Reduces gas costs and collectively increases that chances winning for PoolTogether users, while keeping user POOL distributions to users.",
    "version": 1
  },
  "storageLayout": {
    "storage": [
      {
        "astId": 6753,
        "contract": "contracts/PodFactory.sol:PodFactory",
        "label": "tokenDropFactory",
        "offset": 0,
        "slot": "0",
        "type": "t_contract(TokenDropFactory)7540"
      },
      {
        "astId": 6756,
        "contract": "contracts/PodFactory.sol:PodFactory",
        "label": "podInstance",
        "offset": 0,
        "slot": "1",
        "type": "t_contract(Pod)6741"
      }
    ],
    "types": {
      "t_contract(Pod)6741": {
        "encoding": "inplace",
        "label": "contract Pod",
        "numberOfBytes": "20"
      },
      "t_contract(TokenDropFactory)7540": {
        "encoding": "inplace",
        "label": "contract TokenDropFactory",
        "numberOfBytes": "20"
      }
    }
  }
}