{
  "address": "0x4602cB8dcAFa12052aEaE4De6130c9F253274eD6",
  "abi": [
    {
      "inputs": [
        {
          "internalType": "contract TokenDropFactory",
          "name": "_tokenDropFactory",
          "type": "address"
        }
      ],
      "stateMutability": "nonpayable",
      "type": "constructor"
    },
    {
      "anonymous": false,
      "inputs": [
        {
          "indexed": false,
          "internalType": "address",
          "name": "pod",
          "type": "address"
        },
        {
          "indexed": false,
          "internalType": "address",
          "name": "drop",
          "type": "address"
        }
      ],
      "name": "LogCreatedPodAndTokenDrop",
      "type": "event"
    },
    {
      "anonymous": false,
      "inputs": [
        {
          "indexed": false,
          "internalType": "address",
          "name": "proxy",
          "type": "address"
        }
      ],
      "name": "ProxyCreated",
      "type": "event"
    },
    {
      "inputs": [
        {
          "internalType": "address",
          "name": "_prizePool",
          "type": "address"
        },
        {
          "internalType": "address",
          "name": "_ticket",
          "type": "address"
        },
        {
          "internalType": "contract TokenFaucet",
          "name": "_faucet",
          "type": "address"
        },
        {
          "internalType": "address",
          "name": "_manager",
          "type": "address"
        },
        {
          "internalType": "uint8",
          "name": "_decimals",
          "type": "uint8"
        }
      ],
      "name": "create",
      "outputs": [
        {
          "internalType": "address",
          "name": "",
          "type": "address"
        },
        {
          "internalType": "address",
          "name": "",
          "type": "address"
        }
      ],
      "stateMutability": "nonpayable",
      "type": "function"
    },
    {
      "inputs": [
        {
          "internalType": "address",
          "name": "_logic",
          "type": "address"
        },
        {
          "internalType": "bytes",
          "name": "_data",
          "type": "bytes"
        }
      ],
      "name": "deployMinimal",
      "outputs": [
        {
          "internalType": "address",
          "name": "proxy",
          "type": "address"
        }
      ],
      "stateMutability": "nonpayable",
      "type": "function"
    },
    {
      "inputs": [],
      "name": "podInstance",
      "outputs": [
        {
          "internalType": "contract Pod",
          "name": "",
          "type": "address"
        }
      ],
      "stateMutability": "view",
      "type": "function"
    },
    {
      "inputs": [],
      "name": "tokenDropFactory",
      "outputs": [
        {
          "internalType": "contract TokenDropFactory",
          "name": "",
          "type": "address"
        }
      ],
      "stateMutability": "view",
      "type": "function"
    },
    {
      "inputs": [],
      "name": "tokenDropInstance",
      "outputs": [
        {
          "internalType": "contract TokenDrop",
          "name": "",
          "type": "address"
        }
      ],
      "stateMutability": "view",
      "type": "function"
    }
  ],
  "transactionHash": "0xd803077e9cc10514bf95d1e842018c74859928bf2ad1550ece10bfb2e6c0c3bc",
  "args": [
    "0x3D3B793aC39993289D1Cf6ba5BE39441388896Fa"
  ],
  "solcInputHash": "62df5e83b1da7bc0eddf3126e42aa96f",
  "bytecode": "0x608060405234801561001057600080fd5b50604051616a5e380380616a5e8339818101604052602081101561003357600080fd5b8101908080519060200190929190505050604051610050906100f3565b604051809103906000f08015801561006c573d6000803e3d6000fd5b50600160006101000a81548173ffffffffffffffffffffffffffffffffffffffff021916908373ffffffffffffffffffffffffffffffffffffffff160217905550806000806101000a81548173ffffffffffffffffffffffffffffffffffffffff021916908373ffffffffffffffffffffffffffffffffffffffff16021790555050610100565b615eb680610ba883390190565b610a998061010f6000396000f3fe608060405234801561001057600080fd5b50600436106100575760003560e01c8063116a39431461005c57806348c7eff51461015457806350efa2bf14610188578063b3eeb5e2146101bc578063b8432a29146102c1575b600080fd5b61010b600480360360a081101561007257600080fd5b81019080803573ffffffffffffffffffffffffffffffffffffffff169060200190929190803573ffffffffffffffffffffffffffffffffffffffff169060200190929190803573ffffffffffffffffffffffffffffffffffffffff169060200190929190803573ffffffffffffffffffffffffffffffffffffffff169060200190929190803560ff1690602001909291905050506102f5565b604051808373ffffffffffffffffffffffffffffffffffffffff1681526020018273ffffffffffffffffffffffffffffffffffffffff1681526020019250505060405180910390f35b61015c61075b565b604051808273ffffffffffffffffffffffffffffffffffffffff16815260200191505060405180910390f35b610190610781565b604051808273ffffffffffffffffffffffffffffffffffffffff16815260200191505060405180910390f35b610295600480360360408110156101d257600080fd5b81019080803573ffffffffffffffffffffffffffffffffffffffff1690602001909291908035906020019064010000000081111561020f57600080fd5b82018360208201111561022157600080fd5b8035906020019184600183028401116401000000008311171561024357600080fd5b91908080601f016020809104026020016040519081016040528093929190818152602001838380828437600081840152601f19601f8201169050808301925050505050505091929192905050506107a5565b604051808273ffffffffffffffffffffffffffffffffffffffff16815260200191505060405180910390f35b6102c9610a19565b604051808273ffffffffffffffffffffffffffffffffffffffff16815260200191505060405180910390f35b6000806000610335600160009054906101000a900473ffffffffffffffffffffffffffffffffffffffff16604051806020016040528060008152506107a5565b90508073ffffffffffffffffffffffffffffffffffffffff16628c267689898989896040518663ffffffff1660e01b8152600401808673ffffffffffffffffffffffffffffffffffffffff1681526020018573ffffffffffffffffffffffffffffffffffffffff1681526020018473ffffffffffffffffffffffffffffffffffffffff1681526020018373ffffffffffffffffffffffffffffffffffffffff1681526020018260ff16815260200195505050505050600060405180830381600087803b15801561040457600080fd5b505af1158015610418573d6000803e3d6000fd5b5050505060008073ffffffffffffffffffffffffffffffffffffffff168773ffffffffffffffffffffffffffffffffffffffff161461065d5760008054906101000a900473ffffffffffffffffffffffffffffffffffffffff1673ffffffffffffffffffffffffffffffffffffffff16633e68680a838973ffffffffffffffffffffffffffffffffffffffff166338d52e0f6040518163ffffffff1660e01b8152600401602060405180830381600087803b1580156104d657600080fd5b505af11580156104ea573d6000803e3d6000fd5b505050506040513d602081101561050057600080fd5b81019080805190602001909291905050506040518363ffffffff1660e01b8152600401808373ffffffffffffffffffffffffffffffffffffffff1681526020018273ffffffffffffffffffffffffffffffffffffffff16815260200192505050602060405180830381600087803b15801561057a57600080fd5b505af115801561058e573d6000803e3d6000fd5b505050506040513d60208110156105a457600080fd5b810190808051906020019092919050505090508173ffffffffffffffffffffffffffffffffffffffff16631621a589826040518263ffffffff1660e01b8152600401808273ffffffffffffffffffffffffffffffffffffffff168152602001915050602060405180830381600087803b15801561062057600080fd5b505af1158015610634573d6000803e3d6000fd5b505050506040513d602081101561064a57600080fd5b8101908080519060200190929190505050505b8173ffffffffffffffffffffffffffffffffffffffff1663f2fde38b336040518263ffffffff1660e01b8152600401808273ffffffffffffffffffffffffffffffffffffffff168152602001915050600060405180830381600087803b1580156106c657600080fd5b505af11580156106da573d6000803e3d6000fd5b505050507f3c46040a888d584b68fd2711f7497191a5465a2200e3b3271e8b988037f720c58282604051808373ffffffffffffffffffffffffffffffffffffffff1681526020018273ffffffffffffffffffffffffffffffffffffffff1681526020019250505060405180910390a181819350935050509550959350505050565b600260009054906101000a900473ffffffffffffffffffffffffffffffffffffffff1681565b60008054906101000a900473ffffffffffffffffffffffffffffffffffffffff1681565b6000808360601b90506040517f3d602d80600a3d3981f3363d3d373d3d3d363d7300000000000000000000000081528160148201527f5af43d82803e903d91602b57fd5bf3000000000000000000000000000000000060288201526037816000f0925050600073ffffffffffffffffffffffffffffffffffffffff168273ffffffffffffffffffffffffffffffffffffffff1614156108ac576040517f08c379a000000000000000000000000000000000000000000000000000000000815260040180806020018281038252601c8152602001807f50726f7879466163746f72793a696e76616c69642d616464726573730000000081525060200191505060405180910390fd5b7efffc2da0b561cae30d9826d37709e9421c4725faebc226cbbb7ef5fc5e734982604051808273ffffffffffffffffffffffffffffffffffffffff16815260200191505060405180910390a1600083511115610a125760008273ffffffffffffffffffffffffffffffffffffffff16846040518082805190602001908083835b6020831061094f578051825260208201915060208101905060208303925061092c565b6001836020036101000a0380198251168184511680821785525050505050509050019150506000604051808303816000865af19150503d80600081146109b1576040519150601f19603f3d011682016040523d82523d6000602084013e6109b6565b606091505b5050905080610a10576040517f08c379a0000000000000000000000000000000000000000000000000000000008152600401808060200182810382526024815260200180610a406024913960400191505060405180910390fd5b505b5092915050565b600160009054906101000a900473ffffffffffffffffffffffffffffffffffffffff168156fe50726f7879466163746f72792f636f6e7374727563746f722d63616c6c2d6661696c6564a264697066735822122056872f1b59fc77ce40906044e1f4ae0b1c8bcd772b0059b7488e2818167eb35f64736f6c63430007000033608060405234801561001057600080fd5b506001609781905550615e8d80620000296000396000f3fe608060405234801561001057600080fd5b50600436106102475760003560e01c8063715018a61161013b578063b69ef8a8116100b8578063f2fde38b1161007c578063f2fde38b14610c50578063f3e414f814610c94578063fc0c546a14610cf8578063fdb8015914610d2c578063ffaad6a514610d6057610247565b8063b69ef8a814610b04578063ccf9273814610b22578063dd62ed3e14610b86578063de5f72fd14610bfe578063efc02d7e14610c3257610247565b806395d89b41116100ff57806395d89b4114610937578063a1db9782146109ba578063a457c2d714610a1e578063a9059cbb14610a82578063af71356614610ae657610247565b8063715018a614610813578063719ce73e1461081d5780637eb86800146108515780638da5cb5b146108ab5780638f8da428146108df57610247565b806339509351116101c95780635bcf55f81161018d5780635bcf55f8146106cd57806365deaa67146107275780636ac4660a146107695780636cc25db71461078757806370a08231146107bb57610247565b806339509351146105ad5780633d68175c14610611578063441a3e701461062f578063481c6a751461067b57806352b7aa9d146106af57610247565b806318160ddd1161021057806318160ddd14610482578063228cb733146104a057806323b872dd146104d45780632888a7ba14610558578063313ce5671461058c57610247565b80628c26761461024c578063016290bd146102fd57806306fdde0314610341578063095ea7b3146103c45780631621a58914610428575b600080fd5b6102fb600480360360a081101561026257600080fd5b81019080803573ffffffffffffffffffffffffffffffffffffffff169060200190929190803573ffffffffffffffffffffffffffffffffffffffff169060200190929190803573ffffffffffffffffffffffffffffffffffffffff169060200190929190803573ffffffffffffffffffffffffffffffffffffffff169060200190929190803560ff169060200190929190505050610dc2565b005b61032b6004803603602081101561031357600080fd5b810190808035151590602001909291905050506117ec565b6040518082815260200191505060405180910390f35b610349611b51565b6040518080602001828103825283818151815260200191508051906020019080838360005b8381101561038957808201518184015260208101905061036e565b50505050905090810190601f1680156103b65780820380516001836020036101000a031916815260200191505b509250505060405180910390f35b610410600480360360408110156103da57600080fd5b81019080803573ffffffffffffffffffffffffffffffffffffffff16906020019092919080359060200190929190505050611bf3565b60405180821515815260200191505060405180910390f35b61046a6004803603602081101561043e57600080fd5b81019080803573ffffffffffffffffffffffffffffffffffffffff169060200190929190505050611c11565b60405180821515815260200191505060405180910390f35b61048a611fe3565b6040518082815260200191505060405180910390f35b6104a8611fed565b604051808273ffffffffffffffffffffffffffffffffffffffff16815260200191505060405180910390f35b610540600480360360608110156104ea57600080fd5b81019080803573ffffffffffffffffffffffffffffffffffffffff169060200190929190803573ffffffffffffffffffffffffffffffffffffffff16906020019092919080359060200190929190505050612013565b60405180821515815260200191505060405180910390f35b6105606120ec565b604051808273ffffffffffffffffffffffffffffffffffffffff16815260200191505060405180910390f35b610594612116565b604051808260ff16815260200191505060405180910390f35b6105f9600480360360408110156105c357600080fd5b81019080803573ffffffffffffffffffffffffffffffffffffffff1690602001909291908035906020019092919050505061212d565b60405180821515815260200191505060405180910390f35b6106196121e0565b6040518082815260200191505060405180910390f35b6106656004803603604081101561064557600080fd5b81019080803590602001909291908035906020019092919050505061223b565b6040518082815260200191505060405180910390f35b610683612406565b604051808273ffffffffffffffffffffffffffffffffffffffff16815260200191505060405180910390f35b6106b761242c565b6040518082815260200191505060405180910390f35b61070f600480360360208110156106e357600080fd5b81019080803573ffffffffffffffffffffffffffffffffffffffff1690602001909291905050506124f7565b60405180821515815260200191505060405180910390f35b6107536004803603602081101561073d57600080fd5b8101908080359060200190929190505050612711565b6040518082815260200191505060405180910390f35b610771612868565b6040518082815260200191505060405180910390f35b61078f612933565b604051808273ffffffffffffffffffffffffffffffffffffffff16815260200191505060405180910390f35b6107fd600480360360208110156107d157600080fd5b81019080803573ffffffffffffffffffffffffffffffffffffffff169060200190929190505050612959565b6040518082815260200191505060405180910390f35b61081b6129a2565b005b610825612b12565b604051808273ffffffffffffffffffffffffffffffffffffffff16815260200191505060405180910390f35b6108936004803603602081101561086757600080fd5b81019080803573ffffffffffffffffffffffffffffffffffffffff169060200190929190505050612b3c565b60405180821515815260200191505060405180910390f35b6108b3612f0e565b604051808273ffffffffffffffffffffffffffffffffffffffff16815260200191505060405180910390f35b610921600480360360208110156108f557600080fd5b81019080803573ffffffffffffffffffffffffffffffffffffffff169060200190929190505050612f38565b6040518082815260200191505060405180910390f35b61093f612f96565b6040518080602001828103825283818151815260200191508051906020019080838360005b8381101561097f578082015181840152602081019050610964565b50505050905090810190601f1680156109ac5780820380516001836020036101000a031916815260200191505b509250505060405180910390f35b610a06600480360360408110156109d057600080fd5b81019080803573ffffffffffffffffffffffffffffffffffffffff16906020019092919080359060200190929190505050613038565b60405180821515815260200191505060405180910390f35b610a6a60048036036040811015610a3457600080fd5b81019080803573ffffffffffffffffffffffffffffffffffffffff16906020019092919080359060200190929190505050613386565b60405180821515815260200191505060405180910390f35b610ace60048036036040811015610a9857600080fd5b81019080803573ffffffffffffffffffffffffffffffffffffffff16906020019092919080359060200190929190505050613453565b60405180821515815260200191505060405180910390f35b610aee613471565b6040518082815260200191505060405180910390f35b610b0c613634565b6040518082815260200191505060405180910390f35b610b8460048036036040811015610b3857600080fd5b81019080803573ffffffffffffffffffffffffffffffffffffffff169060200190929190803573ffffffffffffffffffffffffffffffffffffffff16906020019092919050505061365c565b005b610be860048036036040811015610b9c57600080fd5b81019080803573ffffffffffffffffffffffffffffffffffffffff169060200190929190803573ffffffffffffffffffffffffffffffffffffffff16906020019092919050505061373b565b6040518082815260200191505060405180910390f35b610c066137c2565b604051808273ffffffffffffffffffffffffffffffffffffffff16815260200191505060405180910390f35b610c3a6137e8565b6040518082815260200191505060405180910390f35b610c9260048036036020811015610c6657600080fd5b81019080803573ffffffffffffffffffffffffffffffffffffffff1690602001909291905050506138b3565b005b610ce060048036036040811015610caa57600080fd5b81019080803573ffffffffffffffffffffffffffffffffffffffff16906020019092919080359060200190929190505050613aa8565b60405180821515815260200191505060405180910390f35b610d00613c7a565b604051808273ffffffffffffffffffffffffffffffffffffffff16815260200191505060405180910390f35b610d34613ca0565b604051808273ffffffffffffffffffffffffffffffffffffffff16815260200191505060405180910390f35b610dac60048036036040811015610d7657600080fd5b81019080803573ffffffffffffffffffffffffffffffffffffffff16906020019092919080359060200190929190505050613cc6565b6040518082815260200191505060405180910390f35b600060019054906101000a900460ff1680610de15750610de0614011565b5b80610df7575060008054906101000a900460ff16155b610e4c576040517f08c379a000000000000000000000000000000000000000000000000000000000815260040180806020018281038252602e815260200180615cf2602e913960400191505060405180910390fd5b60008060019054906101000a900460ff161590508015610e9c576001600060016101000a81548160ff02191690831515021790555060016000806101000a81548160ff0219169083151502179055505b85609e60006101000a81548173ffffffffffffffffffffffffffffffffffffffff021916908373ffffffffffffffffffffffffffffffffffffffff1602179055506113cb609e60009054906101000a900473ffffffffffffffffffffffffffffffffffffffff1673ffffffffffffffffffffffffffffffffffffffff1663fc0c546a6040518163ffffffff1660e01b815260040160206040518083038186803b158015610f4857600080fd5b505afa158015610f5c573d6000803e3d6000fd5b505050506040513d6020811015610f7257600080fd5b810190808051906020019092919050505073ffffffffffffffffffffffffffffffffffffffff166306fdde036040518163ffffffff1660e01b815260040160006040518083038186803b158015610fc857600080fd5b505afa158015610fdc573d6000803e3d6000fd5b505050506040513d6000823e3d601f19601f82011682018060405250602081101561100657600080fd5b810190808051604051939291908464010000000082111561102657600080fd5b8382019150602082018581111561103c57600080fd5b825186600182028301116401000000008211171561105957600080fd5b8083526020830192505050908051906020019080838360005b8381101561108d578082015181840152602081019050611072565b50505050905090810190601f1680156110ba5780820380516001836020036101000a031916815260200191505b5060405250505060405160200180807f506f64200000000000000000000000000000000000000000000000000000000081525060040182805190602001908083835b6020831061111f57805182526020820191506020810190506020830392506110fc565b6001836020036101000a038019825116818451168082178552505050505050905001915050604051602081830303815290604052609e60009054906101000a900473ffffffffffffffffffffffffffffffffffffffff1673ffffffffffffffffffffffffffffffffffffffff1663fc0c546a6040518163ffffffff1660e01b815260040160206040518083038186803b1580156111bb57600080fd5b505afa1580156111cf573d6000803e3d6000fd5b505050506040513d60208110156111e557600080fd5b810190808051906020019092919050505073ffffffffffffffffffffffffffffffffffffffff166395d89b416040518163ffffffff1660e01b815260040160006040518083038186803b15801561123b57600080fd5b505afa15801561124f573d6000803e3d6000fd5b505050506040513d6000823e3d601f19601f82011682018060405250602081101561127957600080fd5b810190808051604051939291908464010000000082111561129957600080fd5b838201915060208201858111156112af57600080fd5b82518660018202830111640100000000821117156112cc57600080fd5b8083526020830192505050908051906020019080838360005b838110156113005780820151818401526020810190506112e5565b50505050905090810190601f16801561132d5780820380516001836020036101000a031916815260200191505b5060405250505060405160200180807f700000000000000000000000000000000000000000000000000000000000000081525060010182805190602001908083835b60208310611392578051825260208201915060208101905060208303925061136f565b6001836020036101000a038019825116818451168082178552505050505050905001915050604051602081830303815290604052614022565b6113d361416c565b6113dc82614313565b6060609e60009054906101000a900473ffffffffffffffffffffffffffffffffffffffff1673ffffffffffffffffffffffffffffffffffffffff16639d63848a6040518163ffffffff1660e01b815260040160006040518083038186803b15801561144657600080fd5b505afa15801561145a573d6000803e3d6000fd5b505050506040513d6000823e3d601f19601f82011682018060405250602081101561148457600080fd5b81019080805160405193929190846401000000008211156114a457600080fd5b838201915060208201858111156114ba57600080fd5b82518660208202830111640100000000821117156114d757600080fd5b8083526020830192505050908051906020019060200280838360005b8381101561150e5780820151818401526020810190506114f3565b5050505090500160405250505090508060008151811061152a57fe5b602002602001015173ffffffffffffffffffffffffffffffffffffffff168673ffffffffffffffffffffffffffffffffffffffff1614806115aa57508060018151811061157357fe5b602002602001015173ffffffffffffffffffffffffffffffffffffffff168673ffffffffffffffffffffffffffffffffffffffff16145b61161c576040517f08c379a000000000000000000000000000000000000000000000000000000000815260040180806020018281038252601d8152602001807f506f643a696e697469616c697a652d696e76616c69642d7469636b657400000081525060200191505060405180910390fd5b609e60009054906101000a900473ffffffffffffffffffffffffffffffffffffffff1673ffffffffffffffffffffffffffffffffffffffff1663fc0c546a6040518163ffffffff1660e01b815260040160206040518083038186803b15801561168457600080fd5b505afa158015611698573d6000803e3d6000fd5b505050506040513d60208110156116ae57600080fd5b8101908080519060200190929190505050609860006101000a81548173ffffffffffffffffffffffffffffffffffffffff021916908373ffffffffffffffffffffffffffffffffffffffff16021790555085609960006101000a81548173ffffffffffffffffffffffffffffffffffffffff021916908373ffffffffffffffffffffffffffffffffffffffff16021790555084609b60006101000a81548173ffffffffffffffffffffffffffffffffffffffff021916908373ffffffffffffffffffffffffffffffffffffffff16021790555083609d60006101000a81548173ffffffffffffffffffffffffffffffffffffffff021916908373ffffffffffffffffffffffffffffffffffffffff1602179055505080156117e45760008060016101000a81548160ff0219169083151502179055505b505050505050565b600081156118bc57609b60009054906101000a900473ffffffffffffffffffffffffffffffffffffffff1673ffffffffffffffffffffffffffffffffffffffff16631e83409a306040518263ffffffff1660e01b8152600401808273ffffffffffffffffffffffffffffffffffffffff168152602001915050602060405180830381600087803b15801561187f57600080fd5b505af1158015611893573d6000803e3d6000fd5b505050506040513d60208110156118a957600080fd5b8101908080519060200190929190505050505b6118c4613471565b506000609c60009054906101000a900473ffffffffffffffffffffffffffffffffffffffff1673ffffffffffffffffffffffffffffffffffffffff166338d52e0f6040518163ffffffff1660e01b815260040160206040518083038186803b15801561192f57600080fd5b505afa158015611943573d6000803e3d6000fd5b505050506040513d602081101561195957600080fd5b8101908080519060200190929190505050905060008173ffffffffffffffffffffffffffffffffffffffff166370a08231306040518263ffffffff1660e01b8152600401808273ffffffffffffffffffffffffffffffffffffffff16815260200191505060206040518083038186803b1580156119d557600080fd5b505afa1580156119e9573d6000803e3d6000fd5b505050506040513d60208110156119ff57600080fd5b81019080805190602001909291905050509050611a5f609c60009054906101000a900473ffffffffffffffffffffffffffffffffffffffff16828473ffffffffffffffffffffffffffffffffffffffff166143319092919063ffffffff16565b609c60009054906101000a900473ffffffffffffffffffffffffffffffffffffffff1673ffffffffffffffffffffffffffffffffffffffff1663949e196f826040518263ffffffff1660e01b815260040180828152602001915050602060405180830381600087803b158015611ad457600080fd5b505af1158015611ae8573d6000803e3d6000fd5b505050506040513d6020811015611afe57600080fd5b8101908080519060200190929190505050507fa71b671080e0f92a89a9abb935000df04b23c1c31382efb1812bb95dff91bab6816040518082815260200191505060405180910390a18092505050919050565b606060368054600181600116156101000203166002900480601f016020809104026020016040519081016040528092919081815260200182805460018160011615610100020316600290048015611be95780601f10611bbe57610100808354040283529160200191611be9565b820191906000526020600020905b815481529060010190602001808311611bcc57829003601f168201915b5050505050905090565b6000611c07611c006144f6565b84846144fe565b6001905092915050565b6000611c1b6144f6565b73ffffffffffffffffffffffffffffffffffffffff16611c39612f0e565b73ffffffffffffffffffffffffffffffffffffffff1614611cc2576040517f08c379a00000000000000000000000000000000000000000000000000000000081526004018080602001828103825260208152602001807f4f776e61626c653a2063616c6c6572206973206e6f7420746865206f776e657281525060200191505060405180910390fd5b600073ffffffffffffffffffffffffffffffffffffffff168273ffffffffffffffffffffffffffffffffffffffff161415611d65576040517f08c379a000000000000000000000000000000000000000000000000000000000815260040180806020018281038252601f8152602001807f506f643a696e76616c69642d746f6b656e2d64726f702d636f6e74726163740081525060200191505060405180910390fd5b81609c60006101000a81548173ffffffffffffffffffffffffffffffffffffffff021916908373ffffffffffffffffffffffffffffffffffffffff160217905550609b60009054906101000a900473ffffffffffffffffffffffffffffffffffffffff1673ffffffffffffffffffffffffffffffffffffffff166338d52e0f6040518163ffffffff1660e01b8152600401602060405180830381600087803b158015611e1057600080fd5b505af1158015611e24573d6000803e3d6000fd5b505050506040513d6020811015611e3a57600080fd5b810190808051906020019092919050505073ffffffffffffffffffffffffffffffffffffffff16609c60009054906101000a900473ffffffffffffffffffffffffffffffffffffffff1673ffffffffffffffffffffffffffffffffffffffff166338d52e0f6040518163ffffffff1660e01b815260040160206040518083038186803b158015611ec957600080fd5b505afa158015611edd573d6000803e3d6000fd5b505050506040513d6020811015611ef357600080fd5b810190808051906020019092919050505073ffffffffffffffffffffffffffffffffffffffff1614611f8d576040517f08c379a000000000000000000000000000000000000000000000000000000000815260040180806020018281038252601c8152602001807f506f643a696e76616c69642d746f6b656e2d64726f702d61737365740000000081525060200191505060405180910390fd5b7f7a48cfaaa18629467c1c1a03e9ca7914885d91200eb368e11069f932cf61eb6b82604051808273ffffffffffffffffffffffffffffffffffffffff16815260200191505060405180910390a160019050919050565b6000603554905090565b609a60009054906101000a900473ffffffffffffffffffffffffffffffffffffffff1681565b60006120208484846146f5565b6120e18461202c6144f6565b6120dc85604051806060016040528060288152602001615d4160289139603460008b73ffffffffffffffffffffffffffffffffffffffff1673ffffffffffffffffffffffffffffffffffffffff16815260200190815260200160002060006120926144f6565b73ffffffffffffffffffffffffffffffffffffffff1673ffffffffffffffffffffffffffffffffffffffff168152602001908152602001600020546149ba9092919063ffffffff16565b6144fe565b600190509392505050565b6000609d60009054906101000a900473ffffffffffffffffffffffffffffffffffffffff16905090565b6000603860009054906101000a900460ff16905090565b60006121d661213a6144f6565b846121d1856034600061214b6144f6565b73ffffffffffffffffffffffffffffffffffffffff1673ffffffffffffffffffffffffffffffffffffffff16815260200190815260200160002060008973ffffffffffffffffffffffffffffffffffffffff1673ffffffffffffffffffffffffffffffffffffffff16815260200190815260200160002054614a7490919063ffffffff16565b6144fe565b6001905092915050565b6000806121eb611fe3565b11156122335761222c6121fc611fe3565b61221e670de0b6b3a7640000612210613634565b614afc90919063ffffffff16565b614b8290919063ffffffff16565b9050612238565b600090505b90565b6000600260975414156122b6576040517f08c379a000000000000000000000000000000000000000000000000000000000815260040180806020018281038252601f8152602001807f5265656e7472616e637947756172643a207265656e7472616e742063616c6c0081525060200191505060405180910390fd5b6002609781905550826122c833612959565b101561233c576040517f08c379a00000000000000000000000000000000000000000000000000000000081526004018080602001828103825260178152602001807f506f643a696e73756666696369656e742d73686172657300000000000000000081525060200191505060405180910390fd5b60006123488484614bcc565b90506123973382609860009054906101000a900473ffffffffffffffffffffffffffffffffffffffff1673ffffffffffffffffffffffffffffffffffffffff16614d269092919063ffffffff16565b7fdf273cb619d95419a9cd0ec88123a0538c85064229baa6363788f743fff90deb338286604051808473ffffffffffffffffffffffffffffffffffffffff168152602001838152602001828152602001935050505060405180910390a180915050600160978190555092915050565b609d60009054906101000a900473ffffffffffffffffffffffffffffffffffffffff1681565b6000609960009054906101000a900473ffffffffffffffffffffffffffffffffffffffff1673ffffffffffffffffffffffffffffffffffffffff166370a08231306040518263ffffffff1660e01b8152600401808273ffffffffffffffffffffffffffffffffffffffff16815260200191505060206040518083038186803b1580156124b757600080fd5b505afa1580156124cb573d6000803e3d6000fd5b505050506040513d60208110156124e157600080fd5b8101908080519060200190929190505050905090565b60006125016144f6565b73ffffffffffffffffffffffffffffffffffffffff1661251f612f0e565b73ffffffffffffffffffffffffffffffffffffffff16146125a8576040517f08c379a00000000000000000000000000000000000000000000000000000000081526004018080602001828103825260208152602001807f4f776e61626c653a2063616c6c6572206973206e6f7420746865206f776e657281525060200191505060405180910390fd5b600073ffffffffffffffffffffffffffffffffffffffff168273ffffffffffffffffffffffffffffffffffffffff16141561264b576040517f08c379a000000000000000000000000000000000000000000000000000000000815260040180806020018281038252601b8152602001807f506f643a696e76616c69642d6d616e616765722d61646472657373000000000081525060200191505060405180910390fd5b81609d60006101000a81548173ffffffffffffffffffffffffffffffffffffffff021916908373ffffffffffffffffffffffffffffffffffffffff1602179055508173ffffffffffffffffffffffffffffffffffffffff16609d60009054906101000a900473ffffffffffffffffffffffffffffffffffffffff1673ffffffffffffffffffffffffffffffffffffffff167f80f15e9dbc60884fdb59fb8ed4fc48a9a689e028f055e893ed45ca5be67c5c8560405160405180910390a360019050919050565b60008061271c6137e8565b905080831161272f576000915050612863565b6000609e60009054906101000a900473ffffffffffffffffffffffffffffffffffffffff1673ffffffffffffffffffffffffffffffffffffffff1663888c2b6f30609960009054906101000a900473ffffffffffffffffffffffffffffffffffffffff166127a68689614dc890919063ffffffff16565b6040518463ffffffff1660e01b8152600401808473ffffffffffffffffffffffffffffffffffffffff1681526020018373ffffffffffffffffffffffffffffffffffffffff16815260200182815260200193505050506040805180830381600087803b15801561281557600080fd5b505af1158015612829573d6000803e3d6000fd5b505050506040513d604081101561283f57600080fd5b81019080805190602001909291908051906020019092919050505050905080925050505b919050565b6000609a60009054906101000a900473ffffffffffffffffffffffffffffffffffffffff1673ffffffffffffffffffffffffffffffffffffffff166370a08231306040518263ffffffff1660e01b8152600401808273ffffffffffffffffffffffffffffffffffffffff16815260200191505060206040518083038186803b1580156128f357600080fd5b505afa158015612907573d6000803e3d6000fd5b505050506040513d602081101561291d57600080fd5b8101908080519060200190929190505050905090565b609960009054906101000a900473ffffffffffffffffffffffffffffffffffffffff1681565b6000603360008373ffffffffffffffffffffffffffffffffffffffff1673ffffffffffffffffffffffffffffffffffffffff168152602001908152602001600020549050919050565b6129aa6144f6565b73ffffffffffffffffffffffffffffffffffffffff166129c8612f0e565b73ffffffffffffffffffffffffffffffffffffffff1614612a51576040517f08c379a00000000000000000000000000000000000000000000000000000000081526004018080602001828103825260208152602001807f4f776e61626c653a2063616c6c6572206973206e6f7420746865206f776e657281525060200191505060405180910390fd5b600073ffffffffffffffffffffffffffffffffffffffff16606560009054906101000a900473ffffffffffffffffffffffffffffffffffffffff1673ffffffffffffffffffffffffffffffffffffffff167f8be0079c531659141344cd1fd0a4f28419497f9722a3daafe3b4186f6b6457e060405160405180910390a36000606560006101000a81548173ffffffffffffffffffffffffffffffffffffffff021916908373ffffffffffffffffffffffffffffffffffffffff160217905550565b6000609e60009054906101000a900473ffffffffffffffffffffffffffffffffffffffff16905090565b6000612b466144f6565b73ffffffffffffffffffffffffffffffffffffffff16612b64612f0e565b73ffffffffffffffffffffffffffffffffffffffff1614612bed576040517f08c379a00000000000000000000000000000000000000000000000000000000081526004018080602001828103825260208152602001807f4f776e61626c653a2063616c6c6572206973206e6f7420746865206f776e657281525060200191505060405180910390fd5b600073ffffffffffffffffffffffffffffffffffffffff168273ffffffffffffffffffffffffffffffffffffffff161415612c90576040517f08c379a000000000000000000000000000000000000000000000000000000000815260040180806020018281038252601b8152602001807f506f643a696e76616c69642d6661756365742d636f6e7472616374000000000081525060200191505060405180910390fd5b81609b60006101000a81548173ffffffffffffffffffffffffffffffffffffffff021916908373ffffffffffffffffffffffffffffffffffffffff160217905550609b60009054906101000a900473ffffffffffffffffffffffffffffffffffffffff1673ffffffffffffffffffffffffffffffffffffffff166338d52e0f6040518163ffffffff1660e01b8152600401602060405180830381600087803b158015612d3b57600080fd5b505af1158015612d4f573d6000803e3d6000fd5b505050506040513d6020811015612d6557600080fd5b810190808051906020019092919050505073ffffffffffffffffffffffffffffffffffffffff16609c60009054906101000a900473ffffffffffffffffffffffffffffffffffffffff1673ffffffffffffffffffffffffffffffffffffffff166338d52e0f6040518163ffffffff1660e01b815260040160206040518083038186803b158015612df457600080fd5b505afa158015612e08573d6000803e3d6000fd5b505050506040513d6020811015612e1e57600080fd5b810190808051906020019092919050505073ffffffffffffffffffffffffffffffffffffffff1614612eb8576040517f08c379a000000000000000000000000000000000000000000000000000000000815260040180806020018281038252601e8152602001807f506f643a696e76616c69642d746f6b656e2d6661756365742d6173736574000081525060200191505060405180910390fd5b7f1062797e1a541ffcf19764c36deb3ad9960105ec3e52e4ff3bc3503ec35551a482604051808273ffffffffffffffffffffffffffffffffffffffff16815260200191505060405180910390a160019050919050565b6000606560009054906101000a900473ffffffffffffffffffffffffffffffffffffffff16905090565b600080612f43611fe3565b1115612f8c57612f85612f54613634565b612f77670de0b6b3a7640000612f6986612959565b614afc90919063ffffffff16565b614b8290919063ffffffff16565b9050612f91565b600090505b919050565b606060378054600181600116156101000203166002900480601f01602080910402602001604051908101604052809291908181526020018280546001816001161561010002031660029004801561302e5780601f106130035761010080835404028352916020019161302e565b820191906000526020600020905b81548152906001019060200180831161301157829003601f168201915b5050505050905090565b60006130426144f6565b73ffffffffffffffffffffffffffffffffffffffff16609d60009054906101000a900473ffffffffffffffffffffffffffffffffffffffff1673ffffffffffffffffffffffffffffffffffffffff1614613104576040517f08c379a00000000000000000000000000000000000000000000000000000000081526004018080602001828103825260188152602001807f506f643a6d616e616765722d756e617574686f72697a6564000000000000000081525060200191505060405180910390fd5b609860009054906101000a900473ffffffffffffffffffffffffffffffffffffffff1673ffffffffffffffffffffffffffffffffffffffff168373ffffffffffffffffffffffffffffffffffffffff16141580156131b05750609960009054906101000a900473ffffffffffffffffffffffffffffffffffffffff1673ffffffffffffffffffffffffffffffffffffffff168373ffffffffffffffffffffffffffffffffffffffff1614155b801561328a5750609c60009054906101000a900473ffffffffffffffffffffffffffffffffffffffff1673ffffffffffffffffffffffffffffffffffffffff166338d52e0f6040518163ffffffff1660e01b815260040160206040518083038186803b15801561321f57600080fd5b505afa158015613233573d6000803e3d6000fd5b505050506040513d602081101561324957600080fd5b810190808051906020019092919050505073ffffffffffffffffffffffffffffffffffffffff168373ffffffffffffffffffffffffffffffffffffffff1614155b6132fc576040517f08c379a00000000000000000000000000000000000000000000000000000000081526004018080602001828103825260188152602001807f506f643a696e76616c69642d7461726765742d746f6b656e000000000000000081525060200191505060405180910390fd5b61332733838573ffffffffffffffffffffffffffffffffffffffff16614d269092919063ffffffff16565b7f7e2c99819371db0a6fc6f4269fe872496e44f502df19ba3eae594b7a159874608383604051808373ffffffffffffffffffffffffffffffffffffffff1681526020018281526020019250505060405180910390a16001905092915050565b60006134496133936144f6565b8461344485604051806060016040528060258152602001615e3360259139603460006133bd6144f6565b73ffffffffffffffffffffffffffffffffffffffff1673ffffffffffffffffffffffffffffffffffffffff16815260200190815260200160002060008a73ffffffffffffffffffffffffffffffffffffffff1673ffffffffffffffffffffffffffffffffffffffff168152602001908152602001600020546149ba9092919063ffffffff16565b6144fe565b6001905092915050565b60006134676134606144f6565b84846146f5565b6001905092915050565b60008061347c6137e8565b90506134ed609e60009054906101000a900473ffffffffffffffffffffffffffffffffffffffff1682609860009054906101000a900473ffffffffffffffffffffffffffffffffffffffff1673ffffffffffffffffffffffffffffffffffffffff166143319092919063ffffffff16565b609e60009054906101000a900473ffffffffffffffffffffffffffffffffffffffff1673ffffffffffffffffffffffffffffffffffffffff1663e323f8253083609960009054906101000a900473ffffffffffffffffffffffffffffffffffffffff16306040518563ffffffff1660e01b8152600401808573ffffffffffffffffffffffffffffffffffffffff1681526020018481526020018373ffffffffffffffffffffffffffffffffffffffff1681526020018273ffffffffffffffffffffffffffffffffffffffff168152602001945050505050600060405180830381600087803b1580156135de57600080fd5b505af11580156135f2573d6000803e3d6000fd5b505050507f1d026eaf76f56dd6eeb046aab9c5852b4d867e7c74376fe63c06328d27bbdb66816040518082815260200191505060405180910390a18091505090565b600061365761364161242c565b6136496137e8565b614e1290919063ffffffff16565b905090565b6136646144f6565b73ffffffffffffffffffffffffffffffffffffffff16613682612f0e565b73ffffffffffffffffffffffffffffffffffffffff161461370b576040517f08c379a00000000000000000000000000000000000000000000000000000000081526004018080602001828103825260208152602001807f4f776e61626c653a2063616c6c6572206973206e6f7420746865206f776e657281525060200191505060405180910390fd5b6137378160008473ffffffffffffffffffffffffffffffffffffffff166143319092919063ffffffff16565b5050565b6000603460008473ffffffffffffffffffffffffffffffffffffffff1673ffffffffffffffffffffffffffffffffffffffff16815260200190815260200160002060008373ffffffffffffffffffffffffffffffffffffffff1673ffffffffffffffffffffffffffffffffffffffff16815260200190815260200160002054905092915050565b609b60009054906101000a900473ffffffffffffffffffffffffffffffffffffffff1681565b6000609860009054906101000a900473ffffffffffffffffffffffffffffffffffffffff1673ffffffffffffffffffffffffffffffffffffffff166370a08231306040518263ffffffff1660e01b8152600401808273ffffffffffffffffffffffffffffffffffffffff16815260200191505060206040518083038186803b15801561387357600080fd5b505afa158015613887573d6000803e3d6000fd5b505050506040513d602081101561389d57600080fd5b8101908080519060200190929190505050905090565b6138bb6144f6565b73ffffffffffffffffffffffffffffffffffffffff166138d9612f0e565b73ffffffffffffffffffffffffffffffffffffffff1614613962576040517f08c379a00000000000000000000000000000000000000000000000000000000081526004018080602001828103825260208152602001807f4f776e61626c653a2063616c6c6572206973206e6f7420746865206f776e657281525060200191505060405180910390fd5b600073ffffffffffffffffffffffffffffffffffffffff168173ffffffffffffffffffffffffffffffffffffffff1614156139e8576040517f08c379a0000000000000000000000000000000000000000000000000000000008152600401808060200182810382526026815260200180615c336026913960400191505060405180910390fd5b8073ffffffffffffffffffffffffffffffffffffffff16606560009054906101000a900473ffffffffffffffffffffffffffffffffffffffff1673ffffffffffffffffffffffffffffffffffffffff167f8be0079c531659141344cd1fd0a4f28419497f9722a3daafe3b4186f6b6457e060405160405180910390a380606560006101000a81548173ffffffffffffffffffffffffffffffffffffffff021916908373ffffffffffffffffffffffffffffffffffffffff16021790555050565b6000613ab26144f6565b73ffffffffffffffffffffffffffffffffffffffff16609d60009054906101000a900473ffffffffffffffffffffffffffffffffffffffff1673ffffffffffffffffffffffffffffffffffffffff1614613b74576040517f08c379a00000000000000000000000000000000000000000000000000000000081526004018080602001828103825260188152602001807f506f643a6d616e616765722d756e617574686f72697a6564000000000000000081525060200191505060405180910390fd5b8273ffffffffffffffffffffffffffffffffffffffff166323b872dd3033856040518463ffffffff1660e01b8152600401808473ffffffffffffffffffffffffffffffffffffffff1681526020018373ffffffffffffffffffffffffffffffffffffffff1681526020018281526020019350505050600060405180830381600087803b158015613c0357600080fd5b505af1158015613c17573d6000803e3d6000fd5b505050507f1c5be65d2245c05a955440008d97c579b7046fffdfb8482e1884ae42be57d98d8383604051808373ffffffffffffffffffffffffffffffffffffffff1681526020018281526020019250505060405180910390a16001905092915050565b609860009054906101000a900473ffffffffffffffffffffffffffffffffffffffff1681565b609c60009054906101000a900473ffffffffffffffffffffffffffffffffffffffff1681565b6000609e60009054906101000a900473ffffffffffffffffffffffffffffffffffffffff1673ffffffffffffffffffffffffffffffffffffffff166398bf3eb66040518163ffffffff1660e01b8152600401602060405180830381600087803b158015613d3257600080fd5b505af1158015613d46573d6000803e3d6000fd5b505050506040513d6020811015613d5c57600080fd5b810190808051906020019092919050505073ffffffffffffffffffffffffffffffffffffffff1663111070e46040518163ffffffff1660e01b8152600401602060405180830381600087803b158015613db457600080fd5b505af1158015613dc8573d6000803e3d6000fd5b505050506040513d6020811015613dde57600080fd5b810190808051906020019092919050505015613e45576040517f08c379a000000000000000000000000000000000000000000000000000000000815260040180806020018281038252602b815260200180615cc7602b913960400191505060405180910390fd5b60026097541415613ebe576040517f08c379a000000000000000000000000000000000000000000000000000000000815260040180806020018281038252601f8152602001807f5265656e7472616e637947756172643a207265656e7472616e742063616c6c0081525060200191505060405180910390fd5b600260978190555060008211613f3c576040517f08c379a00000000000000000000000000000000000000000000000000000000081526004018080602001828103825260128152602001807f506f643a696e76616c69642d616d6f756e74000000000000000000000000000081525060200191505060405180910390fd5b6000613f4783614e9a565b9050613f98333085609860009054906101000a900473ffffffffffffffffffffffffffffffffffffffff1673ffffffffffffffffffffffffffffffffffffffff16614ef8909392919063ffffffff16565b613fa28482614fb9565b7f73a19dd210f1a7f902193214c0ee91dd35ee5b4d920cba8d519eca65a7b488ca848483604051808473ffffffffffffffffffffffffffffffffffffffff168152602001838152602001828152602001935050505060405180910390a180915050600160978190555092915050565b600061401c30615182565b15905090565b600060019054906101000a900460ff16806140415750614040614011565b5b80614057575060008054906101000a900460ff16155b6140ac576040517f08c379a000000000000000000000000000000000000000000000000000000000815260040180806020018281038252602e815260200180615cf2602e913960400191505060405180910390fd5b60008060019054906101000a900460ff1615905080156140fc576001600060016101000a81548160ff02191690831515021790555060016000806101000a81548160ff0219169083151502179055505b8260369080519060200190614112929190615b50565b508160379080519060200190614129929190615b50565b506012603860006101000a81548160ff021916908360ff16021790555080156141675760008060016101000a81548160ff0219169083151502179055505b505050565b600060019054906101000a900460ff168061418b575061418a614011565b5b806141a1575060008054906101000a900460ff16155b6141f6576040517f08c379a000000000000000000000000000000000000000000000000000000000815260040180806020018281038252602e815260200180615cf2602e913960400191505060405180910390fd5b60008060019054906101000a900460ff161590508015614246576001600060016101000a81548160ff02191690831515021790555060016000806101000a81548160ff0219169083151502179055505b60006142506144f6565b905080606560006101000a81548173ffffffffffffffffffffffffffffffffffffffff021916908373ffffffffffffffffffffffffffffffffffffffff1602179055508073ffffffffffffffffffffffffffffffffffffffff16600073ffffffffffffffffffffffffffffffffffffffff167f8be0079c531659141344cd1fd0a4f28419497f9722a3daafe3b4186f6b6457e060405160405180910390a35080156143105760008060016101000a81548160ff0219169083151502179055505b50565b80603860006101000a81548160ff021916908360ff16021790555050565b60008114806143ff575060008373ffffffffffffffffffffffffffffffffffffffff1663dd62ed3e30856040518363ffffffff1660e01b8152600401808373ffffffffffffffffffffffffffffffffffffffff1681526020018273ffffffffffffffffffffffffffffffffffffffff1681526020019250505060206040518083038186803b1580156143c257600080fd5b505afa1580156143d6573d6000803e3d6000fd5b505050506040513d60208110156143ec57600080fd5b8101908080519060200190929190505050145b614454576040517f08c379a0000000000000000000000000000000000000000000000000000000008152600401808060200182810382526036815260200180615dfd6036913960400191505060405180910390fd5b6144f18363095ea7b360e01b8484604051602401808373ffffffffffffffffffffffffffffffffffffffff16815260200182815260200192505050604051602081830303815290604052907bffffffffffffffffffffffffffffffffffffffffffffffffffffffff19166020820180517bffffffffffffffffffffffffffffffffffffffffffffffffffffffff8381831617835250505050615195565b505050565b600033905090565b600073ffffffffffffffffffffffffffffffffffffffff168373ffffffffffffffffffffffffffffffffffffffff161415614584576040517f08c379a0000000000000000000000000000000000000000000000000000000008152600401808060200182810382526024815260200180615daf6024913960400191505060405180910390fd5b600073ffffffffffffffffffffffffffffffffffffffff168273ffffffffffffffffffffffffffffffffffffffff16141561460a576040517f08c379a0000000000000000000000000000000000000000000000000000000008152600401808060200182810382526022815260200180615c596022913960400191505060405180910390fd5b80603460008573ffffffffffffffffffffffffffffffffffffffff1673ffffffffffffffffffffffffffffffffffffffff16815260200190815260200160002060008473ffffffffffffffffffffffffffffffffffffffff1673ffffffffffffffffffffffffffffffffffffffff168152602001908152602001600020819055508173ffffffffffffffffffffffffffffffffffffffff168373ffffffffffffffffffffffffffffffffffffffff167f8c5be1e5ebec7d5bd14f71427d1e84f3dd0314c0f7b2291e5b200ac8c7c3b925836040518082815260200191505060405180910390a3505050565b600073ffffffffffffffffffffffffffffffffffffffff168373ffffffffffffffffffffffffffffffffffffffff16141561477b576040517f08c379a0000000000000000000000000000000000000000000000000000000008152600401808060200182810382526025815260200180615d8a6025913960400191505060405180910390fd5b600073ffffffffffffffffffffffffffffffffffffffff168273ffffffffffffffffffffffffffffffffffffffff161415614801576040517f08c379a0000000000000000000000000000000000000000000000000000000008152600401808060200182810382526023815260200180615bee6023913960400191505060405180910390fd5b61480c838383615284565b61487881604051806060016040528060268152602001615c7b60269139603360008773ffffffffffffffffffffffffffffffffffffffff1673ffffffffffffffffffffffffffffffffffffffff168152602001908152602001600020546149ba9092919063ffffffff16565b603360008573ffffffffffffffffffffffffffffffffffffffff1673ffffffffffffffffffffffffffffffffffffffff1681526020019081526020016000208190555061490d81603360008573ffffffffffffffffffffffffffffffffffffffff1673ffffffffffffffffffffffffffffffffffffffff16815260200190815260200160002054614a7490919063ffffffff16565b603360008473ffffffffffffffffffffffffffffffffffffffff1673ffffffffffffffffffffffffffffffffffffffff168152602001908152602001600020819055508173ffffffffffffffffffffffffffffffffffffffff168373ffffffffffffffffffffffffffffffffffffffff167fddf252ad1be2c89b69c2b068fc378daa952ba7f163c4a11628f55a4df523b3ef836040518082815260200191505060405180910390a3505050565b6000838311158290614a67576040517f08c379a00000000000000000000000000000000000000000000000000000000081526004018080602001828103825283818151815260200191508051906020019080838360005b83811015614a2c578082015181840152602081019050614a11565b50505050905090810190601f168015614a595780820380516001836020036101000a031916815260200191505b509250505060405180910390fd5b5082840390509392505050565b600080828401905083811015614af2576040517f08c379a000000000000000000000000000000000000000000000000000000000815260040180806020018281038252601b8152602001807f536166654d6174683a206164646974696f6e206f766572666c6f77000000000081525060200191505060405180910390fd5b8091505092915050565b600080831415614b0f5760009050614b7c565b6000828402905082848281614b2057fe5b0414614b77576040517f08c379a0000000000000000000000000000000000000000000000000000000008152600401808060200182810382526021815260200180615d206021913960400191505060405180910390fd5b809150505b92915050565b6000614bc483836040518060400160405280601a81526020017f536166654d6174683a206469766973696f6e206279207a65726f0000000000008152506153ca565b905092915050565b600080614c02614bda611fe3565b614bf486614be6613634565b614afc90919063ffffffff16565b614b8290919063ffffffff16565b9050614c0e3385615490565b6000609860009054906101000a900473ffffffffffffffffffffffffffffffffffffffff1673ffffffffffffffffffffffffffffffffffffffff166370a08231306040518263ffffffff1660e01b8152600401808273ffffffffffffffffffffffffffffffffffffffff16815260200191505060206040518083038186803b158015614c9957600080fd5b505afa158015614cad573d6000803e3d6000fd5b505050506040513d6020811015614cc357600080fd5b8101908080519060200190929190505050905080821115614d1b576000614cf38284614dc890919063ffffffff16565b90506000614d018287615656565b9050614d168185614dc890919063ffffffff16565b935050505b819250505092915050565b614dc38363a9059cbb60e01b8484604051602401808373ffffffffffffffffffffffffffffffffffffffff16815260200182815260200192505050604051602081830303815290604052907bffffffffffffffffffffffffffffffffffffffffffffffffffffffff19166020820180517bffffffffffffffffffffffffffffffffffffffffffffffffffffffff8381831617835250505050615195565b505050565b6000614e0a83836040518060400160405280601e81526020017f536166654d6174683a207375627472616374696f6e206f766572666c6f77000081525061577b565b905092915050565b600080828401905083811015614e90576040517f08c379a000000000000000000000000000000000000000000000000000000000815260040180806020018281038252601b8152602001807f536166654d6174683a206164646974696f6e206f766572666c6f77000000000081525060200191505060405180910390fd5b8091505092915050565b600080600090506000614eab611fe3565b1415614eb957829050614eef565b614eec614ec4613634565b614ede614ecf611fe3565b86614afc90919063ffffffff16565b614b8290919063ffffffff16565b90505b80915050919050565b614fb3846323b872dd60e01b858585604051602401808473ffffffffffffffffffffffffffffffffffffffff1681526020018373ffffffffffffffffffffffffffffffffffffffff1681526020018281526020019350505050604051602081830303815290604052907bffffffffffffffffffffffffffffffffffffffffffffffffffffffff19166020820180517bffffffffffffffffffffffffffffffffffffffffffffffffffffffff8381831617835250505050615195565b50505050565b600073ffffffffffffffffffffffffffffffffffffffff168273ffffffffffffffffffffffffffffffffffffffff16141561505c576040517f08c379a000000000000000000000000000000000000000000000000000000000815260040180806020018281038252601f8152602001807f45524332303a206d696e7420746f20746865207a65726f20616464726573730081525060200191505060405180910390fd5b61506860008383615284565b61507d81603554614a7490919063ffffffff16565b6035819055506150d581603360008573ffffffffffffffffffffffffffffffffffffffff1673ffffffffffffffffffffffffffffffffffffffff16815260200190815260200160002054614a7490919063ffffffff16565b603360008473ffffffffffffffffffffffffffffffffffffffff1673ffffffffffffffffffffffffffffffffffffffff168152602001908152602001600020819055508173ffffffffffffffffffffffffffffffffffffffff16600073ffffffffffffffffffffffffffffffffffffffff167fddf252ad1be2c89b69c2b068fc378daa952ba7f163c4a11628f55a4df523b3ef836040518082815260200191505060405180910390a35050565b600080823b905060008111915050919050565b60606151f7826040518060400160405280602081526020017f5361666545524332303a206c6f772d6c6576656c2063616c6c206661696c65648152508573ffffffffffffffffffffffffffffffffffffffff1661583b9092919063ffffffff16565b905060008151111561527f5780806020019051602081101561521857600080fd5b810190808051906020019092919050505061527e576040517f08c379a000000000000000000000000000000000000000000000000000000000815260040180806020018281038252602a815260200180615dd3602a913960400191505060405180910390fd5b5b505050565b61528f838383615853565b600073ffffffffffffffffffffffffffffffffffffffff16609c60009054906101000a900473ffffffffffffffffffffffffffffffffffffffff1673ffffffffffffffffffffffffffffffffffffffff16146153c557609c60009054906101000a900473ffffffffffffffffffffffffffffffffffffffff1673ffffffffffffffffffffffffffffffffffffffff166340069fee8484306040518463ffffffff1660e01b8152600401808473ffffffffffffffffffffffffffffffffffffffff1681526020018373ffffffffffffffffffffffffffffffffffffffff1681526020018273ffffffffffffffffffffffffffffffffffffffff1681526020019350505050600060405180830381600087803b1580156153ac57600080fd5b505af11580156153c0573d6000803e3d6000fd5b505050505b505050565b60008083118290615476576040517f08c379a00000000000000000000000000000000000000000000000000000000081526004018080602001828103825283818151815260200191508051906020019080838360005b8381101561543b578082015181840152602081019050615420565b50505050905090810190601f1680156154685780820380516001836020036101000a031916815260200191505b509250505060405180910390fd5b50600083858161548257fe5b049050809150509392505050565b600073ffffffffffffffffffffffffffffffffffffffff168273ffffffffffffffffffffffffffffffffffffffff161415615516576040517f08c379a0000000000000000000000000000000000000000000000000000000008152600401808060200182810382526021815260200180615d696021913960400191505060405180910390fd5b61552282600083615284565b61558e81604051806060016040528060228152602001615c1160229139603360008673ffffffffffffffffffffffffffffffffffffffff1673ffffffffffffffffffffffffffffffffffffffff168152602001908152602001600020546149ba9092919063ffffffff16565b603360008473ffffffffffffffffffffffffffffffffffffffff1673ffffffffffffffffffffffffffffffffffffffff168152602001908152602001600020819055506155e68160355461585890919063ffffffff16565b603581905550600073ffffffffffffffffffffffffffffffffffffffff168273ffffffffffffffffffffffffffffffffffffffff167fddf252ad1be2c89b69c2b068fc378daa952ba7f163c4a11628f55a4df523b3ef836040518082815260200191505060405180910390a35050565b600080609e60009054906101000a900473ffffffffffffffffffffffffffffffffffffffff1673ffffffffffffffffffffffffffffffffffffffff1663a016240b3086609960009054906101000a900473ffffffffffffffffffffffffffffffffffffffff16876040518563ffffffff1660e01b8152600401808573ffffffffffffffffffffffffffffffffffffffff1681526020018481526020018373ffffffffffffffffffffffffffffffffffffffff168152602001828152602001945050505050602060405180830381600087803b15801561573457600080fd5b505af1158015615748573d6000803e3d6000fd5b505050506040513d602081101561575e57600080fd5b810190808051906020019092919050505090508091505092915050565b6000838311158290615828576040517f08c379a00000000000000000000000000000000000000000000000000000000081526004018080602001828103825283818151815260200191508051906020019080838360005b838110156157ed5780820151818401526020810190506157d2565b50505050905090810190601f16801561581a5780820380516001836020036101000a031916815260200191505b509250505060405180910390fd5b5060008385039050809150509392505050565b606061584a84846000856158db565b90509392505050565b505050565b6000828211156158d0576040517f08c379a000000000000000000000000000000000000000000000000000000000815260040180806020018281038252601e8152602001807f536166654d6174683a207375627472616374696f6e206f766572666c6f77000081525060200191505060405180910390fd5b818303905092915050565b606082471015615936576040517f08c379a0000000000000000000000000000000000000000000000000000000008152600401808060200182810382526026815260200180615ca16026913960400191505060405180910390fd5b61593f85615182565b6159b1576040517f08c379a000000000000000000000000000000000000000000000000000000000815260040180806020018281038252601d8152602001807f416464726573733a2063616c6c20746f206e6f6e2d636f6e747261637400000081525060200191505060405180910390fd5b600060608673ffffffffffffffffffffffffffffffffffffffff1685876040518082805190602001908083835b60208310615a0157805182526020820191506020810190506020830392506159de565b6001836020036101000a03801982511681845116808217855250505050505090500191505060006040518083038185875af1925050503d8060008114615a63576040519150601f19603f3d011682016040523d82523d6000602084013e615a68565b606091505b5091509150615a78828286615a84565b92505050949350505050565b60608315615a9457829050615b49565b600083511115615aa75782518084602001fd5b816040517f08c379a00000000000000000000000000000000000000000000000000000000081526004018080602001828103825283818151815260200191508051906020019080838360005b83811015615b0e578082015181840152602081019050615af3565b50505050905090810190601f168015615b3b5780820380516001836020036101000a031916815260200191505b509250505060405180910390fd5b9392505050565b828054600181600116156101000203166002900490600052602060002090601f016020900481019282601f10615b9157805160ff1916838001178555615bbf565b82800160010185558215615bbf579182015b82811115615bbe578251825591602001919060010190615ba3565b5b509050615bcc9190615bd0565b5090565b5b80821115615be9576000816000905550600101615bd1565b509056fe45524332303a207472616e7366657220746f20746865207a65726f206164647265737345524332303a206275726e20616d6f756e7420657863656564732062616c616e63654f776e61626c653a206e6577206f776e657220697320746865207a65726f206164647265737345524332303a20617070726f766520746f20746865207a65726f206164647265737345524332303a207472616e7366657220616d6f756e7420657863656564732062616c616e6365416464726573733a20696e73756666696369656e742062616c616e636520666f722063616c6c43616e6e6f74206465706f736974207768696c65207072697a65206973206265696e672061776172646564496e697469616c697a61626c653a20636f6e747261637420697320616c726561647920696e697469616c697a6564536166654d6174683a206d756c7469706c69636174696f6e206f766572666c6f7745524332303a207472616e7366657220616d6f756e74206578636565647320616c6c6f77616e636545524332303a206275726e2066726f6d20746865207a65726f206164647265737345524332303a207472616e736665722066726f6d20746865207a65726f206164647265737345524332303a20617070726f76652066726f6d20746865207a65726f20616464726573735361666545524332303a204552433230206f7065726174696f6e20646964206e6f7420737563636565645361666545524332303a20617070726f76652066726f6d206e6f6e2d7a65726f20746f206e6f6e2d7a65726f20616c6c6f77616e636545524332303a2064656372656173656420616c6c6f77616e63652062656c6f77207a65726fa26469706673582212201681a19f45a5011ac4b99b05466cf7a73a87c89c8141902f9df7a586d90d49e064736f6c63430007000033",
  "devdoc": {
    "author": "Kames Geraghty",
    "details": "The PodFactory creates/initializes connected Pod and TokenDrop smart contracts. Pods stores tokens, tickets, prizePool and other essential references.",
    "events": {
      "LogCreatedPodAndTokenDrop(address,address)": {
        "details": "Emitted when a new Pod and TokenDrop pair is created."
      }
    },
    "kind": "dev",
    "methods": {
      "constructor": {
        "details": "Initializes the Pod Factory with an instance of the Pod and TokenDropFactory reference.",
        "params": {
          "_tokenDropFactory": "Target PrizePool for deposits and withdraws"
        }
      },
      "create(address,address,address,address,uint8)": {
        "details": "The Pod Smart Contact is created and initialized using the PodFactory.",
        "params": {
          "_decimals": "Set the Pod decimals to match the underlying asset.",
          "_faucet": "TokenFaucet reference that distributes reward token for PrizePool deposits.",
          "_manager": "Liquidates the Pod's \"bonus\" tokens for the Pod's token.",
          "_prizePool": "Target PrizePool for deposits and withdraws",
          "_ticket": "Non-sponsored PrizePool ticket - is verified during initialization."
        },
        "returns": {
          "_0": "(address, address) Pod and TokenDrop addresses"
        }
      }
    },
    "title": "PodFactory (ProxyFactory) - Clones a Pod Instance",
    "version": 1
  },
  "userdoc": {
    "kind": "user",
    "methods": {
      "constructor": {
        "notice": "Initializes the Pod Factory with an instance of the Pod and TokenDropFactory reference."
      },
      "create(address,address,address,address,uint8)": {
        "notice": "Create a new Pod Clone using the Pod instance."
      },
      "podInstance()": {
        "notice": "Contract template for deploying proxied Pods"
      },
      "tokenDropFactory()": {
        "notice": "TokenDropFactory reference"
      },
      "tokenDropInstance()": {
        "notice": "Contract template for deploying proxied TokenDrop"
      }
    },
    "notice": "Reduces gas costs and collectively increases that chances winning for PoolTogether users, while keeping user POOL distributions to users.",
    "version": 1
  },
  "storageLayout": {
    "storage": [
      {
        "astId": 3737,
        "contract": "contracts/PodFactory.sol:PodFactory",
        "label": "tokenDropFactory",
        "offset": 0,
        "slot": "0",
        "type": "t_contract(TokenDropFactory)4330"
      },
      {
        "astId": 3740,
        "contract": "contracts/PodFactory.sol:PodFactory",
        "label": "podInstance",
        "offset": 0,
        "slot": "1",
        "type": "t_contract(Pod)3725"
      },
      {
        "astId": 3743,
        "contract": "contracts/PodFactory.sol:PodFactory",
        "label": "tokenDropInstance",
        "offset": 0,
        "slot": "2",
        "type": "t_contract(TokenDrop)4272"
      }
    ],
    "types": {
      "t_contract(Pod)3725": {
        "encoding": "inplace",
        "label": "contract Pod",
        "numberOfBytes": "20"
      },
      "t_contract(TokenDrop)4272": {
        "encoding": "inplace",
        "label": "contract TokenDrop",
        "numberOfBytes": "20"
      },
      "t_contract(TokenDropFactory)4330": {
        "encoding": "inplace",
        "label": "contract TokenDropFactory",
        "numberOfBytes": "20"
      }
    }
  }
}