{
  "address": "0x9FFDAb7bf4DfA8f0daa0D06d7a27079da7758f3b",
  "abi": [
    {
      "inputs": [],
      "stateMutability": "nonpayable",
      "type": "constructor"
    },
    {
      "anonymous": false,
      "inputs": [
        {
          "indexed": false,
          "internalType": "address",
          "name": "proxy",
          "type": "address"
        }
      ],
      "name": "ProxyCreated",
      "type": "event"
    },
    {
      "inputs": [
        {
          "internalType": "address",
          "name": "_measure",
          "type": "address"
        },
        {
          "internalType": "address",
          "name": "_asset",
          "type": "address"
        }
      ],
      "name": "create",
      "outputs": [
        {
          "internalType": "address",
          "name": "",
          "type": "address"
        }
      ],
      "stateMutability": "nonpayable",
      "type": "function"
    },
    {
      "inputs": [
        {
          "internalType": "address",
          "name": "_logic",
          "type": "address"
        },
        {
          "internalType": "bytes",
          "name": "_data",
          "type": "bytes"
        }
      ],
      "name": "deployMinimal",
      "outputs": [
        {
          "internalType": "address",
          "name": "proxy",
          "type": "address"
        }
      ],
      "stateMutability": "nonpayable",
      "type": "function"
    },
    {
      "inputs": [],
      "name": "tokenDropInstance",
      "outputs": [
        {
          "internalType": "contract TokenDrop",
          "name": "",
          "type": "address"
        }
      ],
      "stateMutability": "view",
      "type": "function"
    }
  ],
  "transactionHash": "0x7581e5a824785746e812b5d06de9ae1a1ec82cbb4de0eeac0e4067c92442daec",
  "args": [],
  "solcInputHash": "1c0ee79bc7d2cf18cd614aa27eb685f3",
  "bytecode": "0x608060405234801561001057600080fd5b5060405161001d9061007e565b604051809103906000f080158015610039573d6000803e3d6000fd5b506000806101000a81548173ffffffffffffffffffffffffffffffffffffffff021916908373ffffffffffffffffffffffffffffffffffffffff16021790555061008b565b611c5a8061068083390190565b6105e68061009a6000396000f3fe608060405234801561001057600080fd5b50600436106100415760003560e01c80633e68680a1461004657806348c7eff5146100d4578063b3eeb5e214610108575b600080fd5b6100a86004803603604081101561005c57600080fd5b81019080803573ffffffffffffffffffffffffffffffffffffffff169060200190929190803573ffffffffffffffffffffffffffffffffffffffff16906020019092919050505061020d565b604051808273ffffffffffffffffffffffffffffffffffffffff16815260200191505060405180910390f35b6100dc6102f4565b604051808273ffffffffffffffffffffffffffffffffffffffff16815260200191505060405180910390f35b6101e16004803603604081101561011e57600080fd5b81019080803573ffffffffffffffffffffffffffffffffffffffff1690602001909291908035906020019064010000000081111561015b57600080fd5b82018360208201111561016d57600080fd5b8035906020019184600183028401116401000000008311171561018f57600080fd5b91908080601f016020809104026020016040519081016040528093929190818152602001838380828437600081840152601f19601f820116905080830192505050505050509192919290505050610318565b604051808273ffffffffffffffffffffffffffffffffffffffff16815260200191505060405180910390f35b60008061024960008054906101000a900473ffffffffffffffffffffffffffffffffffffffff1660405180602001604052806000815250610318565b90508073ffffffffffffffffffffffffffffffffffffffff1663485cc95585856040518363ffffffff1660e01b8152600401808373ffffffffffffffffffffffffffffffffffffffff1681526020018273ffffffffffffffffffffffffffffffffffffffff16815260200192505050600060405180830381600087803b1580156102d257600080fd5b505af11580156102e6573d6000803e3d6000fd5b505050508091505092915050565b60008054906101000a900473ffffffffffffffffffffffffffffffffffffffff1681565b6000808360601b90506040517f3d602d80600a3d3981f3363d3d373d3d3d363d7300000000000000000000000081528160148201527f5af43d82803e903d91602b57fd5bf3000000000000000000000000000000000060288201526037816000f0925050600073ffffffffffffffffffffffffffffffffffffffff168273ffffffffffffffffffffffffffffffffffffffff16141561041f576040517f08c379a000000000000000000000000000000000000000000000000000000000815260040180806020018281038252601c8152602001807f50726f7879466163746f72793a696e76616c69642d616464726573730000000081525060200191505060405180910390fd5b7efffc2da0b561cae30d9826d37709e9421c4725faebc226cbbb7ef5fc5e734982604051808273ffffffffffffffffffffffffffffffffffffffff16815260200191505060405180910390a16000835111156105855760008273ffffffffffffffffffffffffffffffffffffffff16846040518082805190602001908083835b602083106104c2578051825260208201915060208101905060208303925061049f565b6001836020036101000a0380198251168184511680821785525050505050509050019150506000604051808303816000865af19150503d8060008114610524576040519150601f19603f3d011682016040523d82523d6000602084013e610529565b606091505b5050905080610583576040517f08c379a000000000000000000000000000000000000000000000000000000000815260040180806020018281038252602481526020018061058d6024913960400191505060405180910390fd5b505b509291505056fe50726f7879466163746f72792f636f6e7374727563746f722d63616c6c2d6661696c6564a264697066735822122074227991c8bad26bfaa1a3829f1e5d0302c8a42d5250e2ce5b3b241c4a6d804664736f6c63430007000033608060405234801561001057600080fd5b5060018081905550611c33806100276000396000f3fe608060405234801561001057600080fd5b50600436106100a95760003560e01c8063949e196f11610071578063949e196f14610293578063c96f14b8146102d7578063d9772a2514610305578063e318613e14610329578063efa9a1ad14610357578063f751cd8f1461038b576100a9565b80630ecc535f146100ae5780631e83409a1461011f57806338d52e0f1461017757806340069fee146101ab578063485cc9551461022f575b600080fd5b6100f0600480360360208110156100c457600080fd5b81019080803573ffffffffffffffffffffffffffffffffffffffff1690602001909291905050506103a9565b60405180836fffffffffffffffffffffffffffffffff1681526020018281526020019250505060405180910390f35b6101616004803603602081101561013557600080fd5b81019080803573ffffffffffffffffffffffffffffffffffffffff1690602001909291905050506103e9565b6040518082815260200191505060405180910390f35b61017f610561565b604051808273ffffffffffffffffffffffffffffffffffffffff16815260200191505060405180910390f35b61022d600480360360608110156101c157600080fd5b81019080803573ffffffffffffffffffffffffffffffffffffffff169060200190929190803573ffffffffffffffffffffffffffffffffffffffff169060200190929190803573ffffffffffffffffffffffffffffffffffffffff169060200190929190505050610587565b005b6102916004803603604081101561024557600080fd5b81019080803573ffffffffffffffffffffffffffffffffffffffff169060200190929190803573ffffffffffffffffffffffffffffffffffffffff16906020019092919050505061062c565b005b6102bf600480360360208110156102a957600080fd5b81019080803590602001909291905050506108f4565b60405180821515815260200191505060405180910390f35b6102df610957565b60405180826dffffffffffffffffffffffffffff16815260200191505060405180910390f35b61030d610977565b604051808263ffffffff16815260200191505060405180910390f35b61033161098d565b60405180826dffffffffffffffffffffffffffff16815260200191505060405180910390f35b61035f6109ad565b604051808273ffffffffffffffffffffffffffffffffffffffff16815260200191505060405180910390f35b6103936109d3565b6040518082815260200191505060405180910390f35b60056020528060005260406000206000915090508060000160009054906101000a90046fffffffffffffffffffffffffffffffff16908060010154905082565b60006103f482610d6e565b506000600560008473ffffffffffffffffffffffffffffffffffffffff1673ffffffffffffffffffffffffffffffffffffffff1681526020019081526020016000206001015490506000600560008573ffffffffffffffffffffffffffffffffffffffff1673ffffffffffffffffffffffffffffffffffffffff168152602001908152602001600020600101819055506104cb6104c6826004600e9054906101000a90046dffffffffffffffffffffffffffff166dffffffffffffffffffffffffffff166110a290919063ffffffff16565b6110ec565b6004600e6101000a8154816dffffffffffffffffffffffffffff02191690836dffffffffffffffffffffffffffff160217905550610509838261115d565b508273ffffffffffffffffffffffffffffffffffffffff167fd8138f8a3f377c5259ca548e70e4c2de94f129f5a11036a15b69513cba2b426a826040518082815260200191505060405180910390a280915050919050565b600260009054906101000a900473ffffffffffffffffffffffffffffffffffffffff1681565b600360009054906101000a900473ffffffffffffffffffffffffffffffffffffffff1673ffffffffffffffffffffffffffffffffffffffff168173ffffffffffffffffffffffffffffffffffffffff161415610627576105e682610d6e565b50600073ffffffffffffffffffffffffffffffffffffffff168373ffffffffffffffffffffffffffffffffffffffff16146106265761062483610d6e565b505b5b505050565b600060019054906101000a900460ff168061064b575061064a61123a565b5b80610661575060008054906101000a900460ff16155b6106b6576040517f08c379a000000000000000000000000000000000000000000000000000000000815260040180806020018281038252602e815260200180611b5c602e913960400191505060405180910390fd5b60008060019054906101000a900460ff161590508015610706576001600060016101000a81548160ff02191690831515021790555060016000806101000a81548160ff0219169083151502179055505b600073ffffffffffffffffffffffffffffffffffffffff168373ffffffffffffffffffffffffffffffffffffffff1614156107a9576040517f08c379a00000000000000000000000000000000000000000000000000000000081526004018080602001828103825260198152602001807f506f643a696e76616c69642d6d6561737572652d746f6b656e0000000000000081525060200191505060405180910390fd5b600073ffffffffffffffffffffffffffffffffffffffff168273ffffffffffffffffffffffffffffffffffffffff16141561084c576040517f08c379a00000000000000000000000000000000000000000000000000000000081526004018080602001828103825260178152602001807f506f643a696e76616c69642d61737365742d746f6b656e00000000000000000081525060200191505060405180910390fd5b82600360006101000a81548173ffffffffffffffffffffffffffffffffffffffff021916908373ffffffffffffffffffffffffffffffffffffffff16021790555081600260006101000a81548173ffffffffffffffffffffffffffffffffffffffff021916908373ffffffffffffffffffffffffffffffffffffffff16021790555080156108ef5760008060016101000a81548160ff0219169083151502179055505b505050565b6000610945333084600260009054906101000a900473ffffffffffffffffffffffffffffffffffffffff1673ffffffffffffffffffffffffffffffffffffffff1661124b909392919063ffffffff16565b61094d6109d3565b5060019050919050565b6004600e9054906101000a90046dffffffffffffffffffffffffffff1681565b6004601c9054906101000a900463ffffffff1681565b600460009054906101000a90046dffffffffffffffffffffffffffff1681565b600360009054906101000a900473ffffffffffffffffffffffffffffffffffffffff1681565b600060026001541415610a4e576040517f08c379a000000000000000000000000000000000000000000000000000000000815260040180806020018281038252601f8152602001807f5265656e7472616e637947756172643a207265656e7472616e742063616c6c0081525060200191505060405180910390fd5b60026001819055506000600260009054906101000a900473ffffffffffffffffffffffffffffffffffffffff1673ffffffffffffffffffffffffffffffffffffffff166370a08231306040518263ffffffff1660e01b8152600401808273ffffffffffffffffffffffffffffffffffffffff16815260200191505060206040518083038186803b158015610ae157600080fd5b505afa158015610af5573d6000803e3d6000fd5b505050506040513d6020811015610b0b57600080fd5b810190808051906020019092919050505090506000610b5f6004600e9054906101000a90046dffffffffffffffffffffffffffff166dffffffffffffffffffffffffffff16836110a290919063ffffffff16565b90506000811115610d5f576000600360009054906101000a900473ffffffffffffffffffffffffffffffffffffffff1673ffffffffffffffffffffffffffffffffffffffff166318160ddd6040518163ffffffff1660e01b815260040160206040518083038186803b158015610bd457600080fd5b505afa158015610be8573d6000803e3d6000fd5b505050506040513d6020811015610bfe57600080fd5b810190808051906020019092919050505090506000811115610d26576000610c26838361130c565b90506000610c6982600460009054906101000a90046dffffffffffffffffffffffffffff166dffffffffffffffffffffffffffff1661134b90919063ffffffff16565b9050610c74816110ec565b600460006101000a8154816dffffffffffffffffffffffffffff02191690836dffffffffffffffffffffffffffff160217905550610cef610cea856004600e9054906101000a90046dffffffffffffffffffffffffffff166dffffffffffffffffffffffffffff1661134b90919063ffffffff16565b6110ec565b6004600e6101000a8154816dffffffffffffffffffffffffffff02191690836dffffffffffffffffffffffffffff16021790555050505b7f7de59a92c9386255180c28ede4b61edb9b7b2ac96855ac634151489cef21bad6826040518082815260200191505060405180910390a1505b80925050506001808190555090565b600080600560008473ffffffffffffffffffffffffffffffffffffffff1673ffffffffffffffffffffffffffffffffffffffff16815260200190815260200160002090508060000160009054906101000a90046fffffffffffffffffffffffffffffffff166fffffffffffffffffffffffffffffffff16600460009054906101000a90046dffffffffffffffffffffffffffff166dffffffffffffffffffffffffffff161415610e2257600091505061109d565b6000610e958260000160009054906101000a90046fffffffffffffffffffffffffffffffff166fffffffffffffffffffffffffffffffff16600460009054906101000a90046dffffffffffffffffffffffffffff166dffffffffffffffffffffffffffff166110a290919063ffffffff16565b90506000600360009054906101000a900473ffffffffffffffffffffffffffffffffffffffff1673ffffffffffffffffffffffffffffffffffffffff166370a08231866040518263ffffffff1660e01b8152600401808273ffffffffffffffffffffffffffffffffffffffff16815260200191505060206040518083038186803b158015610f2257600080fd5b505afa158015610f36573d6000803e3d6000fd5b505050506040513d6020811015610f4c57600080fd5b810190808051906020019092919050505090506000610f73610f6e83856113d3565b611412565b90506040518060400160405280600460009054906101000a90046dffffffffffffffffffffffffffff166dffffffffffffffffffffffffffff166fffffffffffffffffffffffffffffffff168152602001610ff5610ff0846fffffffffffffffffffffffffffffffff16886001015461134b90919063ffffffff16565b611412565b6fffffffffffffffffffffffffffffffff16815250600560008873ffffffffffffffffffffffffffffffffffffffff1673ffffffffffffffffffffffffffffffffffffffff16815260200190815260200160002060008201518160000160006101000a8154816fffffffffffffffffffffffffffffffff02191690836fffffffffffffffffffffffffffffffff16021790555060208201518160010155905050809450505050505b919050565b60006110e483836040518060400160405280601e81526020017f536166654d6174683a207375627472616374696f6e206f766572666c6f770000815250611485565b905092915050565b60006e0100000000000000000000000000008210611155576040517f08c379a0000000000000000000000000000000000000000000000000000000008152600401808060200182810382526029815260200180611bab6029913960400191505060405180910390fd5b819050919050565b6000600260015414156111d8576040517f08c379a000000000000000000000000000000000000000000000000000000000815260040180806020018281038252601f8152602001807f5265656e7472616e637947756172643a207265656e7472616e742063616c6c0081525060200191505060405180910390fd5b600260018190555061122d8383600260009054906101000a900473ffffffffffffffffffffffffffffffffffffffff1673ffffffffffffffffffffffffffffffffffffffff166115459092919063ffffffff16565b6001808190555092915050565b6000611245306115e7565b15905090565b611306846323b872dd60e01b858585604051602401808473ffffffffffffffffffffffffffffffffffffffff1681526020018373ffffffffffffffffffffffffffffffffffffffff1681526020018281526020019350505050604051602081830303815290604052907bffffffffffffffffffffffffffffffffffffffffffffffffffffffff19166020820180517bffffffffffffffffffffffffffffffffffffffffffffffffffffffff83818316178352505050506115fa565b50505050565b60008061132a670de0b6b3a7640000856116e990919063ffffffff16565b905061133f838261176f90919063ffffffff16565b90508091505092915050565b6000808284019050838110156113c9576040517f08c379a000000000000000000000000000000000000000000000000000000000815260040180806020018281038252601b8152602001807f536166654d6174683a206164646974696f6e206f766572666c6f77000000000081525060200191505060405180910390fd5b8091505092915050565b6000806113e984846116e990919063ffffffff16565b9050611406670de0b6b3a76400008261176f90919063ffffffff16565b90508091505092915050565b6000700100000000000000000000000000000000821061147d576040517f08c379a0000000000000000000000000000000000000000000000000000000008152600401808060200182810382526029815260200180611b0d6029913960400191505060405180910390fd5b819050919050565b6000838311158290611532576040517f08c379a00000000000000000000000000000000000000000000000000000000081526004018080602001828103825283818151815260200191508051906020019080838360005b838110156114f75780820151818401526020810190506114dc565b50505050905090810190601f1680156115245780820380516001836020036101000a031916815260200191505b509250505060405180910390fd5b5060008385039050809150509392505050565b6115e28363a9059cbb60e01b8484604051602401808373ffffffffffffffffffffffffffffffffffffffff16815260200182815260200192505050604051602081830303815290604052907bffffffffffffffffffffffffffffffffffffffffffffffffffffffff19166020820180517bffffffffffffffffffffffffffffffffffffffffffffffffffffffff83818316178352505050506115fa565b505050565b600080823b905060008111915050919050565b606061165c826040518060400160405280602081526020017f5361666545524332303a206c6f772d6c6576656c2063616c6c206661696c65648152508573ffffffffffffffffffffffffffffffffffffffff166117b99092919063ffffffff16565b90506000815111156116e45780806020019051602081101561167d57600080fd5b81019080805190602001909291905050506116e3576040517f08c379a000000000000000000000000000000000000000000000000000000000815260040180806020018281038252602a815260200180611bd4602a913960400191505060405180910390fd5b5b505050565b6000808314156116fc5760009050611769565b600082840290508284828161170d57fe5b0414611764576040517f08c379a0000000000000000000000000000000000000000000000000000000008152600401808060200182810382526021815260200180611b8a6021913960400191505060405180910390fd5b809150505b92915050565b60006117b183836040518060400160405280601a81526020017f536166654d6174683a206469766973696f6e206279207a65726f0000000000008152506117d1565b905092915050565b60606117c88484600085611897565b90509392505050565b6000808311829061187d576040517f08c379a00000000000000000000000000000000000000000000000000000000081526004018080602001828103825283818151815260200191508051906020019080838360005b83811015611842578082015181840152602081019050611827565b50505050905090810190601f16801561186f5780820380516001836020036101000a031916815260200191505b509250505060405180910390fd5b50600083858161188957fe5b049050809150509392505050565b6060824710156118f2576040517f08c379a0000000000000000000000000000000000000000000000000000000008152600401808060200182810382526026815260200180611b366026913960400191505060405180910390fd5b6118fb856115e7565b61196d576040517f08c379a000000000000000000000000000000000000000000000000000000000815260040180806020018281038252601d8152602001807f416464726573733a2063616c6c20746f206e6f6e2d636f6e747261637400000081525060200191505060405180910390fd5b600060608673ffffffffffffffffffffffffffffffffffffffff1685876040518082805190602001908083835b602083106119bd578051825260208201915060208101905060208303925061199a565b6001836020036101000a03801982511681845116808217855250505050505090500191505060006040518083038185875af1925050503d8060008114611a1f576040519150601f19603f3d011682016040523d82523d6000602084013e611a24565b606091505b5091509150611a34828286611a40565b92505050949350505050565b60608315611a5057829050611b05565b600083511115611a635782518084602001fd5b816040517f08c379a00000000000000000000000000000000000000000000000000000000081526004018080602001828103825283818151815260200191508051906020019080838360005b83811015611aca578082015181840152602081019050611aaf565b50505050905090810190601f168015611af75780820380516001836020036101000a031916815260200191505b509250505060405180910390fd5b939250505056fe53616665436173743a2076616c756520646f65736e27742066697420696e20616e2075696e74313238416464726573733a20696e73756666696369656e742062616c616e636520666f722063616c6c496e697469616c697a61626c653a20636f6e747261637420697320616c726561647920696e697469616c697a6564536166654d6174683a206d756c7469706c69636174696f6e206f766572666c6f7753616665436173743a2076616c756520646f65736e27742066697420696e20616e2075696e743131325361666545524332303a204552433230206f7065726174696f6e20646964206e6f742073756363656564a26469706673582212203f5e14fa7fe5e9a035dbea91bf3746ffc6663372670e84293818361941b4241864736f6c63430007000033",
  "devdoc": {
    "author": "Kames Geraghty",
    "details": "The PodFactory creates/initializes TokenDrop smart contract. The factory will generally be called from the PodFactory smart contract directly.",
    "kind": "dev",
    "methods": {
      "constructor": {
        "details": "Initializes the Factory with a TokenDrop instance."
      }
    },
    "title": "TokenDropFactory (ProxyFactory) - Clones a TokenDrop Instance",
    "version": 1
  },
  "userdoc": {
    "kind": "user",
    "methods": {
      "constructor": {
        "notice": "Initializes the TokenDropFactory."
      },
      "create(address,address)": {
        "notice": "Create a TokenDrop smart contract"
      },
      "tokenDropInstance()": {
        "notice": "Contract template for deploying proxied Comptrollers"
      }
    },
    "notice": "Create a TokenDrop smart contract, which is associated with Pod smart contract for distribution of an asset token (i.e. POOL).",
    "version": 1
  },
  "storageLayout": {
    "storage": [
      {
        "astId": 4243,
        "contract": "contracts/TokenDropFactory.sol:TokenDropFactory",
        "label": "tokenDropInstance",
        "offset": 0,
        "slot": "0",
        "type": "t_contract(TokenDrop)4232"
      }
    ],
    "types": {
      "t_contract(TokenDrop)4232": {
        "encoding": "inplace",
        "label": "contract TokenDrop",
        "numberOfBytes": "20"
      }
    }
  }
}